{"project/contracts/IdentityRegistry.sol":{"IdentityRegistry":{"abi":[{"inputs":[],"stateMutability":"nonpayable","type":"constructor"},{"inputs":[],"name":"BootstrapAlreadyComplete","type":"error"},{"inputs":[],"name":"BootstrapNotComplete","type":"error"},{"inputs":[{"internalType":"bytes32","name":"credentialId","type":"bytes32"}],"name":"CredentialAlreadyRevoked","type":"error"},{"inputs":[{"internalType":"string","name":"did","type":"string"}],"name":"DIDAlreadyExists","type":"error"},{"inputs":[{"internalType":"string","name":"did","type":"string"}],"name":"DIDNotActive","type":"error"},{"inputs":[{"internalType":"string","name":"did","type":"string"}],"name":"DIDNotFound","type":"error"},{"inputs":[{"internalType":"string","name":"reason","type":"string"}],"name":"InvalidInput","type":"error"},{"inputs":[{"internalType":"string","name":"reason","type":"string"}],"name":"InvalidScope","type":"error"},{"inputs":[{"internalType":"string","name":"reason","type":"string"}],"name":"NotAuthorized","type":"error"},{"inputs":[{"internalType":"address","name":"caller","type":"address"}],"name":"NotOwner","type":"error"},{"inputs":[{"internalType":"address","name":"owner","type":"address"}],"name":"OwnerAlreadyRegistered","type":"error"},{"anonymous":false,"inputs":[{"indexed":true,"internalType":"address","name":"deployer","type":"address"},{"indexed":false,"internalType":"uint256","name":"paCount","type":"uint256"},{"indexed":false,"internalType":"uint256","name":"auditorCount","type":"uint256"},{"indexed":false,"internalType":"uint256","name":"timestamp","type":"uint256"}],"name":"BootstrapFinalized","type":"event"},{"anonymous":false,"inputs":[{"indexed":true,"internalType":"bytes32","name":"credentialId","type":"bytes32"},{"indexed":false,"internalType":"string","name":"revokedByDID","type":"string"},{"indexed":false,"internalType":"uint256","name":"timestamp","type":"uint256"}],"name":"CredentialRevoked","type":"event"},{"anonymous":false,"inputs":[{"indexed":true,"internalType":"address","name":"owner","type":"address"},{"indexed":false,"internalType":"string","name":"did","type":"string"},{"indexed":false,"internalType":"enum IdentityRegistry.Role","name":"role","type":"uint8"},{"indexed":false,"internalType":"string","name":"registeredBy","type":"string"},{"indexed":false,"internalType":"uint256","name":"timestamp","type":"uint256"}],"name":"DIDRegistered","type":"event"},{"anonymous":false,"inputs":[{"indexed":true,"internalType":"address","name":"owner","type":"address"},{"indexed":false,"internalType":"string","name":"did","type":"string"},{"indexed":false,"internalType":"uint256","name":"timestamp","type":"uint256"}],"name":"DIDRevoked","type":"event"},{"anonymous":false,"inputs":[{"indexed":true,"internalType":"address","name":"governance","type":"address"},{"indexed":false,"internalType":"uint256","name":"timestamp","type":"uint256"}],"name":"GovernanceContractSet","type":"event"},{"anonymous":false,"inputs":[{"indexed":true,"internalType":"address","name":"owner","type":"address"},{"indexed":false,"internalType":"string","name":"did","type":"string"},{"indexed":false,"internalType":"uint256","name":"timestamp","type":"uint256"}],"name":"KeyRotated","type":"event"},{"inputs":[],"name":"activeAuditorCount","outputs":[{"internalType":"uint256","name":"","type":"uint256"}],"stateMutability":"view","type":"function"},{"inputs":[],"name":"activePACount","outputs":[{"internalType":"uint256","name":"","type":"uint256"}],"stateMutability":"view","type":"function"},{"inputs":[],"name":"finalizeBootstrap","outputs":[],"stateMutability":"nonpayable","type":"function"},{"inputs":[{"internalType":"bytes32","name":"credentialId","type":"bytes32"}],"name":"getCredentialIssuer","outputs":[{"internalType":"string","name":"","type":"string"}],"stateMutability":"view","type":"function"},{"inputs":[{"internalType":"address","name":"owner","type":"address"}],"name":"getDIDByAddress","outputs":[{"internalType":"string","name":"","type":"string"}],"stateMutability":"view","type":"function"},{"inputs":[{"internalType":"string","name":"did","type":"string"}],"name":"isActive","outputs":[{"internalType":"bool","name":"","type":"bool"}],"stateMutability":"view","type":"function"},{"inputs":[],"name":"isBootstrapComplete","outputs":[{"internalType":"bool","name":"","type":"bool"}],"stateMutability":"view","type":"function"},{"inputs":[{"internalType":"bytes32","name":"credentialId","type":"bytes32"}],"name":"isCredentialRevoked","outputs":[{"internalType":"bool","name":"","type":"bool"}],"stateMutability":"view","type":"function"},{"inputs":[{"internalType":"string","name":"did","type":"string"},{"internalType":"bytes","name":"publicKey","type":"bytes"},{"internalType":"address","name":"owner","type":"address"},{"internalType":"bytes32","name":"credentialId","type":"bytes32"}],"name":"registerAuditor","outputs":[],"stateMutability":"nonpayable","type":"function"},{"inputs":[{"internalType":"string","name":"did","type":"string"},{"internalType":"bytes","name":"publicKey","type":"bytes"},{"internalType":"address","name":"owner","type":"address"},{"internalType":"enum IdentityRegistry.Role","name":"role","type":"uint8"},{"internalType":"uint256","name":"expiresAt","type":"uint256"},{"internalType":"enum IdentityRegistry.Domain[]","name":"scope","type":"uint8[]"},{"internalType":"bytes32","name":"credentialId","type":"bytes32"}],"name":"registerDelegated","outputs":[],"stateMutability":"nonpayable","type":"function"},{"inputs":[{"internalType":"string","name":"did","type":"string"},{"internalType":"bytes","name":"publicKey","type":"bytes"},{"internalType":"address","name":"owner","type":"address"}],"name":"registerNewAuditor","outputs":[],"stateMutability":"nonpayable","type":"function"},{"inputs":[{"internalType":"string","name":"did","type":"string"},{"internalType":"bytes","name":"publicKey","type":"bytes"},{"internalType":"address","name":"owner","type":"address"}],"name":"registerNewPA","outputs":[],"stateMutability":"nonpayable","type":"function"},{"inputs":[{"internalType":"string","name":"did","type":"string"},{"internalType":"bytes","name":"publicKey","type":"bytes"},{"internalType":"address","name":"owner","type":"address"}],"name":"registerPA","outputs":[],"stateMutability":"nonpayable","type":"function"},{"inputs":[{"internalType":"string","name":"oldPADID","type":"string"},{"internalType":"string","name":"newPADID","type":"string"},{"internalType":"bytes","name":"newPublicKey","type":"bytes"},{"internalType":"address","name":"newOwner","type":"address"}],"name":"replacePAByGovernance","outputs":[],"stateMutability":"nonpayable","type":"function"},{"inputs":[{"internalType":"string","name":"did","type":"string"}],"name":"resolve","outputs":[{"components":[{"internalType":"address","name":"owner","type":"address"},{"internalType":"bytes","name":"publicKey","type":"bytes"},{"internalType":"bool","name":"active","type":"bool"},{"internalType":"enum IdentityRegistry.DIDType","name":"didType","type":"uint8"},{"internalType":"enum IdentityRegistry.Role","name":"role","type":"uint8"},{"internalType":"enum IdentityRegistry.Domain[]","name":"scope","type":"uint8[]"},{"internalType":"uint256","name":"registeredAt","type":"uint256"},{"internalType":"uint256","name":"updatedAt","type":"uint256"},{"internalType":"string","name":"registeredBy","type":"string"},{"internalType":"uint256","name":"expiresAt","type":"uint256"}],"internalType":"struct IdentityRegistry.DIDDocument","name":"","type":"tuple"}],"stateMutability":"view","type":"function"},{"inputs":[{"internalType":"string","name":"did","type":"string"}],"name":"revokeByGovernance","outputs":[],"stateMutability":"nonpayable","type":"function"},{"inputs":[{"internalType":"bytes32","name":"credentialId","type":"bytes32"}],"name":"revokeCredential","outputs":[],"stateMutability":"nonpayable","type":"function"},{"inputs":[{"internalType":"string","name":"did","type":"string"}],"name":"revokeDID","outputs":[],"stateMutability":"nonpayable","type":"function"},{"inputs":[{"internalType":"string","name":"did","type":"string"},{"internalType":"bytes","name":"newPublicKey","type":"bytes"}],"name":"rotateKey","outputs":[],"stateMutability":"nonpayable","type":"function"},{"inputs":[{"internalType":"address","name":"governance","type":"address"}],"name":"setGovernanceContract","outputs":[],"stateMutability":"nonpayable","type":"function"}],"evm":{"bytecode":{"linkReferences":{},"object":"6080604052348015600e575f5ffd5b50600780546001600160a01b03191633179055613ca58061002e5f395ff3fe608060405234801561000f575f5ffd5b5060043610610126575f3560e01c80638985d278116100a9578063c8902a211161006e578063c8902a211461026f578063ca6eec7814610282578063cfe3b34714610295578063d432e8bb146102a8578063f737ea7d146102bb575f5ffd5b80638985d2781461020e57806395f9250d14610221578063a0eb75d814610241578063b5c64ae714610254578063b5d8130914610267575f5ffd5b806339b3aad2116100ef57806339b3aad2146101a3578063461a4478146101b6578063570b0bd2146101d657806374e47342146101e9578063795a2d1a146101fc575f5ffd5b8062cf86681461012a57806306c7e131146101615780631129753f1461016b5780631d2626f71461017e578063381d233214610190575b5f5ffd5b61014c6101383660046131bd565b5f9081526002602052604090205460ff1690565b60405190151581526020015b60405180910390f35b6101696102ce565b005b6101696101793660046131ef565b61048d565b600754600160a01b900460ff1661014c565b61016961019e366004613253565b610585565b6101696101b13660046132db565b610655565b6101c96101c4366004613359565b6106e1565b6040516101589190613448565b6101696101e43660046132db565b610a0c565b6101696101f7366004613359565b610a91565b6004545b604051908152602001610158565b61016961021c366004613563565b610ed6565b61023461022f3660046131ef565b6115e7565b604051610158919061363a565b61016961024f3660046132db565b611690565b61016961026236600461364c565b611713565b600554610200565b61014c61027d366004613359565b611bca565b6101696102903660046131bd565b611c4a565b6101696102a3366004613359565b611f19565b6102346102b63660046131bd565b61229b565b6101696102c93660046136f8565b6122b7565b600754600160a01b900460ff16156102f9576040516351e5a70160e11b815260040160405180910390fd5b6007546001600160a01b0316331461032d5760405163eb1cd1d160e01b815260040161032490613762565b60405180910390fd5b6004805410156103785760405163d647364f60e01b81526020600482015260156024820152744d696e696d6f20342050412072696368696573746560581b6044820152606401610324565b600260055410156103cc5760405163d647364f60e01b815260206004820152601a60248201527f4d696e696d6f20322041756469746f72207269636869657374690000000000006044820152606401610324565b6006546001600160a01b03166104255760405163d647364f60e01b815260206004820181905260248201527f476f7665726e616e6365436f6e7472616374206e6f6e20696d706f737461746f6044820152606401610324565b6007805460ff60a01b198116600160a01b179091556004546005546040805192835260208301919091524282820152516001600160a01b03909216917fafac707b2381df55733fbe3bab9a75892b20437548a726237124ffaa78e453b99181900360600190a2565b600754600160a01b900460ff16156104b8576040516351e5a70160e11b815260040160405180910390fd5b6007546001600160a01b031633146104e35760405163eb1cd1d160e01b815260040161032490613762565b6001600160a01b0381166105315760405163d647364f60e01b8152602060048201526014602482015273496e646972697a7a6f206e6f6e2076616c69646f60601b6044820152606401610324565b600680546001600160a01b0319166001600160a01b0383169081179091556040514281527f4bc5327e40eedb632de91eca6002c43fa05aafbb8693def34a712935e47c57489060200160405180910390a250565b600754600160a01b900460ff16156105b0576040516351e5a70160e11b815260040160405180910390fd5b6007546001600160a01b031633146105db5760405163eb1cd1d160e01b815260040161032490613762565b61060886868686866040518060400160405280600781526020016667656e6573697360c81b8152506125c3565b801561064d576040518060400160405280600781526020016667656e6573697360c81b81525060035f8381526020019081526020015f20908161064b919061383c565b505b505050505050565b600754600160a01b900460ff1661067f576040516359de1bb360e01b815260040160405180910390fd5b6006546001600160a01b031633146106aa5760405163eb1cd1d160e01b8152600401610324906138f6565b6106da85858585856040518060400160405280600a815260200169676f7665726e616e636560b01b8152506128d4565b5050505050565b61073360408051610140810182525f808252606060208301819052928201819052909182019081526020015f8152602001606081526020015f81526020015f8152602001606081526020015f81525090565b5f6001600160a01b03165f848460405161074e92919061392d565b908152604051908190036020019020546001600160a01b031603610789578282604051630d28a9eb60e01b8152600401610324929190613964565b5f838360405161079a92919061392d565b908152604080519182900360209081018320610140840190925281546001600160a01b03168352600182018054918401916107d4906137bb565b80601f0160208091040260200160405190810160405280929190818152602001828054610800906137bb565b801561084b5780601f106108225761010080835404028352916020019161084b565b820191905f5260205f20905b81548152906001019060200180831161082e57829003601f168201915b5050509183525050600282015460ff80821615156020840152604090920191610100909104166001811115610882576108826133c5565b6001811115610893576108936133c5565b81526020016002820160029054906101000a900460ff1660058111156108bb576108bb6133c5565b60058111156108cc576108cc6133c5565b81526020016003820180548060200260200160405190810160405280929190818152602001828054801561094c57602002820191905f5260205f20905f905b82829054906101000a900460ff16600281111561092a5761092a6133c5565b81526020600192830181810494850194909303909202910180841161090b5790505b505050505081526020016004820154815260200160058201548152602001600682018054610979906137bb565b80601f01602080910402602001604051908101604052809291908181526020018280546109a5906137bb565b80156109f05780601f106109c7576101008083540402835291602001916109f0565b820191905f5260205f20905b8154815290600101906020018083116109d357829003601f168201915b5050505050815260200160078201548152505090505b92915050565b600754600160a01b900460ff16610a36576040516359de1bb360e01b815260040160405180910390fd5b6006546001600160a01b03163314610a615760405163eb1cd1d160e01b8152600401610324906138f6565b6106da85858585856040518060400160405280600a815260200169676f7665726e616e636560b01b8152506125c3565b600754600160a01b900460ff16610abb576040516359de1bb360e01b815260040160405180910390fd5b6006546001600160a01b03163314610ae65760405163eb1cd1d160e01b8152600401610324906138f6565b81815f6001600160a01b03165f8383604051610b0392919061392d565b908152604051908190036020019020546001600160a01b031603610b3e578181604051630d28a9eb60e01b8152600401610324929190613964565b5f8282604051610b4f92919061392d565b9081526040519081900360200190206002015460ff16610b86578181604051634c3ad83f60e11b8152600401610324929190613964565b5f5f8383604051610b9892919061392d565b908152602001604051809103902060070154118015610bd857505f8282604051610bc392919061392d565b90815260200160405180910390206007015442115b15610bfa578181604051634c3ad83f60e11b8152600401610324929190613964565b5f5f8585604051610c0c92919061392d565b90815260405190819003602001902090505f600282015462010000900460ff166005811115610c3d57610c3d6133c5565b14158015610c6a57506003600282015462010000900460ff166005811115610c6757610c676133c5565b14155b15610cc25760405163eb1cd1d160e01b815260206004820152602160248201527f46756e7a696f6e6520726973657276617461206120504120652041756469746f6044820152603960f91b6064820152608401610324565b5f600282015462010000900460ff166005811115610ce257610ce26133c5565b148015610cf157506004805411155b15610d715760405163eb1cd1d160e01b815260206004820152604360248201527f496d706f73736962696c65207363656e6465726520736f74746f20342050412060448201527f6174746976653a207573617265207265706c61636550414279476f7665726e616064820152626e636560e81b608482015260a401610324565b6003600282015462010000900460ff166005811115610d9257610d926133c5565b148015610da25750600260055411155b15610e045760405163eb1cd1d160e01b815260206004820152602b60248201527f496d706f73736962696c65207363656e6465726520736f74746f20322041756460448201526a69746f722061747469766960a81b6064820152608401610324565b60028101805460ff191690555f600282015462010000900460ff166005811115610e3057610e306133c5565b03610e4a5760048054905f610e4483613993565b91905055505b6003600282015462010000900460ff166005811115610e6b57610e6b6133c5565b03610e855760058054905f610e7f83613993565b91905055505b80546040516001600160a01b03909116907f6c782fa2efe4a1b46c843eef0a37c6efa84226e8fc430cfbdb950ee786d8e06690610ec7908890889042906139a8565b60405180910390a25050505050565b600754600160a01b900460ff16610f00576040516359de1bb360e01b815260040160405180910390fd5b5f899003610f3d5760405163d647364f60e01b81526020600482015260096024820152684449442076756f746f60b81b6044820152606401610324565b5f879003610f865760405163d647364f60e01b815260206004820152601560248201527443686961766520707562626c6963612076756f746160581b6044820152606401610324565b6001600160a01b038616610fd05760405163d647364f60e01b815260206004820152601060248201526f4f776e6572206e6f6e2076616c69646f60801b6044820152606401610324565b5f6001600160a01b03165f8b8b604051610feb92919061392d565b908152604051908190036020019020546001600160a01b0316146110265789896040516334239c1360e01b8152600401610324929190613964565b6001600160a01b0386165f9081526001602052604081208054611048906137bb565b905011156110745760405163533d87dd60e01b81526001600160a01b0387166004820152602401610324565b806110c25760405163d647364f60e01b815260206004820152601d60248201527f63726564656e7469616c4964207a65726f206e6f6e20616d6d6573736f0000006044820152606401610324565b5f81815260036020526040902080546110da906137bb565b15905061112a5760405163d647364f60e01b815260206004820152601b60248201527f63726564656e7469616c496420676961207265676973747261746f00000000006044820152606401610324565b335f9081526001602052604081208054611143906137bb565b80601f016020809104026020016040519081016040528092919081815260200182805461116f906137bb565b80156111ba5780601f10611191576101008083540402835291602001916111ba565b820191905f5260205f20905b81548152906001019060200180831161119d57829003601f168201915b5050505050905080515f036111e25760405163eb1cd1d160e01b8152600401610324906139cb565b5f5f826040516111f29190613a02565b908152604051908190036020019020600281015490915060ff16158061122957505f81600701541180156112295750806007015442115b156112495781604051634c3ad83f60e11b8152600401610324919061363a565b60028101546112639062010000900460ff16888787612ae9565b5f6004886005811115611278576112786133c5565b148061129557506005886005811115611293576112936133c5565b145b15611308575060018615806112aa5750428711155b156113035760405163d647364f60e01b815260206004820152602260248201527f4141206520455620726963686965646f6e6f2073636164656e7a612066757475604482015261726160f01b6064820152608401610324565b611365565b505f86156113655760405163d647364f60e01b815260206004820152602360248201527f5050206520444547206e6f6e20706f73736f6e6f2061766572652073636164656044820152626e7a6160e81b6064820152608401610324565b6040518061014001604052808a6001600160a01b031681526020018c8c8080601f0160208091040260200160405190810160405280939291908181526020018383808284375f9201919091525050509082525060016020820181905260409091019083908111156113d8576113d86133c5565b81526020018960058111156113ef576113ef6133c5565b81526020018787808060200260200160405190810160405280939291908181526020018383602002808284375f81840152601f19601f820116905080830192505050505050508152602001428152602001428152602001848152602001888152505f8e8e60405161146192919061392d565b90815260405160209181900382019020825181546001600160a01b0319166001600160a01b039091161781559082015160018201906114a0908261383c565b50604082015160028201805491151560ff1983168117825560608501519261ff001990911661ffff19909116176101008360018111156114e2576114e26133c5565b0217905550608082015160028201805462ff000019166201000083600581111561150e5761150e6133c5565b021790555060a0820151805161152e9160038401916020909101906130c0565b5060c0820151600482015560e082015160058201556101008201516006820190611558908261383c565b5061012091909101516007909101556001600160a01b0389165f9081526001602052604090206115898d8f83613a18565b505f8481526003602052604090206115a1848261383c565b50886001600160a01b03165f516020613c505f395f51905f528e8e8b87426040516115d0959493929190613ad1565b60405180910390a250505050505050505050505050565b6001600160a01b0381165f90815260016020526040902080546060919061160d906137bb565b80601f0160208091040260200160405190810160405280929190818152602001828054611639906137bb565b80156116845780601f1061165b57610100808354040283529160200191611684565b820191905f5260205f20905b81548152906001019060200180831161166757829003601f168201915b50505050509050919050565b600754600160a01b900460ff16156116bb576040516351e5a70160e11b815260040160405180910390fd5b6007546001600160a01b031633146116e65760405163eb1cd1d160e01b815260040161032490613762565b6106da85858585856040518060400160405280600781526020016667656e6573697360c81b8152506128d4565b600754600160a01b900460ff1661173d576040516359de1bb360e01b815260040160405180910390fd5b6006546001600160a01b031633146117685760405163eb1cd1d160e01b8152600401610324906138f6565b86865f6001600160a01b03165f838360405161178592919061392d565b908152604051908190036020019020546001600160a01b0316036117c0578181604051630d28a9eb60e01b8152600401610324929190613964565b5f82826040516117d192919061392d565b9081526040519081900360200190206002015460ff16611808578181604051634c3ad83f60e11b8152600401610324929190613964565b5f5f838360405161181a92919061392d565b90815260200160405180910390206007015411801561185a57505f828260405161184592919061392d565b90815260200160405180910390206007015442115b1561187c578181604051634c3ad83f60e11b8152600401610324929190613964565b5f5f8a8a60405161188e92919061392d565b90815260405190819003602001902090505f600282015462010000900460ff1660058111156118bf576118bf6133c5565b1461191d5760405163eb1cd1d160e01b815260206004820152602760248201527f496c2044494420646120736f737469747569726520646576652065737365726560448201526620756e6120504160c81b6064820152608401610324565b60028101805460ff1916905580546001600160a01b03165f90815260016020526040812061194a9161316f565b80546040516001600160a01b03909116907f6c782fa2efe4a1b46c843eef0a37c6efa84226e8fc430cfbdb950ee786d8e0669061198c908d908d9042906139a8565b60405180910390a26119a18888888888612f4c565b604080515f8152610160810182526001600160a01b03861660208083019182528351601f8a0182900482028101820185528981529293919291840191908a908a90819084018382808284375f9201829052509385525050600160208401525060409091019081526020015f81526020018281526020014281526020014281526020016040518060400160405280600a815260200169676f7665726e616e636560b01b81525081526020015f8152505f8a8a604051611a6092919061392d565b90815260405160209181900382019020825181546001600160a01b0319166001600160a01b03909116178155908201516001820190611a9f908261383c565b50604082015160028201805491151560ff1983168117825560608501519261ff001990911661ffff1990911617610100836001811115611ae157611ae16133c5565b0217905550608082015160028201805462ff0000191662010000836005811115611b0d57611b0d6133c5565b021790555060a08201518051611b2d9160038401916020909101906130c0565b5060c0820151600482015560e082015160058201556101008201516006820190611b57908261383c565b5061012091909101516007909101556001600160a01b0385165f908152600160205260409020611b88898b83613a18565b50846001600160a01b03165f516020613c505f395f51905f528a8a5f42604051611bb59493929190613b16565b60405180910390a25050505050505050505050565b5f5f5f8484604051611bdd92919061392d565b90815260405190819003602001902080549091506001600160a01b0316611c07575f915050610a06565b600281015460ff16611c1c575f915050610a06565b5f8160070154118015611c325750806007015442115b15611c40575f915050610a06565b5060019392505050565b600754600160a01b900460ff16611c74576040516359de1bb360e01b815260040160405180910390fd5b5f8181526002602052604090205460ff1615611ca65760405163aac64f4560e01b815260048101829052602401610324565b5f8181526003602052604090208054611cbe906137bb565b90505f03611d0f5760405163d647364f60e01b815260206004820152601b60248201527f63726564656e7469616c4964206e6f6e207265676973747261746f00000000006044820152606401610324565b335f9081526001602052604081208054611d28906137bb565b80601f0160208091040260200160405190810160405280929190818152602001828054611d54906137bb565b8015611d9f5780601f10611d7657610100808354040283529160200191611d9f565b820191905f5260205f20905b815481529060010190602001808311611d8257829003601f168201915b5050505050905080515f03611dc75760405163eb1cd1d160e01b8152600401610324906139cb565b5f5f82604051611dd79190613a02565b908152604051908190036020019020600281015490915060ff161580611e0e57505f8160070154118015611e0e5750806007015442115b15611e2e5781604051634c3ad83f60e11b8152600401610324919061363a565b818051906020012060035f8581526020019081526020015f20604051611e549190613bd9565b604051809103902014611ec05760405163eb1cd1d160e01b815260206004820152602d60248201527f536f6c6f206c276973737565722070756f207265766f6361726520717565737460448201526c612063726564656e7a69616c6560981b6064820152608401610324565b5f8381526002602052604090819020805460ff191660011790555183907fc33ff9944a652db4ef83cbd6e3ba64d7a75fc0860e2322e66a587a681094874690611f0c9085904290613be4565b60405180910390a2505050565b600754600160a01b900460ff16611f43576040516359de1bb360e01b815260040160405180910390fd5b5f5f8383604051611f5592919061392d565b90815260405190819003602001902080549091506001600160a01b0316611f93578282604051630d28a9eb60e01b8152600401610324929190613964565b600281015460ff16611fbc578282604051634c3ad83f60e11b8152600401610324929190613964565b5f600282015462010000900460ff166005811115611fdc57611fdc6133c5565b148061200657506003600282015462010000900460ff166005811115612004576120046133c5565b145b156120665760405163eb1cd1d160e01b815260206004820152602960248201527f504120652041756469746f7220726963686965646f6e6f2064656c696265726160448201526820612071756f72756d60b81b6064820152608401610324565b335f908152600160205260408120805461207f906137bb565b80601f01602080910402602001604051908101604052809291908181526020018280546120ab906137bb565b80156120f65780601f106120cd576101008083540402835291602001916120f6565b820191905f5260205f20905b8154815290600101906020018083116120d957829003601f168201915b5050505050905080515f0361211e5760405163eb1cd1d160e01b8152600401610324906139cb565b5f5f8260405161212e9190613a02565b908152604051908190036020019020600281015490915060ff16158061216557505f81600701541180156121655750806007015442115b156121855781604051634c3ad83f60e11b8152600401610324919061363a565b8151602083012060405161219d906006860190613bd9565b6040518091039020146122075760405163eb1cd1d160e01b815260206004820152602b60248201527f536f6c6f20696c2072656769737472616e74652070756f207265766f6361726560448201526a081c5d595cdd1bc811125160aa1b6064820152608401610324565b60028301805460ff1916905560016002840154610100900460ff166001811115612233576122336133c5565b036122595782546001600160a01b03165f9081526001602052604081206122599161316f565b82546040516001600160a01b03909116907f6c782fa2efe4a1b46c843eef0a37c6efa84226e8fc430cfbdb950ee786d8e06690610ec7908890889042906139a8565b5f81815260036020526040902080546060919061160d906137bb565b600754600160a01b900460ff166122e1576040516359de1bb360e01b815260040160405180910390fd5b83835f6001600160a01b03165f83836040516122fe92919061392d565b908152604051908190036020019020546001600160a01b031603612339578181604051630d28a9eb60e01b8152600401610324929190613964565b5f828260405161234a92919061392d565b9081526040519081900360200190206002015460ff16612381578181604051634c3ad83f60e11b8152600401610324929190613964565b5f5f838360405161239392919061392d565b9081526020016040518091039020600701541180156123d357505f82826040516123be92919061392d565b90815260200160405180910390206007015442115b156123f5578181604051634c3ad83f60e11b8152600401610324929190613964565b336001600160a01b03165f878760405161241092919061392d565b908152604051908190036020019020546001600160a01b0316146124495760405163245aecd360e01b8152336004820152602401610324565b5f8390036124895760405163d647364f60e01b815260206004820152600c60248201526b4368696176652076756f746160a01b6044820152606401610324565b838360405161249992919061392d565b60405180910390205f87876040516124b292919061392d565b90815260200160405180910390206001016040516124d09190613bd9565b6040518091039020036125265760405163d647364f60e01b815260206004820152601f60248201527f436869617665206964656e7469636120616c6c6120707265636564656e7465006044820152606401610324565b83835f888860405161253992919061392d565b90815260200160405180910390206001019182612557929190613a18565b50425f878760405161256a92919061392d565b9081526040519081900360200181206005019190915533907fc44872be63ee637057663207998577415180c78a724774dd6b53e3102cbbad22906125b3908990899042906139a8565b60405180910390a2505050505050565b6125d08686868686612f4c565b604080516003808252608082019092525f91602082016060803683370190505090505f815f8151811061260557612605613c05565b6020026020010190600281111561261e5761261e6133c5565b90816002811115612631576126316133c5565b8152505060018160018151811061264a5761264a613c05565b60200260200101906002811115612663576126636133c5565b90816002811115612676576126766133c5565b8152505060028160028151811061268f5761268f613c05565b602002602001019060028111156126a8576126a86133c5565b908160028111156126bb576126bb6133c5565b81525050604051806101400160405280846001600160a01b0316815260200186868080601f0160208091040260200160405190810160405280939291908181526020018383808284375f920182905250938552505060016020840152506040909101908152602001600381526020018281526020014281526020014281526020018381526020015f8152505f888860405161275792919061392d565b90815260405160209181900382019020825181546001600160a01b0319166001600160a01b03909116178155908201516001820190612796908261383c565b50604082015160028201805491151560ff1983168117825560608501519261ff001990911661ffff19909116176101008360018111156127d8576127d86133c5565b0217905550608082015160028201805462ff0000191662010000836005811115612804576128046133c5565b021790555060a082015180516128249160038401916020909101906130c0565b5060c0820151600482015560e08201516005820155610100820151600682019061284e908261383c565b5061012091909101516007909101556001600160a01b0383165f90815260016020526040902061287f878983613a18565b5060058054905f61288f83613c19565b9190505550826001600160a01b03165f516020613c505f395f51905f528888600386426040516128c3959493929190613ad1565b60405180910390a250505050505050565b6128e18686868686612f4c565b604080515f8152610160810182526001600160a01b03841660208083019182528351601f8801829004820281018201855287815292939192918401919088908890819084018382808284375f9201829052509385525050600160208401525060409091019081526020015f81526020018281526020014281526020014281526020018381526020015f8152505f888860405161297e92919061392d565b90815260405160209181900382019020825181546001600160a01b0319166001600160a01b039091161781559082015160018201906129bd908261383c565b50604082015160028201805491151560ff1983168117825560608501519261ff001990911661ffff19909116176101008360018111156129ff576129ff6133c5565b0217905550608082015160028201805462ff0000191662010000836005811115612a2b57612a2b6133c5565b021790555060a08201518051612a4b9160038401916020909101906130c0565b5060c0820151600482015560e082015160058201556101008201516006820190612a75908261383c565b5061012091909101516007909101556001600160a01b0383165f908152600160205260409020612aa6878983613a18565b5060048054905f612ab683613c19565b9190505550826001600160a01b03165f516020613c505f395f51905f5288885f86426040516128c3959493929190613ad1565b5f846005811115612afc57612afc6133c5565b03612e20576001836005811115612b1557612b156133c5565b14158015612b3557506004836005811115612b3257612b326133c5565b14155b8015612b5357506005836005811115612b5057612b506133c5565b14155b15612ba15760405163eb1cd1d160e01b815260206004820152601f60248201527f50412070756f2064656c656761726520736f6c6f2050502c2041412c204556006044820152606401610324565b6001836005811115612bb557612bb56133c5565b03612d785760038114612c0b57604051632a0f05b960e11b815260206004820152601960248201527f50502064657665207269636576657265203320646f6d696e69000000000000006044820152606401610324565b5f8080805b6003811015612cf4575f868683818110612c2c57612c2c613c05565b9050602002016020810190612c419190613c31565b6002811115612c5257612c526133c5565b03612c605760019350612cec565b6001868683818110612c7457612c74613c05565b9050602002016020810190612c899190613c31565b6002811115612c9a57612c9a6133c5565b03612ca85760019250612cec565b6002868683818110612cbc57612cbc613c05565b9050602002016020810190612cd19190613c31565b6002811115612ce257612ce26133c5565b03612cec57600191505b600101612c10565b50821580612d00575081155b80612d09575080155b15612d7457604051632a0f05b960e11b815260206004820152603460248201527f5050206465766520636f707269726520747574746920652033206920646f6d696044820152736e692073656e7a61207269706574697a696f6e6960601b6064820152608401610324565b5050505b6004836005811115612d8c57612d8c6133c5565b1480612da957506005836005811115612da757612da76133c5565b145b8015612db6575060018114155b15612e1b57604051632a0f05b960e11b815260206004820152602e60248201527f41412065204556206465766f6e6f207269636576657265206573617474616d6560448201526d6e746520756e20646f6d696e696f60901b6064820152608401610324565b612f46565b6001846005811115612e3457612e346133c5565b03612efd576002836005811115612e4d57612e4d6133c5565b14612e9b5760405163eb1cd1d160e01b815260206004820152601860248201527f50502070756f2064656c656761726520736f6c6f2044454700000000000000006044820152606401610324565b60018114612e1b57604051632a0f05b960e11b815260206004820152602860248201527f4445472064657665207269636576657265206573617474616d656e746520756e60448201526720646f6d696e696f60c01b6064820152608401610324565b60405163eb1cd1d160e01b815260206004820181905260248201527f52756f6c6f206e6f6e206175746f72697a7a61746f20612064656c65676172656044820152606401610324565b50505050565b5f849003612f895760405163d647364f60e01b81526020600482015260096024820152684449442076756f746f60b81b6044820152606401610324565b5f829003612fd25760405163d647364f60e01b815260206004820152601560248201527443686961766520707562626c6963612076756f746160581b6044820152606401610324565b6001600160a01b03811661301c5760405163d647364f60e01b815260206004820152601060248201526f4f776e6572206e6f6e2076616c69646f60801b6044820152606401610324565b5f6001600160a01b03165f868660405161303792919061392d565b908152604051908190036020019020546001600160a01b0316146130725784846040516334239c1360e01b8152600401610324929190613964565b6001600160a01b0381165f9081526001602052604081208054613094906137bb565b905011156106da5760405163533d87dd60e01b81526001600160a01b0382166004820152602401610324565b828054828255905f5260205f2090601f0160209004810192821561315f579160200282015f5b8382111561313157835183826101000a81548160ff02191690836002811115613111576131116133c5565b021790555092602001926001016020815f010492830192600103026130e6565b801561315d5782816101000a81549060ff02191690556001016020815f01049283019260010302613131565b505b5061316b9291506131a9565b5090565b50805461317b906137bb565b5f825580601f1061318a575050565b601f0160209004905f5260205f20908101906131a691906131a9565b50565b5b8082111561316b575f81556001016131aa565b5f602082840312156131cd575f5ffd5b5035919050565b80356001600160a01b03811681146131ea575f5ffd5b919050565b5f602082840312156131ff575f5ffd5b613208826131d4565b9392505050565b5f5f83601f84011261321f575f5ffd5b5081356001600160401b03811115613235575f5ffd5b60208301915083602082850101111561324c575f5ffd5b9250929050565b5f5f5f5f5f5f60808789031215613268575f5ffd5b86356001600160401b0381111561327d575f5ffd5b61328989828a0161320f565b90975095505060208701356001600160401b038111156132a7575f5ffd5b6132b389828a0161320f565b90955093506132c69050604088016131d4565b95989497509295919493606090920135925050565b5f5f5f5f5f606086880312156132ef575f5ffd5b85356001600160401b03811115613304575f5ffd5b6133108882890161320f565b90965094505060208601356001600160401b0381111561332e575f5ffd5b61333a8882890161320f565b909450925061334d9050604087016131d4565b90509295509295909350565b5f5f6020838503121561336a575f5ffd5b82356001600160401b0381111561337f575f5ffd5b61338b8582860161320f565b90969095509350505050565b5f81518084528060208401602086015e5f602082860101526020601f19601f83011685010191505092915050565b634e487b7160e01b5f52602160045260245ffd5b600281106133e9576133e96133c5565b9052565b600681106133e9576133e96133c5565b5f8151808452602084019350602083015f5b8281101561343e57815160038110613429576134296133c5565b8652602095860195919091019060010161340f565b5093949350505050565b602081526134626020820183516001600160a01b03169052565b5f6020830151610140604084015261347e610160840182613397565b90506040840151613493606085018215159052565b5060608401516134a660808501826133d9565b5060808401516134b960a08501826133ed565b5060a0840151838203601f190160c08501526134d582826133fd565b91505060c084015160e084015260e0840151610100840152610100840151601f198483030161012085015261350a8282613397565b9150506101208401516101408401528091505092915050565b5f5f83601f840112613533575f5ffd5b5081356001600160401b03811115613549575f5ffd5b6020830191508360208260051b850101111561324c575f5ffd5b5f5f5f5f5f5f5f5f5f5f60e08b8d03121561357c575f5ffd5b8a356001600160401b03811115613591575f5ffd5b61359d8d828e0161320f565b909b5099505060208b01356001600160401b038111156135bb575f5ffd5b6135c78d828e0161320f565b90995097506135da905060408c016131d4565b955060608b0135600681106135ed575f5ffd5b945060808b0135935060a08b01356001600160401b0381111561360e575f5ffd5b61361a8d828e01613523565b9b9e9a9d50989b979a96999598949794969560c090950135949350505050565b602081525f6132086020830184613397565b5f5f5f5f5f5f5f6080888a031215613662575f5ffd5b87356001600160401b03811115613677575f5ffd5b6136838a828b0161320f565b90985096505060208801356001600160401b038111156136a1575f5ffd5b6136ad8a828b0161320f565b90965094505060408801356001600160401b038111156136cb575f5ffd5b6136d78a828b0161320f565b90945092506136ea9050606089016131d4565b905092959891949750929550565b5f5f5f5f6040858703121561370b575f5ffd5b84356001600160401b03811115613720575f5ffd5b61372c8782880161320f565b90955093505060208501356001600160401b0381111561374a575f5ffd5b6137568782880161320f565b95989497509550505050565b60208082526025908201527f536f6c6f20696c206465706c6f79657220647572616e746520696c20626f6f74604082015264073747261760dc1b606082015260800190565b634e487b7160e01b5f52604160045260245ffd5b600181811c908216806137cf57607f821691505b6020821081036137ed57634e487b7160e01b5f52602260045260245ffd5b50919050565b601f82111561383757805f5260205f20601f840160051c810160208510156138185750805b601f840160051c820191505b818110156106da575f8155600101613824565b505050565b81516001600160401b03811115613855576138556137a7565b6138698161386384546137bb565b846137f3565b6020601f82116001811461389b575f83156138845750848201515b5f19600385901b1c1916600184901b1784556106da565b5f84815260208120601f198516915b828110156138ca57878501518255602094850194600190920191016138aa565b50848210156138e757868401515f19600387901b60f8161c191681555b50505050600190811b01905550565b60208082526017908201527f536f6c6f20476f7665726e616e6365436f6e7472616374000000000000000000604082015260600190565b818382375f9101908152919050565b81835281816020850137505f828201602090810191909152601f909101601f19169091010190565b602081525f61397760208301848661393c565b949350505050565b634e487b7160e01b5f52601160045260245ffd5b5f816139a1576139a161397f565b505f190190565b604081525f6139bb60408301858761393c565b9050826020830152949350505050565b60208082526018908201527f436869616d616e7465206e6f6e207265676973747261746f0000000000000000604082015260600190565b5f82518060208501845e5f920191825250919050565b6001600160401b03831115613a2f57613a2f6137a7565b613a4383613a3d83546137bb565b836137f3565b5f601f841160018114613a74575f8515613a5d5750838201355b5f19600387901b1c1916600186901b1783556106da565b5f83815260208120601f198716915b82811015613aa35786850135825560209485019460019092019101613a83565b5086821015613abf575f1960f88860031b161c19848701351681555b505060018560011b0183555050505050565b608081525f613ae460808301878961393c565b613af160208401876133ed565b8281036040840152613b038186613397565b9150508260608301529695505050505050565b608081525f613b2960808301868861393c565b613b3660208401866133ed565b8281036040840152600a815269676f7665726e616e636560b01b60208201526040810191505082606083015295945050505050565b5f8154613b77816137bb565b600182168015613b8e5760018114613ba357613bd0565b60ff1983168652811515820286019350613bd0565b845f5260205f205f5b83811015613bc857815488820152600190910190602001613bac565b505081860193505b50505092915050565b5f6132088284613b6b565b604081525f613bf66040830185613397565b90508260208301529392505050565b634e487b7160e01b5f52603260045260245ffd5b5f60018201613c2a57613c2a61397f565b5060010190565b5f60208284031215613c41575f5ffd5b813560038110613208575f5ffdfe93c8e0a7f19f78db09ff31218692089abbc6c34f7d0b2e4dc734da6bc3256ec5a2646970667358221220939d79c52539fe704a72b6be8c632745f6d0b61b57d6f5d1231e0e30b51cd5c864736f6c634300081c0033","opcodes":"PUSH1 0x80 PUSH1 0x40 MSTORE CALLVALUE DUP1 ISZERO PUSH1 0xE JUMPI PUSH0 PUSH0 REVERT JUMPDEST POP PUSH1 0x7 DUP1 SLOAD PUSH1 0x1 PUSH1 0x1 PUSH1 0xA0 SHL SUB NOT AND CALLER OR SWAP1 SSTORE PUSH2 0x3CA5 DUP1 PUSH2 0x2E PUSH0 CODECOPY PUSH0 RETURN INVALID PUSH1 0x80 PUSH1 0x40 MSTORE CALLVALUE DUP1 ISZERO PUSH2 0xF JUMPI PUSH0 PUSH0 REVERT JUMPDEST POP PUSH1 0x4 CALLDATASIZE LT PUSH2 0x126 JUMPI PUSH0 CALLDATALOAD PUSH1 0xE0 SHR DUP1 PUSH4 0x8985D278 GT PUSH2 0xA9 JUMPI DUP1 PUSH4 0xC8902A21 GT PUSH2 0x6E JUMPI DUP1 PUSH4 0xC8902A21 EQ PUSH2 0x26F JUMPI DUP1 PUSH4 0xCA6EEC78 EQ PUSH2 0x282 JUMPI DUP1 PUSH4 0xCFE3B347 EQ PUSH2 0x295 JUMPI DUP1 PUSH4 0xD432E8BB EQ PUSH2 0x2A8 JUMPI DUP1 PUSH4 0xF737EA7D EQ PUSH2 0x2BB JUMPI PUSH0 PUSH0 REVERT JUMPDEST DUP1 PUSH4 0x8985D278 EQ PUSH2 0x20E JUMPI DUP1 PUSH4 0x95F9250D EQ PUSH2 0x221 JUMPI DUP1 PUSH4 0xA0EB75D8 EQ PUSH2 0x241 JUMPI DUP1 PUSH4 0xB5C64AE7 EQ PUSH2 0x254 JUMPI DUP1 PUSH4 0xB5D81309 EQ PUSH2 0x267 JUMPI PUSH0 PUSH0 REVERT JUMPDEST DUP1 PUSH4 0x39B3AAD2 GT PUSH2 0xEF JUMPI DUP1 PUSH4 0x39B3AAD2 EQ PUSH2 0x1A3 JUMPI DUP1 PUSH4 0x461A4478 EQ PUSH2 0x1B6 JUMPI DUP1 PUSH4 0x570B0BD2 EQ PUSH2 0x1D6 JUMPI DUP1 PUSH4 0x74E47342 EQ PUSH2 0x1E9 JUMPI DUP1 PUSH4 0x795A2D1A EQ PUSH2 0x1FC JUMPI PUSH0 PUSH0 REVERT JUMPDEST DUP1 PUSH3 0xCF8668 EQ PUSH2 0x12A JUMPI DUP1 PUSH4 0x6C7E131 EQ PUSH2 0x161 JUMPI DUP1 PUSH4 0x1129753F EQ PUSH2 0x16B JUMPI DUP1 PUSH4 0x1D2626F7 EQ PUSH2 0x17E JUMPI DUP1 PUSH4 0x381D2332 EQ PUSH2 0x190 JUMPI JUMPDEST PUSH0 PUSH0 REVERT JUMPDEST PUSH2 0x14C PUSH2 0x138 CALLDATASIZE PUSH1 0x4 PUSH2 0x31BD JUMP JUMPDEST PUSH0 SWAP1 DUP2 MSTORE PUSH1 0x2 PUSH1 0x20 MSTORE PUSH1 0x40 SWAP1 KECCAK256 SLOAD PUSH1 0xFF AND SWAP1 JUMP JUMPDEST PUSH1 0x40 MLOAD SWAP1 ISZERO ISZERO DUP2 MSTORE PUSH1 0x20 ADD JUMPDEST PUSH1 0x40 MLOAD DUP1 SWAP2 SUB SWAP1 RETURN JUMPDEST PUSH2 0x169 PUSH2 0x2CE JUMP JUMPDEST STOP JUMPDEST PUSH2 0x169 PUSH2 0x179 CALLDATASIZE PUSH1 0x4 PUSH2 0x31EF JUMP JUMPDEST PUSH2 0x48D JUMP JUMPDEST PUSH1 0x7 SLOAD PUSH1 0x1 PUSH1 0xA0 SHL SWAP1 DIV PUSH1 0xFF AND PUSH2 0x14C JUMP JUMPDEST PUSH2 0x169 PUSH2 0x19E CALLDATASIZE PUSH1 0x4 PUSH2 0x3253 JUMP JUMPDEST PUSH2 0x585 JUMP JUMPDEST PUSH2 0x169 PUSH2 0x1B1 CALLDATASIZE PUSH1 0x4 PUSH2 0x32DB JUMP JUMPDEST PUSH2 0x655 JUMP JUMPDEST PUSH2 0x1C9 PUSH2 0x1C4 CALLDATASIZE PUSH1 0x4 PUSH2 0x3359 JUMP JUMPDEST PUSH2 0x6E1 JUMP JUMPDEST PUSH1 0x40 MLOAD PUSH2 0x158 SWAP2 SWAP1 PUSH2 0x3448 JUMP JUMPDEST PUSH2 0x169 PUSH2 0x1E4 CALLDATASIZE PUSH1 0x4 PUSH2 0x32DB JUMP JUMPDEST PUSH2 0xA0C JUMP JUMPDEST PUSH2 0x169 PUSH2 0x1F7 CALLDATASIZE PUSH1 0x4 PUSH2 0x3359 JUMP JUMPDEST PUSH2 0xA91 JUMP JUMPDEST PUSH1 0x4 SLOAD JUMPDEST PUSH1 0x40 MLOAD SWAP1 DUP2 MSTORE PUSH1 0x20 ADD PUSH2 0x158 JUMP JUMPDEST PUSH2 0x169 PUSH2 0x21C CALLDATASIZE PUSH1 0x4 PUSH2 0x3563 JUMP JUMPDEST PUSH2 0xED6 JUMP JUMPDEST PUSH2 0x234 PUSH2 0x22F CALLDATASIZE PUSH1 0x4 PUSH2 0x31EF JUMP JUMPDEST PUSH2 0x15E7 JUMP JUMPDEST PUSH1 0x40 MLOAD PUSH2 0x158 SWAP2 SWAP1 PUSH2 0x363A JUMP JUMPDEST PUSH2 0x169 PUSH2 0x24F CALLDATASIZE PUSH1 0x4 PUSH2 0x32DB JUMP JUMPDEST PUSH2 0x1690 JUMP JUMPDEST PUSH2 0x169 PUSH2 0x262 CALLDATASIZE PUSH1 0x4 PUSH2 0x364C JUMP JUMPDEST PUSH2 0x1713 JUMP JUMPDEST PUSH1 0x5 SLOAD PUSH2 0x200 JUMP JUMPDEST PUSH2 0x14C PUSH2 0x27D CALLDATASIZE PUSH1 0x4 PUSH2 0x3359 JUMP JUMPDEST PUSH2 0x1BCA JUMP JUMPDEST PUSH2 0x169 PUSH2 0x290 CALLDATASIZE PUSH1 0x4 PUSH2 0x31BD JUMP JUMPDEST PUSH2 0x1C4A JUMP JUMPDEST PUSH2 0x169 PUSH2 0x2A3 CALLDATASIZE PUSH1 0x4 PUSH2 0x3359 JUMP JUMPDEST PUSH2 0x1F19 JUMP JUMPDEST PUSH2 0x234 PUSH2 0x2B6 CALLDATASIZE PUSH1 0x4 PUSH2 0x31BD JUMP JUMPDEST PUSH2 0x229B JUMP JUMPDEST PUSH2 0x169 PUSH2 0x2C9 CALLDATASIZE PUSH1 0x4 PUSH2 0x36F8 JUMP JUMPDEST PUSH2 0x22B7 JUMP JUMPDEST PUSH1 0x7 SLOAD PUSH1 0x1 PUSH1 0xA0 SHL SWAP1 DIV PUSH1 0xFF AND ISZERO PUSH2 0x2F9 JUMPI PUSH1 0x40 MLOAD PUSH4 0x51E5A701 PUSH1 0xE1 SHL DUP2 MSTORE PUSH1 0x4 ADD PUSH1 0x40 MLOAD DUP1 SWAP2 SUB SWAP1 REVERT JUMPDEST PUSH1 0x7 SLOAD PUSH1 0x1 PUSH1 0x1 PUSH1 0xA0 SHL SUB AND CALLER EQ PUSH2 0x32D JUMPI PUSH1 0x40 MLOAD PUSH4 0xEB1CD1D1 PUSH1 0xE0 SHL DUP2 MSTORE PUSH1 0x4 ADD PUSH2 0x324 SWAP1 PUSH2 0x3762 JUMP JUMPDEST PUSH1 0x40 MLOAD DUP1 SWAP2 SUB SWAP1 REVERT JUMPDEST PUSH1 0x4 DUP1 SLOAD LT ISZERO PUSH2 0x378 JUMPI PUSH1 0x40 MLOAD PUSH4 0xD647364F PUSH1 0xE0 SHL DUP2 MSTORE PUSH1 0x20 PUSH1 0x4 DUP3 ADD MSTORE PUSH1 0x15 PUSH1 0x24 DUP3 ADD MSTORE PUSH21 0x4D696E696D6F203420504120726963686965737465 PUSH1 0x58 SHL PUSH1 0x44 DUP3 ADD MSTORE PUSH1 0x64 ADD PUSH2 0x324 JUMP JUMPDEST PUSH1 0x2 PUSH1 0x5 SLOAD LT ISZERO PUSH2 0x3CC JUMPI PUSH1 0x40 MLOAD PUSH4 0xD647364F PUSH1 0xE0 SHL DUP2 MSTORE PUSH1 0x20 PUSH1 0x4 DUP3 ADD MSTORE PUSH1 0x1A PUSH1 0x24 DUP3 ADD MSTORE PUSH32 0x4D696E696D6F20322041756469746F7220726963686965737469000000000000 PUSH1 0x44 DUP3 ADD MSTORE PUSH1 0x64 ADD PUSH2 0x324 JUMP JUMPDEST PUSH1 0x6 SLOAD PUSH1 0x1 PUSH1 0x1 PUSH1 0xA0 SHL SUB AND PUSH2 0x425 JUMPI PUSH1 0x40 MLOAD PUSH4 0xD647364F PUSH1 0xE0 SHL DUP2 MSTORE PUSH1 0x20 PUSH1 0x4 DUP3 ADD DUP2 SWAP1 MSTORE PUSH1 0x24 DUP3 ADD MSTORE PUSH32 0x476F7665726E616E6365436F6E7472616374206E6F6E20696D706F737461746F PUSH1 0x44 DUP3 ADD MSTORE PUSH1 0x64 ADD PUSH2 0x324 JUMP JUMPDEST PUSH1 0x7 DUP1 SLOAD PUSH1 0xFF PUSH1 0xA0 SHL NOT DUP2 AND PUSH1 0x1 PUSH1 0xA0 SHL OR SWAP1 SWAP2 SSTORE PUSH1 0x4 SLOAD PUSH1 0x5 SLOAD PUSH1 0x40 DUP1 MLOAD SWAP3 DUP4 MSTORE PUSH1 0x20 DUP4 ADD SWAP2 SWAP1 SWAP2 MSTORE TIMESTAMP DUP3 DUP3 ADD MSTORE MLOAD PUSH1 0x1 PUSH1 0x1 PUSH1 0xA0 SHL SUB SWAP1 SWAP3 AND SWAP2 PUSH32 0xAFAC707B2381DF55733FBE3BAB9A75892B20437548A726237124FFAA78E453B9 SWAP2 DUP2 SWAP1 SUB PUSH1 0x60 ADD SWAP1 LOG2 JUMP JUMPDEST PUSH1 0x7 SLOAD PUSH1 0x1 PUSH1 0xA0 SHL SWAP1 DIV PUSH1 0xFF AND ISZERO PUSH2 0x4B8 JUMPI PUSH1 0x40 MLOAD PUSH4 0x51E5A701 PUSH1 0xE1 SHL DUP2 MSTORE PUSH1 0x4 ADD PUSH1 0x40 MLOAD DUP1 SWAP2 SUB SWAP1 REVERT JUMPDEST PUSH1 0x7 SLOAD PUSH1 0x1 PUSH1 0x1 PUSH1 0xA0 SHL SUB AND CALLER EQ PUSH2 0x4E3 JUMPI PUSH1 0x40 MLOAD PUSH4 0xEB1CD1D1 PUSH1 0xE0 SHL DUP2 MSTORE PUSH1 0x4 ADD PUSH2 0x324 SWAP1 PUSH2 0x3762 JUMP JUMPDEST PUSH1 0x1 PUSH1 0x1 PUSH1 0xA0 SHL SUB DUP2 AND PUSH2 0x531 JUMPI PUSH1 0x40 MLOAD PUSH4 0xD647364F PUSH1 0xE0 SHL DUP2 MSTORE PUSH1 0x20 PUSH1 0x4 DUP3 ADD MSTORE PUSH1 0x14 PUSH1 0x24 DUP3 ADD MSTORE PUSH20 0x496E646972697A7A6F206E6F6E2076616C69646F PUSH1 0x60 SHL PUSH1 0x44 DUP3 ADD MSTORE PUSH1 0x64 ADD PUSH2 0x324 JUMP JUMPDEST PUSH1 0x6 DUP1 SLOAD PUSH1 0x1 PUSH1 0x1 PUSH1 0xA0 SHL SUB NOT AND PUSH1 0x1 PUSH1 0x1 PUSH1 0xA0 SHL SUB DUP4 AND SWAP1 DUP2 OR SWAP1 SWAP2 SSTORE PUSH1 0x40 MLOAD TIMESTAMP DUP2 MSTORE PUSH32 0x4BC5327E40EEDB632DE91ECA6002C43FA05AAFBB8693DEF34A712935E47C5748 SWAP1 PUSH1 0x20 ADD PUSH1 0x40 MLOAD DUP1 SWAP2 SUB SWAP1 LOG2 POP JUMP JUMPDEST PUSH1 0x7 SLOAD PUSH1 0x1 PUSH1 0xA0 SHL SWAP1 DIV PUSH1 0xFF AND ISZERO PUSH2 0x5B0 JUMPI PUSH1 0x40 MLOAD PUSH4 0x51E5A701 PUSH1 0xE1 SHL DUP2 MSTORE PUSH1 0x4 ADD PUSH1 0x40 MLOAD DUP1 SWAP2 SUB SWAP1 REVERT JUMPDEST PUSH1 0x7 SLOAD PUSH1 0x1 PUSH1 0x1 PUSH1 0xA0 SHL SUB AND CALLER EQ PUSH2 0x5DB JUMPI PUSH1 0x40 MLOAD PUSH4 0xEB1CD1D1 PUSH1 0xE0 SHL DUP2 MSTORE PUSH1 0x4 ADD PUSH2 0x324 SWAP1 PUSH2 0x3762 JUMP JUMPDEST PUSH2 0x608 DUP7 DUP7 DUP7 DUP7 DUP7 PUSH1 0x40 MLOAD DUP1 PUSH1 0x40 ADD PUSH1 0x40 MSTORE DUP1 PUSH1 0x7 DUP2 MSTORE PUSH1 0x20 ADD PUSH7 0x67656E65736973 PUSH1 0xC8 SHL DUP2 MSTORE POP PUSH2 0x25C3 JUMP JUMPDEST DUP1 ISZERO PUSH2 0x64D JUMPI PUSH1 0x40 MLOAD DUP1 PUSH1 0x40 ADD PUSH1 0x40 MSTORE DUP1 PUSH1 0x7 DUP2 MSTORE PUSH1 0x20 ADD PUSH7 0x67656E65736973 PUSH1 0xC8 SHL DUP2 MSTORE POP PUSH1 0x3 PUSH0 DUP4 DUP2 MSTORE PUSH1 0x20 ADD SWAP1 DUP2 MSTORE PUSH1 0x20 ADD PUSH0 KECCAK256 SWAP1 DUP2 PUSH2 0x64B SWAP2 SWAP1 PUSH2 0x383C JUMP JUMPDEST POP JUMPDEST POP POP POP POP POP POP JUMP JUMPDEST PUSH1 0x7 SLOAD PUSH1 0x1 PUSH1 0xA0 SHL SWAP1 DIV PUSH1 0xFF AND PUSH2 0x67F JUMPI PUSH1 0x40 MLOAD PUSH4 0x59DE1BB3 PUSH1 0xE0 SHL DUP2 MSTORE PUSH1 0x4 ADD PUSH1 0x40 MLOAD DUP1 SWAP2 SUB SWAP1 REVERT JUMPDEST PUSH1 0x6 SLOAD PUSH1 0x1 PUSH1 0x1 PUSH1 0xA0 SHL SUB AND CALLER EQ PUSH2 0x6AA JUMPI PUSH1 0x40 MLOAD PUSH4 0xEB1CD1D1 PUSH1 0xE0 SHL DUP2 MSTORE PUSH1 0x4 ADD PUSH2 0x324 SWAP1 PUSH2 0x38F6 JUMP JUMPDEST PUSH2 0x6DA DUP6 DUP6 DUP6 DUP6 DUP6 PUSH1 0x40 MLOAD DUP1 PUSH1 0x40 ADD PUSH1 0x40 MSTORE DUP1 PUSH1 0xA DUP2 MSTORE PUSH1 0x20 ADD PUSH10 0x676F7665726E616E6365 PUSH1 0xB0 SHL DUP2 MSTORE POP PUSH2 0x28D4 JUMP JUMPDEST POP POP POP POP POP JUMP JUMPDEST PUSH2 0x733 PUSH1 0x40 DUP1 MLOAD PUSH2 0x140 DUP2 ADD DUP3 MSTORE PUSH0 DUP1 DUP3 MSTORE PUSH1 0x60 PUSH1 0x20 DUP4 ADD DUP2 SWAP1 MSTORE SWAP3 DUP3 ADD DUP2 SWAP1 MSTORE SWAP1 SWAP2 DUP3 ADD SWAP1 DUP2 MSTORE PUSH1 0x20 ADD PUSH0 DUP2 MSTORE PUSH1 0x20 ADD PUSH1 0x60 DUP2 MSTORE PUSH1 0x20 ADD PUSH0 DUP2 MSTORE PUSH1 0x20 ADD PUSH0 DUP2 MSTORE PUSH1 0x20 ADD PUSH1 0x60 DUP2 MSTORE PUSH1 0x20 ADD PUSH0 DUP2 MSTORE POP SWAP1 JUMP JUMPDEST PUSH0 PUSH1 0x1 PUSH1 0x1 PUSH1 0xA0 SHL SUB AND PUSH0 DUP5 DUP5 PUSH1 0x40 MLOAD PUSH2 0x74E SWAP3 SWAP2 SWAP1 PUSH2 0x392D JUMP JUMPDEST SWAP1 DUP2 MSTORE PUSH1 0x40 MLOAD SWAP1 DUP2 SWAP1 SUB PUSH1 0x20 ADD SWAP1 KECCAK256 SLOAD PUSH1 0x1 PUSH1 0x1 PUSH1 0xA0 SHL SUB AND SUB PUSH2 0x789 JUMPI DUP3 DUP3 PUSH1 0x40 MLOAD PUSH4 0xD28A9EB PUSH1 0xE0 SHL DUP2 MSTORE PUSH1 0x4 ADD PUSH2 0x324 SWAP3 SWAP2 SWAP1 PUSH2 0x3964 JUMP JUMPDEST PUSH0 DUP4 DUP4 PUSH1 0x40 MLOAD PUSH2 0x79A SWAP3 SWAP2 SWAP1 PUSH2 0x392D JUMP JUMPDEST SWAP1 DUP2 MSTORE PUSH1 0x40 DUP1 MLOAD SWAP2 DUP3 SWAP1 SUB PUSH1 0x20 SWAP1 DUP2 ADD DUP4 KECCAK256 PUSH2 0x140 DUP5 ADD SWAP1 SWAP3 MSTORE DUP2 SLOAD PUSH1 0x1 PUSH1 0x1 PUSH1 0xA0 SHL SUB AND DUP4 MSTORE PUSH1 0x1 DUP3 ADD DUP1 SLOAD SWAP2 DUP5 ADD SWAP2 PUSH2 0x7D4 SWAP1 PUSH2 0x37BB JUMP JUMPDEST DUP1 PUSH1 0x1F ADD PUSH1 0x20 DUP1 SWAP2 DIV MUL PUSH1 0x20 ADD PUSH1 0x40 MLOAD SWAP1 DUP2 ADD PUSH1 0x40 MSTORE DUP1 SWAP3 SWAP2 SWAP1 DUP2 DUP2 MSTORE PUSH1 0x20 ADD DUP3 DUP1 SLOAD PUSH2 0x800 SWAP1 PUSH2 0x37BB JUMP JUMPDEST DUP1 ISZERO PUSH2 0x84B JUMPI DUP1 PUSH1 0x1F LT PUSH2 0x822 JUMPI PUSH2 0x100 DUP1 DUP4 SLOAD DIV MUL DUP4 MSTORE SWAP2 PUSH1 0x20 ADD SWAP2 PUSH2 0x84B JUMP JUMPDEST DUP3 ADD SWAP2 SWAP1 PUSH0 MSTORE PUSH1 0x20 PUSH0 KECCAK256 SWAP1 JUMPDEST DUP2 SLOAD DUP2 MSTORE SWAP1 PUSH1 0x1 ADD SWAP1 PUSH1 0x20 ADD DUP1 DUP4 GT PUSH2 0x82E JUMPI DUP3 SWAP1 SUB PUSH1 0x1F AND DUP3 ADD SWAP2 JUMPDEST POP POP POP SWAP2 DUP4 MSTORE POP POP PUSH1 0x2 DUP3 ADD SLOAD PUSH1 0xFF DUP1 DUP3 AND ISZERO ISZERO PUSH1 0x20 DUP5 ADD MSTORE PUSH1 0x40 SWAP1 SWAP3 ADD SWAP2 PUSH2 0x100 SWAP1 SWAP2 DIV AND PUSH1 0x1 DUP2 GT ISZERO PUSH2 0x882 JUMPI PUSH2 0x882 PUSH2 0x33C5 JUMP JUMPDEST PUSH1 0x1 DUP2 GT ISZERO PUSH2 0x893 JUMPI PUSH2 0x893 PUSH2 0x33C5 JUMP JUMPDEST DUP2 MSTORE PUSH1 0x20 ADD PUSH1 0x2 DUP3 ADD PUSH1 0x2 SWAP1 SLOAD SWAP1 PUSH2 0x100 EXP SWAP1 DIV PUSH1 0xFF AND PUSH1 0x5 DUP2 GT ISZERO PUSH2 0x8BB JUMPI PUSH2 0x8BB PUSH2 0x33C5 JUMP JUMPDEST PUSH1 0x5 DUP2 GT ISZERO PUSH2 0x8CC JUMPI PUSH2 0x8CC PUSH2 0x33C5 JUMP JUMPDEST DUP2 MSTORE PUSH1 0x20 ADD PUSH1 0x3 DUP3 ADD DUP1 SLOAD DUP1 PUSH1 0x20 MUL PUSH1 0x20 ADD PUSH1 0x40 MLOAD SWAP1 DUP2 ADD PUSH1 0x40 MSTORE DUP1 SWAP3 SWAP2 SWAP1 DUP2 DUP2 MSTORE PUSH1 0x20 ADD DUP3 DUP1 SLOAD DUP1 ISZERO PUSH2 0x94C JUMPI PUSH1 0x20 MUL DUP3 ADD SWAP2 SWAP1 PUSH0 MSTORE PUSH1 0x20 PUSH0 KECCAK256 SWAP1 PUSH0 SWAP1 JUMPDEST DUP3 DUP3 SWAP1 SLOAD SWAP1 PUSH2 0x100 EXP SWAP1 DIV PUSH1 0xFF AND PUSH1 0x2 DUP2 GT ISZERO PUSH2 0x92A JUMPI PUSH2 0x92A PUSH2 0x33C5 JUMP JUMPDEST DUP2 MSTORE PUSH1 0x20 PUSH1 0x1 SWAP3 DUP4 ADD DUP2 DUP2 DIV SWAP5 DUP6 ADD SWAP5 SWAP1 SWAP4 SUB SWAP1 SWAP3 MUL SWAP2 ADD DUP1 DUP5 GT PUSH2 0x90B JUMPI SWAP1 POP JUMPDEST POP POP POP POP POP DUP2 MSTORE PUSH1 0x20 ADD PUSH1 0x4 DUP3 ADD SLOAD DUP2 MSTORE PUSH1 0x20 ADD PUSH1 0x5 DUP3 ADD SLOAD DUP2 MSTORE PUSH1 0x20 ADD PUSH1 0x6 DUP3 ADD DUP1 SLOAD PUSH2 0x979 SWAP1 PUSH2 0x37BB JUMP JUMPDEST DUP1 PUSH1 0x1F ADD PUSH1 0x20 DUP1 SWAP2 DIV MUL PUSH1 0x20 ADD PUSH1 0x40 MLOAD SWAP1 DUP2 ADD PUSH1 0x40 MSTORE DUP1 SWAP3 SWAP2 SWAP1 DUP2 DUP2 MSTORE PUSH1 0x20 ADD DUP3 DUP1 SLOAD PUSH2 0x9A5 SWAP1 PUSH2 0x37BB JUMP JUMPDEST DUP1 ISZERO PUSH2 0x9F0 JUMPI DUP1 PUSH1 0x1F LT PUSH2 0x9C7 JUMPI PUSH2 0x100 DUP1 DUP4 SLOAD DIV MUL DUP4 MSTORE SWAP2 PUSH1 0x20 ADD SWAP2 PUSH2 0x9F0 JUMP JUMPDEST DUP3 ADD SWAP2 SWAP1 PUSH0 MSTORE PUSH1 0x20 PUSH0 KECCAK256 SWAP1 JUMPDEST DUP2 SLOAD DUP2 MSTORE SWAP1 PUSH1 0x1 ADD SWAP1 PUSH1 0x20 ADD DUP1 DUP4 GT PUSH2 0x9D3 JUMPI DUP3 SWAP1 SUB PUSH1 0x1F AND DUP3 ADD SWAP2 JUMPDEST POP POP POP POP POP DUP2 MSTORE PUSH1 0x20 ADD PUSH1 0x7 DUP3 ADD SLOAD DUP2 MSTORE POP POP SWAP1 POP JUMPDEST SWAP3 SWAP2 POP POP JUMP JUMPDEST PUSH1 0x7 SLOAD PUSH1 0x1 PUSH1 0xA0 SHL SWAP1 DIV PUSH1 0xFF AND PUSH2 0xA36 JUMPI PUSH1 0x40 MLOAD PUSH4 0x59DE1BB3 PUSH1 0xE0 SHL DUP2 MSTORE PUSH1 0x4 ADD PUSH1 0x40 MLOAD DUP1 SWAP2 SUB SWAP1 REVERT JUMPDEST PUSH1 0x6 SLOAD PUSH1 0x1 PUSH1 0x1 PUSH1 0xA0 SHL SUB AND CALLER EQ PUSH2 0xA61 JUMPI PUSH1 0x40 MLOAD PUSH4 0xEB1CD1D1 PUSH1 0xE0 SHL DUP2 MSTORE PUSH1 0x4 ADD PUSH2 0x324 SWAP1 PUSH2 0x38F6 JUMP JUMPDEST PUSH2 0x6DA DUP6 DUP6 DUP6 DUP6 DUP6 PUSH1 0x40 MLOAD DUP1 PUSH1 0x40 ADD PUSH1 0x40 MSTORE DUP1 PUSH1 0xA DUP2 MSTORE PUSH1 0x20 ADD PUSH10 0x676F7665726E616E6365 PUSH1 0xB0 SHL DUP2 MSTORE POP PUSH2 0x25C3 JUMP JUMPDEST PUSH1 0x7 SLOAD PUSH1 0x1 PUSH1 0xA0 SHL SWAP1 DIV PUSH1 0xFF AND PUSH2 0xABB JUMPI PUSH1 0x40 MLOAD PUSH4 0x59DE1BB3 PUSH1 0xE0 SHL DUP2 MSTORE PUSH1 0x4 ADD PUSH1 0x40 MLOAD DUP1 SWAP2 SUB SWAP1 REVERT JUMPDEST PUSH1 0x6 SLOAD PUSH1 0x1 PUSH1 0x1 PUSH1 0xA0 SHL SUB AND CALLER EQ PUSH2 0xAE6 JUMPI PUSH1 0x40 MLOAD PUSH4 0xEB1CD1D1 PUSH1 0xE0 SHL DUP2 MSTORE PUSH1 0x4 ADD PUSH2 0x324 SWAP1 PUSH2 0x38F6 JUMP JUMPDEST DUP2 DUP2 PUSH0 PUSH1 0x1 PUSH1 0x1 PUSH1 0xA0 SHL SUB AND PUSH0 DUP4 DUP4 PUSH1 0x40 MLOAD PUSH2 0xB03 SWAP3 SWAP2 SWAP1 PUSH2 0x392D JUMP JUMPDEST SWAP1 DUP2 MSTORE PUSH1 0x40 MLOAD SWAP1 DUP2 SWAP1 SUB PUSH1 0x20 ADD SWAP1 KECCAK256 SLOAD PUSH1 0x1 PUSH1 0x1 PUSH1 0xA0 SHL SUB AND SUB PUSH2 0xB3E JUMPI DUP2 DUP2 PUSH1 0x40 MLOAD PUSH4 0xD28A9EB PUSH1 0xE0 SHL DUP2 MSTORE PUSH1 0x4 ADD PUSH2 0x324 SWAP3 SWAP2 SWAP1 PUSH2 0x3964 JUMP JUMPDEST PUSH0 DUP3 DUP3 PUSH1 0x40 MLOAD PUSH2 0xB4F SWAP3 SWAP2 SWAP1 PUSH2 0x392D JUMP JUMPDEST SWAP1 DUP2 MSTORE PUSH1 0x40 MLOAD SWAP1 DUP2 SWAP1 SUB PUSH1 0x20 ADD SWAP1 KECCAK256 PUSH1 0x2 ADD SLOAD PUSH1 0xFF AND PUSH2 0xB86 JUMPI DUP2 DUP2 PUSH1 0x40 MLOAD PUSH4 0x4C3AD83F PUSH1 0xE1 SHL DUP2 MSTORE PUSH1 0x4 ADD PUSH2 0x324 SWAP3 SWAP2 SWAP1 PUSH2 0x3964 JUMP JUMPDEST PUSH0 PUSH0 DUP4 DUP4 PUSH1 0x40 MLOAD PUSH2 0xB98 SWAP3 SWAP2 SWAP1 PUSH2 0x392D JUMP JUMPDEST SWAP1 DUP2 MSTORE PUSH1 0x20 ADD PUSH1 0x40 MLOAD DUP1 SWAP2 SUB SWAP1 KECCAK256 PUSH1 0x7 ADD SLOAD GT DUP1 ISZERO PUSH2 0xBD8 JUMPI POP PUSH0 DUP3 DUP3 PUSH1 0x40 MLOAD PUSH2 0xBC3 SWAP3 SWAP2 SWAP1 PUSH2 0x392D JUMP JUMPDEST SWAP1 DUP2 MSTORE PUSH1 0x20 ADD PUSH1 0x40 MLOAD DUP1 SWAP2 SUB SWAP1 KECCAK256 PUSH1 0x7 ADD SLOAD TIMESTAMP GT JUMPDEST ISZERO PUSH2 0xBFA JUMPI DUP2 DUP2 PUSH1 0x40 MLOAD PUSH4 0x4C3AD83F PUSH1 0xE1 SHL DUP2 MSTORE PUSH1 0x4 ADD PUSH2 0x324 SWAP3 SWAP2 SWAP1 PUSH2 0x3964 JUMP JUMPDEST PUSH0 PUSH0 DUP6 DUP6 PUSH1 0x40 MLOAD PUSH2 0xC0C SWAP3 SWAP2 SWAP1 PUSH2 0x392D JUMP JUMPDEST SWAP1 DUP2 MSTORE PUSH1 0x40 MLOAD SWAP1 DUP2 SWAP1 SUB PUSH1 0x20 ADD SWAP1 KECCAK256 SWAP1 POP PUSH0 PUSH1 0x2 DUP3 ADD SLOAD PUSH3 0x10000 SWAP1 DIV PUSH1 0xFF AND PUSH1 0x5 DUP2 GT ISZERO PUSH2 0xC3D JUMPI PUSH2 0xC3D PUSH2 0x33C5 JUMP JUMPDEST EQ ISZERO DUP1 ISZERO PUSH2 0xC6A JUMPI POP PUSH1 0x3 PUSH1 0x2 DUP3 ADD SLOAD PUSH3 0x10000 SWAP1 DIV PUSH1 0xFF AND PUSH1 0x5 DUP2 GT ISZERO PUSH2 0xC67 JUMPI PUSH2 0xC67 PUSH2 0x33C5 JUMP JUMPDEST EQ ISZERO JUMPDEST ISZERO PUSH2 0xCC2 JUMPI PUSH1 0x40 MLOAD PUSH4 0xEB1CD1D1 PUSH1 0xE0 SHL DUP2 MSTORE PUSH1 0x20 PUSH1 0x4 DUP3 ADD MSTORE PUSH1 0x21 PUSH1 0x24 DUP3 ADD MSTORE PUSH32 0x46756E7A696F6E6520726973657276617461206120504120652041756469746F PUSH1 0x44 DUP3 ADD MSTORE PUSH1 0x39 PUSH1 0xF9 SHL PUSH1 0x64 DUP3 ADD MSTORE PUSH1 0x84 ADD PUSH2 0x324 JUMP JUMPDEST PUSH0 PUSH1 0x2 DUP3 ADD SLOAD PUSH3 0x10000 SWAP1 DIV PUSH1 0xFF AND PUSH1 0x5 DUP2 GT ISZERO PUSH2 0xCE2 JUMPI PUSH2 0xCE2 PUSH2 0x33C5 JUMP JUMPDEST EQ DUP1 ISZERO PUSH2 0xCF1 JUMPI POP PUSH1 0x4 DUP1 SLOAD GT ISZERO JUMPDEST ISZERO PUSH2 0xD71 JUMPI PUSH1 0x40 MLOAD PUSH4 0xEB1CD1D1 PUSH1 0xE0 SHL DUP2 MSTORE PUSH1 0x20 PUSH1 0x4 DUP3 ADD MSTORE PUSH1 0x43 PUSH1 0x24 DUP3 ADD MSTORE PUSH32 0x496D706F73736962696C65207363656E6465726520736F74746F203420504120 PUSH1 0x44 DUP3 ADD MSTORE PUSH32 0x6174746976653A207573617265207265706C61636550414279476F7665726E61 PUSH1 0x64 DUP3 ADD MSTORE PUSH3 0x6E6365 PUSH1 0xE8 SHL PUSH1 0x84 DUP3 ADD MSTORE PUSH1 0xA4 ADD PUSH2 0x324 JUMP JUMPDEST PUSH1 0x3 PUSH1 0x2 DUP3 ADD SLOAD PUSH3 0x10000 SWAP1 DIV PUSH1 0xFF AND PUSH1 0x5 DUP2 GT ISZERO PUSH2 0xD92 JUMPI PUSH2 0xD92 PUSH2 0x33C5 JUMP JUMPDEST EQ DUP1 ISZERO PUSH2 0xDA2 JUMPI POP PUSH1 0x2 PUSH1 0x5 SLOAD GT ISZERO JUMPDEST ISZERO PUSH2 0xE04 JUMPI PUSH1 0x40 MLOAD PUSH4 0xEB1CD1D1 PUSH1 0xE0 SHL DUP2 MSTORE PUSH1 0x20 PUSH1 0x4 DUP3 ADD MSTORE PUSH1 0x2B PUSH1 0x24 DUP3 ADD MSTORE PUSH32 0x496D706F73736962696C65207363656E6465726520736F74746F203220417564 PUSH1 0x44 DUP3 ADD MSTORE PUSH11 0x69746F7220617474697669 PUSH1 0xA8 SHL PUSH1 0x64 DUP3 ADD MSTORE PUSH1 0x84 ADD PUSH2 0x324 JUMP JUMPDEST PUSH1 0x2 DUP2 ADD DUP1 SLOAD PUSH1 0xFF NOT AND SWAP1 SSTORE PUSH0 PUSH1 0x2 DUP3 ADD SLOAD PUSH3 0x10000 SWAP1 DIV PUSH1 0xFF AND PUSH1 0x5 DUP2 GT ISZERO PUSH2 0xE30 JUMPI PUSH2 0xE30 PUSH2 0x33C5 JUMP JUMPDEST SUB PUSH2 0xE4A JUMPI PUSH1 0x4 DUP1 SLOAD SWAP1 PUSH0 PUSH2 0xE44 DUP4 PUSH2 0x3993 JUMP JUMPDEST SWAP2 SWAP1 POP SSTORE POP JUMPDEST PUSH1 0x3 PUSH1 0x2 DUP3 ADD SLOAD PUSH3 0x10000 SWAP1 DIV PUSH1 0xFF AND PUSH1 0x5 DUP2 GT ISZERO PUSH2 0xE6B JUMPI PUSH2 0xE6B PUSH2 0x33C5 JUMP JUMPDEST SUB PUSH2 0xE85 JUMPI PUSH1 0x5 DUP1 SLOAD SWAP1 PUSH0 PUSH2 0xE7F DUP4 PUSH2 0x3993 JUMP JUMPDEST SWAP2 SWAP1 POP SSTORE POP JUMPDEST DUP1 SLOAD PUSH1 0x40 MLOAD PUSH1 0x1 PUSH1 0x1 PUSH1 0xA0 SHL SUB SWAP1 SWAP2 AND SWAP1 PUSH32 0x6C782FA2EFE4A1B46C843EEF0A37C6EFA84226E8FC430CFBDB950EE786D8E066 SWAP1 PUSH2 0xEC7 SWAP1 DUP9 SWAP1 DUP9 SWAP1 TIMESTAMP SWAP1 PUSH2 0x39A8 JUMP JUMPDEST PUSH1 0x40 MLOAD DUP1 SWAP2 SUB SWAP1 LOG2 POP POP POP POP POP JUMP JUMPDEST PUSH1 0x7 SLOAD PUSH1 0x1 PUSH1 0xA0 SHL SWAP1 DIV PUSH1 0xFF AND PUSH2 0xF00 JUMPI PUSH1 0x40 MLOAD PUSH4 0x59DE1BB3 PUSH1 0xE0 SHL DUP2 MSTORE PUSH1 0x4 ADD PUSH1 0x40 MLOAD DUP1 SWAP2 SUB SWAP1 REVERT JUMPDEST PUSH0 DUP10 SWAP1 SUB PUSH2 0xF3D JUMPI PUSH1 0x40 MLOAD PUSH4 0xD647364F PUSH1 0xE0 SHL DUP2 MSTORE PUSH1 0x20 PUSH1 0x4 DUP3 ADD MSTORE PUSH1 0x9 PUSH1 0x24 DUP3 ADD MSTORE PUSH9 0x4449442076756F746F PUSH1 0xB8 SHL PUSH1 0x44 DUP3 ADD MSTORE PUSH1 0x64 ADD PUSH2 0x324 JUMP JUMPDEST PUSH0 DUP8 SWAP1 SUB PUSH2 0xF86 JUMPI PUSH1 0x40 MLOAD PUSH4 0xD647364F PUSH1 0xE0 SHL DUP2 MSTORE PUSH1 0x20 PUSH1 0x4 DUP3 ADD MSTORE PUSH1 0x15 PUSH1 0x24 DUP3 ADD MSTORE PUSH21 0x43686961766520707562626C6963612076756F7461 PUSH1 0x58 SHL PUSH1 0x44 DUP3 ADD MSTORE PUSH1 0x64 ADD PUSH2 0x324 JUMP JUMPDEST PUSH1 0x1 PUSH1 0x1 PUSH1 0xA0 SHL SUB DUP7 AND PUSH2 0xFD0 JUMPI PUSH1 0x40 MLOAD PUSH4 0xD647364F PUSH1 0xE0 SHL DUP2 MSTORE PUSH1 0x20 PUSH1 0x4 DUP3 ADD MSTORE PUSH1 0x10 PUSH1 0x24 DUP3 ADD MSTORE PUSH16 0x4F776E6572206E6F6E2076616C69646F PUSH1 0x80 SHL PUSH1 0x44 DUP3 ADD MSTORE PUSH1 0x64 ADD PUSH2 0x324 JUMP JUMPDEST PUSH0 PUSH1 0x1 PUSH1 0x1 PUSH1 0xA0 SHL SUB AND PUSH0 DUP12 DUP12 PUSH1 0x40 MLOAD PUSH2 0xFEB SWAP3 SWAP2 SWAP1 PUSH2 0x392D JUMP JUMPDEST SWAP1 DUP2 MSTORE PUSH1 0x40 MLOAD SWAP1 DUP2 SWAP1 SUB PUSH1 0x20 ADD SWAP1 KECCAK256 SLOAD PUSH1 0x1 PUSH1 0x1 PUSH1 0xA0 SHL SUB AND EQ PUSH2 0x1026 JUMPI DUP10 DUP10 PUSH1 0x40 MLOAD PUSH4 0x34239C13 PUSH1 0xE0 SHL DUP2 MSTORE PUSH1 0x4 ADD PUSH2 0x324 SWAP3 SWAP2 SWAP1 PUSH2 0x3964 JUMP JUMPDEST PUSH1 0x1 PUSH1 0x1 PUSH1 0xA0 SHL SUB DUP7 AND PUSH0 SWAP1 DUP2 MSTORE PUSH1 0x1 PUSH1 0x20 MSTORE PUSH1 0x40 DUP2 KECCAK256 DUP1 SLOAD PUSH2 0x1048 SWAP1 PUSH2 0x37BB JUMP JUMPDEST SWAP1 POP GT ISZERO PUSH2 0x1074 JUMPI PUSH1 0x40 MLOAD PUSH4 0x533D87DD PUSH1 0xE0 SHL DUP2 MSTORE PUSH1 0x1 PUSH1 0x1 PUSH1 0xA0 SHL SUB DUP8 AND PUSH1 0x4 DUP3 ADD MSTORE PUSH1 0x24 ADD PUSH2 0x324 JUMP JUMPDEST DUP1 PUSH2 0x10C2 JUMPI PUSH1 0x40 MLOAD PUSH4 0xD647364F PUSH1 0xE0 SHL DUP2 MSTORE PUSH1 0x20 PUSH1 0x4 DUP3 ADD MSTORE PUSH1 0x1D PUSH1 0x24 DUP3 ADD MSTORE PUSH32 0x63726564656E7469616C4964207A65726F206E6F6E20616D6D6573736F000000 PUSH1 0x44 DUP3 ADD MSTORE PUSH1 0x64 ADD PUSH2 0x324 JUMP JUMPDEST PUSH0 DUP2 DUP2 MSTORE PUSH1 0x3 PUSH1 0x20 MSTORE PUSH1 0x40 SWAP1 KECCAK256 DUP1 SLOAD PUSH2 0x10DA SWAP1 PUSH2 0x37BB JUMP JUMPDEST ISZERO SWAP1 POP PUSH2 0x112A JUMPI PUSH1 0x40 MLOAD PUSH4 0xD647364F PUSH1 0xE0 SHL DUP2 MSTORE PUSH1 0x20 PUSH1 0x4 DUP3 ADD MSTORE PUSH1 0x1B PUSH1 0x24 DUP3 ADD MSTORE PUSH32 0x63726564656E7469616C496420676961207265676973747261746F0000000000 PUSH1 0x44 DUP3 ADD MSTORE PUSH1 0x64 ADD PUSH2 0x324 JUMP JUMPDEST CALLER PUSH0 SWAP1 DUP2 MSTORE PUSH1 0x1 PUSH1 0x20 MSTORE PUSH1 0x40 DUP2 KECCAK256 DUP1 SLOAD PUSH2 0x1143 SWAP1 PUSH2 0x37BB JUMP JUMPDEST DUP1 PUSH1 0x1F ADD PUSH1 0x20 DUP1 SWAP2 DIV MUL PUSH1 0x20 ADD PUSH1 0x40 MLOAD SWAP1 DUP2 ADD PUSH1 0x40 MSTORE DUP1 SWAP3 SWAP2 SWAP1 DUP2 DUP2 MSTORE PUSH1 0x20 ADD DUP3 DUP1 SLOAD PUSH2 0x116F SWAP1 PUSH2 0x37BB JUMP JUMPDEST DUP1 ISZERO PUSH2 0x11BA JUMPI DUP1 PUSH1 0x1F LT PUSH2 0x1191 JUMPI PUSH2 0x100 DUP1 DUP4 SLOAD DIV MUL DUP4 MSTORE SWAP2 PUSH1 0x20 ADD SWAP2 PUSH2 0x11BA JUMP JUMPDEST DUP3 ADD SWAP2 SWAP1 PUSH0 MSTORE PUSH1 0x20 PUSH0 KECCAK256 SWAP1 JUMPDEST DUP2 SLOAD DUP2 MSTORE SWAP1 PUSH1 0x1 ADD SWAP1 PUSH1 0x20 ADD DUP1 DUP4 GT PUSH2 0x119D JUMPI DUP3 SWAP1 SUB PUSH1 0x1F AND DUP3 ADD SWAP2 JUMPDEST POP POP POP POP POP SWAP1 POP DUP1 MLOAD PUSH0 SUB PUSH2 0x11E2 JUMPI PUSH1 0x40 MLOAD PUSH4 0xEB1CD1D1 PUSH1 0xE0 SHL DUP2 MSTORE PUSH1 0x4 ADD PUSH2 0x324 SWAP1 PUSH2 0x39CB JUMP JUMPDEST PUSH0 PUSH0 DUP3 PUSH1 0x40 MLOAD PUSH2 0x11F2 SWAP2 SWAP1 PUSH2 0x3A02 JUMP JUMPDEST SWAP1 DUP2 MSTORE PUSH1 0x40 MLOAD SWAP1 DUP2 SWAP1 SUB PUSH1 0x20 ADD SWAP1 KECCAK256 PUSH1 0x2 DUP2 ADD SLOAD SWAP1 SWAP2 POP PUSH1 0xFF AND ISZERO DUP1 PUSH2 0x1229 JUMPI POP PUSH0 DUP2 PUSH1 0x7 ADD SLOAD GT DUP1 ISZERO PUSH2 0x1229 JUMPI POP DUP1 PUSH1 0x7 ADD SLOAD TIMESTAMP GT JUMPDEST ISZERO PUSH2 0x1249 JUMPI DUP2 PUSH1 0x40 MLOAD PUSH4 0x4C3AD83F PUSH1 0xE1 SHL DUP2 MSTORE PUSH1 0x4 ADD PUSH2 0x324 SWAP2 SWAP1 PUSH2 0x363A JUMP JUMPDEST PUSH1 0x2 DUP2 ADD SLOAD PUSH2 0x1263 SWAP1 PUSH3 0x10000 SWAP1 DIV PUSH1 0xFF AND DUP9 DUP8 DUP8 PUSH2 0x2AE9 JUMP JUMPDEST PUSH0 PUSH1 0x4 DUP9 PUSH1 0x5 DUP2 GT ISZERO PUSH2 0x1278 JUMPI PUSH2 0x1278 PUSH2 0x33C5 JUMP JUMPDEST EQ DUP1 PUSH2 0x1295 JUMPI POP PUSH1 0x5 DUP9 PUSH1 0x5 DUP2 GT ISZERO PUSH2 0x1293 JUMPI PUSH2 0x1293 PUSH2 0x33C5 JUMP JUMPDEST EQ JUMPDEST ISZERO PUSH2 0x1308 JUMPI POP PUSH1 0x1 DUP7 ISZERO DUP1 PUSH2 0x12AA JUMPI POP TIMESTAMP DUP8 GT ISZERO JUMPDEST ISZERO PUSH2 0x1303 JUMPI PUSH1 0x40 MLOAD PUSH4 0xD647364F PUSH1 0xE0 SHL DUP2 MSTORE PUSH1 0x20 PUSH1 0x4 DUP3 ADD MSTORE PUSH1 0x22 PUSH1 0x24 DUP3 ADD MSTORE PUSH32 0x4141206520455620726963686965646F6E6F2073636164656E7A612066757475 PUSH1 0x44 DUP3 ADD MSTORE PUSH2 0x7261 PUSH1 0xF0 SHL PUSH1 0x64 DUP3 ADD MSTORE PUSH1 0x84 ADD PUSH2 0x324 JUMP JUMPDEST PUSH2 0x1365 JUMP JUMPDEST POP PUSH0 DUP7 ISZERO PUSH2 0x1365 JUMPI PUSH1 0x40 MLOAD PUSH4 0xD647364F PUSH1 0xE0 SHL DUP2 MSTORE PUSH1 0x20 PUSH1 0x4 DUP3 ADD MSTORE PUSH1 0x23 PUSH1 0x24 DUP3 ADD MSTORE PUSH32 0x5050206520444547206E6F6E20706F73736F6E6F206176657265207363616465 PUSH1 0x44 DUP3 ADD MSTORE PUSH3 0x6E7A61 PUSH1 0xE8 SHL PUSH1 0x64 DUP3 ADD MSTORE PUSH1 0x84 ADD PUSH2 0x324 JUMP JUMPDEST PUSH1 0x40 MLOAD DUP1 PUSH2 0x140 ADD PUSH1 0x40 MSTORE DUP1 DUP11 PUSH1 0x1 PUSH1 0x1 PUSH1 0xA0 SHL SUB AND DUP2 MSTORE PUSH1 0x20 ADD DUP13 DUP13 DUP1 DUP1 PUSH1 0x1F ADD PUSH1 0x20 DUP1 SWAP2 DIV MUL PUSH1 0x20 ADD PUSH1 0x40 MLOAD SWAP1 DUP2 ADD PUSH1 0x40 MSTORE DUP1 SWAP4 SWAP3 SWAP2 SWAP1 DUP2 DUP2 MSTORE PUSH1 0x20 ADD DUP4 DUP4 DUP1 DUP3 DUP5 CALLDATACOPY PUSH0 SWAP3 ADD SWAP2 SWAP1 SWAP2 MSTORE POP POP POP SWAP1 DUP3 MSTORE POP PUSH1 0x1 PUSH1 0x20 DUP3 ADD DUP2 SWAP1 MSTORE PUSH1 0x40 SWAP1 SWAP2 ADD SWAP1 DUP4 SWAP1 DUP2 GT ISZERO PUSH2 0x13D8 JUMPI PUSH2 0x13D8 PUSH2 0x33C5 JUMP JUMPDEST DUP2 MSTORE PUSH1 0x20 ADD DUP10 PUSH1 0x5 DUP2 GT ISZERO PUSH2 0x13EF JUMPI PUSH2 0x13EF PUSH2 0x33C5 JUMP JUMPDEST DUP2 MSTORE PUSH1 0x20 ADD DUP8 DUP8 DUP1 DUP1 PUSH1 0x20 MUL PUSH1 0x20 ADD PUSH1 0x40 MLOAD SWAP1 DUP2 ADD PUSH1 0x40 MSTORE DUP1 SWAP4 SWAP3 SWAP2 SWAP1 DUP2 DUP2 MSTORE PUSH1 0x20 ADD DUP4 DUP4 PUSH1 0x20 MUL DUP1 DUP3 DUP5 CALLDATACOPY PUSH0 DUP2 DUP5 ADD MSTORE PUSH1 0x1F NOT PUSH1 0x1F DUP3 ADD AND SWAP1 POP DUP1 DUP4 ADD SWAP3 POP POP POP POP POP POP POP DUP2 MSTORE PUSH1 0x20 ADD TIMESTAMP DUP2 MSTORE PUSH1 0x20 ADD TIMESTAMP DUP2 MSTORE PUSH1 0x20 ADD DUP5 DUP2 MSTORE PUSH1 0x20 ADD DUP9 DUP2 MSTORE POP PUSH0 DUP15 DUP15 PUSH1 0x40 MLOAD PUSH2 0x1461 SWAP3 SWAP2 SWAP1 PUSH2 0x392D JUMP JUMPDEST SWAP1 DUP2 MSTORE PUSH1 0x40 MLOAD PUSH1 0x20 SWAP2 DUP2 SWAP1 SUB DUP3 ADD SWAP1 KECCAK256 DUP3 MLOAD DUP2 SLOAD PUSH1 0x1 PUSH1 0x1 PUSH1 0xA0 SHL SUB NOT AND PUSH1 0x1 PUSH1 0x1 PUSH1 0xA0 SHL SUB SWAP1 SWAP2 AND OR DUP2 SSTORE SWAP1 DUP3 ADD MLOAD PUSH1 0x1 DUP3 ADD SWAP1 PUSH2 0x14A0 SWAP1 DUP3 PUSH2 0x383C JUMP JUMPDEST POP PUSH1 0x40 DUP3 ADD MLOAD PUSH1 0x2 DUP3 ADD DUP1 SLOAD SWAP2 ISZERO ISZERO PUSH1 0xFF NOT DUP4 AND DUP2 OR DUP3 SSTORE PUSH1 0x60 DUP6 ADD MLOAD SWAP3 PUSH2 0xFF00 NOT SWAP1 SWAP2 AND PUSH2 0xFFFF NOT SWAP1 SWAP2 AND OR PUSH2 0x100 DUP4 PUSH1 0x1 DUP2 GT ISZERO PUSH2 0x14E2 JUMPI PUSH2 0x14E2 PUSH2 0x33C5 JUMP JUMPDEST MUL OR SWAP1 SSTORE POP PUSH1 0x80 DUP3 ADD MLOAD PUSH1 0x2 DUP3 ADD DUP1 SLOAD PUSH3 0xFF0000 NOT AND PUSH3 0x10000 DUP4 PUSH1 0x5 DUP2 GT ISZERO PUSH2 0x150E JUMPI PUSH2 0x150E PUSH2 0x33C5 JUMP JUMPDEST MUL OR SWAP1 SSTORE POP PUSH1 0xA0 DUP3 ADD MLOAD DUP1 MLOAD PUSH2 0x152E SWAP2 PUSH1 0x3 DUP5 ADD SWAP2 PUSH1 0x20 SWAP1 SWAP2 ADD SWAP1 PUSH2 0x30C0 JUMP JUMPDEST POP PUSH1 0xC0 DUP3 ADD MLOAD PUSH1 0x4 DUP3 ADD SSTORE PUSH1 0xE0 DUP3 ADD MLOAD PUSH1 0x5 DUP3 ADD SSTORE PUSH2 0x100 DUP3 ADD MLOAD PUSH1 0x6 DUP3 ADD SWAP1 PUSH2 0x1558 SWAP1 DUP3 PUSH2 0x383C JUMP JUMPDEST POP PUSH2 0x120 SWAP2 SWAP1 SWAP2 ADD MLOAD PUSH1 0x7 SWAP1 SWAP2 ADD SSTORE PUSH1 0x1 PUSH1 0x1 PUSH1 0xA0 SHL SUB DUP10 AND PUSH0 SWAP1 DUP2 MSTORE PUSH1 0x1 PUSH1 0x20 MSTORE PUSH1 0x40 SWAP1 KECCAK256 PUSH2 0x1589 DUP14 DUP16 DUP4 PUSH2 0x3A18 JUMP JUMPDEST POP PUSH0 DUP5 DUP2 MSTORE PUSH1 0x3 PUSH1 0x20 MSTORE PUSH1 0x40 SWAP1 KECCAK256 PUSH2 0x15A1 DUP5 DUP3 PUSH2 0x383C JUMP JUMPDEST POP DUP9 PUSH1 0x1 PUSH1 0x1 PUSH1 0xA0 SHL SUB AND PUSH0 MLOAD PUSH1 0x20 PUSH2 0x3C50 PUSH0 CODECOPY PUSH0 MLOAD SWAP1 PUSH0 MSTORE DUP15 DUP15 DUP12 DUP8 TIMESTAMP PUSH1 0x40 MLOAD PUSH2 0x15D0 SWAP6 SWAP5 SWAP4 SWAP3 SWAP2 SWAP1 PUSH2 0x3AD1 JUMP JUMPDEST PUSH1 0x40 MLOAD DUP1 SWAP2 SUB SWAP1 LOG2 POP POP POP POP POP POP POP POP POP POP POP POP POP JUMP JUMPDEST PUSH1 0x1 PUSH1 0x1 PUSH1 0xA0 SHL SUB DUP2 AND PUSH0 SWAP1 DUP2 MSTORE PUSH1 0x1 PUSH1 0x20 MSTORE PUSH1 0x40 SWAP1 KECCAK256 DUP1 SLOAD PUSH1 0x60 SWAP2 SWAP1 PUSH2 0x160D SWAP1 PUSH2 0x37BB JUMP JUMPDEST DUP1 PUSH1 0x1F ADD PUSH1 0x20 DUP1 SWAP2 DIV MUL PUSH1 0x20 ADD PUSH1 0x40 MLOAD SWAP1 DUP2 ADD PUSH1 0x40 MSTORE DUP1 SWAP3 SWAP2 SWAP1 DUP2 DUP2 MSTORE PUSH1 0x20 ADD DUP3 DUP1 SLOAD PUSH2 0x1639 SWAP1 PUSH2 0x37BB JUMP JUMPDEST DUP1 ISZERO PUSH2 0x1684 JUMPI DUP1 PUSH1 0x1F LT PUSH2 0x165B JUMPI PUSH2 0x100 DUP1 DUP4 SLOAD DIV MUL DUP4 MSTORE SWAP2 PUSH1 0x20 ADD SWAP2 PUSH2 0x1684 JUMP JUMPDEST DUP3 ADD SWAP2 SWAP1 PUSH0 MSTORE PUSH1 0x20 PUSH0 KECCAK256 SWAP1 JUMPDEST DUP2 SLOAD DUP2 MSTORE SWAP1 PUSH1 0x1 ADD SWAP1 PUSH1 0x20 ADD DUP1 DUP4 GT PUSH2 0x1667 JUMPI DUP3 SWAP1 SUB PUSH1 0x1F AND DUP3 ADD SWAP2 JUMPDEST POP POP POP POP POP SWAP1 POP SWAP2 SWAP1 POP JUMP JUMPDEST PUSH1 0x7 SLOAD PUSH1 0x1 PUSH1 0xA0 SHL SWAP1 DIV PUSH1 0xFF AND ISZERO PUSH2 0x16BB JUMPI PUSH1 0x40 MLOAD PUSH4 0x51E5A701 PUSH1 0xE1 SHL DUP2 MSTORE PUSH1 0x4 ADD PUSH1 0x40 MLOAD DUP1 SWAP2 SUB SWAP1 REVERT JUMPDEST PUSH1 0x7 SLOAD PUSH1 0x1 PUSH1 0x1 PUSH1 0xA0 SHL SUB AND CALLER EQ PUSH2 0x16E6 JUMPI PUSH1 0x40 MLOAD PUSH4 0xEB1CD1D1 PUSH1 0xE0 SHL DUP2 MSTORE PUSH1 0x4 ADD PUSH2 0x324 SWAP1 PUSH2 0x3762 JUMP JUMPDEST PUSH2 0x6DA DUP6 DUP6 DUP6 DUP6 DUP6 PUSH1 0x40 MLOAD DUP1 PUSH1 0x40 ADD PUSH1 0x40 MSTORE DUP1 PUSH1 0x7 DUP2 MSTORE PUSH1 0x20 ADD PUSH7 0x67656E65736973 PUSH1 0xC8 SHL DUP2 MSTORE POP PUSH2 0x28D4 JUMP JUMPDEST PUSH1 0x7 SLOAD PUSH1 0x1 PUSH1 0xA0 SHL SWAP1 DIV PUSH1 0xFF AND PUSH2 0x173D JUMPI PUSH1 0x40 MLOAD PUSH4 0x59DE1BB3 PUSH1 0xE0 SHL DUP2 MSTORE PUSH1 0x4 ADD PUSH1 0x40 MLOAD DUP1 SWAP2 SUB SWAP1 REVERT JUMPDEST PUSH1 0x6 SLOAD PUSH1 0x1 PUSH1 0x1 PUSH1 0xA0 SHL SUB AND CALLER EQ PUSH2 0x1768 JUMPI PUSH1 0x40 MLOAD PUSH4 0xEB1CD1D1 PUSH1 0xE0 SHL DUP2 MSTORE PUSH1 0x4 ADD PUSH2 0x324 SWAP1 PUSH2 0x38F6 JUMP JUMPDEST DUP7 DUP7 PUSH0 PUSH1 0x1 PUSH1 0x1 PUSH1 0xA0 SHL SUB AND PUSH0 DUP4 DUP4 PUSH1 0x40 MLOAD PUSH2 0x1785 SWAP3 SWAP2 SWAP1 PUSH2 0x392D JUMP JUMPDEST SWAP1 DUP2 MSTORE PUSH1 0x40 MLOAD SWAP1 DUP2 SWAP1 SUB PUSH1 0x20 ADD SWAP1 KECCAK256 SLOAD PUSH1 0x1 PUSH1 0x1 PUSH1 0xA0 SHL SUB AND SUB PUSH2 0x17C0 JUMPI DUP2 DUP2 PUSH1 0x40 MLOAD PUSH4 0xD28A9EB PUSH1 0xE0 SHL DUP2 MSTORE PUSH1 0x4 ADD PUSH2 0x324 SWAP3 SWAP2 SWAP1 PUSH2 0x3964 JUMP JUMPDEST PUSH0 DUP3 DUP3 PUSH1 0x40 MLOAD PUSH2 0x17D1 SWAP3 SWAP2 SWAP1 PUSH2 0x392D JUMP JUMPDEST SWAP1 DUP2 MSTORE PUSH1 0x40 MLOAD SWAP1 DUP2 SWAP1 SUB PUSH1 0x20 ADD SWAP1 KECCAK256 PUSH1 0x2 ADD SLOAD PUSH1 0xFF AND PUSH2 0x1808 JUMPI DUP2 DUP2 PUSH1 0x40 MLOAD PUSH4 0x4C3AD83F PUSH1 0xE1 SHL DUP2 MSTORE PUSH1 0x4 ADD PUSH2 0x324 SWAP3 SWAP2 SWAP1 PUSH2 0x3964 JUMP JUMPDEST PUSH0 PUSH0 DUP4 DUP4 PUSH1 0x40 MLOAD PUSH2 0x181A SWAP3 SWAP2 SWAP1 PUSH2 0x392D JUMP JUMPDEST SWAP1 DUP2 MSTORE PUSH1 0x20 ADD PUSH1 0x40 MLOAD DUP1 SWAP2 SUB SWAP1 KECCAK256 PUSH1 0x7 ADD SLOAD GT DUP1 ISZERO PUSH2 0x185A JUMPI POP PUSH0 DUP3 DUP3 PUSH1 0x40 MLOAD PUSH2 0x1845 SWAP3 SWAP2 SWAP1 PUSH2 0x392D JUMP JUMPDEST SWAP1 DUP2 MSTORE PUSH1 0x20 ADD PUSH1 0x40 MLOAD DUP1 SWAP2 SUB SWAP1 KECCAK256 PUSH1 0x7 ADD SLOAD TIMESTAMP GT JUMPDEST ISZERO PUSH2 0x187C JUMPI DUP2 DUP2 PUSH1 0x40 MLOAD PUSH4 0x4C3AD83F PUSH1 0xE1 SHL DUP2 MSTORE PUSH1 0x4 ADD PUSH2 0x324 SWAP3 SWAP2 SWAP1 PUSH2 0x3964 JUMP JUMPDEST PUSH0 PUSH0 DUP11 DUP11 PUSH1 0x40 MLOAD PUSH2 0x188E SWAP3 SWAP2 SWAP1 PUSH2 0x392D JUMP JUMPDEST SWAP1 DUP2 MSTORE PUSH1 0x40 MLOAD SWAP1 DUP2 SWAP1 SUB PUSH1 0x20 ADD SWAP1 KECCAK256 SWAP1 POP PUSH0 PUSH1 0x2 DUP3 ADD SLOAD PUSH3 0x10000 SWAP1 DIV PUSH1 0xFF AND PUSH1 0x5 DUP2 GT ISZERO PUSH2 0x18BF JUMPI PUSH2 0x18BF PUSH2 0x33C5 JUMP JUMPDEST EQ PUSH2 0x191D JUMPI PUSH1 0x40 MLOAD PUSH4 0xEB1CD1D1 PUSH1 0xE0 SHL DUP2 MSTORE PUSH1 0x20 PUSH1 0x4 DUP3 ADD MSTORE PUSH1 0x27 PUSH1 0x24 DUP3 ADD MSTORE PUSH32 0x496C2044494420646120736F7374697475697265206465766520657373657265 PUSH1 0x44 DUP3 ADD MSTORE PUSH7 0x20756E61205041 PUSH1 0xC8 SHL PUSH1 0x64 DUP3 ADD MSTORE PUSH1 0x84 ADD PUSH2 0x324 JUMP JUMPDEST PUSH1 0x2 DUP2 ADD DUP1 SLOAD PUSH1 0xFF NOT AND SWAP1 SSTORE DUP1 SLOAD PUSH1 0x1 PUSH1 0x1 PUSH1 0xA0 SHL SUB AND PUSH0 SWAP1 DUP2 MSTORE PUSH1 0x1 PUSH1 0x20 MSTORE PUSH1 0x40 DUP2 KECCAK256 PUSH2 0x194A SWAP2 PUSH2 0x316F JUMP JUMPDEST DUP1 SLOAD PUSH1 0x40 MLOAD PUSH1 0x1 PUSH1 0x1 PUSH1 0xA0 SHL SUB SWAP1 SWAP2 AND SWAP1 PUSH32 0x6C782FA2EFE4A1B46C843EEF0A37C6EFA84226E8FC430CFBDB950EE786D8E066 SWAP1 PUSH2 0x198C SWAP1 DUP14 SWAP1 DUP14 SWAP1 TIMESTAMP SWAP1 PUSH2 0x39A8 JUMP JUMPDEST PUSH1 0x40 MLOAD DUP1 SWAP2 SUB SWAP1 LOG2 PUSH2 0x19A1 DUP9 DUP9 DUP9 DUP9 DUP9 PUSH2 0x2F4C JUMP JUMPDEST PUSH1 0x40 DUP1 MLOAD PUSH0 DUP2 MSTORE PUSH2 0x160 DUP2 ADD DUP3 MSTORE PUSH1 0x1 PUSH1 0x1 PUSH1 0xA0 SHL SUB DUP7 AND PUSH1 0x20 DUP1 DUP4 ADD SWAP2 DUP3 MSTORE DUP4 MLOAD PUSH1 0x1F DUP11 ADD DUP3 SWAP1 DIV DUP3 MUL DUP2 ADD DUP3 ADD DUP6 MSTORE DUP10 DUP2 MSTORE SWAP3 SWAP4 SWAP2 SWAP3 SWAP2 DUP5 ADD SWAP2 SWAP1 DUP11 SWAP1 DUP11 SWAP1 DUP2 SWAP1 DUP5 ADD DUP4 DUP3 DUP1 DUP3 DUP5 CALLDATACOPY PUSH0 SWAP3 ADD DUP3 SWAP1 MSTORE POP SWAP4 DUP6 MSTORE POP POP PUSH1 0x1 PUSH1 0x20 DUP5 ADD MSTORE POP PUSH1 0x40 SWAP1 SWAP2 ADD SWAP1 DUP2 MSTORE PUSH1 0x20 ADD PUSH0 DUP2 MSTORE PUSH1 0x20 ADD DUP3 DUP2 MSTORE PUSH1 0x20 ADD TIMESTAMP DUP2 MSTORE PUSH1 0x20 ADD TIMESTAMP DUP2 MSTORE PUSH1 0x20 ADD PUSH1 0x40 MLOAD DUP1 PUSH1 0x40 ADD PUSH1 0x40 MSTORE DUP1 PUSH1 0xA DUP2 MSTORE PUSH1 0x20 ADD PUSH10 0x676F7665726E616E6365 PUSH1 0xB0 SHL DUP2 MSTORE POP DUP2 MSTORE PUSH1 0x20 ADD PUSH0 DUP2 MSTORE POP PUSH0 DUP11 DUP11 PUSH1 0x40 MLOAD PUSH2 0x1A60 SWAP3 SWAP2 SWAP1 PUSH2 0x392D JUMP JUMPDEST SWAP1 DUP2 MSTORE PUSH1 0x40 MLOAD PUSH1 0x20 SWAP2 DUP2 SWAP1 SUB DUP3 ADD SWAP1 KECCAK256 DUP3 MLOAD DUP2 SLOAD PUSH1 0x1 PUSH1 0x1 PUSH1 0xA0 SHL SUB NOT AND PUSH1 0x1 PUSH1 0x1 PUSH1 0xA0 SHL SUB SWAP1 SWAP2 AND OR DUP2 SSTORE SWAP1 DUP3 ADD MLOAD PUSH1 0x1 DUP3 ADD SWAP1 PUSH2 0x1A9F SWAP1 DUP3 PUSH2 0x383C JUMP JUMPDEST POP PUSH1 0x40 DUP3 ADD MLOAD PUSH1 0x2 DUP3 ADD DUP1 SLOAD SWAP2 ISZERO ISZERO PUSH1 0xFF NOT DUP4 AND DUP2 OR DUP3 SSTORE PUSH1 0x60 DUP6 ADD MLOAD SWAP3 PUSH2 0xFF00 NOT SWAP1 SWAP2 AND PUSH2 0xFFFF NOT SWAP1 SWAP2 AND OR PUSH2 0x100 DUP4 PUSH1 0x1 DUP2 GT ISZERO PUSH2 0x1AE1 JUMPI PUSH2 0x1AE1 PUSH2 0x33C5 JUMP JUMPDEST MUL OR SWAP1 SSTORE POP PUSH1 0x80 DUP3 ADD MLOAD PUSH1 0x2 DUP3 ADD DUP1 SLOAD PUSH3 0xFF0000 NOT AND PUSH3 0x10000 DUP4 PUSH1 0x5 DUP2 GT ISZERO PUSH2 0x1B0D JUMPI PUSH2 0x1B0D PUSH2 0x33C5 JUMP JUMPDEST MUL OR SWAP1 SSTORE POP PUSH1 0xA0 DUP3 ADD MLOAD DUP1 MLOAD PUSH2 0x1B2D SWAP2 PUSH1 0x3 DUP5 ADD SWAP2 PUSH1 0x20 SWAP1 SWAP2 ADD SWAP1 PUSH2 0x30C0 JUMP JUMPDEST POP PUSH1 0xC0 DUP3 ADD MLOAD PUSH1 0x4 DUP3 ADD SSTORE PUSH1 0xE0 DUP3 ADD MLOAD PUSH1 0x5 DUP3 ADD SSTORE PUSH2 0x100 DUP3 ADD MLOAD PUSH1 0x6 DUP3 ADD SWAP1 PUSH2 0x1B57 SWAP1 DUP3 PUSH2 0x383C JUMP JUMPDEST POP PUSH2 0x120 SWAP2 SWAP1 SWAP2 ADD MLOAD PUSH1 0x7 SWAP1 SWAP2 ADD SSTORE PUSH1 0x1 PUSH1 0x1 PUSH1 0xA0 SHL SUB DUP6 AND PUSH0 SWAP1 DUP2 MSTORE PUSH1 0x1 PUSH1 0x20 MSTORE PUSH1 0x40 SWAP1 KECCAK256 PUSH2 0x1B88 DUP10 DUP12 DUP4 PUSH2 0x3A18 JUMP JUMPDEST POP DUP5 PUSH1 0x1 PUSH1 0x1 PUSH1 0xA0 SHL SUB AND PUSH0 MLOAD PUSH1 0x20 PUSH2 0x3C50 PUSH0 CODECOPY PUSH0 MLOAD SWAP1 PUSH0 MSTORE DUP11 DUP11 PUSH0 TIMESTAMP PUSH1 0x40 MLOAD PUSH2 0x1BB5 SWAP5 SWAP4 SWAP3 SWAP2 SWAP1 PUSH2 0x3B16 JUMP JUMPDEST PUSH1 0x40 MLOAD DUP1 SWAP2 SUB SWAP1 LOG2 POP POP POP POP POP POP POP POP POP POP POP JUMP JUMPDEST PUSH0 PUSH0 PUSH0 DUP5 DUP5 PUSH1 0x40 MLOAD PUSH2 0x1BDD SWAP3 SWAP2 SWAP1 PUSH2 0x392D JUMP JUMPDEST SWAP1 DUP2 MSTORE PUSH1 0x40 MLOAD SWAP1 DUP2 SWAP1 SUB PUSH1 0x20 ADD SWAP1 KECCAK256 DUP1 SLOAD SWAP1 SWAP2 POP PUSH1 0x1 PUSH1 0x1 PUSH1 0xA0 SHL SUB AND PUSH2 0x1C07 JUMPI PUSH0 SWAP2 POP POP PUSH2 0xA06 JUMP JUMPDEST PUSH1 0x2 DUP2 ADD SLOAD PUSH1 0xFF AND PUSH2 0x1C1C JUMPI PUSH0 SWAP2 POP POP PUSH2 0xA06 JUMP JUMPDEST PUSH0 DUP2 PUSH1 0x7 ADD SLOAD GT DUP1 ISZERO PUSH2 0x1C32 JUMPI POP DUP1 PUSH1 0x7 ADD SLOAD TIMESTAMP GT JUMPDEST ISZERO PUSH2 0x1C40 JUMPI PUSH0 SWAP2 POP POP PUSH2 0xA06 JUMP JUMPDEST POP PUSH1 0x1 SWAP4 SWAP3 POP POP POP JUMP JUMPDEST PUSH1 0x7 SLOAD PUSH1 0x1 PUSH1 0xA0 SHL SWAP1 DIV PUSH1 0xFF AND PUSH2 0x1C74 JUMPI PUSH1 0x40 MLOAD PUSH4 0x59DE1BB3 PUSH1 0xE0 SHL DUP2 MSTORE PUSH1 0x4 ADD PUSH1 0x40 MLOAD DUP1 SWAP2 SUB SWAP1 REVERT JUMPDEST PUSH0 DUP2 DUP2 MSTORE PUSH1 0x2 PUSH1 0x20 MSTORE PUSH1 0x40 SWAP1 KECCAK256 SLOAD PUSH1 0xFF AND ISZERO PUSH2 0x1CA6 JUMPI PUSH1 0x40 MLOAD PUSH4 0xAAC64F45 PUSH1 0xE0 SHL DUP2 MSTORE PUSH1 0x4 DUP2 ADD DUP3 SWAP1 MSTORE PUSH1 0x24 ADD PUSH2 0x324 JUMP JUMPDEST PUSH0 DUP2 DUP2 MSTORE PUSH1 0x3 PUSH1 0x20 MSTORE PUSH1 0x40 SWAP1 KECCAK256 DUP1 SLOAD PUSH2 0x1CBE SWAP1 PUSH2 0x37BB JUMP JUMPDEST SWAP1 POP PUSH0 SUB PUSH2 0x1D0F JUMPI PUSH1 0x40 MLOAD PUSH4 0xD647364F PUSH1 0xE0 SHL DUP2 MSTORE PUSH1 0x20 PUSH1 0x4 DUP3 ADD MSTORE PUSH1 0x1B PUSH1 0x24 DUP3 ADD MSTORE PUSH32 0x63726564656E7469616C4964206E6F6E207265676973747261746F0000000000 PUSH1 0x44 DUP3 ADD MSTORE PUSH1 0x64 ADD PUSH2 0x324 JUMP JUMPDEST CALLER PUSH0 SWAP1 DUP2 MSTORE PUSH1 0x1 PUSH1 0x20 MSTORE PUSH1 0x40 DUP2 KECCAK256 DUP1 SLOAD PUSH2 0x1D28 SWAP1 PUSH2 0x37BB JUMP JUMPDEST DUP1 PUSH1 0x1F ADD PUSH1 0x20 DUP1 SWAP2 DIV MUL PUSH1 0x20 ADD PUSH1 0x40 MLOAD SWAP1 DUP2 ADD PUSH1 0x40 MSTORE DUP1 SWAP3 SWAP2 SWAP1 DUP2 DUP2 MSTORE PUSH1 0x20 ADD DUP3 DUP1 SLOAD PUSH2 0x1D54 SWAP1 PUSH2 0x37BB JUMP JUMPDEST DUP1 ISZERO PUSH2 0x1D9F JUMPI DUP1 PUSH1 0x1F LT PUSH2 0x1D76 JUMPI PUSH2 0x100 DUP1 DUP4 SLOAD DIV MUL DUP4 MSTORE SWAP2 PUSH1 0x20 ADD SWAP2 PUSH2 0x1D9F JUMP JUMPDEST DUP3 ADD SWAP2 SWAP1 PUSH0 MSTORE PUSH1 0x20 PUSH0 KECCAK256 SWAP1 JUMPDEST DUP2 SLOAD DUP2 MSTORE SWAP1 PUSH1 0x1 ADD SWAP1 PUSH1 0x20 ADD DUP1 DUP4 GT PUSH2 0x1D82 JUMPI DUP3 SWAP1 SUB PUSH1 0x1F AND DUP3 ADD SWAP2 JUMPDEST POP POP POP POP POP SWAP1 POP DUP1 MLOAD PUSH0 SUB PUSH2 0x1DC7 JUMPI PUSH1 0x40 MLOAD PUSH4 0xEB1CD1D1 PUSH1 0xE0 SHL DUP2 MSTORE PUSH1 0x4 ADD PUSH2 0x324 SWAP1 PUSH2 0x39CB JUMP JUMPDEST PUSH0 PUSH0 DUP3 PUSH1 0x40 MLOAD PUSH2 0x1DD7 SWAP2 SWAP1 PUSH2 0x3A02 JUMP JUMPDEST SWAP1 DUP2 MSTORE PUSH1 0x40 MLOAD SWAP1 DUP2 SWAP1 SUB PUSH1 0x20 ADD SWAP1 KECCAK256 PUSH1 0x2 DUP2 ADD SLOAD SWAP1 SWAP2 POP PUSH1 0xFF AND ISZERO DUP1 PUSH2 0x1E0E JUMPI POP PUSH0 DUP2 PUSH1 0x7 ADD SLOAD GT DUP1 ISZERO PUSH2 0x1E0E JUMPI POP DUP1 PUSH1 0x7 ADD SLOAD TIMESTAMP GT JUMPDEST ISZERO PUSH2 0x1E2E JUMPI DUP2 PUSH1 0x40 MLOAD PUSH4 0x4C3AD83F PUSH1 0xE1 SHL DUP2 MSTORE PUSH1 0x4 ADD PUSH2 0x324 SWAP2 SWAP1 PUSH2 0x363A JUMP JUMPDEST DUP2 DUP1 MLOAD SWAP1 PUSH1 0x20 ADD KECCAK256 PUSH1 0x3 PUSH0 DUP6 DUP2 MSTORE PUSH1 0x20 ADD SWAP1 DUP2 MSTORE PUSH1 0x20 ADD PUSH0 KECCAK256 PUSH1 0x40 MLOAD PUSH2 0x1E54 SWAP2 SWAP1 PUSH2 0x3BD9 JUMP JUMPDEST PUSH1 0x40 MLOAD DUP1 SWAP2 SUB SWAP1 KECCAK256 EQ PUSH2 0x1EC0 JUMPI PUSH1 0x40 MLOAD PUSH4 0xEB1CD1D1 PUSH1 0xE0 SHL DUP2 MSTORE PUSH1 0x20 PUSH1 0x4 DUP3 ADD MSTORE PUSH1 0x2D PUSH1 0x24 DUP3 ADD MSTORE PUSH32 0x536F6C6F206C276973737565722070756F207265766F63617265207175657374 PUSH1 0x44 DUP3 ADD MSTORE PUSH13 0x612063726564656E7A69616C65 PUSH1 0x98 SHL PUSH1 0x64 DUP3 ADD MSTORE PUSH1 0x84 ADD PUSH2 0x324 JUMP JUMPDEST PUSH0 DUP4 DUP2 MSTORE PUSH1 0x2 PUSH1 0x20 MSTORE PUSH1 0x40 SWAP1 DUP2 SWAP1 KECCAK256 DUP1 SLOAD PUSH1 0xFF NOT AND PUSH1 0x1 OR SWAP1 SSTORE MLOAD DUP4 SWAP1 PUSH32 0xC33FF9944A652DB4EF83CBD6E3BA64D7A75FC0860E2322E66A587A6810948746 SWAP1 PUSH2 0x1F0C SWAP1 DUP6 SWAP1 TIMESTAMP SWAP1 PUSH2 0x3BE4 JUMP JUMPDEST PUSH1 0x40 MLOAD DUP1 SWAP2 SUB SWAP1 LOG2 POP POP POP JUMP JUMPDEST PUSH1 0x7 SLOAD PUSH1 0x1 PUSH1 0xA0 SHL SWAP1 DIV PUSH1 0xFF AND PUSH2 0x1F43 JUMPI PUSH1 0x40 MLOAD PUSH4 0x59DE1BB3 PUSH1 0xE0 SHL DUP2 MSTORE PUSH1 0x4 ADD PUSH1 0x40 MLOAD DUP1 SWAP2 SUB SWAP1 REVERT JUMPDEST PUSH0 PUSH0 DUP4 DUP4 PUSH1 0x40 MLOAD PUSH2 0x1F55 SWAP3 SWAP2 SWAP1 PUSH2 0x392D JUMP JUMPDEST SWAP1 DUP2 MSTORE PUSH1 0x40 MLOAD SWAP1 DUP2 SWAP1 SUB PUSH1 0x20 ADD SWAP1 KECCAK256 DUP1 SLOAD SWAP1 SWAP2 POP PUSH1 0x1 PUSH1 0x1 PUSH1 0xA0 SHL SUB AND PUSH2 0x1F93 JUMPI DUP3 DUP3 PUSH1 0x40 MLOAD PUSH4 0xD28A9EB PUSH1 0xE0 SHL DUP2 MSTORE PUSH1 0x4 ADD PUSH2 0x324 SWAP3 SWAP2 SWAP1 PUSH2 0x3964 JUMP JUMPDEST PUSH1 0x2 DUP2 ADD SLOAD PUSH1 0xFF AND PUSH2 0x1FBC JUMPI DUP3 DUP3 PUSH1 0x40 MLOAD PUSH4 0x4C3AD83F PUSH1 0xE1 SHL DUP2 MSTORE PUSH1 0x4 ADD PUSH2 0x324 SWAP3 SWAP2 SWAP1 PUSH2 0x3964 JUMP JUMPDEST PUSH0 PUSH1 0x2 DUP3 ADD SLOAD PUSH3 0x10000 SWAP1 DIV PUSH1 0xFF AND PUSH1 0x5 DUP2 GT ISZERO PUSH2 0x1FDC JUMPI PUSH2 0x1FDC PUSH2 0x33C5 JUMP JUMPDEST EQ DUP1 PUSH2 0x2006 JUMPI POP PUSH1 0x3 PUSH1 0x2 DUP3 ADD SLOAD PUSH3 0x10000 SWAP1 DIV PUSH1 0xFF AND PUSH1 0x5 DUP2 GT ISZERO PUSH2 0x2004 JUMPI PUSH2 0x2004 PUSH2 0x33C5 JUMP JUMPDEST EQ JUMPDEST ISZERO PUSH2 0x2066 JUMPI PUSH1 0x40 MLOAD PUSH4 0xEB1CD1D1 PUSH1 0xE0 SHL DUP2 MSTORE PUSH1 0x20 PUSH1 0x4 DUP3 ADD MSTORE PUSH1 0x29 PUSH1 0x24 DUP3 ADD MSTORE PUSH32 0x504120652041756469746F7220726963686965646F6E6F2064656C6962657261 PUSH1 0x44 DUP3 ADD MSTORE PUSH9 0x20612071756F72756D PUSH1 0xB8 SHL PUSH1 0x64 DUP3 ADD MSTORE PUSH1 0x84 ADD PUSH2 0x324 JUMP JUMPDEST CALLER PUSH0 SWAP1 DUP2 MSTORE PUSH1 0x1 PUSH1 0x20 MSTORE PUSH1 0x40 DUP2 KECCAK256 DUP1 SLOAD PUSH2 0x207F SWAP1 PUSH2 0x37BB JUMP JUMPDEST DUP1 PUSH1 0x1F ADD PUSH1 0x20 DUP1 SWAP2 DIV MUL PUSH1 0x20 ADD PUSH1 0x40 MLOAD SWAP1 DUP2 ADD PUSH1 0x40 MSTORE DUP1 SWAP3 SWAP2 SWAP1 DUP2 DUP2 MSTORE PUSH1 0x20 ADD DUP3 DUP1 SLOAD PUSH2 0x20AB SWAP1 PUSH2 0x37BB JUMP JUMPDEST DUP1 ISZERO PUSH2 0x20F6 JUMPI DUP1 PUSH1 0x1F LT PUSH2 0x20CD JUMPI PUSH2 0x100 DUP1 DUP4 SLOAD DIV MUL DUP4 MSTORE SWAP2 PUSH1 0x20 ADD SWAP2 PUSH2 0x20F6 JUMP JUMPDEST DUP3 ADD SWAP2 SWAP1 PUSH0 MSTORE PUSH1 0x20 PUSH0 KECCAK256 SWAP1 JUMPDEST DUP2 SLOAD DUP2 MSTORE SWAP1 PUSH1 0x1 ADD SWAP1 PUSH1 0x20 ADD DUP1 DUP4 GT PUSH2 0x20D9 JUMPI DUP3 SWAP1 SUB PUSH1 0x1F AND DUP3 ADD SWAP2 JUMPDEST POP POP POP POP POP SWAP1 POP DUP1 MLOAD PUSH0 SUB PUSH2 0x211E JUMPI PUSH1 0x40 MLOAD PUSH4 0xEB1CD1D1 PUSH1 0xE0 SHL DUP2 MSTORE PUSH1 0x4 ADD PUSH2 0x324 SWAP1 PUSH2 0x39CB JUMP JUMPDEST PUSH0 PUSH0 DUP3 PUSH1 0x40 MLOAD PUSH2 0x212E SWAP2 SWAP1 PUSH2 0x3A02 JUMP JUMPDEST SWAP1 DUP2 MSTORE PUSH1 0x40 MLOAD SWAP1 DUP2 SWAP1 SUB PUSH1 0x20 ADD SWAP1 KECCAK256 PUSH1 0x2 DUP2 ADD SLOAD SWAP1 SWAP2 POP PUSH1 0xFF AND ISZERO DUP1 PUSH2 0x2165 JUMPI POP PUSH0 DUP2 PUSH1 0x7 ADD SLOAD GT DUP1 ISZERO PUSH2 0x2165 JUMPI POP DUP1 PUSH1 0x7 ADD SLOAD TIMESTAMP GT JUMPDEST ISZERO PUSH2 0x2185 JUMPI DUP2 PUSH1 0x40 MLOAD PUSH4 0x4C3AD83F PUSH1 0xE1 SHL DUP2 MSTORE PUSH1 0x4 ADD PUSH2 0x324 SWAP2 SWAP1 PUSH2 0x363A JUMP JUMPDEST DUP2 MLOAD PUSH1 0x20 DUP4 ADD KECCAK256 PUSH1 0x40 MLOAD PUSH2 0x219D SWAP1 PUSH1 0x6 DUP7 ADD SWAP1 PUSH2 0x3BD9 JUMP JUMPDEST PUSH1 0x40 MLOAD DUP1 SWAP2 SUB SWAP1 KECCAK256 EQ PUSH2 0x2207 JUMPI PUSH1 0x40 MLOAD PUSH4 0xEB1CD1D1 PUSH1 0xE0 SHL DUP2 MSTORE PUSH1 0x20 PUSH1 0x4 DUP3 ADD MSTORE PUSH1 0x2B PUSH1 0x24 DUP3 ADD MSTORE PUSH32 0x536F6C6F20696C2072656769737472616E74652070756F207265766F63617265 PUSH1 0x44 DUP3 ADD MSTORE PUSH11 0x81C5D595CDD1BC8111251 PUSH1 0xAA SHL PUSH1 0x64 DUP3 ADD MSTORE PUSH1 0x84 ADD PUSH2 0x324 JUMP JUMPDEST PUSH1 0x2 DUP4 ADD DUP1 SLOAD PUSH1 0xFF NOT AND SWAP1 SSTORE PUSH1 0x1 PUSH1 0x2 DUP5 ADD SLOAD PUSH2 0x100 SWAP1 DIV PUSH1 0xFF AND PUSH1 0x1 DUP2 GT ISZERO PUSH2 0x2233 JUMPI PUSH2 0x2233 PUSH2 0x33C5 JUMP JUMPDEST SUB PUSH2 0x2259 JUMPI DUP3 SLOAD PUSH1 0x1 PUSH1 0x1 PUSH1 0xA0 SHL SUB AND PUSH0 SWAP1 DUP2 MSTORE PUSH1 0x1 PUSH1 0x20 MSTORE PUSH1 0x40 DUP2 KECCAK256 PUSH2 0x2259 SWAP2 PUSH2 0x316F JUMP JUMPDEST DUP3 SLOAD PUSH1 0x40 MLOAD PUSH1 0x1 PUSH1 0x1 PUSH1 0xA0 SHL SUB SWAP1 SWAP2 AND SWAP1 PUSH32 0x6C782FA2EFE4A1B46C843EEF0A37C6EFA84226E8FC430CFBDB950EE786D8E066 SWAP1 PUSH2 0xEC7 SWAP1 DUP9 SWAP1 DUP9 SWAP1 TIMESTAMP SWAP1 PUSH2 0x39A8 JUMP JUMPDEST PUSH0 DUP2 DUP2 MSTORE PUSH1 0x3 PUSH1 0x20 MSTORE PUSH1 0x40 SWAP1 KECCAK256 DUP1 SLOAD PUSH1 0x60 SWAP2 SWAP1 PUSH2 0x160D SWAP1 PUSH2 0x37BB JUMP JUMPDEST PUSH1 0x7 SLOAD PUSH1 0x1 PUSH1 0xA0 SHL SWAP1 DIV PUSH1 0xFF AND PUSH2 0x22E1 JUMPI PUSH1 0x40 MLOAD PUSH4 0x59DE1BB3 PUSH1 0xE0 SHL DUP2 MSTORE PUSH1 0x4 ADD PUSH1 0x40 MLOAD DUP1 SWAP2 SUB SWAP1 REVERT JUMPDEST DUP4 DUP4 PUSH0 PUSH1 0x1 PUSH1 0x1 PUSH1 0xA0 SHL SUB AND PUSH0 DUP4 DUP4 PUSH1 0x40 MLOAD PUSH2 0x22FE SWAP3 SWAP2 SWAP1 PUSH2 0x392D JUMP JUMPDEST SWAP1 DUP2 MSTORE PUSH1 0x40 MLOAD SWAP1 DUP2 SWAP1 SUB PUSH1 0x20 ADD SWAP1 KECCAK256 SLOAD PUSH1 0x1 PUSH1 0x1 PUSH1 0xA0 SHL SUB AND SUB PUSH2 0x2339 JUMPI DUP2 DUP2 PUSH1 0x40 MLOAD PUSH4 0xD28A9EB PUSH1 0xE0 SHL DUP2 MSTORE PUSH1 0x4 ADD PUSH2 0x324 SWAP3 SWAP2 SWAP1 PUSH2 0x3964 JUMP JUMPDEST PUSH0 DUP3 DUP3 PUSH1 0x40 MLOAD PUSH2 0x234A SWAP3 SWAP2 SWAP1 PUSH2 0x392D JUMP JUMPDEST SWAP1 DUP2 MSTORE PUSH1 0x40 MLOAD SWAP1 DUP2 SWAP1 SUB PUSH1 0x20 ADD SWAP1 KECCAK256 PUSH1 0x2 ADD SLOAD PUSH1 0xFF AND PUSH2 0x2381 JUMPI DUP2 DUP2 PUSH1 0x40 MLOAD PUSH4 0x4C3AD83F PUSH1 0xE1 SHL DUP2 MSTORE PUSH1 0x4 ADD PUSH2 0x324 SWAP3 SWAP2 SWAP1 PUSH2 0x3964 JUMP JUMPDEST PUSH0 PUSH0 DUP4 DUP4 PUSH1 0x40 MLOAD PUSH2 0x2393 SWAP3 SWAP2 SWAP1 PUSH2 0x392D JUMP JUMPDEST SWAP1 DUP2 MSTORE PUSH1 0x20 ADD PUSH1 0x40 MLOAD DUP1 SWAP2 SUB SWAP1 KECCAK256 PUSH1 0x7 ADD SLOAD GT DUP1 ISZERO PUSH2 0x23D3 JUMPI POP PUSH0 DUP3 DUP3 PUSH1 0x40 MLOAD PUSH2 0x23BE SWAP3 SWAP2 SWAP1 PUSH2 0x392D JUMP JUMPDEST SWAP1 DUP2 MSTORE PUSH1 0x20 ADD PUSH1 0x40 MLOAD DUP1 SWAP2 SUB SWAP1 KECCAK256 PUSH1 0x7 ADD SLOAD TIMESTAMP GT JUMPDEST ISZERO PUSH2 0x23F5 JUMPI DUP2 DUP2 PUSH1 0x40 MLOAD PUSH4 0x4C3AD83F PUSH1 0xE1 SHL DUP2 MSTORE PUSH1 0x4 ADD PUSH2 0x324 SWAP3 SWAP2 SWAP1 PUSH2 0x3964 JUMP JUMPDEST CALLER PUSH1 0x1 PUSH1 0x1 PUSH1 0xA0 SHL SUB AND PUSH0 DUP8 DUP8 PUSH1 0x40 MLOAD PUSH2 0x2410 SWAP3 SWAP2 SWAP1 PUSH2 0x392D JUMP JUMPDEST SWAP1 DUP2 MSTORE PUSH1 0x40 MLOAD SWAP1 DUP2 SWAP1 SUB PUSH1 0x20 ADD SWAP1 KECCAK256 SLOAD PUSH1 0x1 PUSH1 0x1 PUSH1 0xA0 SHL SUB AND EQ PUSH2 0x2449 JUMPI PUSH1 0x40 MLOAD PUSH4 0x245AECD3 PUSH1 0xE0 SHL DUP2 MSTORE CALLER PUSH1 0x4 DUP3 ADD MSTORE PUSH1 0x24 ADD PUSH2 0x324 JUMP JUMPDEST PUSH0 DUP4 SWAP1 SUB PUSH2 0x2489 JUMPI PUSH1 0x40 MLOAD PUSH4 0xD647364F PUSH1 0xE0 SHL DUP2 MSTORE PUSH1 0x20 PUSH1 0x4 DUP3 ADD MSTORE PUSH1 0xC PUSH1 0x24 DUP3 ADD MSTORE PUSH12 0x4368696176652076756F7461 PUSH1 0xA0 SHL PUSH1 0x44 DUP3 ADD MSTORE PUSH1 0x64 ADD PUSH2 0x324 JUMP JUMPDEST DUP4 DUP4 PUSH1 0x40 MLOAD PUSH2 0x2499 SWAP3 SWAP2 SWAP1 PUSH2 0x392D JUMP JUMPDEST PUSH1 0x40 MLOAD DUP1 SWAP2 SUB SWAP1 KECCAK256 PUSH0 DUP8 DUP8 PUSH1 0x40 MLOAD PUSH2 0x24B2 SWAP3 SWAP2 SWAP1 PUSH2 0x392D JUMP JUMPDEST SWAP1 DUP2 MSTORE PUSH1 0x20 ADD PUSH1 0x40 MLOAD DUP1 SWAP2 SUB SWAP1 KECCAK256 PUSH1 0x1 ADD PUSH1 0x40 MLOAD PUSH2 0x24D0 SWAP2 SWAP1 PUSH2 0x3BD9 JUMP JUMPDEST PUSH1 0x40 MLOAD DUP1 SWAP2 SUB SWAP1 KECCAK256 SUB PUSH2 0x2526 JUMPI PUSH1 0x40 MLOAD PUSH4 0xD647364F PUSH1 0xE0 SHL DUP2 MSTORE PUSH1 0x20 PUSH1 0x4 DUP3 ADD MSTORE PUSH1 0x1F PUSH1 0x24 DUP3 ADD MSTORE PUSH32 0x436869617665206964656E7469636120616C6C6120707265636564656E746500 PUSH1 0x44 DUP3 ADD MSTORE PUSH1 0x64 ADD PUSH2 0x324 JUMP JUMPDEST DUP4 DUP4 PUSH0 DUP9 DUP9 PUSH1 0x40 MLOAD PUSH2 0x2539 SWAP3 SWAP2 SWAP1 PUSH2 0x392D JUMP JUMPDEST SWAP1 DUP2 MSTORE PUSH1 0x20 ADD PUSH1 0x40 MLOAD DUP1 SWAP2 SUB SWAP1 KECCAK256 PUSH1 0x1 ADD SWAP2 DUP3 PUSH2 0x2557 SWAP3 SWAP2 SWAP1 PUSH2 0x3A18 JUMP JUMPDEST POP TIMESTAMP PUSH0 DUP8 DUP8 PUSH1 0x40 MLOAD PUSH2 0x256A SWAP3 SWAP2 SWAP1 PUSH2 0x392D JUMP JUMPDEST SWAP1 DUP2 MSTORE PUSH1 0x40 MLOAD SWAP1 DUP2 SWAP1 SUB PUSH1 0x20 ADD DUP2 KECCAK256 PUSH1 0x5 ADD SWAP2 SWAP1 SWAP2 SSTORE CALLER SWAP1 PUSH32 0xC44872BE63EE637057663207998577415180C78A724774DD6B53E3102CBBAD22 SWAP1 PUSH2 0x25B3 SWAP1 DUP10 SWAP1 DUP10 SWAP1 TIMESTAMP SWAP1 PUSH2 0x39A8 JUMP JUMPDEST PUSH1 0x40 MLOAD DUP1 SWAP2 SUB SWAP1 LOG2 POP POP POP POP POP POP JUMP JUMPDEST PUSH2 0x25D0 DUP7 DUP7 DUP7 DUP7 DUP7 PUSH2 0x2F4C JUMP JUMPDEST PUSH1 0x40 DUP1 MLOAD PUSH1 0x3 DUP1 DUP3 MSTORE PUSH1 0x80 DUP3 ADD SWAP1 SWAP3 MSTORE PUSH0 SWAP2 PUSH1 0x20 DUP3 ADD PUSH1 0x60 DUP1 CALLDATASIZE DUP4 CALLDATACOPY ADD SWAP1 POP POP SWAP1 POP PUSH0 DUP2 PUSH0 DUP2 MLOAD DUP2 LT PUSH2 0x2605 JUMPI PUSH2 0x2605 PUSH2 0x3C05 JUMP JUMPDEST PUSH1 0x20 MUL PUSH1 0x20 ADD ADD SWAP1 PUSH1 0x2 DUP2 GT ISZERO PUSH2 0x261E JUMPI PUSH2 0x261E PUSH2 0x33C5 JUMP JUMPDEST SWAP1 DUP2 PUSH1 0x2 DUP2 GT ISZERO PUSH2 0x2631 JUMPI PUSH2 0x2631 PUSH2 0x33C5 JUMP JUMPDEST DUP2 MSTORE POP POP PUSH1 0x1 DUP2 PUSH1 0x1 DUP2 MLOAD DUP2 LT PUSH2 0x264A JUMPI PUSH2 0x264A PUSH2 0x3C05 JUMP JUMPDEST PUSH1 0x20 MUL PUSH1 0x20 ADD ADD SWAP1 PUSH1 0x2 DUP2 GT ISZERO PUSH2 0x2663 JUMPI PUSH2 0x2663 PUSH2 0x33C5 JUMP JUMPDEST SWAP1 DUP2 PUSH1 0x2 DUP2 GT ISZERO PUSH2 0x2676 JUMPI PUSH2 0x2676 PUSH2 0x33C5 JUMP JUMPDEST DUP2 MSTORE POP POP PUSH1 0x2 DUP2 PUSH1 0x2 DUP2 MLOAD DUP2 LT PUSH2 0x268F JUMPI PUSH2 0x268F PUSH2 0x3C05 JUMP JUMPDEST PUSH1 0x20 MUL PUSH1 0x20 ADD ADD SWAP1 PUSH1 0x2 DUP2 GT ISZERO PUSH2 0x26A8 JUMPI PUSH2 0x26A8 PUSH2 0x33C5 JUMP JUMPDEST SWAP1 DUP2 PUSH1 0x2 DUP2 GT ISZERO PUSH2 0x26BB JUMPI PUSH2 0x26BB PUSH2 0x33C5 JUMP JUMPDEST DUP2 MSTORE POP POP PUSH1 0x40 MLOAD DUP1 PUSH2 0x140 ADD PUSH1 0x40 MSTORE DUP1 DUP5 PUSH1 0x1 PUSH1 0x1 PUSH1 0xA0 SHL SUB AND DUP2 MSTORE PUSH1 0x20 ADD DUP7 DUP7 DUP1 DUP1 PUSH1 0x1F ADD PUSH1 0x20 DUP1 SWAP2 DIV MUL PUSH1 0x20 ADD PUSH1 0x40 MLOAD SWAP1 DUP2 ADD PUSH1 0x40 MSTORE DUP1 SWAP4 SWAP3 SWAP2 SWAP1 DUP2 DUP2 MSTORE PUSH1 0x20 ADD DUP4 DUP4 DUP1 DUP3 DUP5 CALLDATACOPY PUSH0 SWAP3 ADD DUP3 SWAP1 MSTORE POP SWAP4 DUP6 MSTORE POP POP PUSH1 0x1 PUSH1 0x20 DUP5 ADD MSTORE POP PUSH1 0x40 SWAP1 SWAP2 ADD SWAP1 DUP2 MSTORE PUSH1 0x20 ADD PUSH1 0x3 DUP2 MSTORE PUSH1 0x20 ADD DUP3 DUP2 MSTORE PUSH1 0x20 ADD TIMESTAMP DUP2 MSTORE PUSH1 0x20 ADD TIMESTAMP DUP2 MSTORE PUSH1 0x20 ADD DUP4 DUP2 MSTORE PUSH1 0x20 ADD PUSH0 DUP2 MSTORE POP PUSH0 DUP9 DUP9 PUSH1 0x40 MLOAD PUSH2 0x2757 SWAP3 SWAP2 SWAP1 PUSH2 0x392D JUMP JUMPDEST SWAP1 DUP2 MSTORE PUSH1 0x40 MLOAD PUSH1 0x20 SWAP2 DUP2 SWAP1 SUB DUP3 ADD SWAP1 KECCAK256 DUP3 MLOAD DUP2 SLOAD PUSH1 0x1 PUSH1 0x1 PUSH1 0xA0 SHL SUB NOT AND PUSH1 0x1 PUSH1 0x1 PUSH1 0xA0 SHL SUB SWAP1 SWAP2 AND OR DUP2 SSTORE SWAP1 DUP3 ADD MLOAD PUSH1 0x1 DUP3 ADD SWAP1 PUSH2 0x2796 SWAP1 DUP3 PUSH2 0x383C JUMP JUMPDEST POP PUSH1 0x40 DUP3 ADD MLOAD PUSH1 0x2 DUP3 ADD DUP1 SLOAD SWAP2 ISZERO ISZERO PUSH1 0xFF NOT DUP4 AND DUP2 OR DUP3 SSTORE PUSH1 0x60 DUP6 ADD MLOAD SWAP3 PUSH2 0xFF00 NOT SWAP1 SWAP2 AND PUSH2 0xFFFF NOT SWAP1 SWAP2 AND OR PUSH2 0x100 DUP4 PUSH1 0x1 DUP2 GT ISZERO PUSH2 0x27D8 JUMPI PUSH2 0x27D8 PUSH2 0x33C5 JUMP JUMPDEST MUL OR SWAP1 SSTORE POP PUSH1 0x80 DUP3 ADD MLOAD PUSH1 0x2 DUP3 ADD DUP1 SLOAD PUSH3 0xFF0000 NOT AND PUSH3 0x10000 DUP4 PUSH1 0x5 DUP2 GT ISZERO PUSH2 0x2804 JUMPI PUSH2 0x2804 PUSH2 0x33C5 JUMP JUMPDEST MUL OR SWAP1 SSTORE POP PUSH1 0xA0 DUP3 ADD MLOAD DUP1 MLOAD PUSH2 0x2824 SWAP2 PUSH1 0x3 DUP5 ADD SWAP2 PUSH1 0x20 SWAP1 SWAP2 ADD SWAP1 PUSH2 0x30C0 JUMP JUMPDEST POP PUSH1 0xC0 DUP3 ADD MLOAD PUSH1 0x4 DUP3 ADD SSTORE PUSH1 0xE0 DUP3 ADD MLOAD PUSH1 0x5 DUP3 ADD SSTORE PUSH2 0x100 DUP3 ADD MLOAD PUSH1 0x6 DUP3 ADD SWAP1 PUSH2 0x284E SWAP1 DUP3 PUSH2 0x383C JUMP JUMPDEST POP PUSH2 0x120 SWAP2 SWAP1 SWAP2 ADD MLOAD PUSH1 0x7 SWAP1 SWAP2 ADD SSTORE PUSH1 0x1 PUSH1 0x1 PUSH1 0xA0 SHL SUB DUP4 AND PUSH0 SWAP1 DUP2 MSTORE PUSH1 0x1 PUSH1 0x20 MSTORE PUSH1 0x40 SWAP1 KECCAK256 PUSH2 0x287F DUP8 DUP10 DUP4 PUSH2 0x3A18 JUMP JUMPDEST POP PUSH1 0x5 DUP1 SLOAD SWAP1 PUSH0 PUSH2 0x288F DUP4 PUSH2 0x3C19 JUMP JUMPDEST SWAP2 SWAP1 POP SSTORE POP DUP3 PUSH1 0x1 PUSH1 0x1 PUSH1 0xA0 SHL SUB AND PUSH0 MLOAD PUSH1 0x20 PUSH2 0x3C50 PUSH0 CODECOPY PUSH0 MLOAD SWAP1 PUSH0 MSTORE DUP9 DUP9 PUSH1 0x3 DUP7 TIMESTAMP PUSH1 0x40 MLOAD PUSH2 0x28C3 SWAP6 SWAP5 SWAP4 SWAP3 SWAP2 SWAP1 PUSH2 0x3AD1 JUMP JUMPDEST PUSH1 0x40 MLOAD DUP1 SWAP2 SUB SWAP1 LOG2 POP POP POP POP POP POP POP JUMP JUMPDEST PUSH2 0x28E1 DUP7 DUP7 DUP7 DUP7 DUP7 PUSH2 0x2F4C JUMP JUMPDEST PUSH1 0x40 DUP1 MLOAD PUSH0 DUP2 MSTORE PUSH2 0x160 DUP2 ADD DUP3 MSTORE PUSH1 0x1 PUSH1 0x1 PUSH1 0xA0 SHL SUB DUP5 AND PUSH1 0x20 DUP1 DUP4 ADD SWAP2 DUP3 MSTORE DUP4 MLOAD PUSH1 0x1F DUP9 ADD DUP3 SWAP1 DIV DUP3 MUL DUP2 ADD DUP3 ADD DUP6 MSTORE DUP8 DUP2 MSTORE SWAP3 SWAP4 SWAP2 SWAP3 SWAP2 DUP5 ADD SWAP2 SWAP1 DUP9 SWAP1 DUP9 SWAP1 DUP2 SWAP1 DUP5 ADD DUP4 DUP3 DUP1 DUP3 DUP5 CALLDATACOPY PUSH0 SWAP3 ADD DUP3 SWAP1 MSTORE POP SWAP4 DUP6 MSTORE POP POP PUSH1 0x1 PUSH1 0x20 DUP5 ADD MSTORE POP PUSH1 0x40 SWAP1 SWAP2 ADD SWAP1 DUP2 MSTORE PUSH1 0x20 ADD PUSH0 DUP2 MSTORE PUSH1 0x20 ADD DUP3 DUP2 MSTORE PUSH1 0x20 ADD TIMESTAMP DUP2 MSTORE PUSH1 0x20 ADD TIMESTAMP DUP2 MSTORE PUSH1 0x20 ADD DUP4 DUP2 MSTORE PUSH1 0x20 ADD PUSH0 DUP2 MSTORE POP PUSH0 DUP9 DUP9 PUSH1 0x40 MLOAD PUSH2 0x297E SWAP3 SWAP2 SWAP1 PUSH2 0x392D JUMP JUMPDEST SWAP1 DUP2 MSTORE PUSH1 0x40 MLOAD PUSH1 0x20 SWAP2 DUP2 SWAP1 SUB DUP3 ADD SWAP1 KECCAK256 DUP3 MLOAD DUP2 SLOAD PUSH1 0x1 PUSH1 0x1 PUSH1 0xA0 SHL SUB NOT AND PUSH1 0x1 PUSH1 0x1 PUSH1 0xA0 SHL SUB SWAP1 SWAP2 AND OR DUP2 SSTORE SWAP1 DUP3 ADD MLOAD PUSH1 0x1 DUP3 ADD SWAP1 PUSH2 0x29BD SWAP1 DUP3 PUSH2 0x383C JUMP JUMPDEST POP PUSH1 0x40 DUP3 ADD MLOAD PUSH1 0x2 DUP3 ADD DUP1 SLOAD SWAP2 ISZERO ISZERO PUSH1 0xFF NOT DUP4 AND DUP2 OR DUP3 SSTORE PUSH1 0x60 DUP6 ADD MLOAD SWAP3 PUSH2 0xFF00 NOT SWAP1 SWAP2 AND PUSH2 0xFFFF NOT SWAP1 SWAP2 AND OR PUSH2 0x100 DUP4 PUSH1 0x1 DUP2 GT ISZERO PUSH2 0x29FF JUMPI PUSH2 0x29FF PUSH2 0x33C5 JUMP JUMPDEST MUL OR SWAP1 SSTORE POP PUSH1 0x80 DUP3 ADD MLOAD PUSH1 0x2 DUP3 ADD DUP1 SLOAD PUSH3 0xFF0000 NOT AND PUSH3 0x10000 DUP4 PUSH1 0x5 DUP2 GT ISZERO PUSH2 0x2A2B JUMPI PUSH2 0x2A2B PUSH2 0x33C5 JUMP JUMPDEST MUL OR SWAP1 SSTORE POP PUSH1 0xA0 DUP3 ADD MLOAD DUP1 MLOAD PUSH2 0x2A4B SWAP2 PUSH1 0x3 DUP5 ADD SWAP2 PUSH1 0x20 SWAP1 SWAP2 ADD SWAP1 PUSH2 0x30C0 JUMP JUMPDEST POP PUSH1 0xC0 DUP3 ADD MLOAD PUSH1 0x4 DUP3 ADD SSTORE PUSH1 0xE0 DUP3 ADD MLOAD PUSH1 0x5 DUP3 ADD SSTORE PUSH2 0x100 DUP3 ADD MLOAD PUSH1 0x6 DUP3 ADD SWAP1 PUSH2 0x2A75 SWAP1 DUP3 PUSH2 0x383C JUMP JUMPDEST POP PUSH2 0x120 SWAP2 SWAP1 SWAP2 ADD MLOAD PUSH1 0x7 SWAP1 SWAP2 ADD SSTORE PUSH1 0x1 PUSH1 0x1 PUSH1 0xA0 SHL SUB DUP4 AND PUSH0 SWAP1 DUP2 MSTORE PUSH1 0x1 PUSH1 0x20 MSTORE PUSH1 0x40 SWAP1 KECCAK256 PUSH2 0x2AA6 DUP8 DUP10 DUP4 PUSH2 0x3A18 JUMP JUMPDEST POP PUSH1 0x4 DUP1 SLOAD SWAP1 PUSH0 PUSH2 0x2AB6 DUP4 PUSH2 0x3C19 JUMP JUMPDEST SWAP2 SWAP1 POP SSTORE POP DUP3 PUSH1 0x1 PUSH1 0x1 PUSH1 0xA0 SHL SUB AND PUSH0 MLOAD PUSH1 0x20 PUSH2 0x3C50 PUSH0 CODECOPY PUSH0 MLOAD SWAP1 PUSH0 MSTORE DUP9 DUP9 PUSH0 DUP7 TIMESTAMP PUSH1 0x40 MLOAD PUSH2 0x28C3 SWAP6 SWAP5 SWAP4 SWAP3 SWAP2 SWAP1 PUSH2 0x3AD1 JUMP JUMPDEST PUSH0 DUP5 PUSH1 0x5 DUP2 GT ISZERO PUSH2 0x2AFC JUMPI PUSH2 0x2AFC PUSH2 0x33C5 JUMP JUMPDEST SUB PUSH2 0x2E20 JUMPI PUSH1 0x1 DUP4 PUSH1 0x5 DUP2 GT ISZERO PUSH2 0x2B15 JUMPI PUSH2 0x2B15 PUSH2 0x33C5 JUMP JUMPDEST EQ ISZERO DUP1 ISZERO PUSH2 0x2B35 JUMPI POP PUSH1 0x4 DUP4 PUSH1 0x5 DUP2 GT ISZERO PUSH2 0x2B32 JUMPI PUSH2 0x2B32 PUSH2 0x33C5 JUMP JUMPDEST EQ ISZERO JUMPDEST DUP1 ISZERO PUSH2 0x2B53 JUMPI POP PUSH1 0x5 DUP4 PUSH1 0x5 DUP2 GT ISZERO PUSH2 0x2B50 JUMPI PUSH2 0x2B50 PUSH2 0x33C5 JUMP JUMPDEST EQ ISZERO JUMPDEST ISZERO PUSH2 0x2BA1 JUMPI PUSH1 0x40 MLOAD PUSH4 0xEB1CD1D1 PUSH1 0xE0 SHL DUP2 MSTORE PUSH1 0x20 PUSH1 0x4 DUP3 ADD MSTORE PUSH1 0x1F PUSH1 0x24 DUP3 ADD MSTORE PUSH32 0x50412070756F2064656C656761726520736F6C6F2050502C2041412C20455600 PUSH1 0x44 DUP3 ADD MSTORE PUSH1 0x64 ADD PUSH2 0x324 JUMP JUMPDEST PUSH1 0x1 DUP4 PUSH1 0x5 DUP2 GT ISZERO PUSH2 0x2BB5 JUMPI PUSH2 0x2BB5 PUSH2 0x33C5 JUMP JUMPDEST SUB PUSH2 0x2D78 JUMPI PUSH1 0x3 DUP2 EQ PUSH2 0x2C0B JUMPI PUSH1 0x40 MLOAD PUSH4 0x2A0F05B9 PUSH1 0xE1 SHL DUP2 MSTORE PUSH1 0x20 PUSH1 0x4 DUP3 ADD MSTORE PUSH1 0x19 PUSH1 0x24 DUP3 ADD MSTORE PUSH32 0x50502064657665207269636576657265203320646F6D696E6900000000000000 PUSH1 0x44 DUP3 ADD MSTORE PUSH1 0x64 ADD PUSH2 0x324 JUMP JUMPDEST PUSH0 DUP1 DUP1 DUP1 JUMPDEST PUSH1 0x3 DUP2 LT ISZERO PUSH2 0x2CF4 JUMPI PUSH0 DUP7 DUP7 DUP4 DUP2 DUP2 LT PUSH2 0x2C2C JUMPI PUSH2 0x2C2C PUSH2 0x3C05 JUMP JUMPDEST SWAP1 POP PUSH1 0x20 MUL ADD PUSH1 0x20 DUP2 ADD SWAP1 PUSH2 0x2C41 SWAP2 SWAP1 PUSH2 0x3C31 JUMP JUMPDEST PUSH1 0x2 DUP2 GT ISZERO PUSH2 0x2C52 JUMPI PUSH2 0x2C52 PUSH2 0x33C5 JUMP JUMPDEST SUB PUSH2 0x2C60 JUMPI PUSH1 0x1 SWAP4 POP PUSH2 0x2CEC JUMP JUMPDEST PUSH1 0x1 DUP7 DUP7 DUP4 DUP2 DUP2 LT PUSH2 0x2C74 JUMPI PUSH2 0x2C74 PUSH2 0x3C05 JUMP JUMPDEST SWAP1 POP PUSH1 0x20 MUL ADD PUSH1 0x20 DUP2 ADD SWAP1 PUSH2 0x2C89 SWAP2 SWAP1 PUSH2 0x3C31 JUMP JUMPDEST PUSH1 0x2 DUP2 GT ISZERO PUSH2 0x2C9A JUMPI PUSH2 0x2C9A PUSH2 0x33C5 JUMP JUMPDEST SUB PUSH2 0x2CA8 JUMPI PUSH1 0x1 SWAP3 POP PUSH2 0x2CEC JUMP JUMPDEST PUSH1 0x2 DUP7 DUP7 DUP4 DUP2 DUP2 LT PUSH2 0x2CBC JUMPI PUSH2 0x2CBC PUSH2 0x3C05 JUMP JUMPDEST SWAP1 POP PUSH1 0x20 MUL ADD PUSH1 0x20 DUP2 ADD SWAP1 PUSH2 0x2CD1 SWAP2 SWAP1 PUSH2 0x3C31 JUMP JUMPDEST PUSH1 0x2 DUP2 GT ISZERO PUSH2 0x2CE2 JUMPI PUSH2 0x2CE2 PUSH2 0x33C5 JUMP JUMPDEST SUB PUSH2 0x2CEC JUMPI PUSH1 0x1 SWAP2 POP JUMPDEST PUSH1 0x1 ADD PUSH2 0x2C10 JUMP JUMPDEST POP DUP3 ISZERO DUP1 PUSH2 0x2D00 JUMPI POP DUP2 ISZERO JUMPDEST DUP1 PUSH2 0x2D09 JUMPI POP DUP1 ISZERO JUMPDEST ISZERO PUSH2 0x2D74 JUMPI PUSH1 0x40 MLOAD PUSH4 0x2A0F05B9 PUSH1 0xE1 SHL DUP2 MSTORE PUSH1 0x20 PUSH1 0x4 DUP3 ADD MSTORE PUSH1 0x34 PUSH1 0x24 DUP3 ADD MSTORE PUSH32 0x5050206465766520636F707269726520747574746920652033206920646F6D69 PUSH1 0x44 DUP3 ADD MSTORE PUSH20 0x6E692073656E7A61207269706574697A696F6E69 PUSH1 0x60 SHL PUSH1 0x64 DUP3 ADD MSTORE PUSH1 0x84 ADD PUSH2 0x324 JUMP JUMPDEST POP POP POP JUMPDEST PUSH1 0x4 DUP4 PUSH1 0x5 DUP2 GT ISZERO PUSH2 0x2D8C JUMPI PUSH2 0x2D8C PUSH2 0x33C5 JUMP JUMPDEST EQ DUP1 PUSH2 0x2DA9 JUMPI POP PUSH1 0x5 DUP4 PUSH1 0x5 DUP2 GT ISZERO PUSH2 0x2DA7 JUMPI PUSH2 0x2DA7 PUSH2 0x33C5 JUMP JUMPDEST EQ JUMPDEST DUP1 ISZERO PUSH2 0x2DB6 JUMPI POP PUSH1 0x1 DUP2 EQ ISZERO JUMPDEST ISZERO PUSH2 0x2E1B JUMPI PUSH1 0x40 MLOAD PUSH4 0x2A0F05B9 PUSH1 0xE1 SHL DUP2 MSTORE PUSH1 0x20 PUSH1 0x4 DUP3 ADD MSTORE PUSH1 0x2E PUSH1 0x24 DUP3 ADD MSTORE PUSH32 0x41412065204556206465766F6E6F207269636576657265206573617474616D65 PUSH1 0x44 DUP3 ADD MSTORE PUSH14 0x6E746520756E20646F6D696E696F PUSH1 0x90 SHL PUSH1 0x64 DUP3 ADD MSTORE PUSH1 0x84 ADD PUSH2 0x324 JUMP JUMPDEST PUSH2 0x2F46 JUMP JUMPDEST PUSH1 0x1 DUP5 PUSH1 0x5 DUP2 GT ISZERO PUSH2 0x2E34 JUMPI PUSH2 0x2E34 PUSH2 0x33C5 JUMP JUMPDEST SUB PUSH2 0x2EFD JUMPI PUSH1 0x2 DUP4 PUSH1 0x5 DUP2 GT ISZERO PUSH2 0x2E4D JUMPI PUSH2 0x2E4D PUSH2 0x33C5 JUMP JUMPDEST EQ PUSH2 0x2E9B JUMPI PUSH1 0x40 MLOAD PUSH4 0xEB1CD1D1 PUSH1 0xE0 SHL DUP2 MSTORE PUSH1 0x20 PUSH1 0x4 DUP3 ADD MSTORE PUSH1 0x18 PUSH1 0x24 DUP3 ADD MSTORE PUSH32 0x50502070756F2064656C656761726520736F6C6F204445470000000000000000 PUSH1 0x44 DUP3 ADD MSTORE PUSH1 0x64 ADD PUSH2 0x324 JUMP JUMPDEST PUSH1 0x1 DUP2 EQ PUSH2 0x2E1B JUMPI PUSH1 0x40 MLOAD PUSH4 0x2A0F05B9 PUSH1 0xE1 SHL DUP2 MSTORE PUSH1 0x20 PUSH1 0x4 DUP3 ADD MSTORE PUSH1 0x28 PUSH1 0x24 DUP3 ADD MSTORE PUSH32 0x4445472064657665207269636576657265206573617474616D656E746520756E PUSH1 0x44 DUP3 ADD MSTORE PUSH8 0x20646F6D696E696F PUSH1 0xC0 SHL PUSH1 0x64 DUP3 ADD MSTORE PUSH1 0x84 ADD PUSH2 0x324 JUMP JUMPDEST PUSH1 0x40 MLOAD PUSH4 0xEB1CD1D1 PUSH1 0xE0 SHL DUP2 MSTORE PUSH1 0x20 PUSH1 0x4 DUP3 ADD DUP2 SWAP1 MSTORE PUSH1 0x24 DUP3 ADD MSTORE PUSH32 0x52756F6C6F206E6F6E206175746F72697A7A61746F20612064656C6567617265 PUSH1 0x44 DUP3 ADD MSTORE PUSH1 0x64 ADD PUSH2 0x324 JUMP JUMPDEST POP POP POP POP JUMP JUMPDEST PUSH0 DUP5 SWAP1 SUB PUSH2 0x2F89 JUMPI PUSH1 0x40 MLOAD PUSH4 0xD647364F PUSH1 0xE0 SHL DUP2 MSTORE PUSH1 0x20 PUSH1 0x4 DUP3 ADD MSTORE PUSH1 0x9 PUSH1 0x24 DUP3 ADD MSTORE PUSH9 0x4449442076756F746F PUSH1 0xB8 SHL PUSH1 0x44 DUP3 ADD MSTORE PUSH1 0x64 ADD PUSH2 0x324 JUMP JUMPDEST PUSH0 DUP3 SWAP1 SUB PUSH2 0x2FD2 JUMPI PUSH1 0x40 MLOAD PUSH4 0xD647364F PUSH1 0xE0 SHL DUP2 MSTORE PUSH1 0x20 PUSH1 0x4 DUP3 ADD MSTORE PUSH1 0x15 PUSH1 0x24 DUP3 ADD MSTORE PUSH21 0x43686961766520707562626C6963612076756F7461 PUSH1 0x58 SHL PUSH1 0x44 DUP3 ADD MSTORE PUSH1 0x64 ADD PUSH2 0x324 JUMP JUMPDEST PUSH1 0x1 PUSH1 0x1 PUSH1 0xA0 SHL SUB DUP2 AND PUSH2 0x301C JUMPI PUSH1 0x40 MLOAD PUSH4 0xD647364F PUSH1 0xE0 SHL DUP2 MSTORE PUSH1 0x20 PUSH1 0x4 DUP3 ADD MSTORE PUSH1 0x10 PUSH1 0x24 DUP3 ADD MSTORE PUSH16 0x4F776E6572206E6F6E2076616C69646F PUSH1 0x80 SHL PUSH1 0x44 DUP3 ADD MSTORE PUSH1 0x64 ADD PUSH2 0x324 JUMP JUMPDEST PUSH0 PUSH1 0x1 PUSH1 0x1 PUSH1 0xA0 SHL SUB AND PUSH0 DUP7 DUP7 PUSH1 0x40 MLOAD PUSH2 0x3037 SWAP3 SWAP2 SWAP1 PUSH2 0x392D JUMP JUMPDEST SWAP1 DUP2 MSTORE PUSH1 0x40 MLOAD SWAP1 DUP2 SWAP1 SUB PUSH1 0x20 ADD SWAP1 KECCAK256 SLOAD PUSH1 0x1 PUSH1 0x1 PUSH1 0xA0 SHL SUB AND EQ PUSH2 0x3072 JUMPI DUP5 DUP5 PUSH1 0x40 MLOAD PUSH4 0x34239C13 PUSH1 0xE0 SHL DUP2 MSTORE PUSH1 0x4 ADD PUSH2 0x324 SWAP3 SWAP2 SWAP1 PUSH2 0x3964 JUMP JUMPDEST PUSH1 0x1 PUSH1 0x1 PUSH1 0xA0 SHL SUB DUP2 AND PUSH0 SWAP1 DUP2 MSTORE PUSH1 0x1 PUSH1 0x20 MSTORE PUSH1 0x40 DUP2 KECCAK256 DUP1 SLOAD PUSH2 0x3094 SWAP1 PUSH2 0x37BB JUMP JUMPDEST SWAP1 POP GT ISZERO PUSH2 0x6DA JUMPI PUSH1 0x40 MLOAD PUSH4 0x533D87DD PUSH1 0xE0 SHL DUP2 MSTORE PUSH1 0x1 PUSH1 0x1 PUSH1 0xA0 SHL SUB DUP3 AND PUSH1 0x4 DUP3 ADD MSTORE PUSH1 0x24 ADD PUSH2 0x324 JUMP JUMPDEST DUP3 DUP1 SLOAD DUP3 DUP3 SSTORE SWAP1 PUSH0 MSTORE PUSH1 0x20 PUSH0 KECCAK256 SWAP1 PUSH1 0x1F ADD PUSH1 0x20 SWAP1 DIV DUP2 ADD SWAP3 DUP3 ISZERO PUSH2 0x315F JUMPI SWAP2 PUSH1 0x20 MUL DUP3 ADD PUSH0 JUMPDEST DUP4 DUP3 GT ISZERO PUSH2 0x3131 JUMPI DUP4 MLOAD DUP4 DUP3 PUSH2 0x100 EXP DUP2 SLOAD DUP2 PUSH1 0xFF MUL NOT AND SWAP1 DUP4 PUSH1 0x2 DUP2 GT ISZERO PUSH2 0x3111 JUMPI PUSH2 0x3111 PUSH2 0x33C5 JUMP JUMPDEST MUL OR SWAP1 SSTORE POP SWAP3 PUSH1 0x20 ADD SWAP3 PUSH1 0x1 ADD PUSH1 0x20 DUP2 PUSH0 ADD DIV SWAP3 DUP4 ADD SWAP3 PUSH1 0x1 SUB MUL PUSH2 0x30E6 JUMP JUMPDEST DUP1 ISZERO PUSH2 0x315D JUMPI DUP3 DUP2 PUSH2 0x100 EXP DUP2 SLOAD SWAP1 PUSH1 0xFF MUL NOT AND SWAP1 SSTORE PUSH1 0x1 ADD PUSH1 0x20 DUP2 PUSH0 ADD DIV SWAP3 DUP4 ADD SWAP3 PUSH1 0x1 SUB MUL PUSH2 0x3131 JUMP JUMPDEST POP JUMPDEST POP PUSH2 0x316B SWAP3 SWAP2 POP PUSH2 0x31A9 JUMP JUMPDEST POP SWAP1 JUMP JUMPDEST POP DUP1 SLOAD PUSH2 0x317B SWAP1 PUSH2 0x37BB JUMP JUMPDEST PUSH0 DUP3 SSTORE DUP1 PUSH1 0x1F LT PUSH2 0x318A JUMPI POP POP JUMP JUMPDEST PUSH1 0x1F ADD PUSH1 0x20 SWAP1 DIV SWAP1 PUSH0 MSTORE PUSH1 0x20 PUSH0 KECCAK256 SWAP1 DUP2 ADD SWAP1 PUSH2 0x31A6 SWAP2 SWAP1 PUSH2 0x31A9 JUMP JUMPDEST POP JUMP JUMPDEST JUMPDEST DUP1 DUP3 GT ISZERO PUSH2 0x316B JUMPI PUSH0 DUP2 SSTORE PUSH1 0x1 ADD PUSH2 0x31AA JUMP JUMPDEST PUSH0 PUSH1 0x20 DUP3 DUP5 SUB SLT ISZERO PUSH2 0x31CD JUMPI PUSH0 PUSH0 REVERT JUMPDEST POP CALLDATALOAD SWAP2 SWAP1 POP JUMP JUMPDEST DUP1 CALLDATALOAD PUSH1 0x1 PUSH1 0x1 PUSH1 0xA0 SHL SUB DUP2 AND DUP2 EQ PUSH2 0x31EA JUMPI PUSH0 PUSH0 REVERT JUMPDEST SWAP2 SWAP1 POP JUMP JUMPDEST PUSH0 PUSH1 0x20 DUP3 DUP5 SUB SLT ISZERO PUSH2 0x31FF JUMPI PUSH0 PUSH0 REVERT JUMPDEST PUSH2 0x3208 DUP3 PUSH2 0x31D4 JUMP JUMPDEST SWAP4 SWAP3 POP POP POP JUMP JUMPDEST PUSH0 PUSH0 DUP4 PUSH1 0x1F DUP5 ADD SLT PUSH2 0x321F JUMPI PUSH0 PUSH0 REVERT JUMPDEST POP DUP2 CALLDATALOAD PUSH1 0x1 PUSH1 0x1 PUSH1 0x40 SHL SUB DUP2 GT ISZERO PUSH2 0x3235 JUMPI PUSH0 PUSH0 REVERT JUMPDEST PUSH1 0x20 DUP4 ADD SWAP2 POP DUP4 PUSH1 0x20 DUP3 DUP6 ADD ADD GT ISZERO PUSH2 0x324C JUMPI PUSH0 PUSH0 REVERT JUMPDEST SWAP3 POP SWAP3 SWAP1 POP JUMP JUMPDEST PUSH0 PUSH0 PUSH0 PUSH0 PUSH0 PUSH0 PUSH1 0x80 DUP8 DUP10 SUB SLT ISZERO PUSH2 0x3268 JUMPI PUSH0 PUSH0 REVERT JUMPDEST DUP7 CALLDATALOAD PUSH1 0x1 PUSH1 0x1 PUSH1 0x40 SHL SUB DUP2 GT ISZERO PUSH2 0x327D JUMPI PUSH0 PUSH0 REVERT JUMPDEST PUSH2 0x3289 DUP10 DUP3 DUP11 ADD PUSH2 0x320F JUMP JUMPDEST SWAP1 SWAP8 POP SWAP6 POP POP PUSH1 0x20 DUP8 ADD CALLDATALOAD PUSH1 0x1 PUSH1 0x1 PUSH1 0x40 SHL SUB DUP2 GT ISZERO PUSH2 0x32A7 JUMPI PUSH0 PUSH0 REVERT JUMPDEST PUSH2 0x32B3 DUP10 DUP3 DUP11 ADD PUSH2 0x320F JUMP JUMPDEST SWAP1 SWAP6 POP SWAP4 POP PUSH2 0x32C6 SWAP1 POP PUSH1 0x40 DUP9 ADD PUSH2 0x31D4 JUMP JUMPDEST SWAP6 SWAP9 SWAP5 SWAP8 POP SWAP3 SWAP6 SWAP2 SWAP5 SWAP4 PUSH1 0x60 SWAP1 SWAP3 ADD CALLDATALOAD SWAP3 POP POP JUMP JUMPDEST PUSH0 PUSH0 PUSH0 PUSH0 PUSH0 PUSH1 0x60 DUP7 DUP9 SUB SLT ISZERO PUSH2 0x32EF JUMPI PUSH0 PUSH0 REVERT JUMPDEST DUP6 CALLDATALOAD PUSH1 0x1 PUSH1 0x1 PUSH1 0x40 SHL SUB DUP2 GT ISZERO PUSH2 0x3304 JUMPI PUSH0 PUSH0 REVERT JUMPDEST PUSH2 0x3310 DUP9 DUP3 DUP10 ADD PUSH2 0x320F JUMP JUMPDEST SWAP1 SWAP7 POP SWAP5 POP POP PUSH1 0x20 DUP7 ADD CALLDATALOAD PUSH1 0x1 PUSH1 0x1 PUSH1 0x40 SHL SUB DUP2 GT ISZERO PUSH2 0x332E JUMPI PUSH0 PUSH0 REVERT JUMPDEST PUSH2 0x333A DUP9 DUP3 DUP10 ADD PUSH2 0x320F JUMP JUMPDEST SWAP1 SWAP5 POP SWAP3 POP PUSH2 0x334D SWAP1 POP PUSH1 0x40 DUP8 ADD PUSH2 0x31D4 JUMP JUMPDEST SWAP1 POP SWAP3 SWAP6 POP SWAP3 SWAP6 SWAP1 SWAP4 POP JUMP JUMPDEST PUSH0 PUSH0 PUSH1 0x20 DUP4 DUP6 SUB SLT ISZERO PUSH2 0x336A JUMPI PUSH0 PUSH0 REVERT JUMPDEST DUP3 CALLDATALOAD PUSH1 0x1 PUSH1 0x1 PUSH1 0x40 SHL SUB DUP2 GT ISZERO PUSH2 0x337F JUMPI PUSH0 PUSH0 REVERT JUMPDEST PUSH2 0x338B DUP6 DUP3 DUP7 ADD PUSH2 0x320F JUMP JUMPDEST SWAP1 SWAP7 SWAP1 SWAP6 POP SWAP4 POP POP POP POP JUMP JUMPDEST PUSH0 DUP2 MLOAD DUP1 DUP5 MSTORE DUP1 PUSH1 0x20 DUP5 ADD PUSH1 0x20 DUP7 ADD MCOPY PUSH0 PUSH1 0x20 DUP3 DUP7 ADD ADD MSTORE PUSH1 0x20 PUSH1 0x1F NOT PUSH1 0x1F DUP4 ADD AND DUP6 ADD ADD SWAP2 POP POP SWAP3 SWAP2 POP POP JUMP JUMPDEST PUSH4 0x4E487B71 PUSH1 0xE0 SHL PUSH0 MSTORE PUSH1 0x21 PUSH1 0x4 MSTORE PUSH1 0x24 PUSH0 REVERT JUMPDEST PUSH1 0x2 DUP2 LT PUSH2 0x33E9 JUMPI PUSH2 0x33E9 PUSH2 0x33C5 JUMP JUMPDEST SWAP1 MSTORE JUMP JUMPDEST PUSH1 0x6 DUP2 LT PUSH2 0x33E9 JUMPI PUSH2 0x33E9 PUSH2 0x33C5 JUMP JUMPDEST PUSH0 DUP2 MLOAD DUP1 DUP5 MSTORE PUSH1 0x20 DUP5 ADD SWAP4 POP PUSH1 0x20 DUP4 ADD PUSH0 JUMPDEST DUP3 DUP2 LT ISZERO PUSH2 0x343E JUMPI DUP2 MLOAD PUSH1 0x3 DUP2 LT PUSH2 0x3429 JUMPI PUSH2 0x3429 PUSH2 0x33C5 JUMP JUMPDEST DUP7 MSTORE PUSH1 0x20 SWAP6 DUP7 ADD SWAP6 SWAP2 SWAP1 SWAP2 ADD SWAP1 PUSH1 0x1 ADD PUSH2 0x340F JUMP JUMPDEST POP SWAP4 SWAP5 SWAP4 POP POP POP POP JUMP JUMPDEST PUSH1 0x20 DUP2 MSTORE PUSH2 0x3462 PUSH1 0x20 DUP3 ADD DUP4 MLOAD PUSH1 0x1 PUSH1 0x1 PUSH1 0xA0 SHL SUB AND SWAP1 MSTORE JUMP JUMPDEST PUSH0 PUSH1 0x20 DUP4 ADD MLOAD PUSH2 0x140 PUSH1 0x40 DUP5 ADD MSTORE PUSH2 0x347E PUSH2 0x160 DUP5 ADD DUP3 PUSH2 0x3397 JUMP JUMPDEST SWAP1 POP PUSH1 0x40 DUP5 ADD MLOAD PUSH2 0x3493 PUSH1 0x60 DUP6 ADD DUP3 ISZERO ISZERO SWAP1 MSTORE JUMP JUMPDEST POP PUSH1 0x60 DUP5 ADD MLOAD PUSH2 0x34A6 PUSH1 0x80 DUP6 ADD DUP3 PUSH2 0x33D9 JUMP JUMPDEST POP PUSH1 0x80 DUP5 ADD MLOAD PUSH2 0x34B9 PUSH1 0xA0 DUP6 ADD DUP3 PUSH2 0x33ED JUMP JUMPDEST POP PUSH1 0xA0 DUP5 ADD MLOAD DUP4 DUP3 SUB PUSH1 0x1F NOT ADD PUSH1 0xC0 DUP6 ADD MSTORE PUSH2 0x34D5 DUP3 DUP3 PUSH2 0x33FD JUMP JUMPDEST SWAP2 POP POP PUSH1 0xC0 DUP5 ADD MLOAD PUSH1 0xE0 DUP5 ADD MSTORE PUSH1 0xE0 DUP5 ADD MLOAD PUSH2 0x100 DUP5 ADD MSTORE PUSH2 0x100 DUP5 ADD MLOAD PUSH1 0x1F NOT DUP5 DUP4 SUB ADD PUSH2 0x120 DUP6 ADD MSTORE PUSH2 0x350A DUP3 DUP3 PUSH2 0x3397 JUMP JUMPDEST SWAP2 POP POP PUSH2 0x120 DUP5 ADD MLOAD PUSH2 0x140 DUP5 ADD MSTORE DUP1 SWAP2 POP POP SWAP3 SWAP2 POP POP JUMP JUMPDEST PUSH0 PUSH0 DUP4 PUSH1 0x1F DUP5 ADD SLT PUSH2 0x3533 JUMPI PUSH0 PUSH0 REVERT JUMPDEST POP DUP2 CALLDATALOAD PUSH1 0x1 PUSH1 0x1 PUSH1 0x40 SHL SUB DUP2 GT ISZERO PUSH2 0x3549 JUMPI PUSH0 PUSH0 REVERT JUMPDEST PUSH1 0x20 DUP4 ADD SWAP2 POP DUP4 PUSH1 0x20 DUP3 PUSH1 0x5 SHL DUP6 ADD ADD GT ISZERO PUSH2 0x324C JUMPI PUSH0 PUSH0 REVERT JUMPDEST PUSH0 PUSH0 PUSH0 PUSH0 PUSH0 PUSH0 PUSH0 PUSH0 PUSH0 PUSH0 PUSH1 0xE0 DUP12 DUP14 SUB SLT ISZERO PUSH2 0x357C JUMPI PUSH0 PUSH0 REVERT JUMPDEST DUP11 CALLDATALOAD PUSH1 0x1 PUSH1 0x1 PUSH1 0x40 SHL SUB DUP2 GT ISZERO PUSH2 0x3591 JUMPI PUSH0 PUSH0 REVERT JUMPDEST PUSH2 0x359D DUP14 DUP3 DUP15 ADD PUSH2 0x320F JUMP JUMPDEST SWAP1 SWAP12 POP SWAP10 POP POP PUSH1 0x20 DUP12 ADD CALLDATALOAD PUSH1 0x1 PUSH1 0x1 PUSH1 0x40 SHL SUB DUP2 GT ISZERO PUSH2 0x35BB JUMPI PUSH0 PUSH0 REVERT JUMPDEST PUSH2 0x35C7 DUP14 DUP3 DUP15 ADD PUSH2 0x320F JUMP JUMPDEST SWAP1 SWAP10 POP SWAP8 POP PUSH2 0x35DA SWAP1 POP PUSH1 0x40 DUP13 ADD PUSH2 0x31D4 JUMP JUMPDEST SWAP6 POP PUSH1 0x60 DUP12 ADD CALLDATALOAD PUSH1 0x6 DUP2 LT PUSH2 0x35ED JUMPI PUSH0 PUSH0 REVERT JUMPDEST SWAP5 POP PUSH1 0x80 DUP12 ADD CALLDATALOAD SWAP4 POP PUSH1 0xA0 DUP12 ADD CALLDATALOAD PUSH1 0x1 PUSH1 0x1 PUSH1 0x40 SHL SUB DUP2 GT ISZERO PUSH2 0x360E JUMPI PUSH0 PUSH0 REVERT JUMPDEST PUSH2 0x361A DUP14 DUP3 DUP15 ADD PUSH2 0x3523 JUMP JUMPDEST SWAP12 SWAP15 SWAP11 SWAP14 POP SWAP9 SWAP12 SWAP8 SWAP11 SWAP7 SWAP10 SWAP6 SWAP9 SWAP5 SWAP8 SWAP5 SWAP7 SWAP6 PUSH1 0xC0 SWAP1 SWAP6 ADD CALLDATALOAD SWAP5 SWAP4 POP POP POP POP JUMP JUMPDEST PUSH1 0x20 DUP2 MSTORE PUSH0 PUSH2 0x3208 PUSH1 0x20 DUP4 ADD DUP5 PUSH2 0x3397 JUMP JUMPDEST PUSH0 PUSH0 PUSH0 PUSH0 PUSH0 PUSH0 PUSH0 PUSH1 0x80 DUP9 DUP11 SUB SLT ISZERO PUSH2 0x3662 JUMPI PUSH0 PUSH0 REVERT JUMPDEST DUP8 CALLDATALOAD PUSH1 0x1 PUSH1 0x1 PUSH1 0x40 SHL SUB DUP2 GT ISZERO PUSH2 0x3677 JUMPI PUSH0 PUSH0 REVERT JUMPDEST PUSH2 0x3683 DUP11 DUP3 DUP12 ADD PUSH2 0x320F JUMP JUMPDEST SWAP1 SWAP9 POP SWAP7 POP POP PUSH1 0x20 DUP9 ADD CALLDATALOAD PUSH1 0x1 PUSH1 0x1 PUSH1 0x40 SHL SUB DUP2 GT ISZERO PUSH2 0x36A1 JUMPI PUSH0 PUSH0 REVERT JUMPDEST PUSH2 0x36AD DUP11 DUP3 DUP12 ADD PUSH2 0x320F JUMP JUMPDEST SWAP1 SWAP7 POP SWAP5 POP POP PUSH1 0x40 DUP9 ADD CALLDATALOAD PUSH1 0x1 PUSH1 0x1 PUSH1 0x40 SHL SUB DUP2 GT ISZERO PUSH2 0x36CB JUMPI PUSH0 PUSH0 REVERT JUMPDEST PUSH2 0x36D7 DUP11 DUP3 DUP12 ADD PUSH2 0x320F JUMP JUMPDEST SWAP1 SWAP5 POP SWAP3 POP PUSH2 0x36EA SWAP1 POP PUSH1 0x60 DUP10 ADD PUSH2 0x31D4 JUMP JUMPDEST SWAP1 POP SWAP3 SWAP6 SWAP9 SWAP2 SWAP5 SWAP8 POP SWAP3 SWAP6 POP JUMP JUMPDEST PUSH0 PUSH0 PUSH0 PUSH0 PUSH1 0x40 DUP6 DUP8 SUB SLT ISZERO PUSH2 0x370B JUMPI PUSH0 PUSH0 REVERT JUMPDEST DUP5 CALLDATALOAD PUSH1 0x1 PUSH1 0x1 PUSH1 0x40 SHL SUB DUP2 GT ISZERO PUSH2 0x3720 JUMPI PUSH0 PUSH0 REVERT JUMPDEST PUSH2 0x372C DUP8 DUP3 DUP9 ADD PUSH2 0x320F JUMP JUMPDEST SWAP1 SWAP6 POP SWAP4 POP POP PUSH1 0x20 DUP6 ADD CALLDATALOAD PUSH1 0x1 PUSH1 0x1 PUSH1 0x40 SHL SUB DUP2 GT ISZERO PUSH2 0x374A JUMPI PUSH0 PUSH0 REVERT JUMPDEST PUSH2 0x3756 DUP8 DUP3 DUP9 ADD PUSH2 0x320F JUMP JUMPDEST SWAP6 SWAP9 SWAP5 SWAP8 POP SWAP6 POP POP POP POP JUMP JUMPDEST PUSH1 0x20 DUP1 DUP3 MSTORE PUSH1 0x25 SWAP1 DUP3 ADD MSTORE PUSH32 0x536F6C6F20696C206465706C6F79657220647572616E746520696C20626F6F74 PUSH1 0x40 DUP3 ADD MSTORE PUSH5 0x737472617 PUSH1 0xDC SHL PUSH1 0x60 DUP3 ADD MSTORE PUSH1 0x80 ADD SWAP1 JUMP JUMPDEST PUSH4 0x4E487B71 PUSH1 0xE0 SHL PUSH0 MSTORE PUSH1 0x41 PUSH1 0x4 MSTORE PUSH1 0x24 PUSH0 REVERT JUMPDEST PUSH1 0x1 DUP2 DUP2 SHR SWAP1 DUP3 AND DUP1 PUSH2 0x37CF JUMPI PUSH1 0x7F DUP3 AND SWAP2 POP JUMPDEST PUSH1 0x20 DUP3 LT DUP2 SUB PUSH2 0x37ED JUMPI PUSH4 0x4E487B71 PUSH1 0xE0 SHL PUSH0 MSTORE PUSH1 0x22 PUSH1 0x4 MSTORE PUSH1 0x24 PUSH0 REVERT JUMPDEST POP SWAP2 SWAP1 POP JUMP JUMPDEST PUSH1 0x1F DUP3 GT ISZERO PUSH2 0x3837 JUMPI DUP1 PUSH0 MSTORE PUSH1 0x20 PUSH0 KECCAK256 PUSH1 0x1F DUP5 ADD PUSH1 0x5 SHR DUP2 ADD PUSH1 0x20 DUP6 LT ISZERO PUSH2 0x3818 JUMPI POP DUP1 JUMPDEST PUSH1 0x1F DUP5 ADD PUSH1 0x5 SHR DUP3 ADD SWAP2 POP JUMPDEST DUP2 DUP2 LT ISZERO PUSH2 0x6DA JUMPI PUSH0 DUP2 SSTORE PUSH1 0x1 ADD PUSH2 0x3824 JUMP JUMPDEST POP POP POP JUMP JUMPDEST DUP2 MLOAD PUSH1 0x1 PUSH1 0x1 PUSH1 0x40 SHL SUB DUP2 GT ISZERO PUSH2 0x3855 JUMPI PUSH2 0x3855 PUSH2 0x37A7 JUMP JUMPDEST PUSH2 0x3869 DUP2 PUSH2 0x3863 DUP5 SLOAD PUSH2 0x37BB JUMP JUMPDEST DUP5 PUSH2 0x37F3 JUMP JUMPDEST PUSH1 0x20 PUSH1 0x1F DUP3 GT PUSH1 0x1 DUP2 EQ PUSH2 0x389B JUMPI PUSH0 DUP4 ISZERO PUSH2 0x3884 JUMPI POP DUP5 DUP3 ADD MLOAD JUMPDEST PUSH0 NOT PUSH1 0x3 DUP6 SWAP1 SHL SHR NOT AND PUSH1 0x1 DUP5 SWAP1 SHL OR DUP5 SSTORE PUSH2 0x6DA JUMP JUMPDEST PUSH0 DUP5 DUP2 MSTORE PUSH1 0x20 DUP2 KECCAK256 PUSH1 0x1F NOT DUP6 AND SWAP2 JUMPDEST DUP3 DUP2 LT ISZERO PUSH2 0x38CA JUMPI DUP8 DUP6 ADD MLOAD DUP3 SSTORE PUSH1 0x20 SWAP5 DUP6 ADD SWAP5 PUSH1 0x1 SWAP1 SWAP3 ADD SWAP2 ADD PUSH2 0x38AA JUMP JUMPDEST POP DUP5 DUP3 LT ISZERO PUSH2 0x38E7 JUMPI DUP7 DUP5 ADD MLOAD PUSH0 NOT PUSH1 0x3 DUP8 SWAP1 SHL PUSH1 0xF8 AND SHR NOT AND DUP2 SSTORE JUMPDEST POP POP POP POP PUSH1 0x1 SWAP1 DUP2 SHL ADD SWAP1 SSTORE POP JUMP JUMPDEST PUSH1 0x20 DUP1 DUP3 MSTORE PUSH1 0x17 SWAP1 DUP3 ADD MSTORE PUSH32 0x536F6C6F20476F7665726E616E6365436F6E7472616374000000000000000000 PUSH1 0x40 DUP3 ADD MSTORE PUSH1 0x60 ADD SWAP1 JUMP JUMPDEST DUP2 DUP4 DUP3 CALLDATACOPY PUSH0 SWAP2 ADD SWAP1 DUP2 MSTORE SWAP2 SWAP1 POP JUMP JUMPDEST DUP2 DUP4 MSTORE DUP2 DUP2 PUSH1 0x20 DUP6 ADD CALLDATACOPY POP PUSH0 DUP3 DUP3 ADD PUSH1 0x20 SWAP1 DUP2 ADD SWAP2 SWAP1 SWAP2 MSTORE PUSH1 0x1F SWAP1 SWAP2 ADD PUSH1 0x1F NOT AND SWAP1 SWAP2 ADD ADD SWAP1 JUMP JUMPDEST PUSH1 0x20 DUP2 MSTORE PUSH0 PUSH2 0x3977 PUSH1 0x20 DUP4 ADD DUP5 DUP7 PUSH2 0x393C JUMP JUMPDEST SWAP5 SWAP4 POP POP POP POP JUMP JUMPDEST PUSH4 0x4E487B71 PUSH1 0xE0 SHL PUSH0 MSTORE PUSH1 0x11 PUSH1 0x4 MSTORE PUSH1 0x24 PUSH0 REVERT JUMPDEST PUSH0 DUP2 PUSH2 0x39A1 JUMPI PUSH2 0x39A1 PUSH2 0x397F JUMP JUMPDEST POP PUSH0 NOT ADD SWAP1 JUMP JUMPDEST PUSH1 0x40 DUP2 MSTORE PUSH0 PUSH2 0x39BB PUSH1 0x40 DUP4 ADD DUP6 DUP8 PUSH2 0x393C JUMP JUMPDEST SWAP1 POP DUP3 PUSH1 0x20 DUP4 ADD MSTORE SWAP5 SWAP4 POP POP POP POP JUMP JUMPDEST PUSH1 0x20 DUP1 DUP3 MSTORE PUSH1 0x18 SWAP1 DUP3 ADD MSTORE PUSH32 0x436869616D616E7465206E6F6E207265676973747261746F0000000000000000 PUSH1 0x40 DUP3 ADD MSTORE PUSH1 0x60 ADD SWAP1 JUMP JUMPDEST PUSH0 DUP3 MLOAD DUP1 PUSH1 0x20 DUP6 ADD DUP5 MCOPY PUSH0 SWAP3 ADD SWAP2 DUP3 MSTORE POP SWAP2 SWAP1 POP JUMP JUMPDEST PUSH1 0x1 PUSH1 0x1 PUSH1 0x40 SHL SUB DUP4 GT ISZERO PUSH2 0x3A2F JUMPI PUSH2 0x3A2F PUSH2 0x37A7 JUMP JUMPDEST PUSH2 0x3A43 DUP4 PUSH2 0x3A3D DUP4 SLOAD PUSH2 0x37BB JUMP JUMPDEST DUP4 PUSH2 0x37F3 JUMP JUMPDEST PUSH0 PUSH1 0x1F DUP5 GT PUSH1 0x1 DUP2 EQ PUSH2 0x3A74 JUMPI PUSH0 DUP6 ISZERO PUSH2 0x3A5D JUMPI POP DUP4 DUP3 ADD CALLDATALOAD JUMPDEST PUSH0 NOT PUSH1 0x3 DUP8 SWAP1 SHL SHR NOT AND PUSH1 0x1 DUP7 SWAP1 SHL OR DUP4 SSTORE PUSH2 0x6DA JUMP JUMPDEST PUSH0 DUP4 DUP2 MSTORE PUSH1 0x20 DUP2 KECCAK256 PUSH1 0x1F NOT DUP8 AND SWAP2 JUMPDEST DUP3 DUP2 LT ISZERO PUSH2 0x3AA3 JUMPI DUP7 DUP6 ADD CALLDATALOAD DUP3 SSTORE PUSH1 0x20 SWAP5 DUP6 ADD SWAP5 PUSH1 0x1 SWAP1 SWAP3 ADD SWAP2 ADD PUSH2 0x3A83 JUMP JUMPDEST POP DUP7 DUP3 LT ISZERO PUSH2 0x3ABF JUMPI PUSH0 NOT PUSH1 0xF8 DUP9 PUSH1 0x3 SHL AND SHR NOT DUP5 DUP8 ADD CALLDATALOAD AND DUP2 SSTORE JUMPDEST POP POP PUSH1 0x1 DUP6 PUSH1 0x1 SHL ADD DUP4 SSTORE POP POP POP POP POP JUMP JUMPDEST PUSH1 0x80 DUP2 MSTORE PUSH0 PUSH2 0x3AE4 PUSH1 0x80 DUP4 ADD DUP8 DUP10 PUSH2 0x393C JUMP JUMPDEST PUSH2 0x3AF1 PUSH1 0x20 DUP5 ADD DUP8 PUSH2 0x33ED JUMP JUMPDEST DUP3 DUP2 SUB PUSH1 0x40 DUP5 ADD MSTORE PUSH2 0x3B03 DUP2 DUP7 PUSH2 0x3397 JUMP JUMPDEST SWAP2 POP POP DUP3 PUSH1 0x60 DUP4 ADD MSTORE SWAP7 SWAP6 POP POP POP POP POP POP JUMP JUMPDEST PUSH1 0x80 DUP2 MSTORE PUSH0 PUSH2 0x3B29 PUSH1 0x80 DUP4 ADD DUP7 DUP9 PUSH2 0x393C JUMP JUMPDEST PUSH2 0x3B36 PUSH1 0x20 DUP5 ADD DUP7 PUSH2 0x33ED JUMP JUMPDEST DUP3 DUP2 SUB PUSH1 0x40 DUP5 ADD MSTORE PUSH1 0xA DUP2 MSTORE PUSH10 0x676F7665726E616E6365 PUSH1 0xB0 SHL PUSH1 0x20 DUP3 ADD MSTORE PUSH1 0x40 DUP2 ADD SWAP2 POP POP DUP3 PUSH1 0x60 DUP4 ADD MSTORE SWAP6 SWAP5 POP POP POP POP POP JUMP JUMPDEST PUSH0 DUP2 SLOAD PUSH2 0x3B77 DUP2 PUSH2 0x37BB JUMP JUMPDEST PUSH1 0x1 DUP3 AND DUP1 ISZERO PUSH2 0x3B8E JUMPI PUSH1 0x1 DUP2 EQ PUSH2 0x3BA3 JUMPI PUSH2 0x3BD0 JUMP JUMPDEST PUSH1 0xFF NOT DUP4 AND DUP7 MSTORE DUP2 ISZERO ISZERO DUP3 MUL DUP7 ADD SWAP4 POP PUSH2 0x3BD0 JUMP JUMPDEST DUP5 PUSH0 MSTORE PUSH1 0x20 PUSH0 KECCAK256 PUSH0 JUMPDEST DUP4 DUP2 LT ISZERO PUSH2 0x3BC8 JUMPI DUP2 SLOAD DUP9 DUP3 ADD MSTORE PUSH1 0x1 SWAP1 SWAP2 ADD SWAP1 PUSH1 0x20 ADD PUSH2 0x3BAC JUMP JUMPDEST POP POP DUP2 DUP7 ADD SWAP4 POP JUMPDEST POP POP POP SWAP3 SWAP2 POP POP JUMP JUMPDEST PUSH0 PUSH2 0x3208 DUP3 DUP5 PUSH2 0x3B6B JUMP JUMPDEST PUSH1 0x40 DUP2 MSTORE PUSH0 PUSH2 0x3BF6 PUSH1 0x40 DUP4 ADD DUP6 PUSH2 0x3397 JUMP JUMPDEST SWAP1 POP DUP3 PUSH1 0x20 DUP4 ADD MSTORE SWAP4 SWAP3 POP POP POP JUMP JUMPDEST PUSH4 0x4E487B71 PUSH1 0xE0 SHL PUSH0 MSTORE PUSH1 0x32 PUSH1 0x4 MSTORE PUSH1 0x24 PUSH0 REVERT JUMPDEST PUSH0 PUSH1 0x1 DUP3 ADD PUSH2 0x3C2A JUMPI PUSH2 0x3C2A PUSH2 0x397F JUMP JUMPDEST POP PUSH1 0x1 ADD SWAP1 JUMP JUMPDEST PUSH0 PUSH1 0x20 DUP3 DUP5 SUB SLT ISZERO PUSH2 0x3C41 JUMPI PUSH0 PUSH0 REVERT JUMPDEST DUP2 CALLDATALOAD PUSH1 0x3 DUP2 LT PUSH2 0x3208 JUMPI PUSH0 PUSH0 REVERT INVALID SWAP4 0xC8 0xE0 0xA7 CALL SWAP16 PUSH25 0xDB09FF31218692089ABBC6C34F7D0B2E4DC734DA6BC3256EC5 LOG2 PUSH5 0x6970667358 0x22 SLT KECCAK256 SWAP4 SWAP14 PUSH26 0xC52539FE704A72B6BE8C632745F6D0B61B57D6F5D1231E0E30B5 SHR 0xD5 0xC8 PUSH5 0x736F6C6343 STOP ADDMOD SHR STOP CALLER "},"methodIdentifiers":{"activeAuditorCount()":"b5d81309","activePACount()":"795a2d1a","finalizeBootstrap()":"06c7e131","getCredentialIssuer(bytes32)":"d432e8bb","getDIDByAddress(address)":"95f9250d","isActive(string)":"c8902a21","isBootstrapComplete()":"1d2626f7","isCredentialRevoked(bytes32)":"00cf8668","registerAuditor(string,bytes,address,bytes32)":"381d2332","registerDelegated(string,bytes,address,uint8,uint256,uint8[],bytes32)":"8985d278","registerNewAuditor(string,bytes,address)":"570b0bd2","registerNewPA(string,bytes,address)":"39b3aad2","registerPA(string,bytes,address)":"a0eb75d8","replacePAByGovernance(string,string,bytes,address)":"b5c64ae7","resolve(string)":"461a4478","revokeByGovernance(string)":"74e47342","revokeCredential(bytes32)":"ca6eec78","revokeDID(string)":"cfe3b347","rotateKey(string,bytes)":"f737ea7d","setGovernanceContract(address)":"1129753f"}}}}}