{"project/contracts/CredentialValidationContract.sol":{"CredentialValidationContract":{"abi":[{"inputs":[],"stateMutability":"nonpayable","type":"constructor"},{"inputs":[],"name":"AuditWindowClosed","type":"error"},{"inputs":[],"name":"BootstrapAlreadyComplete","type":"error"},{"inputs":[],"name":"BootstrapNotComplete","type":"error"},{"inputs":[{"internalType":"string","name":"expected","type":"string"},{"internalType":"string","name":"provided","type":"string"}],"name":"HolderMismatch","type":"error"},{"inputs":[{"internalType":"string","name":"reason","type":"string"}],"name":"InvalidInput","type":"error"},{"inputs":[{"internalType":"string","name":"reason","type":"string"}],"name":"NotAuthorized","type":"error"},{"inputs":[{"internalType":"bytes32","name":"validationId","type":"bytes32"}],"name":"ValidationAlreadyUsed","type":"error"},{"inputs":[{"internalType":"bytes32","name":"validationId","type":"bytes32"}],"name":"ValidationExpired","type":"error"},{"inputs":[{"internalType":"bytes32","name":"validationId","type":"bytes32"}],"name":"ValidationNotFound","type":"error"},{"anonymous":false,"inputs":[{"indexed":true,"internalType":"address","name":"deployer","type":"address"},{"indexed":false,"internalType":"uint256","name":"timestamp","type":"uint256"}],"name":"BootstrapFinalized","type":"event"},{"anonymous":false,"inputs":[{"indexed":true,"internalType":"address","name":"governance","type":"address"},{"indexed":false,"internalType":"uint256","name":"timestamp","type":"uint256"}],"name":"GovernanceContractSet","type":"event"},{"anonymous":false,"inputs":[{"indexed":true,"internalType":"address","name":"registry","type":"address"},{"indexed":false,"internalType":"uint256","name":"timestamp","type":"uint256"}],"name":"IdentityRegistrySet","type":"event"},{"anonymous":false,"inputs":[{"indexed":true,"internalType":"bytes32","name":"validationId","type":"bytes32"},{"indexed":false,"internalType":"address","name":"consumer","type":"address"},{"indexed":false,"internalType":"uint256","name":"timestamp","type":"uint256"}],"name":"ValidationConsumed","type":"event"},{"anonymous":false,"inputs":[{"indexed":true,"internalType":"bytes32","name":"validationId","type":"bytes32"},{"indexed":false,"internalType":"string","name":"holderDID","type":"string"},{"indexed":false,"internalType":"uint8","name":"role","type":"uint8"},{"indexed":false,"internalType":"uint8","name":"domain","type":"uint8"},{"indexed":false,"internalType":"uint256","name":"expiresAt","type":"uint256"},{"indexed":false,"internalType":"uint256","name":"timestamp","type":"uint256"}],"name":"ValidationRegistered","type":"event"},{"inputs":[],"name":"VALIDATION_TTL","outputs":[{"internalType":"uint256","name":"","type":"uint256"}],"stateMutability":"view","type":"function"},{"inputs":[{"internalType":"bytes32","name":"validationId","type":"bytes32"},{"internalType":"string","name":"expectedDID","type":"string"},{"internalType":"uint8","name":"expectedRole","type":"uint8"},{"internalType":"uint8","name":"expectedDomain","type":"uint8"}],"name":"consumeValidation","outputs":[{"internalType":"bool","name":"","type":"bool"}],"stateMutability":"nonpayable","type":"function"},{"inputs":[],"name":"finalizeBootstrap","outputs":[],"stateMutability":"nonpayable","type":"function"},{"inputs":[],"name":"getGovernanceContract","outputs":[{"internalType":"address","name":"","type":"address"}],"stateMutability":"view","type":"function"},{"inputs":[],"name":"getIdentityRegistry","outputs":[{"internalType":"address","name":"","type":"address"}],"stateMutability":"view","type":"function"},{"inputs":[{"internalType":"bytes32","name":"validationId","type":"bytes32"}],"name":"getValidation","outputs":[{"components":[{"internalType":"string","name":"holderDID","type":"string"},{"internalType":"uint8","name":"role","type":"uint8"},{"internalType":"uint8","name":"domain","type":"uint8"},{"internalType":"uint256","name":"validatedAt","type":"uint256"},{"internalType":"uint256","name":"expiresAt","type":"uint256"},{"internalType":"bool","name":"used","type":"bool"}],"internalType":"struct CredentialValidationContract.ValidationRecord","name":"","type":"tuple"}],"stateMutability":"view","type":"function"},{"inputs":[],"name":"isBootstrapComplete","outputs":[{"internalType":"bool","name":"","type":"bool"}],"stateMutability":"view","type":"function"},{"inputs":[{"internalType":"bytes32","name":"validationId","type":"bytes32"}],"name":"isValidationUsable","outputs":[{"internalType":"bool","name":"","type":"bool"}],"stateMutability":"view","type":"function"},{"inputs":[{"internalType":"bytes32","name":"validationId","type":"bytes32"},{"internalType":"string","name":"holderDID","type":"string"},{"internalType":"uint8","name":"role","type":"uint8"},{"internalType":"uint8","name":"domain","type":"uint8"},{"internalType":"uint256","name":"vcExpiresAt","type":"uint256"}],"name":"registerValidation","outputs":[],"stateMutability":"nonpayable","type":"function"},{"inputs":[{"internalType":"address","name":"governance","type":"address"}],"name":"setGovernanceContract","outputs":[],"stateMutability":"nonpayable","type":"function"},{"inputs":[{"internalType":"address","name":"registry","type":"address"}],"name":"setIdentityRegistry","outputs":[],"stateMutability":"nonpayable","type":"function"},{"inputs":[{"internalType":"address","name":"registry","type":"address"}],"name":"setPolicyRegistry","outputs":[],"stateMutability":"nonpayable","type":"function"}],"evm":{"bytecode":{"linkReferences":{},"object":"6080604052348015600e575f5ffd5b50600480546001600160a01b031916331790556114688061002e5f395ff3fe608060405234801561000f575f5ffd5b50600436106100b1575f3560e01c80638b5b01561161006e5780638b5b01561461012e578063a8091fc314610145578063bc4d861b14610165578063cbf3f86114610189578063e015c85d1461019c578063ef2fa85f146101af575f5ffd5b806306c7e131146100b55780630fd4217e146100bf5780631129753f146100d25780631d2626f7146100e5578063201d5498146101085780634ed8c9b21461011b575b5f5ffd5b6100bd6101c0565b005b6100bd6100cd366004610ea0565b61037f565b6100bd6100e0366004610f12565b6107cf565b600454600160a01b900460ff165b60405190151581526020015b60405180910390f35b6100f3610116366004610f38565b6108a1565b6100f3610129366004610fa2565b610b50565b61013761012c81565b6040519081526020016100ff565b610158610153366004610fa2565b610b8c565b6040516100ff9190610fe7565b5f546001600160a01b03165b6040516001600160a01b0390911681526020016100ff565b6100bd610197366004610f12565b610cdd565b6100bd6101aa366004610f12565b610da7565b6001546001600160a01b0316610171565b600454600160a01b900460ff16156101eb576040516351e5a70160e11b815260040160405180910390fd5b6004546001600160a01b0316331461021f5760405163eb1cd1d160e01b815260040161021690611048565b60405180910390fd5b5f546001600160a01b03166102775760405163d647364f60e01b815260206004820152601e60248201527f4964656e746974795265676973747279206e6f6e20696d706f737461746f00006044820152606401610216565b6001546001600160a01b03166102d05760405163d647364f60e01b815260206004820181905260248201527f476f7665726e616e6365436f6e7472616374206e6f6e20696d706f737461746f6044820152606401610216565b6002546001600160a01b03166103295760405163d647364f60e01b815260206004820152601c60248201527f506f6c6963795265676973747279206e6f6e20696d706f737461746f000000006044820152606401610216565b60048054600160a01b60ff60a01b198216179091556040514281526001600160a01b03909116907f9801a6b1e8682e27f2f663cc8c1cbbd14d87e5533cfc932338d8b4dd458bf5b29060200160405180910390a2565b600454600160a01b900460ff166103a9576040516359de1bb360e01b815260040160405180910390fd5b856103f75760405163d647364f60e01b815260206004820152601760248201527f76616c69646174696f6e4964206e6f6e2076616c69646f0000000000000000006044820152606401610216565b5f84900361043a5760405163d647364f60e01b815260206004820152600f60248201526e686f6c6465724449442076756f746f60881b6044820152606401610216565b5f86815260036020526040902060020154156104995760405163d647364f60e01b815260206004820152601b60248201527f76616c69646174696f6e496420676961207265676973747261746f00000000006044820152606401610216565b5f80546040516395f9250d60e01b81523360048201526001600160a01b03909116906395f9250d906024015f60405180830381865afa1580156104de573d5f5f3e3d5ffd5b505050506040513d5f823e601f3d908101601f1916820160405261050591908101906110a1565b90508585604051610517929190611154565b604051809103902081805190602001201461054b578585826040516345e9a49b60e11b81526004016102169392919061118b565b5f5460405163c8902a2160e01b81526001600160a01b039091169063c8902a219061057c90899089906004016111ba565b602060405180830381865afa158015610597573d5f5f3e3d5ffd5b505050506040513d601f19601f820116820180604052508101906105bb91906111d5565b6105f95760405163eb1cd1d160e01b815260206004820152600e60248201526d444944206e6f6e2061747469766f60901b6044820152606401610216565b60021960ff8516016106965760015f9054906101000a90046001600160a01b03166001600160a01b0316639782132b6040518163ffffffff1660e01b8152600401602060405180830381865afa158015610655573d5f5f3e3d5ffd5b505050506040513d601f19601f8201168201806040525081019061067991906111d5565b6106965760405163113f272360e21b815260040160405180910390fd5b5f6106a361012c426111f4565b6040805160e06020601f8b01819004028201810190925260c081018981529293509182918a908a90819085018382808284375f92018290525093855250505060ff8089166020808501919091529088166040808501919091524260608501526080840186905260a09093018290528b8252600390522081518190610727908261129d565b50602082015160018201805460408086015160ff9081166101000261ffff19909316941693909317179055606083015160028301556080830151600383015560a0909201516004909101805491151560ff19929092169190911790555188907ffd1fccb9206b91ea7acdfe3c7a58dce71a0ad9b618e63b795ce2124cd31159d1906107bd908a908a908a908a9088904290611358565b60405180910390a25050505050505050565b600454600160a01b900460ff16156107fa576040516351e5a70160e11b815260040160405180910390fd5b6004546001600160a01b031633146108255760405163eb1cd1d160e01b815260040161021690611048565b6001600160a01b03811661084c5760405163d647364f60e01b815260040161021690611393565b600180546001600160a01b0319166001600160a01b0383169081179091556040514281527f4bc5327e40eedb632de91eca6002c43fa05aafbb8693def34a712935e47c5748906020015b60405180910390a250565b6004545f90600160a01b900460ff166108cd576040516359de1bb360e01b815260040160405180910390fd5b6001546001600160a01b031633148015906108f357506002546001600160a01b03163314155b156109525760405163eb1cd1d160e01b815260206004820152602860248201527f536f6c6f20476f7665726e616e6365436f6e7472616374206f20506f6c696379604482015267526567697374727960c01b6064820152608401610216565b5f86815260036020526040812060028101549091036109875760405163260bf7bf60e21b815260048101889052602401610216565b80600301544211156109af576040516345cac65d60e11b815260048101889052602401610216565b600481015460ff16156109d857604051635ef58dc760e11b815260048101889052602401610216565b85856040516109e8929190611154565b604051908190038120906109fd9083906113c1565b604051809103902014610a495760405163eb1cd1d160e01b8152602060048201526013602482015272444944206e6f6e20636f72726973706f6e646560681b6044820152606401610216565b600181015460ff858116911614610a9b5760405163eb1cd1d160e01b815260206004820152601560248201527452756f6c6f206e6f6e20636f72726973706f6e646560581b6044820152606401610216565b600181015460ff8481166101009092041614610afa5760405163eb1cd1d160e01b815260206004820152601760248201527f446f6d696e696f206e6f6e20636f72726973706f6e64650000000000000000006044820152606401610216565b60048101805460ff191660011790556040805133815242602082015288917fb333b84305414474c9d092bf37fa9dcb9deec22d8c16726cfb2db1c9dc30af9b910160405180910390a25060019695505050505050565b5f818152600360205260408120600281015415801590610b755750600481015460ff16155b8015610b85575080600301544211155b9392505050565b6040805160c08101825260608082525f6020830181905292820183905281018290526080810182905260a08101919091525f828152600360205260408120600201549003610bf05760405163260bf7bf60e21b815260048101839052602401610216565b5f8281526003602052604090819020815160c08101909252805482908290610c1790611219565b80601f0160208091040260200160405190810160405280929190818152602001828054610c4390611219565b8015610c8e5780601f10610c6557610100808354040283529160200191610c8e565b820191905f5260205f20905b815481529060010190602001808311610c7157829003601f168201915b5050509183525050600182015460ff8082166020840152610100909104811660408301526002830154606083015260038301546080830152600490920154909116151560a09091015292915050565b600454600160a01b900460ff1615610d08576040516351e5a70160e11b815260040160405180910390fd5b6004546001600160a01b03163314610d335760405163eb1cd1d160e01b815260040161021690611048565b6001600160a01b038116610d5a5760405163d647364f60e01b815260040161021690611393565b5f80546001600160a01b0319166001600160a01b0383169081179091556040514281527fb279d83ea0d87c763b2f6e1457a9572e284339948adf5ad4b58b90ac77cb540790602001610896565b600454600160a01b900460ff1615610dd2576040516351e5a70160e11b815260040160405180910390fd5b6004546001600160a01b03163314610dfd5760405163eb1cd1d160e01b815260040161021690611048565b6001600160a01b038116610e245760405163d647364f60e01b815260040161021690611393565b600280546001600160a01b0319166001600160a01b0392909216919091179055565b5f5f83601f840112610e56575f5ffd5b50813567ffffffffffffffff811115610e6d575f5ffd5b602083019150836020828501011115610e84575f5ffd5b9250929050565b803560ff81168114610e9b575f5ffd5b919050565b5f5f5f5f5f5f60a08789031215610eb5575f5ffd5b86359550602087013567ffffffffffffffff811115610ed2575f5ffd5b610ede89828a01610e46565b9096509450610ef1905060408801610e8b565b9250610eff60608801610e8b565b9150608087013590509295509295509295565b5f60208284031215610f22575f5ffd5b81356001600160a01b0381168114610b85575f5ffd5b5f5f5f5f5f60808688031215610f4c575f5ffd5b85359450602086013567ffffffffffffffff811115610f69575f5ffd5b610f7588828901610e46565b9095509350610f88905060408701610e8b565b9150610f9660608701610e8b565b90509295509295909350565b5f60208284031215610fb2575f5ffd5b5035919050565b5f81518084528060208401602086015e5f602082860101526020601f19601f83011685010191505092915050565b602081525f825160c0602084015261100260e0840182610fb9565b905060ff602085015116604084015260ff604085015116606084015260608401516080840152608084015160a084015260a0840151151560c08401528091505092915050565b60208082526025908201527f536f6c6f20696c206465706c6f79657220647572616e746520696c20626f6f74604082015264073747261760dc1b606082015260800190565b634e487b7160e01b5f52604160045260245ffd5b5f602082840312156110b1575f5ffd5b815167ffffffffffffffff8111156110c7575f5ffd5b8201601f810184136110d7575f5ffd5b805167ffffffffffffffff8111156110f1576110f161108d565b604051601f8201601f19908116603f0116810167ffffffffffffffff811182821017156111205761112061108d565b604052818152828201602001861015611137575f5ffd5b8160208401602083015e5f91810160200191909152949350505050565b818382375f9101908152919050565b81835281816020850137505f828201602090810191909152601f909101601f19169091010190565b604081525f61119e604083018587611163565b82810360208401526111b08185610fb9565b9695505050505050565b602081525f6111cd602083018486611163565b949350505050565b5f602082840312156111e5575f5ffd5b81518015158114610b85575f5ffd5b8082018082111561121357634e487b7160e01b5f52601160045260245ffd5b92915050565b600181811c9082168061122d57607f821691505b60208210810361124b57634e487b7160e01b5f52602260045260245ffd5b50919050565b601f82111561129857805f5260205f20601f840160051c810160208510156112765750805b601f840160051c820191505b81811015611295575f8155600101611282565b50505b505050565b815167ffffffffffffffff8111156112b7576112b761108d565b6112cb816112c58454611219565b84611251565b6020601f8211600181146112fd575f83156112e65750848201515b5f19600385901b1c1916600184901b178455611295565b5f84815260208120601f198516915b8281101561132c578785015182556020948501946001909201910161130c565b508482101561134957868401515f19600387901b60f8161c191681555b50505050600190811b01905550565b60a081525f61136b60a08301888a611163565b60ff968716602084015294909516604082015260608101929092526080909101529392505050565b602080825260149082015273496e646972697a7a6f206e6f6e2076616c69646f60601b604082015260600190565b5f5f83546113ce81611219565b6001821680156113e557600181146113fa57611427565b60ff1983168652811515820286019350611427565b865f5260205f205f5b8381101561141f57815488820152600190910190602001611403565b505081860193505b50919594505050505056fea264697066735822122072ea17b3c906b911916c0d38701663d2ed5caac7d3f018fa0961125786a9ad6064736f6c634300081c0033","opcodes":"PUSH1 0x80 PUSH1 0x40 MSTORE CALLVALUE DUP1 ISZERO PUSH1 0xE JUMPI PUSH0 PUSH0 REVERT JUMPDEST POP PUSH1 0x4 DUP1 SLOAD PUSH1 0x1 PUSH1 0x1 PUSH1 0xA0 SHL SUB NOT AND CALLER OR SWAP1 SSTORE PUSH2 0x1468 DUP1 PUSH2 0x2E PUSH0 CODECOPY PUSH0 RETURN INVALID PUSH1 0x80 PUSH1 0x40 MSTORE CALLVALUE DUP1 ISZERO PUSH2 0xF JUMPI PUSH0 PUSH0 REVERT JUMPDEST POP PUSH1 0x4 CALLDATASIZE LT PUSH2 0xB1 JUMPI PUSH0 CALLDATALOAD PUSH1 0xE0 SHR DUP1 PUSH4 0x8B5B0156 GT PUSH2 0x6E JUMPI DUP1 PUSH4 0x8B5B0156 EQ PUSH2 0x12E JUMPI DUP1 PUSH4 0xA8091FC3 EQ PUSH2 0x145 JUMPI DUP1 PUSH4 0xBC4D861B EQ PUSH2 0x165 JUMPI DUP1 PUSH4 0xCBF3F861 EQ PUSH2 0x189 JUMPI DUP1 PUSH4 0xE015C85D EQ PUSH2 0x19C JUMPI DUP1 PUSH4 0xEF2FA85F EQ PUSH2 0x1AF JUMPI PUSH0 PUSH0 REVERT JUMPDEST DUP1 PUSH4 0x6C7E131 EQ PUSH2 0xB5 JUMPI DUP1 PUSH4 0xFD4217E EQ PUSH2 0xBF JUMPI DUP1 PUSH4 0x1129753F EQ PUSH2 0xD2 JUMPI DUP1 PUSH4 0x1D2626F7 EQ PUSH2 0xE5 JUMPI DUP1 PUSH4 0x201D5498 EQ PUSH2 0x108 JUMPI DUP1 PUSH4 0x4ED8C9B2 EQ PUSH2 0x11B JUMPI JUMPDEST PUSH0 PUSH0 REVERT JUMPDEST PUSH2 0xBD PUSH2 0x1C0 JUMP JUMPDEST STOP JUMPDEST PUSH2 0xBD PUSH2 0xCD CALLDATASIZE PUSH1 0x4 PUSH2 0xEA0 JUMP JUMPDEST PUSH2 0x37F JUMP JUMPDEST PUSH2 0xBD PUSH2 0xE0 CALLDATASIZE PUSH1 0x4 PUSH2 0xF12 JUMP JUMPDEST PUSH2 0x7CF JUMP JUMPDEST PUSH1 0x4 SLOAD PUSH1 0x1 PUSH1 0xA0 SHL SWAP1 DIV PUSH1 0xFF AND JUMPDEST PUSH1 0x40 MLOAD SWAP1 ISZERO ISZERO DUP2 MSTORE PUSH1 0x20 ADD JUMPDEST PUSH1 0x40 MLOAD DUP1 SWAP2 SUB SWAP1 RETURN JUMPDEST PUSH2 0xF3 PUSH2 0x116 CALLDATASIZE PUSH1 0x4 PUSH2 0xF38 JUMP JUMPDEST PUSH2 0x8A1 JUMP JUMPDEST PUSH2 0xF3 PUSH2 0x129 CALLDATASIZE PUSH1 0x4 PUSH2 0xFA2 JUMP JUMPDEST PUSH2 0xB50 JUMP JUMPDEST PUSH2 0x137 PUSH2 0x12C DUP2 JUMP JUMPDEST PUSH1 0x40 MLOAD SWAP1 DUP2 MSTORE PUSH1 0x20 ADD PUSH2 0xFF JUMP JUMPDEST PUSH2 0x158 PUSH2 0x153 CALLDATASIZE PUSH1 0x4 PUSH2 0xFA2 JUMP JUMPDEST PUSH2 0xB8C JUMP JUMPDEST PUSH1 0x40 MLOAD PUSH2 0xFF SWAP2 SWAP1 PUSH2 0xFE7 JUMP JUMPDEST PUSH0 SLOAD PUSH1 0x1 PUSH1 0x1 PUSH1 0xA0 SHL SUB AND JUMPDEST PUSH1 0x40 MLOAD PUSH1 0x1 PUSH1 0x1 PUSH1 0xA0 SHL SUB SWAP1 SWAP2 AND DUP2 MSTORE PUSH1 0x20 ADD PUSH2 0xFF JUMP JUMPDEST PUSH2 0xBD PUSH2 0x197 CALLDATASIZE PUSH1 0x4 PUSH2 0xF12 JUMP JUMPDEST PUSH2 0xCDD JUMP JUMPDEST PUSH2 0xBD PUSH2 0x1AA CALLDATASIZE PUSH1 0x4 PUSH2 0xF12 JUMP JUMPDEST PUSH2 0xDA7 JUMP JUMPDEST PUSH1 0x1 SLOAD PUSH1 0x1 PUSH1 0x1 PUSH1 0xA0 SHL SUB AND PUSH2 0x171 JUMP JUMPDEST PUSH1 0x4 SLOAD PUSH1 0x1 PUSH1 0xA0 SHL SWAP1 DIV PUSH1 0xFF AND ISZERO PUSH2 0x1EB JUMPI PUSH1 0x40 MLOAD PUSH4 0x51E5A701 PUSH1 0xE1 SHL DUP2 MSTORE PUSH1 0x4 ADD PUSH1 0x40 MLOAD DUP1 SWAP2 SUB SWAP1 REVERT JUMPDEST PUSH1 0x4 SLOAD PUSH1 0x1 PUSH1 0x1 PUSH1 0xA0 SHL SUB AND CALLER EQ PUSH2 0x21F JUMPI PUSH1 0x40 MLOAD PUSH4 0xEB1CD1D1 PUSH1 0xE0 SHL DUP2 MSTORE PUSH1 0x4 ADD PUSH2 0x216 SWAP1 PUSH2 0x1048 JUMP JUMPDEST PUSH1 0x40 MLOAD DUP1 SWAP2 SUB SWAP1 REVERT JUMPDEST PUSH0 SLOAD PUSH1 0x1 PUSH1 0x1 PUSH1 0xA0 SHL SUB AND PUSH2 0x277 JUMPI PUSH1 0x40 MLOAD PUSH4 0xD647364F PUSH1 0xE0 SHL DUP2 MSTORE PUSH1 0x20 PUSH1 0x4 DUP3 ADD MSTORE PUSH1 0x1E PUSH1 0x24 DUP3 ADD MSTORE PUSH32 0x4964656E746974795265676973747279206E6F6E20696D706F737461746F0000 PUSH1 0x44 DUP3 ADD MSTORE PUSH1 0x64 ADD PUSH2 0x216 JUMP JUMPDEST PUSH1 0x1 SLOAD PUSH1 0x1 PUSH1 0x1 PUSH1 0xA0 SHL SUB AND PUSH2 0x2D0 JUMPI PUSH1 0x40 MLOAD PUSH4 0xD647364F PUSH1 0xE0 SHL DUP2 MSTORE PUSH1 0x20 PUSH1 0x4 DUP3 ADD DUP2 SWAP1 MSTORE PUSH1 0x24 DUP3 ADD MSTORE PUSH32 0x476F7665726E616E6365436F6E7472616374206E6F6E20696D706F737461746F PUSH1 0x44 DUP3 ADD MSTORE PUSH1 0x64 ADD PUSH2 0x216 JUMP JUMPDEST PUSH1 0x2 SLOAD PUSH1 0x1 PUSH1 0x1 PUSH1 0xA0 SHL SUB AND PUSH2 0x329 JUMPI PUSH1 0x40 MLOAD PUSH4 0xD647364F PUSH1 0xE0 SHL DUP2 MSTORE PUSH1 0x20 PUSH1 0x4 DUP3 ADD MSTORE PUSH1 0x1C PUSH1 0x24 DUP3 ADD MSTORE PUSH32 0x506F6C6963795265676973747279206E6F6E20696D706F737461746F00000000 PUSH1 0x44 DUP3 ADD MSTORE PUSH1 0x64 ADD PUSH2 0x216 JUMP JUMPDEST PUSH1 0x4 DUP1 SLOAD PUSH1 0x1 PUSH1 0xA0 SHL PUSH1 0xFF PUSH1 0xA0 SHL NOT DUP3 AND OR SWAP1 SWAP2 SSTORE PUSH1 0x40 MLOAD TIMESTAMP DUP2 MSTORE PUSH1 0x1 PUSH1 0x1 PUSH1 0xA0 SHL SUB SWAP1 SWAP2 AND SWAP1 PUSH32 0x9801A6B1E8682E27F2F663CC8C1CBBD14D87E5533CFC932338D8B4DD458BF5B2 SWAP1 PUSH1 0x20 ADD PUSH1 0x40 MLOAD DUP1 SWAP2 SUB SWAP1 LOG2 JUMP JUMPDEST PUSH1 0x4 SLOAD PUSH1 0x1 PUSH1 0xA0 SHL SWAP1 DIV PUSH1 0xFF AND PUSH2 0x3A9 JUMPI PUSH1 0x40 MLOAD PUSH4 0x59DE1BB3 PUSH1 0xE0 SHL DUP2 MSTORE PUSH1 0x4 ADD PUSH1 0x40 MLOAD DUP1 SWAP2 SUB SWAP1 REVERT JUMPDEST DUP6 PUSH2 0x3F7 JUMPI PUSH1 0x40 MLOAD PUSH4 0xD647364F PUSH1 0xE0 SHL DUP2 MSTORE PUSH1 0x20 PUSH1 0x4 DUP3 ADD MSTORE PUSH1 0x17 PUSH1 0x24 DUP3 ADD MSTORE PUSH32 0x76616C69646174696F6E4964206E6F6E2076616C69646F000000000000000000 PUSH1 0x44 DUP3 ADD MSTORE PUSH1 0x64 ADD PUSH2 0x216 JUMP JUMPDEST PUSH0 DUP5 SWAP1 SUB PUSH2 0x43A JUMPI PUSH1 0x40 MLOAD PUSH4 0xD647364F PUSH1 0xE0 SHL DUP2 MSTORE PUSH1 0x20 PUSH1 0x4 DUP3 ADD MSTORE PUSH1 0xF PUSH1 0x24 DUP3 ADD MSTORE PUSH15 0x686F6C6465724449442076756F746F PUSH1 0x88 SHL PUSH1 0x44 DUP3 ADD MSTORE PUSH1 0x64 ADD PUSH2 0x216 JUMP JUMPDEST PUSH0 DUP7 DUP2 MSTORE PUSH1 0x3 PUSH1 0x20 MSTORE PUSH1 0x40 SWAP1 KECCAK256 PUSH1 0x2 ADD SLOAD ISZERO PUSH2 0x499 JUMPI PUSH1 0x40 MLOAD PUSH4 0xD647364F PUSH1 0xE0 SHL DUP2 MSTORE PUSH1 0x20 PUSH1 0x4 DUP3 ADD MSTORE PUSH1 0x1B PUSH1 0x24 DUP3 ADD MSTORE PUSH32 0x76616C69646174696F6E496420676961207265676973747261746F0000000000 PUSH1 0x44 DUP3 ADD MSTORE PUSH1 0x64 ADD PUSH2 0x216 JUMP JUMPDEST PUSH0 DUP1 SLOAD PUSH1 0x40 MLOAD PUSH4 0x95F9250D PUSH1 0xE0 SHL DUP2 MSTORE CALLER PUSH1 0x4 DUP3 ADD MSTORE PUSH1 0x1 PUSH1 0x1 PUSH1 0xA0 SHL SUB SWAP1 SWAP2 AND SWAP1 PUSH4 0x95F9250D SWAP1 PUSH1 0x24 ADD PUSH0 PUSH1 0x40 MLOAD DUP1 DUP4 SUB DUP2 DUP7 GAS STATICCALL ISZERO DUP1 ISZERO PUSH2 0x4DE JUMPI RETURNDATASIZE PUSH0 PUSH0 RETURNDATACOPY RETURNDATASIZE PUSH0 REVERT JUMPDEST POP POP POP POP PUSH1 0x40 MLOAD RETURNDATASIZE PUSH0 DUP3 RETURNDATACOPY PUSH1 0x1F RETURNDATASIZE SWAP1 DUP2 ADD PUSH1 0x1F NOT AND DUP3 ADD PUSH1 0x40 MSTORE PUSH2 0x505 SWAP2 SWAP1 DUP2 ADD SWAP1 PUSH2 0x10A1 JUMP JUMPDEST SWAP1 POP DUP6 DUP6 PUSH1 0x40 MLOAD PUSH2 0x517 SWAP3 SWAP2 SWAP1 PUSH2 0x1154 JUMP JUMPDEST PUSH1 0x40 MLOAD DUP1 SWAP2 SUB SWAP1 KECCAK256 DUP2 DUP1 MLOAD SWAP1 PUSH1 0x20 ADD KECCAK256 EQ PUSH2 0x54B JUMPI DUP6 DUP6 DUP3 PUSH1 0x40 MLOAD PUSH4 0x45E9A49B PUSH1 0xE1 SHL DUP2 MSTORE PUSH1 0x4 ADD PUSH2 0x216 SWAP4 SWAP3 SWAP2 SWAP1 PUSH2 0x118B JUMP JUMPDEST PUSH0 SLOAD PUSH1 0x40 MLOAD PUSH4 0xC8902A21 PUSH1 0xE0 SHL DUP2 MSTORE PUSH1 0x1 PUSH1 0x1 PUSH1 0xA0 SHL SUB SWAP1 SWAP2 AND SWAP1 PUSH4 0xC8902A21 SWAP1 PUSH2 0x57C SWAP1 DUP10 SWAP1 DUP10 SWAP1 PUSH1 0x4 ADD PUSH2 0x11BA JUMP JUMPDEST PUSH1 0x20 PUSH1 0x40 MLOAD DUP1 DUP4 SUB DUP2 DUP7 GAS STATICCALL ISZERO DUP1 ISZERO PUSH2 0x597 JUMPI RETURNDATASIZE PUSH0 PUSH0 RETURNDATACOPY RETURNDATASIZE PUSH0 REVERT JUMPDEST POP POP POP POP PUSH1 0x40 MLOAD RETURNDATASIZE PUSH1 0x1F NOT PUSH1 0x1F DUP3 ADD AND DUP3 ADD DUP1 PUSH1 0x40 MSTORE POP DUP2 ADD SWAP1 PUSH2 0x5BB SWAP2 SWAP1 PUSH2 0x11D5 JUMP JUMPDEST PUSH2 0x5F9 JUMPI PUSH1 0x40 MLOAD PUSH4 0xEB1CD1D1 PUSH1 0xE0 SHL DUP2 MSTORE PUSH1 0x20 PUSH1 0x4 DUP3 ADD MSTORE PUSH1 0xE PUSH1 0x24 DUP3 ADD MSTORE PUSH14 0x444944206E6F6E2061747469766F PUSH1 0x90 SHL PUSH1 0x44 DUP3 ADD MSTORE PUSH1 0x64 ADD PUSH2 0x216 JUMP JUMPDEST PUSH1 0x2 NOT PUSH1 0xFF DUP6 AND ADD PUSH2 0x696 JUMPI PUSH1 0x1 PUSH0 SWAP1 SLOAD SWAP1 PUSH2 0x100 EXP SWAP1 DIV PUSH1 0x1 PUSH1 0x1 PUSH1 0xA0 SHL SUB AND PUSH1 0x1 PUSH1 0x1 PUSH1 0xA0 SHL SUB AND PUSH4 0x9782132B PUSH1 0x40 MLOAD DUP2 PUSH4 0xFFFFFFFF AND PUSH1 0xE0 SHL DUP2 MSTORE PUSH1 0x4 ADD PUSH1 0x20 PUSH1 0x40 MLOAD DUP1 DUP4 SUB DUP2 DUP7 GAS STATICCALL ISZERO DUP1 ISZERO PUSH2 0x655 JUMPI RETURNDATASIZE PUSH0 PUSH0 RETURNDATACOPY RETURNDATASIZE PUSH0 REVERT JUMPDEST POP POP POP POP PUSH1 0x40 MLOAD RETURNDATASIZE PUSH1 0x1F NOT PUSH1 0x1F DUP3 ADD AND DUP3 ADD DUP1 PUSH1 0x40 MSTORE POP DUP2 ADD SWAP1 PUSH2 0x679 SWAP2 SWAP1 PUSH2 0x11D5 JUMP JUMPDEST PUSH2 0x696 JUMPI PUSH1 0x40 MLOAD PUSH4 0x113F2723 PUSH1 0xE2 SHL DUP2 MSTORE PUSH1 0x4 ADD PUSH1 0x40 MLOAD DUP1 SWAP2 SUB SWAP1 REVERT JUMPDEST PUSH0 PUSH2 0x6A3 PUSH2 0x12C TIMESTAMP PUSH2 0x11F4 JUMP JUMPDEST PUSH1 0x40 DUP1 MLOAD PUSH1 0xE0 PUSH1 0x20 PUSH1 0x1F DUP12 ADD DUP2 SWAP1 DIV MUL DUP3 ADD DUP2 ADD SWAP1 SWAP3 MSTORE PUSH1 0xC0 DUP2 ADD DUP10 DUP2 MSTORE SWAP3 SWAP4 POP SWAP2 DUP3 SWAP2 DUP11 SWAP1 DUP11 SWAP1 DUP2 SWAP1 DUP6 ADD DUP4 DUP3 DUP1 DUP3 DUP5 CALLDATACOPY PUSH0 SWAP3 ADD DUP3 SWAP1 MSTORE POP SWAP4 DUP6 MSTORE POP POP POP PUSH1 0xFF DUP1 DUP10 AND PUSH1 0x20 DUP1 DUP6 ADD SWAP2 SWAP1 SWAP2 MSTORE SWAP1 DUP9 AND PUSH1 0x40 DUP1 DUP6 ADD SWAP2 SWAP1 SWAP2 MSTORE TIMESTAMP PUSH1 0x60 DUP6 ADD MSTORE PUSH1 0x80 DUP5 ADD DUP7 SWAP1 MSTORE PUSH1 0xA0 SWAP1 SWAP4 ADD DUP3 SWAP1 MSTORE DUP12 DUP3 MSTORE PUSH1 0x3 SWAP1 MSTORE KECCAK256 DUP2 MLOAD DUP2 SWAP1 PUSH2 0x727 SWAP1 DUP3 PUSH2 0x129D JUMP JUMPDEST POP PUSH1 0x20 DUP3 ADD MLOAD PUSH1 0x1 DUP3 ADD DUP1 SLOAD PUSH1 0x40 DUP1 DUP7 ADD MLOAD PUSH1 0xFF SWAP1 DUP2 AND PUSH2 0x100 MUL PUSH2 0xFFFF NOT SWAP1 SWAP4 AND SWAP5 AND SWAP4 SWAP1 SWAP4 OR OR SWAP1 SSTORE PUSH1 0x60 DUP4 ADD MLOAD PUSH1 0x2 DUP4 ADD SSTORE PUSH1 0x80 DUP4 ADD MLOAD PUSH1 0x3 DUP4 ADD SSTORE PUSH1 0xA0 SWAP1 SWAP3 ADD MLOAD PUSH1 0x4 SWAP1 SWAP2 ADD DUP1 SLOAD SWAP2 ISZERO ISZERO PUSH1 0xFF NOT SWAP3 SWAP1 SWAP3 AND SWAP2 SWAP1 SWAP2 OR SWAP1 SSTORE MLOAD DUP9 SWAP1 PUSH32 0xFD1FCCB9206B91EA7ACDFE3C7A58DCE71A0AD9B618E63B795CE2124CD31159D1 SWAP1 PUSH2 0x7BD SWAP1 DUP11 SWAP1 DUP11 SWAP1 DUP11 SWAP1 DUP11 SWAP1 DUP9 SWAP1 TIMESTAMP SWAP1 PUSH2 0x1358 JUMP JUMPDEST PUSH1 0x40 MLOAD DUP1 SWAP2 SUB SWAP1 LOG2 POP POP POP POP POP POP POP POP JUMP JUMPDEST PUSH1 0x4 SLOAD PUSH1 0x1 PUSH1 0xA0 SHL SWAP1 DIV PUSH1 0xFF AND ISZERO PUSH2 0x7FA JUMPI PUSH1 0x40 MLOAD PUSH4 0x51E5A701 PUSH1 0xE1 SHL DUP2 MSTORE PUSH1 0x4 ADD PUSH1 0x40 MLOAD DUP1 SWAP2 SUB SWAP1 REVERT JUMPDEST PUSH1 0x4 SLOAD PUSH1 0x1 PUSH1 0x1 PUSH1 0xA0 SHL SUB AND CALLER EQ PUSH2 0x825 JUMPI PUSH1 0x40 MLOAD PUSH4 0xEB1CD1D1 PUSH1 0xE0 SHL DUP2 MSTORE PUSH1 0x4 ADD PUSH2 0x216 SWAP1 PUSH2 0x1048 JUMP JUMPDEST PUSH1 0x1 PUSH1 0x1 PUSH1 0xA0 SHL SUB DUP2 AND PUSH2 0x84C JUMPI PUSH1 0x40 MLOAD PUSH4 0xD647364F PUSH1 0xE0 SHL DUP2 MSTORE PUSH1 0x4 ADD PUSH2 0x216 SWAP1 PUSH2 0x1393 JUMP JUMPDEST PUSH1 0x1 DUP1 SLOAD PUSH1 0x1 PUSH1 0x1 PUSH1 0xA0 SHL SUB NOT AND PUSH1 0x1 PUSH1 0x1 PUSH1 0xA0 SHL SUB DUP4 AND SWAP1 DUP2 OR SWAP1 SWAP2 SSTORE PUSH1 0x40 MLOAD TIMESTAMP DUP2 MSTORE PUSH32 0x4BC5327E40EEDB632DE91ECA6002C43FA05AAFBB8693DEF34A712935E47C5748 SWAP1 PUSH1 0x20 ADD JUMPDEST PUSH1 0x40 MLOAD DUP1 SWAP2 SUB SWAP1 LOG2 POP JUMP JUMPDEST PUSH1 0x4 SLOAD PUSH0 SWAP1 PUSH1 0x1 PUSH1 0xA0 SHL SWAP1 DIV PUSH1 0xFF AND PUSH2 0x8CD JUMPI PUSH1 0x40 MLOAD PUSH4 0x59DE1BB3 PUSH1 0xE0 SHL DUP2 MSTORE PUSH1 0x4 ADD PUSH1 0x40 MLOAD DUP1 SWAP2 SUB SWAP1 REVERT JUMPDEST PUSH1 0x1 SLOAD PUSH1 0x1 PUSH1 0x1 PUSH1 0xA0 SHL SUB AND CALLER EQ DUP1 ISZERO SWAP1 PUSH2 0x8F3 JUMPI POP PUSH1 0x2 SLOAD PUSH1 0x1 PUSH1 0x1 PUSH1 0xA0 SHL SUB AND CALLER EQ ISZERO JUMPDEST ISZERO PUSH2 0x952 JUMPI PUSH1 0x40 MLOAD PUSH4 0xEB1CD1D1 PUSH1 0xE0 SHL DUP2 MSTORE PUSH1 0x20 PUSH1 0x4 DUP3 ADD MSTORE PUSH1 0x28 PUSH1 0x24 DUP3 ADD MSTORE PUSH32 0x536F6C6F20476F7665726E616E6365436F6E7472616374206F20506F6C696379 PUSH1 0x44 DUP3 ADD MSTORE PUSH8 0x5265676973747279 PUSH1 0xC0 SHL PUSH1 0x64 DUP3 ADD MSTORE PUSH1 0x84 ADD PUSH2 0x216 JUMP JUMPDEST PUSH0 DUP7 DUP2 MSTORE PUSH1 0x3 PUSH1 0x20 MSTORE PUSH1 0x40 DUP2 KECCAK256 PUSH1 0x2 DUP2 ADD SLOAD SWAP1 SWAP2 SUB PUSH2 0x987 JUMPI PUSH1 0x40 MLOAD PUSH4 0x260BF7BF PUSH1 0xE2 SHL DUP2 MSTORE PUSH1 0x4 DUP2 ADD DUP9 SWAP1 MSTORE PUSH1 0x24 ADD PUSH2 0x216 JUMP JUMPDEST DUP1 PUSH1 0x3 ADD SLOAD TIMESTAMP GT ISZERO PUSH2 0x9AF JUMPI PUSH1 0x40 MLOAD PUSH4 0x45CAC65D PUSH1 0xE1 SHL DUP2 MSTORE PUSH1 0x4 DUP2 ADD DUP9 SWAP1 MSTORE PUSH1 0x24 ADD PUSH2 0x216 JUMP JUMPDEST PUSH1 0x4 DUP2 ADD SLOAD PUSH1 0xFF AND ISZERO PUSH2 0x9D8 JUMPI PUSH1 0x40 MLOAD PUSH4 0x5EF58DC7 PUSH1 0xE1 SHL DUP2 MSTORE PUSH1 0x4 DUP2 ADD DUP9 SWAP1 MSTORE PUSH1 0x24 ADD PUSH2 0x216 JUMP JUMPDEST DUP6 DUP6 PUSH1 0x40 MLOAD PUSH2 0x9E8 SWAP3 SWAP2 SWAP1 PUSH2 0x1154 JUMP JUMPDEST PUSH1 0x40 MLOAD SWAP1 DUP2 SWAP1 SUB DUP2 KECCAK256 SWAP1 PUSH2 0x9FD SWAP1 DUP4 SWAP1 PUSH2 0x13C1 JUMP JUMPDEST PUSH1 0x40 MLOAD DUP1 SWAP2 SUB SWAP1 KECCAK256 EQ PUSH2 0xA49 JUMPI PUSH1 0x40 MLOAD PUSH4 0xEB1CD1D1 PUSH1 0xE0 SHL DUP2 MSTORE PUSH1 0x20 PUSH1 0x4 DUP3 ADD MSTORE PUSH1 0x13 PUSH1 0x24 DUP3 ADD MSTORE PUSH19 0x444944206E6F6E20636F72726973706F6E6465 PUSH1 0x68 SHL PUSH1 0x44 DUP3 ADD MSTORE PUSH1 0x64 ADD PUSH2 0x216 JUMP JUMPDEST PUSH1 0x1 DUP2 ADD SLOAD PUSH1 0xFF DUP6 DUP2 AND SWAP2 AND EQ PUSH2 0xA9B JUMPI PUSH1 0x40 MLOAD PUSH4 0xEB1CD1D1 PUSH1 0xE0 SHL DUP2 MSTORE PUSH1 0x20 PUSH1 0x4 DUP3 ADD MSTORE PUSH1 0x15 PUSH1 0x24 DUP3 ADD MSTORE PUSH21 0x52756F6C6F206E6F6E20636F72726973706F6E6465 PUSH1 0x58 SHL PUSH1 0x44 DUP3 ADD MSTORE PUSH1 0x64 ADD PUSH2 0x216 JUMP JUMPDEST PUSH1 0x1 DUP2 ADD SLOAD PUSH1 0xFF DUP5 DUP2 AND PUSH2 0x100 SWAP1 SWAP3 DIV AND EQ PUSH2 0xAFA JUMPI PUSH1 0x40 MLOAD PUSH4 0xEB1CD1D1 PUSH1 0xE0 SHL DUP2 MSTORE PUSH1 0x20 PUSH1 0x4 DUP3 ADD MSTORE PUSH1 0x17 PUSH1 0x24 DUP3 ADD MSTORE PUSH32 0x446F6D696E696F206E6F6E20636F72726973706F6E6465000000000000000000 PUSH1 0x44 DUP3 ADD MSTORE PUSH1 0x64 ADD PUSH2 0x216 JUMP JUMPDEST PUSH1 0x4 DUP2 ADD DUP1 SLOAD PUSH1 0xFF NOT AND PUSH1 0x1 OR SWAP1 SSTORE PUSH1 0x40 DUP1 MLOAD CALLER DUP2 MSTORE TIMESTAMP PUSH1 0x20 DUP3 ADD MSTORE DUP9 SWAP2 PUSH32 0xB333B84305414474C9D092BF37FA9DCB9DEEC22D8C16726CFB2DB1C9DC30AF9B SWAP2 ADD PUSH1 0x40 MLOAD DUP1 SWAP2 SUB SWAP1 LOG2 POP PUSH1 0x1 SWAP7 SWAP6 POP POP POP POP POP POP JUMP JUMPDEST PUSH0 DUP2 DUP2 MSTORE PUSH1 0x3 PUSH1 0x20 MSTORE PUSH1 0x40 DUP2 KECCAK256 PUSH1 0x2 DUP2 ADD SLOAD ISZERO DUP1 ISZERO SWAP1 PUSH2 0xB75 JUMPI POP PUSH1 0x4 DUP2 ADD SLOAD PUSH1 0xFF AND ISZERO JUMPDEST DUP1 ISZERO PUSH2 0xB85 JUMPI POP DUP1 PUSH1 0x3 ADD SLOAD TIMESTAMP GT ISZERO JUMPDEST SWAP4 SWAP3 POP POP POP JUMP JUMPDEST PUSH1 0x40 DUP1 MLOAD PUSH1 0xC0 DUP2 ADD DUP3 MSTORE PUSH1 0x60 DUP1 DUP3 MSTORE PUSH0 PUSH1 0x20 DUP4 ADD DUP2 SWAP1 MSTORE SWAP3 DUP3 ADD DUP4 SWAP1 MSTORE DUP2 ADD DUP3 SWAP1 MSTORE PUSH1 0x80 DUP2 ADD DUP3 SWAP1 MSTORE PUSH1 0xA0 DUP2 ADD SWAP2 SWAP1 SWAP2 MSTORE PUSH0 DUP3 DUP2 MSTORE PUSH1 0x3 PUSH1 0x20 MSTORE PUSH1 0x40 DUP2 KECCAK256 PUSH1 0x2 ADD SLOAD SWAP1 SUB PUSH2 0xBF0 JUMPI PUSH1 0x40 MLOAD PUSH4 0x260BF7BF PUSH1 0xE2 SHL DUP2 MSTORE PUSH1 0x4 DUP2 ADD DUP4 SWAP1 MSTORE PUSH1 0x24 ADD PUSH2 0x216 JUMP JUMPDEST PUSH0 DUP3 DUP2 MSTORE PUSH1 0x3 PUSH1 0x20 MSTORE PUSH1 0x40 SWAP1 DUP2 SWAP1 KECCAK256 DUP2 MLOAD PUSH1 0xC0 DUP2 ADD SWAP1 SWAP3 MSTORE DUP1 SLOAD DUP3 SWAP1 DUP3 SWAP1 PUSH2 0xC17 SWAP1 PUSH2 0x1219 JUMP JUMPDEST DUP1 PUSH1 0x1F ADD PUSH1 0x20 DUP1 SWAP2 DIV MUL PUSH1 0x20 ADD PUSH1 0x40 MLOAD SWAP1 DUP2 ADD PUSH1 0x40 MSTORE DUP1 SWAP3 SWAP2 SWAP1 DUP2 DUP2 MSTORE PUSH1 0x20 ADD DUP3 DUP1 SLOAD PUSH2 0xC43 SWAP1 PUSH2 0x1219 JUMP JUMPDEST DUP1 ISZERO PUSH2 0xC8E JUMPI DUP1 PUSH1 0x1F LT PUSH2 0xC65 JUMPI PUSH2 0x100 DUP1 DUP4 SLOAD DIV MUL DUP4 MSTORE SWAP2 PUSH1 0x20 ADD SWAP2 PUSH2 0xC8E JUMP JUMPDEST DUP3 ADD SWAP2 SWAP1 PUSH0 MSTORE PUSH1 0x20 PUSH0 KECCAK256 SWAP1 JUMPDEST DUP2 SLOAD DUP2 MSTORE SWAP1 PUSH1 0x1 ADD SWAP1 PUSH1 0x20 ADD DUP1 DUP4 GT PUSH2 0xC71 JUMPI DUP3 SWAP1 SUB PUSH1 0x1F AND DUP3 ADD SWAP2 JUMPDEST POP POP POP SWAP2 DUP4 MSTORE POP POP PUSH1 0x1 DUP3 ADD SLOAD PUSH1 0xFF DUP1 DUP3 AND PUSH1 0x20 DUP5 ADD MSTORE PUSH2 0x100 SWAP1 SWAP2 DIV DUP2 AND PUSH1 0x40 DUP4 ADD MSTORE PUSH1 0x2 DUP4 ADD SLOAD PUSH1 0x60 DUP4 ADD MSTORE PUSH1 0x3 DUP4 ADD SLOAD PUSH1 0x80 DUP4 ADD MSTORE PUSH1 0x4 SWAP1 SWAP3 ADD SLOAD SWAP1 SWAP2 AND ISZERO ISZERO PUSH1 0xA0 SWAP1 SWAP2 ADD MSTORE SWAP3 SWAP2 POP POP JUMP JUMPDEST PUSH1 0x4 SLOAD PUSH1 0x1 PUSH1 0xA0 SHL SWAP1 DIV PUSH1 0xFF AND ISZERO PUSH2 0xD08 JUMPI PUSH1 0x40 MLOAD PUSH4 0x51E5A701 PUSH1 0xE1 SHL DUP2 MSTORE PUSH1 0x4 ADD PUSH1 0x40 MLOAD DUP1 SWAP2 SUB SWAP1 REVERT JUMPDEST PUSH1 0x4 SLOAD PUSH1 0x1 PUSH1 0x1 PUSH1 0xA0 SHL SUB AND CALLER EQ PUSH2 0xD33 JUMPI PUSH1 0x40 MLOAD PUSH4 0xEB1CD1D1 PUSH1 0xE0 SHL DUP2 MSTORE PUSH1 0x4 ADD PUSH2 0x216 SWAP1 PUSH2 0x1048 JUMP JUMPDEST PUSH1 0x1 PUSH1 0x1 PUSH1 0xA0 SHL SUB DUP2 AND PUSH2 0xD5A JUMPI PUSH1 0x40 MLOAD PUSH4 0xD647364F PUSH1 0xE0 SHL DUP2 MSTORE PUSH1 0x4 ADD PUSH2 0x216 SWAP1 PUSH2 0x1393 JUMP JUMPDEST PUSH0 DUP1 SLOAD PUSH1 0x1 PUSH1 0x1 PUSH1 0xA0 SHL SUB NOT AND PUSH1 0x1 PUSH1 0x1 PUSH1 0xA0 SHL SUB DUP4 AND SWAP1 DUP2 OR SWAP1 SWAP2 SSTORE PUSH1 0x40 MLOAD TIMESTAMP DUP2 MSTORE PUSH32 0xB279D83EA0D87C763B2F6E1457A9572E284339948ADF5AD4B58B90AC77CB5407 SWAP1 PUSH1 0x20 ADD PUSH2 0x896 JUMP JUMPDEST PUSH1 0x4 SLOAD PUSH1 0x1 PUSH1 0xA0 SHL SWAP1 DIV PUSH1 0xFF AND ISZERO PUSH2 0xDD2 JUMPI PUSH1 0x40 MLOAD PUSH4 0x51E5A701 PUSH1 0xE1 SHL DUP2 MSTORE PUSH1 0x4 ADD PUSH1 0x40 MLOAD DUP1 SWAP2 SUB SWAP1 REVERT JUMPDEST PUSH1 0x4 SLOAD PUSH1 0x1 PUSH1 0x1 PUSH1 0xA0 SHL SUB AND CALLER EQ PUSH2 0xDFD JUMPI PUSH1 0x40 MLOAD PUSH4 0xEB1CD1D1 PUSH1 0xE0 SHL DUP2 MSTORE PUSH1 0x4 ADD PUSH2 0x216 SWAP1 PUSH2 0x1048 JUMP JUMPDEST PUSH1 0x1 PUSH1 0x1 PUSH1 0xA0 SHL SUB DUP2 AND PUSH2 0xE24 JUMPI PUSH1 0x40 MLOAD PUSH4 0xD647364F PUSH1 0xE0 SHL DUP2 MSTORE PUSH1 0x4 ADD PUSH2 0x216 SWAP1 PUSH2 0x1393 JUMP JUMPDEST PUSH1 0x2 DUP1 SLOAD PUSH1 0x1 PUSH1 0x1 PUSH1 0xA0 SHL SUB NOT AND PUSH1 0x1 PUSH1 0x1 PUSH1 0xA0 SHL SUB SWAP3 SWAP1 SWAP3 AND SWAP2 SWAP1 SWAP2 OR SWAP1 SSTORE JUMP JUMPDEST PUSH0 PUSH0 DUP4 PUSH1 0x1F DUP5 ADD SLT PUSH2 0xE56 JUMPI PUSH0 PUSH0 REVERT JUMPDEST POP DUP2 CALLDATALOAD PUSH8 0xFFFFFFFFFFFFFFFF DUP2 GT ISZERO PUSH2 0xE6D JUMPI PUSH0 PUSH0 REVERT JUMPDEST PUSH1 0x20 DUP4 ADD SWAP2 POP DUP4 PUSH1 0x20 DUP3 DUP6 ADD ADD GT ISZERO PUSH2 0xE84 JUMPI PUSH0 PUSH0 REVERT JUMPDEST SWAP3 POP SWAP3 SWAP1 POP JUMP JUMPDEST DUP1 CALLDATALOAD PUSH1 0xFF DUP2 AND DUP2 EQ PUSH2 0xE9B JUMPI PUSH0 PUSH0 REVERT JUMPDEST SWAP2 SWAP1 POP JUMP JUMPDEST PUSH0 PUSH0 PUSH0 PUSH0 PUSH0 PUSH0 PUSH1 0xA0 DUP8 DUP10 SUB SLT ISZERO PUSH2 0xEB5 JUMPI PUSH0 PUSH0 REVERT JUMPDEST DUP7 CALLDATALOAD SWAP6 POP PUSH1 0x20 DUP8 ADD CALLDATALOAD PUSH8 0xFFFFFFFFFFFFFFFF DUP2 GT ISZERO PUSH2 0xED2 JUMPI PUSH0 PUSH0 REVERT JUMPDEST PUSH2 0xEDE DUP10 DUP3 DUP11 ADD PUSH2 0xE46 JUMP JUMPDEST SWAP1 SWAP7 POP SWAP5 POP PUSH2 0xEF1 SWAP1 POP PUSH1 0x40 DUP9 ADD PUSH2 0xE8B JUMP JUMPDEST SWAP3 POP PUSH2 0xEFF PUSH1 0x60 DUP9 ADD PUSH2 0xE8B JUMP JUMPDEST SWAP2 POP PUSH1 0x80 DUP8 ADD CALLDATALOAD SWAP1 POP SWAP3 SWAP6 POP SWAP3 SWAP6 POP SWAP3 SWAP6 JUMP JUMPDEST PUSH0 PUSH1 0x20 DUP3 DUP5 SUB SLT ISZERO PUSH2 0xF22 JUMPI PUSH0 PUSH0 REVERT JUMPDEST DUP2 CALLDATALOAD PUSH1 0x1 PUSH1 0x1 PUSH1 0xA0 SHL SUB DUP2 AND DUP2 EQ PUSH2 0xB85 JUMPI PUSH0 PUSH0 REVERT JUMPDEST PUSH0 PUSH0 PUSH0 PUSH0 PUSH0 PUSH1 0x80 DUP7 DUP9 SUB SLT ISZERO PUSH2 0xF4C JUMPI PUSH0 PUSH0 REVERT JUMPDEST DUP6 CALLDATALOAD SWAP5 POP PUSH1 0x20 DUP7 ADD CALLDATALOAD PUSH8 0xFFFFFFFFFFFFFFFF DUP2 GT ISZERO PUSH2 0xF69 JUMPI PUSH0 PUSH0 REVERT JUMPDEST PUSH2 0xF75 DUP9 DUP3 DUP10 ADD PUSH2 0xE46 JUMP JUMPDEST SWAP1 SWAP6 POP SWAP4 POP PUSH2 0xF88 SWAP1 POP PUSH1 0x40 DUP8 ADD PUSH2 0xE8B JUMP JUMPDEST SWAP2 POP PUSH2 0xF96 PUSH1 0x60 DUP8 ADD PUSH2 0xE8B JUMP JUMPDEST SWAP1 POP SWAP3 SWAP6 POP SWAP3 SWAP6 SWAP1 SWAP4 POP JUMP JUMPDEST PUSH0 PUSH1 0x20 DUP3 DUP5 SUB SLT ISZERO PUSH2 0xFB2 JUMPI PUSH0 PUSH0 REVERT JUMPDEST POP CALLDATALOAD SWAP2 SWAP1 POP JUMP JUMPDEST PUSH0 DUP2 MLOAD DUP1 DUP5 MSTORE DUP1 PUSH1 0x20 DUP5 ADD PUSH1 0x20 DUP7 ADD MCOPY PUSH0 PUSH1 0x20 DUP3 DUP7 ADD ADD MSTORE PUSH1 0x20 PUSH1 0x1F NOT PUSH1 0x1F DUP4 ADD AND DUP6 ADD ADD SWAP2 POP POP SWAP3 SWAP2 POP POP JUMP JUMPDEST PUSH1 0x20 DUP2 MSTORE PUSH0 DUP3 MLOAD PUSH1 0xC0 PUSH1 0x20 DUP5 ADD MSTORE PUSH2 0x1002 PUSH1 0xE0 DUP5 ADD DUP3 PUSH2 0xFB9 JUMP JUMPDEST SWAP1 POP PUSH1 0xFF PUSH1 0x20 DUP6 ADD MLOAD AND PUSH1 0x40 DUP5 ADD MSTORE PUSH1 0xFF PUSH1 0x40 DUP6 ADD MLOAD AND PUSH1 0x60 DUP5 ADD MSTORE PUSH1 0x60 DUP5 ADD MLOAD PUSH1 0x80 DUP5 ADD MSTORE PUSH1 0x80 DUP5 ADD MLOAD PUSH1 0xA0 DUP5 ADD MSTORE PUSH1 0xA0 DUP5 ADD MLOAD ISZERO ISZERO PUSH1 0xC0 DUP5 ADD MSTORE DUP1 SWAP2 POP POP SWAP3 SWAP2 POP POP JUMP JUMPDEST PUSH1 0x20 DUP1 DUP3 MSTORE PUSH1 0x25 SWAP1 DUP3 ADD MSTORE PUSH32 0x536F6C6F20696C206465706C6F79657220647572616E746520696C20626F6F74 PUSH1 0x40 DUP3 ADD MSTORE PUSH5 0x737472617 PUSH1 0xDC SHL PUSH1 0x60 DUP3 ADD MSTORE PUSH1 0x80 ADD SWAP1 JUMP JUMPDEST PUSH4 0x4E487B71 PUSH1 0xE0 SHL PUSH0 MSTORE PUSH1 0x41 PUSH1 0x4 MSTORE PUSH1 0x24 PUSH0 REVERT JUMPDEST PUSH0 PUSH1 0x20 DUP3 DUP5 SUB SLT ISZERO PUSH2 0x10B1 JUMPI PUSH0 PUSH0 REVERT JUMPDEST DUP2 MLOAD PUSH8 0xFFFFFFFFFFFFFFFF DUP2 GT ISZERO PUSH2 0x10C7 JUMPI PUSH0 PUSH0 REVERT JUMPDEST DUP3 ADD PUSH1 0x1F DUP2 ADD DUP5 SGT PUSH2 0x10D7 JUMPI PUSH0 PUSH0 REVERT JUMPDEST DUP1 MLOAD PUSH8 0xFFFFFFFFFFFFFFFF DUP2 GT ISZERO PUSH2 0x10F1 JUMPI PUSH2 0x10F1 PUSH2 0x108D JUMP JUMPDEST PUSH1 0x40 MLOAD PUSH1 0x1F DUP3 ADD PUSH1 0x1F NOT SWAP1 DUP2 AND PUSH1 0x3F ADD AND DUP2 ADD PUSH8 0xFFFFFFFFFFFFFFFF DUP2 GT DUP3 DUP3 LT OR ISZERO PUSH2 0x1120 JUMPI PUSH2 0x1120 PUSH2 0x108D JUMP JUMPDEST PUSH1 0x40 MSTORE DUP2 DUP2 MSTORE DUP3 DUP3 ADD PUSH1 0x20 ADD DUP7 LT ISZERO PUSH2 0x1137 JUMPI PUSH0 PUSH0 REVERT JUMPDEST DUP2 PUSH1 0x20 DUP5 ADD PUSH1 0x20 DUP4 ADD MCOPY PUSH0 SWAP2 DUP2 ADD PUSH1 0x20 ADD SWAP2 SWAP1 SWAP2 MSTORE SWAP5 SWAP4 POP POP POP POP JUMP JUMPDEST DUP2 DUP4 DUP3 CALLDATACOPY PUSH0 SWAP2 ADD SWAP1 DUP2 MSTORE SWAP2 SWAP1 POP JUMP JUMPDEST DUP2 DUP4 MSTORE DUP2 DUP2 PUSH1 0x20 DUP6 ADD CALLDATACOPY POP PUSH0 DUP3 DUP3 ADD PUSH1 0x20 SWAP1 DUP2 ADD SWAP2 SWAP1 SWAP2 MSTORE PUSH1 0x1F SWAP1 SWAP2 ADD PUSH1 0x1F NOT AND SWAP1 SWAP2 ADD ADD SWAP1 JUMP JUMPDEST PUSH1 0x40 DUP2 MSTORE PUSH0 PUSH2 0x119E PUSH1 0x40 DUP4 ADD DUP6 DUP8 PUSH2 0x1163 JUMP JUMPDEST DUP3 DUP2 SUB PUSH1 0x20 DUP5 ADD MSTORE PUSH2 0x11B0 DUP2 DUP6 PUSH2 0xFB9 JUMP JUMPDEST SWAP7 SWAP6 POP POP POP POP POP POP JUMP JUMPDEST PUSH1 0x20 DUP2 MSTORE PUSH0 PUSH2 0x11CD PUSH1 0x20 DUP4 ADD DUP5 DUP7 PUSH2 0x1163 JUMP JUMPDEST SWAP5 SWAP4 POP POP POP POP JUMP JUMPDEST PUSH0 PUSH1 0x20 DUP3 DUP5 SUB SLT ISZERO PUSH2 0x11E5 JUMPI PUSH0 PUSH0 REVERT JUMPDEST DUP2 MLOAD DUP1 ISZERO ISZERO DUP2 EQ PUSH2 0xB85 JUMPI PUSH0 PUSH0 REVERT JUMPDEST DUP1 DUP3 ADD DUP1 DUP3 GT ISZERO PUSH2 0x1213 JUMPI PUSH4 0x4E487B71 PUSH1 0xE0 SHL PUSH0 MSTORE PUSH1 0x11 PUSH1 0x4 MSTORE PUSH1 0x24 PUSH0 REVERT JUMPDEST SWAP3 SWAP2 POP POP JUMP JUMPDEST PUSH1 0x1 DUP2 DUP2 SHR SWAP1 DUP3 AND DUP1 PUSH2 0x122D JUMPI PUSH1 0x7F DUP3 AND SWAP2 POP JUMPDEST PUSH1 0x20 DUP3 LT DUP2 SUB PUSH2 0x124B JUMPI PUSH4 0x4E487B71 PUSH1 0xE0 SHL PUSH0 MSTORE PUSH1 0x22 PUSH1 0x4 MSTORE PUSH1 0x24 PUSH0 REVERT JUMPDEST POP SWAP2 SWAP1 POP JUMP JUMPDEST PUSH1 0x1F DUP3 GT ISZERO PUSH2 0x1298 JUMPI DUP1 PUSH0 MSTORE PUSH1 0x20 PUSH0 KECCAK256 PUSH1 0x1F DUP5 ADD PUSH1 0x5 SHR DUP2 ADD PUSH1 0x20 DUP6 LT ISZERO PUSH2 0x1276 JUMPI POP DUP1 JUMPDEST PUSH1 0x1F DUP5 ADD PUSH1 0x5 SHR DUP3 ADD SWAP2 POP JUMPDEST DUP2 DUP2 LT ISZERO PUSH2 0x1295 JUMPI PUSH0 DUP2 SSTORE PUSH1 0x1 ADD PUSH2 0x1282 JUMP JUMPDEST POP POP JUMPDEST POP POP POP JUMP JUMPDEST DUP2 MLOAD PUSH8 0xFFFFFFFFFFFFFFFF DUP2 GT ISZERO PUSH2 0x12B7 JUMPI PUSH2 0x12B7 PUSH2 0x108D JUMP JUMPDEST PUSH2 0x12CB DUP2 PUSH2 0x12C5 DUP5 SLOAD PUSH2 0x1219 JUMP JUMPDEST DUP5 PUSH2 0x1251 JUMP JUMPDEST PUSH1 0x20 PUSH1 0x1F DUP3 GT PUSH1 0x1 DUP2 EQ PUSH2 0x12FD JUMPI PUSH0 DUP4 ISZERO PUSH2 0x12E6 JUMPI POP DUP5 DUP3 ADD MLOAD JUMPDEST PUSH0 NOT PUSH1 0x3 DUP6 SWAP1 SHL SHR NOT AND PUSH1 0x1 DUP5 SWAP1 SHL OR DUP5 SSTORE PUSH2 0x1295 JUMP JUMPDEST PUSH0 DUP5 DUP2 MSTORE PUSH1 0x20 DUP2 KECCAK256 PUSH1 0x1F NOT DUP6 AND SWAP2 JUMPDEST DUP3 DUP2 LT ISZERO PUSH2 0x132C JUMPI DUP8 DUP6 ADD MLOAD DUP3 SSTORE PUSH1 0x20 SWAP5 DUP6 ADD SWAP5 PUSH1 0x1 SWAP1 SWAP3 ADD SWAP2 ADD PUSH2 0x130C JUMP JUMPDEST POP DUP5 DUP3 LT ISZERO PUSH2 0x1349 JUMPI DUP7 DUP5 ADD MLOAD PUSH0 NOT PUSH1 0x3 DUP8 SWAP1 SHL PUSH1 0xF8 AND SHR NOT AND DUP2 SSTORE JUMPDEST POP POP POP POP PUSH1 0x1 SWAP1 DUP2 SHL ADD SWAP1 SSTORE POP JUMP JUMPDEST PUSH1 0xA0 DUP2 MSTORE PUSH0 PUSH2 0x136B PUSH1 0xA0 DUP4 ADD DUP9 DUP11 PUSH2 0x1163 JUMP JUMPDEST PUSH1 0xFF SWAP7 DUP8 AND PUSH1 0x20 DUP5 ADD MSTORE SWAP5 SWAP1 SWAP6 AND PUSH1 0x40 DUP3 ADD MSTORE PUSH1 0x60 DUP2 ADD SWAP3 SWAP1 SWAP3 MSTORE PUSH1 0x80 SWAP1 SWAP2 ADD MSTORE SWAP4 SWAP3 POP POP POP JUMP JUMPDEST PUSH1 0x20 DUP1 DUP3 MSTORE PUSH1 0x14 SWAP1 DUP3 ADD MSTORE PUSH20 0x496E646972697A7A6F206E6F6E2076616C69646F PUSH1 0x60 SHL PUSH1 0x40 DUP3 ADD MSTORE PUSH1 0x60 ADD SWAP1 JUMP JUMPDEST PUSH0 PUSH0 DUP4 SLOAD PUSH2 0x13CE DUP2 PUSH2 0x1219 JUMP JUMPDEST PUSH1 0x1 DUP3 AND DUP1 ISZERO PUSH2 0x13E5 JUMPI PUSH1 0x1 DUP2 EQ PUSH2 0x13FA JUMPI PUSH2 0x1427 JUMP JUMPDEST PUSH1 0xFF NOT DUP4 AND DUP7 MSTORE DUP2 ISZERO ISZERO DUP3 MUL DUP7 ADD SWAP4 POP PUSH2 0x1427 JUMP JUMPDEST DUP7 PUSH0 MSTORE PUSH1 0x20 PUSH0 KECCAK256 PUSH0 JUMPDEST DUP4 DUP2 LT ISZERO PUSH2 0x141F JUMPI DUP2 SLOAD DUP9 DUP3 ADD MSTORE PUSH1 0x1 SWAP1 SWAP2 ADD SWAP1 PUSH1 0x20 ADD PUSH2 0x1403 JUMP JUMPDEST POP POP DUP2 DUP7 ADD SWAP4 POP JUMPDEST POP SWAP2 SWAP6 SWAP5 POP POP POP POP POP JUMP INVALID LOG2 PUSH5 0x6970667358 0x22 SLT KECCAK256 PUSH19 0xEA17B3C906B911916C0D38701663D2ED5CAAC7 0xD3 CREATE XOR STATICCALL MULMOD PUSH2 0x1257 DUP7 0xA9 0xAD PUSH1 0x64 PUSH20 0x6F6C634300081C00330000000000000000000000 "},"methodIdentifiers":{"VALIDATION_TTL()":"8b5b0156","consumeValidation(bytes32,string,uint8,uint8)":"201d5498","finalizeBootstrap()":"06c7e131","getGovernanceContract()":"ef2fa85f","getIdentityRegistry()":"bc4d861b","getValidation(bytes32)":"a8091fc3","isBootstrapComplete()":"1d2626f7","isValidationUsable(bytes32)":"4ed8c9b2","registerValidation(bytes32,string,uint8,uint8,uint256)":"0fd4217e","setGovernanceContract(address)":"1129753f","setIdentityRegistry(address)":"cbf3f861","setPolicyRegistry(address)":"e015c85d"}}}}}