{"project/contracts/GovernanceContract.sol":{"GovernanceContract":{"abi":[{"inputs":[],"stateMutability":"nonpayable","type":"constructor"},{"inputs":[{"internalType":"bytes32","name":"actionId","type":"bytes32"}],"name":"ActionNotFound","type":"error"},{"inputs":[{"internalType":"bytes32","name":"actionId","type":"bytes32"}],"name":"ActionNotPending","type":"error"},{"inputs":[{"internalType":"bytes32","name":"id","type":"bytes32"},{"internalType":"string","name":"voterDID","type":"string"}],"name":"AlreadyVoted","type":"error"},{"inputs":[],"name":"BootstrapAlreadyComplete","type":"error"},{"inputs":[],"name":"BootstrapNotComplete","type":"error"},{"inputs":[{"internalType":"uint8","name":"domain","type":"uint8"},{"internalType":"bytes32","name":"activeProposalId","type":"bytes32"}],"name":"DomainAlreadyEndorsed","type":"error"},{"inputs":[{"internalType":"string","name":"reason","type":"string"}],"name":"InvalidInput","type":"error"},{"inputs":[{"internalType":"bytes32","name":"proposalId","type":"bytes32"},{"internalType":"enum GovernanceContract.ProposalStatus","name":"current","type":"uint8"},{"internalType":"enum GovernanceContract.ProposalStatus","name":"expected","type":"uint8"}],"name":"InvalidProposalStatus","type":"error"},{"inputs":[{"internalType":"string","name":"reason","type":"string"}],"name":"NotAuthorized","type":"error"},{"inputs":[{"internalType":"bytes32","name":"proposalId","type":"bytes32"}],"name":"ProposalNotFound","type":"error"},{"inputs":[{"internalType":"bytes32","name":"replacesId","type":"bytes32"},{"internalType":"bytes32","name":"activePolicy","type":"bytes32"}],"name":"ReplacesIdMismatch","type":"error"},{"inputs":[{"internalType":"uint8","name":"domain","type":"uint8"}],"name":"SafeDefaultRequired","type":"error"},{"anonymous":false,"inputs":[{"indexed":true,"internalType":"bytes32","name":"proposalId","type":"bytes32"},{"indexed":false,"internalType":"uint256","name":"endsAt","type":"uint256"},{"indexed":false,"internalType":"uint256","name":"timestamp","type":"uint256"}],"name":"AuditWindowOpened","type":"event"},{"anonymous":false,"inputs":[{"indexed":true,"internalType":"address","name":"deployer","type":"address"},{"indexed":false,"internalType":"uint256","name":"timestamp","type":"uint256"}],"name":"BootstrapFinalized","type":"event"},{"anonymous":false,"inputs":[{"indexed":true,"internalType":"address","name":"cvc","type":"address"},{"indexed":false,"internalType":"uint256","name":"timestamp","type":"uint256"}],"name":"CVCSet","type":"event"},{"anonymous":false,"inputs":[{"indexed":true,"internalType":"bytes32","name":"actionId","type":"bytes32"},{"indexed":false,"internalType":"enum GovernanceContract.GovernanceActionType","name":"actionType","type":"uint8"},{"indexed":false,"internalType":"uint256","name":"timestamp","type":"uint256"}],"name":"GovernanceActionExecuted","type":"event"},{"anonymous":false,"inputs":[{"indexed":true,"internalType":"bytes32","name":"actionId","type":"bytes32"},{"indexed":false,"internalType":"string","name":"proposerDID","type":"string"},{"indexed":false,"internalType":"enum GovernanceContract.GovernanceActionType","name":"actionType","type":"uint8"},{"indexed":false,"internalType":"uint256","name":"quorumSnapshot","type":"uint256"},{"indexed":false,"internalType":"uint256","name":"timestamp","type":"uint256"}],"name":"GovernanceActionProposed","type":"event"},{"anonymous":false,"inputs":[{"indexed":true,"internalType":"bytes32","name":"actionId","type":"bytes32"},{"indexed":false,"internalType":"string","name":"voterDID","type":"string"},{"indexed":false,"internalType":"bool","name":"support","type":"bool"},{"indexed":false,"internalType":"uint256","name":"votesFor","type":"uint256"},{"indexed":false,"internalType":"uint256","name":"timestamp","type":"uint256"}],"name":"GovernanceActionVoteCast","type":"event"},{"anonymous":false,"inputs":[{"indexed":true,"internalType":"address","name":"registry","type":"address"},{"indexed":false,"internalType":"uint256","name":"timestamp","type":"uint256"}],"name":"IdentityRegistrySet","type":"event"},{"anonymous":false,"inputs":[{"indexed":true,"internalType":"bytes32","name":"proposalId","type":"bytes32"},{"indexed":false,"internalType":"uint8","name":"domain","type":"uint8"},{"indexed":false,"internalType":"uint32","name":"version","type":"uint32"},{"indexed":false,"internalType":"string","name":"cid","type":"string"},{"indexed":false,"internalType":"uint256","name":"timestamp","type":"uint256"}],"name":"PolicyCertified","type":"event"},{"anonymous":false,"inputs":[{"indexed":true,"internalType":"address","name":"registry","type":"address"},{"indexed":false,"internalType":"uint256","name":"timestamp","type":"uint256"}],"name":"PolicyRegistrySet","type":"event"},{"anonymous":false,"inputs":[{"indexed":true,"internalType":"bytes32","name":"proposalId","type":"bytes32"},{"indexed":false,"internalType":"string","name":"endorserDID","type":"string"},{"indexed":false,"internalType":"uint256","name":"quorumSnapshot","type":"uint256"},{"indexed":false,"internalType":"uint256","name":"quorumRequired","type":"uint256"},{"indexed":false,"internalType":"uint256","name":"timestamp","type":"uint256"}],"name":"ProposalEndorsed","type":"event"},{"anonymous":false,"inputs":[{"indexed":true,"internalType":"bytes32","name":"proposalId","type":"bytes32"},{"indexed":false,"internalType":"string","name":"ppDID","type":"string"},{"indexed":false,"internalType":"uint256","name":"timestamp","type":"uint256"}],"name":"ProposalForwarded","type":"event"},{"anonymous":false,"inputs":[{"indexed":true,"internalType":"bytes32","name":"proposalId","type":"bytes32"},{"indexed":false,"internalType":"string","name":"ppDID","type":"string"},{"indexed":false,"internalType":"string","name":"reason","type":"string"},{"indexed":false,"internalType":"uint256","name":"timestamp","type":"uint256"}],"name":"ProposalRejected","type":"event"},{"anonymous":false,"inputs":[{"indexed":true,"internalType":"bytes32","name":"proposalId","type":"bytes32"},{"indexed":false,"internalType":"string","name":"submitterDID","type":"string"},{"indexed":false,"internalType":"uint8","name":"domain","type":"uint8"},{"indexed":false,"internalType":"string","name":"cid","type":"string"},{"indexed":false,"internalType":"uint256","name":"timestamp","type":"uint256"}],"name":"ProposalSubmitted","type":"event"},{"anonymous":false,"inputs":[{"indexed":true,"internalType":"bytes32","name":"proposalId","type":"bytes32"},{"indexed":false,"internalType":"string","name":"voterDID","type":"string"},{"indexed":false,"internalType":"bool","name":"support","type":"bool"},{"indexed":false,"internalType":"uint256","name":"votesFor","type":"uint256"},{"indexed":false,"internalType":"uint256","name":"quorumRequired","type":"uint256"},{"indexed":false,"internalType":"uint256","name":"timestamp","type":"uint256"}],"name":"VoteCast","type":"event"},{"inputs":[],"name":"auditWindowDuration","outputs":[{"internalType":"uint256","name":"","type":"uint256"}],"stateMutability":"view","type":"function"},{"inputs":[],"name":"auditWindowEnd","outputs":[{"internalType":"uint256","name":"","type":"uint256"}],"stateMutability":"view","type":"function"},{"inputs":[{"internalType":"bytes32","name":"proposalId","type":"bytes32"}],"name":"endorseProposal","outputs":[],"stateMutability":"nonpayable","type":"function"},{"inputs":[],"name":"finalizeBootstrap","outputs":[],"stateMutability":"nonpayable","type":"function"},{"inputs":[{"internalType":"bytes32","name":"proposalId","type":"bytes32"},{"internalType":"bytes32","name":"validationId","type":"bytes32"}],"name":"forwardProposal","outputs":[],"stateMutability":"nonpayable","type":"function"},{"inputs":[],"name":"getCVC","outputs":[{"internalType":"address","name":"","type":"address"}],"stateMutability":"view","type":"function"},{"inputs":[{"internalType":"uint8","name":"domain","type":"uint8"}],"name":"getEndorsedProposalByDomain","outputs":[{"internalType":"bytes32","name":"","type":"bytes32"}],"stateMutability":"view","type":"function"},{"inputs":[{"internalType":"bytes32","name":"actionId","type":"bytes32"}],"name":"getGovernanceAction","outputs":[{"components":[{"internalType":"bytes32","name":"actionId","type":"bytes32"},{"internalType":"string","name":"proposerDID","type":"string"},{"internalType":"enum GovernanceContract.GovernanceActionType","name":"actionType","type":"uint8"},{"internalType":"bytes","name":"payload","type":"bytes"},{"internalType":"enum GovernanceContract.GovernanceActionStatus","name":"status","type":"uint8"},{"internalType":"uint256","name":"quorumSnapshot","type":"uint256"},{"internalType":"uint256","name":"quorumRequired","type":"uint256"},{"internalType":"uint256","name":"votesFor","type":"uint256"},{"internalType":"uint256","name":"createdAt","type":"uint256"},{"internalType":"uint256","name":"executedAt","type":"uint256"}],"internalType":"struct GovernanceContract.GovernanceAction","name":"","type":"tuple"}],"stateMutability":"view","type":"function"},{"inputs":[],"name":"getIdentityRegistry","outputs":[{"internalType":"address","name":"","type":"address"}],"stateMutability":"view","type":"function"},{"inputs":[],"name":"getPolicyRegistry","outputs":[{"internalType":"address","name":"","type":"address"}],"stateMutability":"view","type":"function"},{"inputs":[{"internalType":"bytes32","name":"proposalId","type":"bytes32"}],"name":"getProposal","outputs":[{"components":[{"internalType":"bytes32","name":"proposalId","type":"bytes32"},{"internalType":"string","name":"submitterDID","type":"string"},{"internalType":"string","name":"ppDID","type":"string"},{"internalType":"string","name":"endorserDID","type":"string"},{"internalType":"string","name":"cid","type":"string"},{"internalType":"string","name":"cidKeyDistrib","type":"string"},{"internalType":"uint8","name":"domain","type":"uint8"},{"internalType":"enum GovernanceContract.ProposalStatus","name":"status","type":"uint8"},{"internalType":"uint256","name":"quorumSnapshot","type":"uint256"},{"internalType":"uint256","name":"quorumRequired","type":"uint256"},{"internalType":"uint256","name":"votesFor","type":"uint256"},{"internalType":"uint256","name":"submittedAt","type":"uint256"},{"internalType":"uint256","name":"forwardedAt","type":"uint256"},{"internalType":"uint256","name":"endorsedAt","type":"uint256"},{"internalType":"uint256","name":"certifiedAt","type":"uint256"},{"internalType":"bytes32","name":"replacesId","type":"bytes32"},{"internalType":"string","name":"safeDefaultCid","type":"string"}],"internalType":"struct GovernanceContract.PolicyProposal","name":"","type":"tuple"}],"stateMutability":"view","type":"function"},{"inputs":[{"internalType":"bytes32","name":"actionId","type":"bytes32"},{"internalType":"string","name":"paDID","type":"string"}],"name":"hasVotedAction","outputs":[{"internalType":"bool","name":"","type":"bool"}],"stateMutability":"view","type":"function"},{"inputs":[{"internalType":"bytes32","name":"proposalId","type":"bytes32"},{"internalType":"string","name":"paDID","type":"string"}],"name":"hasVotedProposal","outputs":[{"internalType":"bool","name":"","type":"bool"}],"stateMutability":"view","type":"function"},{"inputs":[],"name":"isAuditWindowOpen","outputs":[{"internalType":"bool","name":"","type":"bool"}],"stateMutability":"view","type":"function"},{"inputs":[],"name":"isBootstrapComplete","outputs":[{"internalType":"bool","name":"","type":"bool"}],"stateMutability":"view","type":"function"},{"inputs":[{"internalType":"enum GovernanceContract.GovernanceActionType","name":"actionType","type":"uint8"},{"internalType":"bytes","name":"payload","type":"bytes"}],"name":"proposeGovernanceAction","outputs":[],"stateMutability":"nonpayable","type":"function"},{"inputs":[{"internalType":"bytes32","name":"proposalId","type":"bytes32"},{"internalType":"string","name":"reason","type":"string"},{"internalType":"bytes32","name":"validationId","type":"bytes32"}],"name":"rejectProposal","outputs":[],"stateMutability":"nonpayable","type":"function"},{"inputs":[{"internalType":"uint256","name":"durationSeconds","type":"uint256"}],"name":"setAuditWindowDuration","outputs":[],"stateMutability":"nonpayable","type":"function"},{"inputs":[{"internalType":"address","name":"cvc","type":"address"}],"name":"setCVC","outputs":[],"stateMutability":"nonpayable","type":"function"},{"inputs":[{"internalType":"address","name":"registry","type":"address"}],"name":"setIdentityRegistry","outputs":[],"stateMutability":"nonpayable","type":"function"},{"inputs":[{"internalType":"address","name":"registry","type":"address"}],"name":"setPolicyRegistry","outputs":[],"stateMutability":"nonpayable","type":"function"},{"inputs":[{"internalType":"string","name":"cid","type":"string"},{"internalType":"string","name":"cidKeyDistrib","type":"string"},{"internalType":"uint8","name":"domain","type":"uint8"},{"internalType":"bytes32","name":"replacesId","type":"bytes32"},{"internalType":"string","name":"safeDefaultCid","type":"string"},{"internalType":"bytes32","name":"validationId","type":"bytes32"}],"name":"submitProposal","outputs":[],"stateMutability":"nonpayable","type":"function"},{"inputs":[{"internalType":"bytes32","name":"actionId","type":"bytes32"},{"internalType":"bool","name":"support","type":"bool"}],"name":"voteGovernanceAction","outputs":[],"stateMutability":"nonpayable","type":"function"},{"inputs":[{"internalType":"bytes32","name":"proposalId","type":"bytes32"},{"internalType":"bool","name":"support","type":"bool"}],"name":"voteProposal","outputs":[],"stateMutability":"nonpayable","type":"function"}],"evm":{"bytecode":{"linkReferences":{},"object":"6080604052348015600e575f5ffd5b50600a80546001600160a01b031916331790556144f58061002e5f395ff3fe608060405234801561000f575f5ffd5b5060043610610153575f3560e01c806396e62d45116100bf578063c83ba2af11610079578063c83ba2af146102f2578063cbf3f861146102fa578063d637ee4d1461030d578063e015c85d1461031e578063f3e88b2414610331578063f9a1a28b14610344575f5ffd5b806396e62d451461026c5780639782132b1461028c578063a4c4d92214610297578063bc4d861b146102aa578063bfb0f5bd146102ce578063c5d8f7a3146102e1575f5ffd5b80636937be18116101105780636937be18146101dd57806372295e241461020d5780637e3b7212146102205780637f95bc16146102335780638ec70ef414610246578063926851af14610259575f5ffd5b806306c7e131146101575780630f5c328c146101615780631d2626f71461017457806329179f2614610197578063430694cf146101aa57806349e37991146101ca575b5f5ffd5b61015f61034c565b005b61015f61016f3660046134bf565b61055d565b600a54600160a01b900460ff165b60405190151581526020015b60405180910390f35b61015f6101a536600461353f565b61077a565b6101bd6101b83660046135fd565b610cd3565b60405161018e919061366a565b61015f6101d83660046137c6565b611127565b6101ff6101eb366004613816565b60ff165f9081526005602052604090205490565b60405190815260200161018e565b61018261021b366004613838565b6114c8565b61015f61022e3660046135fd565b611501565b61015f610241366004613866565b6115a0565b61015f6102543660046138c8565b6118b6565b61015f6102673660046135fd565b611988565b61027f61027a3660046135fd565b611d87565b60405161018e9190613903565b600954421115610182565b61015f6102a53660046134bf565b611fe8565b5f546001600160a01b03165b6040516001600160a01b03909116815260200161018e565b61015f6102dc3660046139b1565b612220565b6001546001600160a01b03166102b6565b6009546101ff565b61015f6103083660046138c8565b612449565b6002546001600160a01b03166102b6565b61015f61032c3660046138c8565b612513565b61018261033f366004613838565b6125de565b6008546101ff565b600a54600160a01b900460ff1615610377576040516351e5a70160e11b815260040160405180910390fd5b600a546001600160a01b031633146103ab5760405163eb1cd1d160e01b81526004016103a2906139d1565b60405180910390fd5b5f546001600160a01b03166104035760405163d647364f60e01b815260206004820152601e60248201527f4964656e746974795265676973747279206e6f6e20696d706f737461746f000060448201526064016103a2565b6001546001600160a01b031661045c5760405163d647364f60e01b815260206004820152601c60248201527f506f6c6963795265676973747279206e6f6e20696d706f737461746f0000000060448201526064016103a2565b6002546001600160a01b03166104a95760405163d647364f60e01b8152602060048201526011602482015270435643206e6f6e20696d706f737461746f60781b60448201526064016103a2565b6008545f036105075760405163d647364f60e01b815260206004820152602360248201527f4475726174612061756469742077696e646f77206e6f6e20636f6e666967757260448201526261746160e81b60648201526084016103a2565b600a8054600160a01b60ff60a01b198216179091556040514281526001600160a01b03909116907f9801a6b1e8682e27f2f663cc8c1cbbd14d87e5533cfc932338d8b4dd458bf5b29060200160405180910390a2565b600a54600160a01b900460ff16610587576040516359de1bb360e01b815260040160405180910390fd5b6105905f6125fb565b5f82815260066020526040902080546105bf5760405163a947a72f60e01b8152600481018490526024016103a2565b5f600482015460ff1660018111156105d9576105d9613642565b146105fa5760405163f4624c3d60e01b8152600481018490526024016103a2565b5f80546040516395f9250d60e01b81523360048201526001600160a01b03909116906395f9250d906024015f60405180830381865afa15801561063f573d5f5f3e3d5ffd5b505050506040513d5f823e601f3d908101601f191682016040526106669190810190613af4565b905060075f8581526020019081526020015f20816040516106879190613b44565b9081526040519081900360200190205460ff16156106bc57838160405163994c873360e01b81526004016103a2929190613b4f565b600160075f8681526020019081526020015f20826040516106dd9190613b44565b908152604051908190036020019020805491151560ff19909216919091179055821561071a57600782018054905f61071483613b7b565b91905055505b837f9f1a512c084c56645ea27a157e11b97665629483899be7b9841aefb61e368b7882858560070154426040516107549493929190613b93565b60405180910390a28160060154826007015410610774576107748461280b565b50505050565b600a54600160a01b900460ff166107a4576040516359de1bb360e01b815260040160405180910390fd5b5f8890036107e65760405163d647364f60e01b815260206004820152600e60248201526d434944206e6f6e2076616c69646f60901b60448201526064016103a2565b5f8690036108375760405163d647364f60e01b815260206004820152601f60248201527f434944206b657920646973747269627574696f6e206e6f6e2076616c69646f0060448201526064016103a2565b60028560ff1611156108815760405163d647364f60e01b8152602060048201526012602482015271446f6d696e696f206e6f6e2076616c69646f60701b60448201526064016103a2565b5f80546040516395f9250d60e01b81523360048201526001600160a01b03909116906395f9250d906024015f60405180830381865afa1580156108c6573d5f5f3e3d5ffd5b505050506040513d5f823e601f3d908101601f191682016040526108ed9190810190613af4565b60028054604051630403aa9360e31b81529293505f926001600160a01b039091169163201d5498916109289187918791908d90600401613bc1565b6020604051808303815f875af1158015610944573d5f5f3e3d5ffd5b505050506040513d601f19601f820116820180604052508101906109689190613c04565b9050806109885760405163eb1cd1d160e01b81526004016103a290613c1f565b6109928288612ddc565b61099c8688612f01565b5f828c8c8a426040516020016109b6959493929190613c7e565b60408051601f1981840301815291815281516020928301205f818152600390935291205490915015610a2b5760405163d647364f60e01b815260206004820152601860248201527f50726f706f73616c496420676961206573697374656e7465000000000000000060448201526064016103a2565b60405180610220016040528082815260200184815260200160405180602001604052805f815250815260200160405180602001604052805f81525081526020018d8d8080601f0160208091040260200160405190810160405280939291908181526020018383808284375f92019190915250505090825250604080516020601f8e018190048102820181019092528c815291810191908d908d90819084018382808284375f92018290525093855250505060ff8b16602083015260409091019081526020015f81526020015f81526020015f81526020014281526020015f81526020015f81526020015f815260200188815260200187878080601f0160208091040260200160405190810160405280939291908181526020018383808284375f92018290525093909452505083815260036020908152604090912083518155908301519091506001820190610b809082613d3e565b5060408201516002820190610b959082613d3e565b5060608201516003820190610baa9082613d3e565b5060808201516004820190610bbf9082613d3e565b5060a08201516005820190610bd49082613d3e565b5060c082015160068201805460ff90921660ff1983168117825560e08501519261ffff191617610100836004811115610c0f57610c0f613642565b0217905550610100820151600782015561012082015160088201556101408201516009820155610160820151600a820155610180820151600b8201556101a0820151600c8201556101c0820151600d8201556101e0820151600e820155610200820151600f820190610c819082613d3e565b50905050807f99f7640e6c16a80ae881c9600ccae39a42b5a3b25d57a3081e3c30f1a0e293b8848a8f8f42604051610cbd959493929190613df8565b60405180910390a2505050505050505050505050565b610cdb613422565b5f82815260036020526040902054610d095760405163e2acee5b60e01b8152600481018390526024016103a2565b60035f8381526020019081526020015f20604051806102200160405290815f8201548152602001600182018054610d3f90613cbb565b80601f0160208091040260200160405190810160405280929190818152602001828054610d6b90613cbb565b8015610db65780601f10610d8d57610100808354040283529160200191610db6565b820191905f5260205f20905b815481529060010190602001808311610d9957829003601f168201915b50505050508152602001600282018054610dcf90613cbb565b80601f0160208091040260200160405190810160405280929190818152602001828054610dfb90613cbb565b8015610e465780601f10610e1d57610100808354040283529160200191610e46565b820191905f5260205f20905b815481529060010190602001808311610e2957829003601f168201915b50505050508152602001600382018054610e5f90613cbb565b80601f0160208091040260200160405190810160405280929190818152602001828054610e8b90613cbb565b8015610ed65780601f10610ead57610100808354040283529160200191610ed6565b820191905f5260205f20905b815481529060010190602001808311610eb957829003601f168201915b50505050508152602001600482018054610eef90613cbb565b80601f0160208091040260200160405190810160405280929190818152602001828054610f1b90613cbb565b8015610f665780601f10610f3d57610100808354040283529160200191610f66565b820191905f5260205f20905b815481529060010190602001808311610f4957829003601f168201915b50505050508152602001600582018054610f7f90613cbb565b80601f0160208091040260200160405190810160405280929190818152602001828054610fab90613cbb565b8015610ff65780601f10610fcd57610100808354040283529160200191610ff6565b820191905f5260205f20905b815481529060010190602001808311610fd957829003601f168201915b5050509183525050600682015460ff808216602084015260409092019161010090910416600481111561102b5761102b613642565b600481111561103c5761103c613642565b8152602001600782015481526020016008820154815260200160098201548152602001600a8201548152602001600b8201548152602001600c8201548152602001600d8201548152602001600e8201548152602001600f820180546110a090613cbb565b80601f01602080910402602001604051908101604052809291908181526020018280546110cc90613cbb565b80156111175780601f106110ee57610100808354040283529160200191611117565b820191905f5260205f20905b8154815290600101906020018083116110fa57829003601f168201915b5050505050815250509050919050565b600a54600160a01b900460ff16611151576040516359de1bb360e01b815260040160405180910390fd5b61115a5f6125fb565b5f8190036111a05760405163d647364f60e01b81526020600482015260126024820152715061796c6f6164206e6f6e2076616c69646f60701b60448201526064016103a2565b5f80546040516395f9250d60e01b81523360048201526001600160a01b03909116906395f9250d906024015f60405180830381865afa1580156111e5573d5f5f3e3d5ffd5b505050506040513d5f823e601f3d908101601f1916820160405261120c9190810190613af4565b90505f8185600581111561122257611222613642565b858542604051602001611239959493929190613e39565b60408051601f1981840301815282825280516020918201205f8054633cad168d60e11b86529351919550936001600160a01b039093169263795a2d1a9260048083019391928290030181865afa158015611295573d5f5f3e3d5ffd5b505050506040513d601f19601f820116820180604052508101906112b99190613e73565b9050600481101561130d5760405163d647364f60e01b815260206004820152601c60248201527f4d696e696d6f203420504120617474697665207269636869657374650000000060448201526064016103a2565b5f600461131b836003613e8a565b611326906003613ea7565b6113309190613eba565b905060405180610140016040528084815260200185815260200188600581111561135c5761135c613642565b815260200187878080601f0160208091040260200160405190810160405280939291908181526020018383808284375f9201829052509385525050506020808301829052604080840187905260608401869052608084018390524260a085015260c090930182905286825260068152919020825181559082015160018201906113e59082613d3e565b50604082015160028201805460ff1916600183600581111561140957611409613642565b0217905550606082015160038201906114229082613d3e565b50608082015160048201805460ff19166001838181111561144557611445613642565b021790555060a0820151816005015560c0820151816006015560e0820151816007015561010082015181600801556101208201518160090155905050827f09b9b58daa12861aa71490cf562c992cbd40f8b6043d994963f576752d49a241858985426040516114b79493929190613ed9565b60405180910390a250505050505050565b5f8381526007602052604080822090516114e59085908590613f0c565b9081526040519081900360200190205460ff1690509392505050565b600a54600160a01b900460ff161561152c576040516351e5a70160e11b815260040160405180910390fd5b600a546001600160a01b031633146115575760405163eb1cd1d160e01b81526004016103a2906139d1565b805f0361159b5760405163d647364f60e01b8152602060048201526011602482015270447572617461206e6f6e2076616c69646160781b60448201526064016103a2565b600855565b600a54600160a01b900460ff166115ca576040516359de1bb360e01b815260040160405180910390fd5b5f82900361161b5760405163d647364f60e01b815260206004820152601860248201527f4d6f746976617a696f6e65206f62626c696761746f726961000000000000000060448201526064016103a2565b5f848152600360205260409020805461164a5760405163e2acee5b60e01b8152600481018690526024016103a2565b5f6006820154610100900460ff16600481111561166957611669613642565b14158015611695575060016006820154610100900460ff16600481111561169257611692613642565b14155b156116ca57848160060160019054906101000a900460ff165f604051630cd3468160e11b81526004016103a293929190613f1b565b5f80546040516395f9250d60e01b81523360048201526001600160a01b03909116906395f9250d906024015f60405180830381865afa15801561170f573d5f5f3e3d5ffd5b505050506040513d5f823e601f3d908101601f191682016040526117369190810190613af4565b6002546006840154604051630403aa9360e31b81529293505f926001600160a01b039092169163201d549891611779918891879160019160ff1690600401613bc1565b6020604051808303815f875af1158015611795573d5f5f3e3d5ffd5b505050506040513d601f19601f820116820180604052508101906117b99190613c04565b9050806117d95760405163eb1cd1d160e01b81526004016103a290613c1f565b61186d828460010180546117ec90613cbb565b80601f016020809104026020016040519081016040528092919081815260200182805461181890613cbb565b80156118635780601f1061183a57610100808354040283529160200191611863565b820191905f5260205f20905b81548152906001019060200180831161184657829003601f168201915b5050505050612ff2565b60068301805461ff00191661040017905560405187907fc68d41c52f606ad478346d0387aad7a9d133a706ac62237214209e5cfa656bd1906114b79085908a908a904290613f3c565b600a54600160a01b900460ff16156118e1576040516351e5a70160e11b815260040160405180910390fd5b600a546001600160a01b0316331461190c5760405163eb1cd1d160e01b81526004016103a2906139d1565b6001600160a01b0381166119335760405163d647364f60e01b81526004016103a290613f73565b600280546001600160a01b0319166001600160a01b0383169081179091556040514281527f087f1267d4fc5408cca3ac12c5c6cc6116d58615d9f608a50437fe5a3d76591b906020015b60405180910390a250565b600a54600160a01b900460ff166119b2576040516359de1bb360e01b815260040160405180910390fd5b6119bb5f6125fb565b5f81815260036020526040902080546119ea5760405163e2acee5b60e01b8152600481018390526024016103a2565b60016006820154610100900460ff166004811115611a0a57611a0a613642565b14611a4057818160060160019054906101000a900460ff166001604051630cd3468160e11b81526004016103a293929190613f1b565b600681015460ff165f9081526005602052604090205415611a9457600681015460ff165f8181526005602052604090819020549051633b72a42d60e21b8152600481019290925260248201526044016103a2565b5f80546040516395f9250d60e01b81523360048201526001600160a01b03909116906395f9250d906024015f60405180830381865afa158015611ad9573d5f5f3e3d5ffd5b505050506040513d5f823e601f3d908101601f19168201604052611b009190810190613af4565b90505f826002018054611b1290613cbb565b90501115611c07575f80546040516308c3488f60e31b81526001600160a01b039091169063461a447890611b4d906002870190600401614020565b5f60405180830381865afa158015611b67573d5f5f3e3d5ffd5b505050506040513d5f823e601f3d908101601f19168201604052611b8e91908101906140e1565b905081805190602001208161010001518051906020012014611c055760405163eb1cd1d160e01b815260206004820152602960248201527f536f6c6f206c612050412064656c6567616e74652064656c2050502070756f20604482015268656e646f727361726560b81b60648201526084016103a2565b505b5f5f5f9054906101000a90046001600160a01b03166001600160a01b031663795a2d1a6040518163ffffffff1660e01b8152600401602060405180830381865afa158015611c57573d5f5f3e3d5ffd5b505050506040513d601f19601f82011682018060405250810190611c7b9190613e73565b90506004811015611ccf5760405163d647364f60e01b815260206004820152601c60248201527f4d696e696d6f203420504120617474697665207269636869657374650000000060448201526064016103a2565b5f6004611cdd836003613e8a565b611ce8906003613ea7565b611cf29190613eba565b60068501805461ff001916610200179055905060038401611d138482613d3e565b50600784018290556008840181905542600c8501819055600685015460ff165f90815260056020526040908190208790555186917f4067544317ed866f2116ad5af8ce562d6c1082c8c3702ce87051ddd863e3a7e991611d7891879187918791614207565b60405180910390a25050505050565b611dd660408051610140810182525f8082526060602083015290918201908152606060208201526040015f81526020015f81526020015f81526020015f81526020015f81526020015f81525090565b5f82815260066020526040902054611e045760405163a947a72f60e01b8152600481018390526024016103a2565b60065f8381526020019081526020015f20604051806101400160405290815f8201548152602001600182018054611e3a90613cbb565b80601f0160208091040260200160405190810160405280929190818152602001828054611e6690613cbb565b8015611eb15780601f10611e8857610100808354040283529160200191611eb1565b820191905f5260205f20905b815481529060010190602001808311611e9457829003601f168201915b5050509183525050600282015460209091019060ff166005811115611ed857611ed8613642565b6005811115611ee957611ee9613642565b8152602001600382018054611efd90613cbb565b80601f0160208091040260200160405190810160405280929190818152602001828054611f2990613cbb565b8015611f745780601f10611f4b57610100808354040283529160200191611f74565b820191905f5260205f20905b815481529060010190602001808311611f5757829003601f168201915b5050509183525050600482015460209091019060ff166001811115611f9b57611f9b613642565b6001811115611fac57611fac613642565b81526005820154602082015260068201546040820152600782015460608201526008820154608082015260099091015460a09091015292915050565b600a54600160a01b900460ff16612012576040516359de1bb360e01b815260040160405180910390fd5b61201b5f6125fb565b5f828152600360205260409020805461204a5760405163e2acee5b60e01b8152600481018490526024016103a2565b60026006820154610100900460ff16600481111561206a5761206a613642565b146120a057828160060160019054906101000a900460ff166002604051630cd3468160e11b81526004016103a293929190613f1b565b5f80546040516395f9250d60e01b81523360048201526001600160a01b03909116906395f9250d906024015f60405180830381865afa1580156120e5573d5f5f3e3d5ffd5b505050506040513d5f823e601f3d908101601f1916820160405261210c9190810190613af4565b905060045f8581526020019081526020015f208160405161212d9190613b44565b9081526040519081900360200190205460ff161561216257838160405163994c873360e01b81526004016103a2929190613b4f565b600160045f8681526020019081526020015f20826040516121839190613b44565b908152604051908190036020019020805491151560ff1990921691909117905582156121c057600982018054905f6121ba83613b7b565b91905055505b837f2d9aaba916e00defc29265dec862b99a6bd7c8fe97f54be23e43feaa8a34c62c82858560090154866008015442604051612200959493929190614235565b60405180910390a2816008015482600901541061077457610774846130de565b600a54600160a01b900460ff1661224a576040516359de1bb360e01b815260040160405180910390fd5b5f82815260036020526040902080546122795760405163e2acee5b60e01b8152600481018490526024016103a2565b5f6006820154610100900460ff16600481111561229857612298613642565b146122cd57828160060160019054906101000a900460ff165f604051630cd3468160e11b81526004016103a293929190613f1b565b5f80546040516395f9250d60e01b81523360048201526001600160a01b03909116906395f9250d906024015f60405180830381865afa158015612312573d5f5f3e3d5ffd5b505050506040513d5f823e601f3d908101601f191682016040526123399190810190613af4565b6002546006840154604051630403aa9360e31b81529293505f926001600160a01b039092169163201d54989161237c918891879160019160ff1690600401613bc1565b6020604051808303815f875af1158015612398573d5f5f3e3d5ffd5b505050506040513d601f19601f820116820180604052508101906123bc9190613c04565b9050806123dc5760405163eb1cd1d160e01b81526004016103a290613c1f565b6123ef828460010180546117ec90613cbb565b60068301805461ff0019166101001790556002830161240e8382613d3e565b5042600b840181905560405186917f390b03734d3e7cb04de5e86f95bb24ecf71cad5c7be7d54ec1884b5220ce8a0191611d7891869161426b565b600a54600160a01b900460ff1615612474576040516351e5a70160e11b815260040160405180910390fd5b600a546001600160a01b0316331461249f5760405163eb1cd1d160e01b81526004016103a2906139d1565b6001600160a01b0381166124c65760405163d647364f60e01b81526004016103a290613f73565b5f80546001600160a01b0319166001600160a01b0383169081179091556040514281527fb279d83ea0d87c763b2f6e1457a9572e284339948adf5ad4b58b90ac77cb54079060200161197d565b600a54600160a01b900460ff161561253e576040516351e5a70160e11b815260040160405180910390fd5b600a546001600160a01b031633146125695760405163eb1cd1d160e01b81526004016103a2906139d1565b6001600160a01b0381166125905760405163d647364f60e01b81526004016103a290613f73565b600180546001600160a01b0319166001600160a01b0383169081179091556040514281527f7647c16c0c1f643b4d09d0bd1878b67929ed77287d4160e0374cd74420899d529060200161197d565b5f8381526004602052604080822090516114e59085908590613f0c565b5f80546040516395f9250d60e01b81523360048201526001600160a01b03909116906395f9250d906024015f60405180830381865afa158015612640573d5f5f3e3d5ffd5b505050506040513d5f823e601f3d908101601f191682016040526126679190810190613af4565b905080515f036126ba5760405163eb1cd1d160e01b815260206004820152601860248201527f436869616d616e7465206e6f6e207265676973747261746f000000000000000060448201526064016103a2565b5f80546040516308c3488f60e31b81526001600160a01b039091169063461a4478906126ea90859060040161428c565b5f60405180830381865afa158015612704573d5f5f3e3d5ffd5b505050506040513d5f823e601f3d908101601f1916820160405261272b91908101906140e1565b905082600581111561273f5761273f613642565b8160800151600581111561275557612755613642565b1461279b5760405163eb1cd1d160e01b815260206004820152601560248201527452756f6c6f206e6f6e206175746f72697a7a61746f60581b60448201526064016103a2565b806040015115806127bf57505f8161012001511180156127bf575080610120015142115b156128065760405163eb1cd1d160e01b8152602060048201526016602482015275444944207265766f6361746f206f207363616475746f60501b60448201526064016103a2565b505050565b5f81815260066020526040812060048101805460ff191660011790554260098201556002810154909160ff9091169081600581111561284c5761284c613642565b14806128695750600181600581111561286757612867613642565b145b15612970575f82600301805461287e90613cbb565b80601f01602080910402602001604051908101604052809291908181526020018280546128aa90613cbb565b80156128f55780601f106128cc576101008083540402835291602001916128f5565b820191905f5260205f20905b8154815290600101906020018083116128d857829003601f168201915b505050505080602001905181019061290d9190613af4565b5f54604051633a7239a160e11b81529192506001600160a01b0316906374e473429061293d90849060040161428c565b5f604051808303815f87803b158015612954575f5ffd5b505af1158015612966573d5f5f3e3d5ffd5b5050505050612d94565b600281600581111561298457612984613642565b03612a98575f5f5f84600301805461299b90613cbb565b80601f01602080910402602001604051908101604052809291908181526020018280546129c790613cbb565b8015612a125780601f106129e957610100808354040283529160200191612a12565b820191905f5260205f20905b8154815290600101906020018083116129f557829003601f168201915b5050505050806020019051810190612a2a919061429e565b5f54604051631cd9d56960e11b815293965091945092506001600160a01b0316906339b3aad290612a6390869086908690600401614314565b5f604051808303815f87803b158015612a7a575f5ffd5b505af1158015612a8c573d5f5f3e3d5ffd5b50505050505050612d94565b6003816005811115612aac57612aac613642565b03612b8b575f5f5f846003018054612ac390613cbb565b80601f0160208091040260200160405190810160405280929190818152602001828054612aef90613cbb565b8015612b3a5780601f10612b1157610100808354040283529160200191612b3a565b820191905f5260205f20905b815481529060010190602001808311612b1d57829003601f168201915b5050505050806020019051810190612b52919061429e565b5f54604051632b8585e960e11b815293965091945092506001600160a01b03169063570b0bd290612a6390869086908690600401614314565b6004816005811115612b9f57612b9f613642565b03612c75575f826003018054612bb490613cbb565b80601f0160208091040260200160405190810160405280929190818152602001828054612be090613cbb565b8015612c2b5780601f10612c0257610100808354040283529160200191612c2b565b820191905f5260205f20905b815481529060010190602001808311612c0e57829003601f168201915b5050505050806020019051810190612c439190613e73565b60015460405163f230748f60e01b8152600481018390529192506001600160a01b03169063f230748f9060240161293d565b6005816005811115612c8957612c89613642565b03612d94575f5f836003018054612c9f90613cbb565b80601f0160208091040260200160405190810160405280929190818152602001828054612ccb90613cbb565b8015612d165780601f10612ced57610100808354040283529160200191612d16565b820191905f5260205f20905b815481529060010190602001808311612cf957829003601f168201915b5050505050806020019051810190612d2e9190614351565b600154604051638acbfde560e01b81529294509092506001600160a01b031690638acbfde590612d64908590859060040161439e565b5f604051808303815f87803b158015612d7b575f5ffd5b505af1158015612d8d573d5f5f3e3d5ffd5b5050505050505b600282015460405184917fd5e393722a87335a9931ff0c86c2c030cf316f7820d8459bdce7be06f7b7011e91612dcf9160ff169042906143b9565b60405180910390a2505050565b5f80546040516308c3488f60e31b81526001600160a01b039091169063461a447890612e0c90869060040161428c565b5f60405180830381865afa158015612e26573d5f5f3e3d5ffd5b505050506040513d5f823e601f3d908101601f19168201604052612e4d91908101906140e1565b90505f5b8160a0015151811015612ea7578260ff168260a001518281518110612e7857612e786143d4565b60200260200101516002811115612e9157612e91613642565b60ff1603612e9f5750505050565b600101612e51565b5060405163eb1cd1d160e01b815260206004820152602760248201527f444547206e6f6e2068612073636f70652073756c20646f6d696e696f206469636044820152666869617261746f60c81b60648201526084016103a2565b81612f0a575050565b5f8281526003602052604090208054612f7c5760405163d647364f60e01b815260206004820152602d60248201527f7265706c616365734964206e6f6e20636f72726973706f6e64652061206e657360448201526c73756e612070726f706f73746160981b60648201526084016103a2565b600681015460ff8381169116146128065760405163d647364f60e01b815260206004820152603360248201527f446f6d696e696f2064656c6c612070726f706f737461207265666572656e7a69604482015272617461206e6f6e20636f72726973706f6e646560681b60648201526084016103a2565b5f80546040516308c3488f60e31b81526001600160a01b039091169063461a44789061302290859060040161428c565b5f60405180830381865afa15801561303c573d5f5f3e3d5ffd5b505050506040513d5f823e601f3d908101601f1916820160405261306391908101906140e1565b9050828051906020012081610100015180519060200120146128065760405163eb1cd1d160e01b815260206004820152602d60248201527f5050206e6f6e206520696c2073757065727669736f72652064656c204445472060448201526c736f74746f6d697474656e746560981b60648201526084016103a2565b5f818152600360205260409020600e810154156131a0576001546006820154604051631f09ba7560e01b815260ff90911660048201525f916001600160a01b031690631f09ba7590602401602060405180830381865afa158015613144573d5f5f3e3d5ffd5b505050506040513d601f19601f820116820180604052508101906131689190613e73565b905081600e0154811461319e57600e82015460405163085745e160e01b81526004810191909152602481018290526044016103a2565b505b60015460068201546040516329e4b1d160e11b815260ff90911660048201526001600160a01b03909116906353c963a290602401602060405180830381865afa1580156131ef573d5f5f3e3d5ffd5b505050506040513d601f19601f820116820180604052508101906132139190613c04565b15801561322e575080600f01805461322a90613cbb565b1590505b15613257576006810154604051631cb723df60e31b815260ff90911660048201526024016103a2565b60068101805461030061ff0019821617825542600d84015560ff9081165f908152600560205260408082208290556001549354905163dec0062160e01b815292166004830152916001600160a01b03169063dec0062190602401602060405180830381865afa1580156132cc573d5f5f3e3d5ffd5b505050506040513d601f19601f820116820180604052508101906132f091906143e8565b6132fb90600161440b565b600154600684015460405163695c86c360e11b81529293506001600160a01b039091169163d2b90d869161334791879160048089019260058a019260ff16918991600f8c019101614427565b5f604051808303815f87803b15801561335e575f5ffd5b505af1158015613370573d5f5f3e3d5ffd5b50505050600682015460405184917fa2a49c80fa2c1c3806f37f08e98fdf1da4a84e8bc5b68cfa8d997cbb99ad815c916133b69160ff1690859060048801904290614487565b60405180910390a25f600854426133cd9190613ea7565b90506009548111156133df5760098190555b6009546040805191825242602083015285917f065138e0a3a803628df979157e0c472927b5e1d2d2b93f90994f0fbf1fc1abed910160405180910390a250505050565b6040518061022001604052805f815260200160608152602001606081526020016060815260200160608152602001606081526020015f60ff1681526020015f600481111561347257613472613642565b81526020015f81526020015f81526020015f81526020015f81526020015f81526020015f81526020015f81526020015f8152602001606081525090565b80151581146134bc575f5ffd5b50565b5f5f604083850312156134d0575f5ffd5b8235915060208301356134e2816134af565b809150509250929050565b5f5f83601f8401126134fd575f5ffd5b5081356001600160401b03811115613513575f5ffd5b60208301915083602082850101111561352a575f5ffd5b9250929050565b60ff811681146134bc575f5ffd5b5f5f5f5f5f5f5f5f5f60c08a8c031215613557575f5ffd5b89356001600160401b0381111561356c575f5ffd5b6135788c828d016134ed565b909a5098505060208a01356001600160401b03811115613596575f5ffd5b6135a28c828d016134ed565b90985096505060408a01356135b681613531565b945060608a0135935060808a01356001600160401b038111156135d7575f5ffd5b6135e38c828d016134ed565b9a9d999c50979a9699959894979660a00135949350505050565b5f6020828403121561360d575f5ffd5b5035919050565b5f81518084528060208401602086015e5f602082860101526020601f19601f83011685010191505092915050565b634e487b7160e01b5f52602160045260245ffd5b6005811061366657613666613642565b9052565b60208152815160208201525f60208301516102206040840152613691610240840182613614565b90506040840151601f198483030160608501526136ae8282613614565b9150506060840151601f198483030160808501526136cc8282613614565b9150506080840151601f198483030160a08501526136ea8282613614565b91505060a0840151601f198483030160c08501526137088282613614565b91505060c084015161371f60e085018260ff169052565b5060e0840151613733610100850182613656565b506101008401516101208401526101208401516101408401526101408401516101608401526101608401516101808401526101808401516101a08401526101a08401516101c08401526101c08401516101e08401526101e0840151610200840152610200840151601f19848303016102208501526137b18282613614565b95945050505050565b600681106134bc575f5ffd5b5f5f5f604084860312156137d8575f5ffd5b83356137e3816137ba565b925060208401356001600160401b038111156137fd575f5ffd5b613809868287016134ed565b9497909650939450505050565b5f60208284031215613826575f5ffd5b813561383181613531565b9392505050565b5f5f5f6040848603121561384a575f5ffd5b8335925060208401356001600160401b038111156137fd575f5ffd5b5f5f5f5f60608587031215613879575f5ffd5b8435935060208501356001600160401b03811115613895575f5ffd5b6138a1878288016134ed565b9598909750949560400135949350505050565b6001600160a01b03811681146134bc575f5ffd5b5f602082840312156138d8575f5ffd5b8135613831816138b4565b6006811061366657613666613642565b6002811061366657613666613642565b60208152815160208201525f6020830151610140604084015261392a610160840182613614565b9050604084015161393e60608501826138e3565b506060840151838203601f1901608085015261395a8282613614565b915050608084015161396f60a08501826138f3565b5060a084015160c084015260c084015160e084015260e08401516101008401526101008401516101208401526101208401516101408401528091505092915050565b5f5f604083850312156139c2575f5ffd5b50508035926020909101359150565b60208082526025908201527f536f6c6f20696c206465706c6f79657220647572616e746520696c20626f6f74604082015264073747261760dc1b606082015260800190565b634e487b7160e01b5f52604160045260245ffd5b60405161014081016001600160401b0381118282101715613a4d57613a4d613a16565b60405290565b604051601f8201601f191681016001600160401b0381118282101715613a7b57613a7b613a16565b604052919050565b5f82601f830112613a92575f5ffd5b8151602083015f5f6001600160401b03841115613ab157613ab1613a16565b50601f8301601f1916602001613ac681613a53565b915050828152858383011115613ada575f5ffd5b8282602083015e5f92810160200192909252509392505050565b5f60208284031215613b04575f5ffd5b81516001600160401b03811115613b19575f5ffd5b613b2584828501613a83565b949350505050565b5f81518060208401855e5f93019283525090919050565b5f6138318284613b2d565b828152604060208201525f613b256040830184613614565b634e487b7160e01b5f52601160045260245ffd5b5f60018201613b8c57613b8c613b67565b5060010190565b608081525f613ba56080830187613614565b9415156020830152506040810192909252606090910152919050565b848152608060208201525f613bd96080830186613614565b60ff9485166040840152929093166060909101529392505050565b8051613bff816134af565b919050565b5f60208284031215613c14575f5ffd5b8151613831816134af565b60208082526018908201527f56616c6964617a696f6e65206e6f6e2072697573636974610000000000000000604082015260600190565b81835281816020850137505f828201602090810191909152601f909101601f19169091010190565b608081525f613c906080830188613614565b8281036020840152613ca3818789613c56565b60ff9590951660408401525050606001529392505050565b600181811c90821680613ccf57607f821691505b602082108103613ced57634e487b7160e01b5f52602260045260245ffd5b50919050565b601f82111561280657805f5260205f20601f840160051c81016020851015613d185750805b601f840160051c820191505b81811015613d37575f8155600101613d24565b5050505050565b81516001600160401b03811115613d5757613d57613a16565b613d6b81613d658454613cbb565b84613cf3565b6020601f821160018114613d9d575f8315613d865750848201515b5f19600385901b1c1916600184901b178455613d37565b5f84815260208120601f198516915b82811015613dcc5787850151825560209485019460019092019101613dac565b5084821015613de957868401515f19600387901b60f8161c191681555b50505050600190811b01905550565b608081525f613e0a6080830188613614565b60ff871660208401528281036040840152613e26818688613c56565b9150508260608301529695505050505050565b5f613e448288613b2d565b60f887901b6001600160f81b031916815284866001830137600194019384019290925250506021019392505050565b5f60208284031215613e83575f5ffd5b5051919050565b8082028115828204841417613ea157613ea1613b67565b92915050565b80820180821115613ea157613ea1613b67565b5f82613ed457634e487b7160e01b5f52601260045260245ffd5b500490565b608081525f613eeb6080830187613614565b9050613efa60208301866138e3565b60408201939093526060015292915050565b818382375f9101908152919050565b83815260608101613f2f6020830185613656565b613b256040830184613656565b606081525f613f4e6060830187613614565b8281036020840152613f61818688613c56565b91505082604083015295945050505050565b602080825260149082015273496e646972697a7a6f206e6f6e2076616c69646f60601b604082015260600190565b5f8154613fad81613cbb565b808552600182168015613fc75760018114613fe357614017565b60ff1983166020870152602082151560051b8701019350614017565b845f5260205f205f5b8381101561400e5781546020828a010152600182019150602081019050613fec565b87016020019450505b50505092915050565b602081525f6138316020830184613fa1565b8051613bff816138b4565b805160028110613bff575f5ffd5b8051613bff816137ba565b5f82601f830112614065575f5ffd5b81516001600160401b0381111561407e5761407e613a16565b8060051b61408e60208201613a53565b918252602081850181019290810190868411156140a9575f5ffd5b6020860192505b838310156140d7578251600381106140c6575f5ffd5b8252602092830192909101906140b0565b9695505050505050565b5f602082840312156140f1575f5ffd5b81516001600160401b03811115614106575f5ffd5b82016101408185031215614118575f5ffd5b614120613a2a565b61412982614032565b815260208201516001600160401b03811115614143575f5ffd5b61414f86828501613a83565b60208301525061416160408301613bf4565b60408201526141726060830161403d565b60608201526141836080830161404b565b608082015260a08201516001600160401b038111156141a0575f5ffd5b6141ac86828501614056565b60a08301525060c0828101519082015260e080830151908201526101008201516001600160401b038111156141df575f5ffd5b6141eb86828501613a83565b6101008301525061012091820151918101919091529392505050565b608081525f6142196080830187613614565b6020830195909552506040810192909252606090910152919050565b60a081525f61424760a0830188613614565b95151560208301525060408101939093526060830191909152608090910152919050565b604081525f61427d6040830185613614565b90508260208301529392505050565b602081525f6138316020830184613614565b5f5f5f606084860312156142b0575f5ffd5b83516001600160401b038111156142c5575f5ffd5b6142d186828701613a83565b93505060208401516001600160401b038111156142ec575f5ffd5b6142f886828701613a83565b9250506040840151614309816138b4565b809150509250925092565b606081525f6143266060830186613614565b82810360208401526143388186613614565b91505060018060a01b0383166040830152949350505050565b5f5f60408385031215614362575f5ffd5b825161436d81613531565b60208401519092506001600160401b03811115614388575f5ffd5b61439485828601613a83565b9150509250929050565b60ff83168152604060208201525f613b256040830184613614565b604081016143c782856138e3565b8260208301529392505050565b634e487b7160e01b5f52603260045260245ffd5b5f602082840312156143f8575f5ffd5b815163ffffffff81168114613831575f5ffd5b63ffffffff8181168382160190811115613ea157613ea1613b67565b86815260c060208201525f61443f60c0830188613fa1565b82810360408401526144518188613fa1565b905060ff8616606084015263ffffffff8516608084015282810360a084015261447a8185613fa1565b9998505050505050505050565b60ff8516815263ffffffff84166020820152608060408201525f6144ae6080830185613fa1565b90508260608301529594505050505056fea264697066735822122000a7200b266356c99261a22a46ae7fe9b309c7a8605b4f7af6f8c9540da2a82764736f6c634300081c0033","opcodes":"PUSH1 0x80 PUSH1 0x40 MSTORE CALLVALUE DUP1 ISZERO PUSH1 0xE JUMPI PUSH0 PUSH0 REVERT JUMPDEST POP PUSH1 0xA DUP1 SLOAD PUSH1 0x1 PUSH1 0x1 PUSH1 0xA0 SHL SUB NOT AND CALLER OR SWAP1 SSTORE PUSH2 0x44F5 DUP1 PUSH2 0x2E PUSH0 CODECOPY PUSH0 RETURN INVALID PUSH1 0x80 PUSH1 0x40 MSTORE CALLVALUE DUP1 ISZERO PUSH2 0xF JUMPI PUSH0 PUSH0 REVERT JUMPDEST POP PUSH1 0x4 CALLDATASIZE LT PUSH2 0x153 JUMPI PUSH0 CALLDATALOAD PUSH1 0xE0 SHR DUP1 PUSH4 0x96E62D45 GT PUSH2 0xBF JUMPI DUP1 PUSH4 0xC83BA2AF GT PUSH2 0x79 JUMPI DUP1 PUSH4 0xC83BA2AF EQ PUSH2 0x2F2 JUMPI DUP1 PUSH4 0xCBF3F861 EQ PUSH2 0x2FA JUMPI DUP1 PUSH4 0xD637EE4D EQ PUSH2 0x30D JUMPI DUP1 PUSH4 0xE015C85D EQ PUSH2 0x31E JUMPI DUP1 PUSH4 0xF3E88B24 EQ PUSH2 0x331 JUMPI DUP1 PUSH4 0xF9A1A28B EQ PUSH2 0x344 JUMPI PUSH0 PUSH0 REVERT JUMPDEST DUP1 PUSH4 0x96E62D45 EQ PUSH2 0x26C JUMPI DUP1 PUSH4 0x9782132B EQ PUSH2 0x28C JUMPI DUP1 PUSH4 0xA4C4D922 EQ PUSH2 0x297 JUMPI DUP1 PUSH4 0xBC4D861B EQ PUSH2 0x2AA JUMPI DUP1 PUSH4 0xBFB0F5BD EQ PUSH2 0x2CE JUMPI DUP1 PUSH4 0xC5D8F7A3 EQ PUSH2 0x2E1 JUMPI PUSH0 PUSH0 REVERT JUMPDEST DUP1 PUSH4 0x6937BE18 GT PUSH2 0x110 JUMPI DUP1 PUSH4 0x6937BE18 EQ PUSH2 0x1DD JUMPI DUP1 PUSH4 0x72295E24 EQ PUSH2 0x20D JUMPI DUP1 PUSH4 0x7E3B7212 EQ PUSH2 0x220 JUMPI DUP1 PUSH4 0x7F95BC16 EQ PUSH2 0x233 JUMPI DUP1 PUSH4 0x8EC70EF4 EQ PUSH2 0x246 JUMPI DUP1 PUSH4 0x926851AF EQ PUSH2 0x259 JUMPI PUSH0 PUSH0 REVERT JUMPDEST DUP1 PUSH4 0x6C7E131 EQ PUSH2 0x157 JUMPI DUP1 PUSH4 0xF5C328C EQ PUSH2 0x161 JUMPI DUP1 PUSH4 0x1D2626F7 EQ PUSH2 0x174 JUMPI DUP1 PUSH4 0x29179F26 EQ PUSH2 0x197 JUMPI DUP1 PUSH4 0x430694CF EQ PUSH2 0x1AA JUMPI DUP1 PUSH4 0x49E37991 EQ PUSH2 0x1CA JUMPI JUMPDEST PUSH0 PUSH0 REVERT JUMPDEST PUSH2 0x15F PUSH2 0x34C JUMP JUMPDEST STOP JUMPDEST PUSH2 0x15F PUSH2 0x16F CALLDATASIZE PUSH1 0x4 PUSH2 0x34BF JUMP JUMPDEST PUSH2 0x55D JUMP JUMPDEST PUSH1 0xA SLOAD PUSH1 0x1 PUSH1 0xA0 SHL SWAP1 DIV PUSH1 0xFF AND JUMPDEST PUSH1 0x40 MLOAD SWAP1 ISZERO ISZERO DUP2 MSTORE PUSH1 0x20 ADD JUMPDEST PUSH1 0x40 MLOAD DUP1 SWAP2 SUB SWAP1 RETURN JUMPDEST PUSH2 0x15F PUSH2 0x1A5 CALLDATASIZE PUSH1 0x4 PUSH2 0x353F JUMP JUMPDEST PUSH2 0x77A JUMP JUMPDEST PUSH2 0x1BD PUSH2 0x1B8 CALLDATASIZE PUSH1 0x4 PUSH2 0x35FD JUMP JUMPDEST PUSH2 0xCD3 JUMP JUMPDEST PUSH1 0x40 MLOAD PUSH2 0x18E SWAP2 SWAP1 PUSH2 0x366A JUMP JUMPDEST PUSH2 0x15F PUSH2 0x1D8 CALLDATASIZE PUSH1 0x4 PUSH2 0x37C6 JUMP JUMPDEST PUSH2 0x1127 JUMP JUMPDEST PUSH2 0x1FF PUSH2 0x1EB CALLDATASIZE PUSH1 0x4 PUSH2 0x3816 JUMP JUMPDEST PUSH1 0xFF AND PUSH0 SWAP1 DUP2 MSTORE PUSH1 0x5 PUSH1 0x20 MSTORE PUSH1 0x40 SWAP1 KECCAK256 SLOAD SWAP1 JUMP JUMPDEST PUSH1 0x40 MLOAD SWAP1 DUP2 MSTORE PUSH1 0x20 ADD PUSH2 0x18E JUMP JUMPDEST PUSH2 0x182 PUSH2 0x21B CALLDATASIZE PUSH1 0x4 PUSH2 0x3838 JUMP JUMPDEST PUSH2 0x14C8 JUMP JUMPDEST PUSH2 0x15F PUSH2 0x22E CALLDATASIZE PUSH1 0x4 PUSH2 0x35FD JUMP JUMPDEST PUSH2 0x1501 JUMP JUMPDEST PUSH2 0x15F PUSH2 0x241 CALLDATASIZE PUSH1 0x4 PUSH2 0x3866 JUMP JUMPDEST PUSH2 0x15A0 JUMP JUMPDEST PUSH2 0x15F PUSH2 0x254 CALLDATASIZE PUSH1 0x4 PUSH2 0x38C8 JUMP JUMPDEST PUSH2 0x18B6 JUMP JUMPDEST PUSH2 0x15F PUSH2 0x267 CALLDATASIZE PUSH1 0x4 PUSH2 0x35FD JUMP JUMPDEST PUSH2 0x1988 JUMP JUMPDEST PUSH2 0x27F PUSH2 0x27A CALLDATASIZE PUSH1 0x4 PUSH2 0x35FD JUMP JUMPDEST PUSH2 0x1D87 JUMP JUMPDEST PUSH1 0x40 MLOAD PUSH2 0x18E SWAP2 SWAP1 PUSH2 0x3903 JUMP JUMPDEST PUSH1 0x9 SLOAD TIMESTAMP GT ISZERO PUSH2 0x182 JUMP JUMPDEST PUSH2 0x15F PUSH2 0x2A5 CALLDATASIZE PUSH1 0x4 PUSH2 0x34BF JUMP JUMPDEST PUSH2 0x1FE8 JUMP JUMPDEST PUSH0 SLOAD PUSH1 0x1 PUSH1 0x1 PUSH1 0xA0 SHL SUB AND JUMPDEST PUSH1 0x40 MLOAD PUSH1 0x1 PUSH1 0x1 PUSH1 0xA0 SHL SUB SWAP1 SWAP2 AND DUP2 MSTORE PUSH1 0x20 ADD PUSH2 0x18E JUMP JUMPDEST PUSH2 0x15F PUSH2 0x2DC CALLDATASIZE PUSH1 0x4 PUSH2 0x39B1 JUMP JUMPDEST PUSH2 0x2220 JUMP JUMPDEST PUSH1 0x1 SLOAD PUSH1 0x1 PUSH1 0x1 PUSH1 0xA0 SHL SUB AND PUSH2 0x2B6 JUMP JUMPDEST PUSH1 0x9 SLOAD PUSH2 0x1FF JUMP JUMPDEST PUSH2 0x15F PUSH2 0x308 CALLDATASIZE PUSH1 0x4 PUSH2 0x38C8 JUMP JUMPDEST PUSH2 0x2449 JUMP JUMPDEST PUSH1 0x2 SLOAD PUSH1 0x1 PUSH1 0x1 PUSH1 0xA0 SHL SUB AND PUSH2 0x2B6 JUMP JUMPDEST PUSH2 0x15F PUSH2 0x32C CALLDATASIZE PUSH1 0x4 PUSH2 0x38C8 JUMP JUMPDEST PUSH2 0x2513 JUMP JUMPDEST PUSH2 0x182 PUSH2 0x33F CALLDATASIZE PUSH1 0x4 PUSH2 0x3838 JUMP JUMPDEST PUSH2 0x25DE JUMP JUMPDEST PUSH1 0x8 SLOAD PUSH2 0x1FF JUMP JUMPDEST PUSH1 0xA SLOAD PUSH1 0x1 PUSH1 0xA0 SHL SWAP1 DIV PUSH1 0xFF AND ISZERO PUSH2 0x377 JUMPI PUSH1 0x40 MLOAD PUSH4 0x51E5A701 PUSH1 0xE1 SHL DUP2 MSTORE PUSH1 0x4 ADD PUSH1 0x40 MLOAD DUP1 SWAP2 SUB SWAP1 REVERT JUMPDEST PUSH1 0xA SLOAD PUSH1 0x1 PUSH1 0x1 PUSH1 0xA0 SHL SUB AND CALLER EQ PUSH2 0x3AB JUMPI PUSH1 0x40 MLOAD PUSH4 0xEB1CD1D1 PUSH1 0xE0 SHL DUP2 MSTORE PUSH1 0x4 ADD PUSH2 0x3A2 SWAP1 PUSH2 0x39D1 JUMP JUMPDEST PUSH1 0x40 MLOAD DUP1 SWAP2 SUB SWAP1 REVERT JUMPDEST PUSH0 SLOAD PUSH1 0x1 PUSH1 0x1 PUSH1 0xA0 SHL SUB AND PUSH2 0x403 JUMPI PUSH1 0x40 MLOAD PUSH4 0xD647364F PUSH1 0xE0 SHL DUP2 MSTORE PUSH1 0x20 PUSH1 0x4 DUP3 ADD MSTORE PUSH1 0x1E PUSH1 0x24 DUP3 ADD MSTORE PUSH32 0x4964656E746974795265676973747279206E6F6E20696D706F737461746F0000 PUSH1 0x44 DUP3 ADD MSTORE PUSH1 0x64 ADD PUSH2 0x3A2 JUMP JUMPDEST PUSH1 0x1 SLOAD PUSH1 0x1 PUSH1 0x1 PUSH1 0xA0 SHL SUB AND PUSH2 0x45C JUMPI PUSH1 0x40 MLOAD PUSH4 0xD647364F PUSH1 0xE0 SHL DUP2 MSTORE PUSH1 0x20 PUSH1 0x4 DUP3 ADD MSTORE PUSH1 0x1C PUSH1 0x24 DUP3 ADD MSTORE PUSH32 0x506F6C6963795265676973747279206E6F6E20696D706F737461746F00000000 PUSH1 0x44 DUP3 ADD MSTORE PUSH1 0x64 ADD PUSH2 0x3A2 JUMP JUMPDEST PUSH1 0x2 SLOAD PUSH1 0x1 PUSH1 0x1 PUSH1 0xA0 SHL SUB AND PUSH2 0x4A9 JUMPI PUSH1 0x40 MLOAD PUSH4 0xD647364F PUSH1 0xE0 SHL DUP2 MSTORE PUSH1 0x20 PUSH1 0x4 DUP3 ADD MSTORE PUSH1 0x11 PUSH1 0x24 DUP3 ADD MSTORE PUSH17 0x435643206E6F6E20696D706F737461746F PUSH1 0x78 SHL PUSH1 0x44 DUP3 ADD MSTORE PUSH1 0x64 ADD PUSH2 0x3A2 JUMP JUMPDEST PUSH1 0x8 SLOAD PUSH0 SUB PUSH2 0x507 JUMPI PUSH1 0x40 MLOAD PUSH4 0xD647364F PUSH1 0xE0 SHL DUP2 MSTORE PUSH1 0x20 PUSH1 0x4 DUP3 ADD MSTORE PUSH1 0x23 PUSH1 0x24 DUP3 ADD MSTORE PUSH32 0x4475726174612061756469742077696E646F77206E6F6E20636F6E6669677572 PUSH1 0x44 DUP3 ADD MSTORE PUSH3 0x617461 PUSH1 0xE8 SHL PUSH1 0x64 DUP3 ADD MSTORE PUSH1 0x84 ADD PUSH2 0x3A2 JUMP JUMPDEST PUSH1 0xA DUP1 SLOAD PUSH1 0x1 PUSH1 0xA0 SHL PUSH1 0xFF PUSH1 0xA0 SHL NOT DUP3 AND OR SWAP1 SWAP2 SSTORE PUSH1 0x40 MLOAD TIMESTAMP DUP2 MSTORE PUSH1 0x1 PUSH1 0x1 PUSH1 0xA0 SHL SUB SWAP1 SWAP2 AND SWAP1 PUSH32 0x9801A6B1E8682E27F2F663CC8C1CBBD14D87E5533CFC932338D8B4DD458BF5B2 SWAP1 PUSH1 0x20 ADD PUSH1 0x40 MLOAD DUP1 SWAP2 SUB SWAP1 LOG2 JUMP JUMPDEST PUSH1 0xA SLOAD PUSH1 0x1 PUSH1 0xA0 SHL SWAP1 DIV PUSH1 0xFF AND PUSH2 0x587 JUMPI PUSH1 0x40 MLOAD PUSH4 0x59DE1BB3 PUSH1 0xE0 SHL DUP2 MSTORE PUSH1 0x4 ADD PUSH1 0x40 MLOAD DUP1 SWAP2 SUB SWAP1 REVERT JUMPDEST PUSH2 0x590 PUSH0 PUSH2 0x25FB JUMP JUMPDEST PUSH0 DUP3 DUP2 MSTORE PUSH1 0x6 PUSH1 0x20 MSTORE PUSH1 0x40 SWAP1 KECCAK256 DUP1 SLOAD PUSH2 0x5BF JUMPI PUSH1 0x40 MLOAD PUSH4 0xA947A72F PUSH1 0xE0 SHL DUP2 MSTORE PUSH1 0x4 DUP2 ADD DUP5 SWAP1 MSTORE PUSH1 0x24 ADD PUSH2 0x3A2 JUMP JUMPDEST PUSH0 PUSH1 0x4 DUP3 ADD SLOAD PUSH1 0xFF AND PUSH1 0x1 DUP2 GT ISZERO PUSH2 0x5D9 JUMPI PUSH2 0x5D9 PUSH2 0x3642 JUMP JUMPDEST EQ PUSH2 0x5FA JUMPI PUSH1 0x40 MLOAD PUSH4 0xF4624C3D PUSH1 0xE0 SHL DUP2 MSTORE PUSH1 0x4 DUP2 ADD DUP5 SWAP1 MSTORE PUSH1 0x24 ADD PUSH2 0x3A2 JUMP JUMPDEST PUSH0 DUP1 SLOAD PUSH1 0x40 MLOAD PUSH4 0x95F9250D PUSH1 0xE0 SHL DUP2 MSTORE CALLER PUSH1 0x4 DUP3 ADD MSTORE PUSH1 0x1 PUSH1 0x1 PUSH1 0xA0 SHL SUB SWAP1 SWAP2 AND SWAP1 PUSH4 0x95F9250D SWAP1 PUSH1 0x24 ADD PUSH0 PUSH1 0x40 MLOAD DUP1 DUP4 SUB DUP2 DUP7 GAS STATICCALL ISZERO DUP1 ISZERO PUSH2 0x63F JUMPI RETURNDATASIZE PUSH0 PUSH0 RETURNDATACOPY RETURNDATASIZE PUSH0 REVERT JUMPDEST POP POP POP POP PUSH1 0x40 MLOAD RETURNDATASIZE PUSH0 DUP3 RETURNDATACOPY PUSH1 0x1F RETURNDATASIZE SWAP1 DUP2 ADD PUSH1 0x1F NOT AND DUP3 ADD PUSH1 0x40 MSTORE PUSH2 0x666 SWAP2 SWAP1 DUP2 ADD SWAP1 PUSH2 0x3AF4 JUMP JUMPDEST SWAP1 POP PUSH1 0x7 PUSH0 DUP6 DUP2 MSTORE PUSH1 0x20 ADD SWAP1 DUP2 MSTORE PUSH1 0x20 ADD PUSH0 KECCAK256 DUP2 PUSH1 0x40 MLOAD PUSH2 0x687 SWAP2 SWAP1 PUSH2 0x3B44 JUMP JUMPDEST SWAP1 DUP2 MSTORE PUSH1 0x40 MLOAD SWAP1 DUP2 SWAP1 SUB PUSH1 0x20 ADD SWAP1 KECCAK256 SLOAD PUSH1 0xFF AND ISZERO PUSH2 0x6BC JUMPI DUP4 DUP2 PUSH1 0x40 MLOAD PUSH4 0x994C8733 PUSH1 0xE0 SHL DUP2 MSTORE PUSH1 0x4 ADD PUSH2 0x3A2 SWAP3 SWAP2 SWAP1 PUSH2 0x3B4F JUMP JUMPDEST PUSH1 0x1 PUSH1 0x7 PUSH0 DUP7 DUP2 MSTORE PUSH1 0x20 ADD SWAP1 DUP2 MSTORE PUSH1 0x20 ADD PUSH0 KECCAK256 DUP3 PUSH1 0x40 MLOAD PUSH2 0x6DD SWAP2 SWAP1 PUSH2 0x3B44 JUMP JUMPDEST SWAP1 DUP2 MSTORE PUSH1 0x40 MLOAD SWAP1 DUP2 SWAP1 SUB PUSH1 0x20 ADD SWAP1 KECCAK256 DUP1 SLOAD SWAP2 ISZERO ISZERO PUSH1 0xFF NOT SWAP1 SWAP3 AND SWAP2 SWAP1 SWAP2 OR SWAP1 SSTORE DUP3 ISZERO PUSH2 0x71A JUMPI PUSH1 0x7 DUP3 ADD DUP1 SLOAD SWAP1 PUSH0 PUSH2 0x714 DUP4 PUSH2 0x3B7B JUMP JUMPDEST SWAP2 SWAP1 POP SSTORE POP JUMPDEST DUP4 PUSH32 0x9F1A512C084C56645EA27A157E11B97665629483899BE7B9841AEFB61E368B78 DUP3 DUP6 DUP6 PUSH1 0x7 ADD SLOAD TIMESTAMP PUSH1 0x40 MLOAD PUSH2 0x754 SWAP5 SWAP4 SWAP3 SWAP2 SWAP1 PUSH2 0x3B93 JUMP JUMPDEST PUSH1 0x40 MLOAD DUP1 SWAP2 SUB SWAP1 LOG2 DUP2 PUSH1 0x6 ADD SLOAD DUP3 PUSH1 0x7 ADD SLOAD LT PUSH2 0x774 JUMPI PUSH2 0x774 DUP5 PUSH2 0x280B JUMP JUMPDEST POP POP POP POP JUMP JUMPDEST PUSH1 0xA SLOAD PUSH1 0x1 PUSH1 0xA0 SHL SWAP1 DIV PUSH1 0xFF AND PUSH2 0x7A4 JUMPI PUSH1 0x40 MLOAD PUSH4 0x59DE1BB3 PUSH1 0xE0 SHL DUP2 MSTORE PUSH1 0x4 ADD PUSH1 0x40 MLOAD DUP1 SWAP2 SUB SWAP1 REVERT JUMPDEST PUSH0 DUP9 SWAP1 SUB PUSH2 0x7E6 JUMPI PUSH1 0x40 MLOAD PUSH4 0xD647364F PUSH1 0xE0 SHL DUP2 MSTORE PUSH1 0x20 PUSH1 0x4 DUP3 ADD MSTORE PUSH1 0xE PUSH1 0x24 DUP3 ADD MSTORE PUSH14 0x434944206E6F6E2076616C69646F PUSH1 0x90 SHL PUSH1 0x44 DUP3 ADD MSTORE PUSH1 0x64 ADD PUSH2 0x3A2 JUMP JUMPDEST PUSH0 DUP7 SWAP1 SUB PUSH2 0x837 JUMPI PUSH1 0x40 MLOAD PUSH4 0xD647364F PUSH1 0xE0 SHL DUP2 MSTORE PUSH1 0x20 PUSH1 0x4 DUP3 ADD MSTORE PUSH1 0x1F PUSH1 0x24 DUP3 ADD MSTORE PUSH32 0x434944206B657920646973747269627574696F6E206E6F6E2076616C69646F00 PUSH1 0x44 DUP3 ADD MSTORE PUSH1 0x64 ADD PUSH2 0x3A2 JUMP JUMPDEST PUSH1 0x2 DUP6 PUSH1 0xFF AND GT ISZERO PUSH2 0x881 JUMPI PUSH1 0x40 MLOAD PUSH4 0xD647364F PUSH1 0xE0 SHL DUP2 MSTORE PUSH1 0x20 PUSH1 0x4 DUP3 ADD MSTORE PUSH1 0x12 PUSH1 0x24 DUP3 ADD MSTORE PUSH18 0x446F6D696E696F206E6F6E2076616C69646F PUSH1 0x70 SHL PUSH1 0x44 DUP3 ADD MSTORE PUSH1 0x64 ADD PUSH2 0x3A2 JUMP JUMPDEST PUSH0 DUP1 SLOAD PUSH1 0x40 MLOAD PUSH4 0x95F9250D PUSH1 0xE0 SHL DUP2 MSTORE CALLER PUSH1 0x4 DUP3 ADD MSTORE PUSH1 0x1 PUSH1 0x1 PUSH1 0xA0 SHL SUB SWAP1 SWAP2 AND SWAP1 PUSH4 0x95F9250D SWAP1 PUSH1 0x24 ADD PUSH0 PUSH1 0x40 MLOAD DUP1 DUP4 SUB DUP2 DUP7 GAS STATICCALL ISZERO DUP1 ISZERO PUSH2 0x8C6 JUMPI RETURNDATASIZE PUSH0 PUSH0 RETURNDATACOPY RETURNDATASIZE PUSH0 REVERT JUMPDEST POP POP POP POP PUSH1 0x40 MLOAD RETURNDATASIZE PUSH0 DUP3 RETURNDATACOPY PUSH1 0x1F RETURNDATASIZE SWAP1 DUP2 ADD PUSH1 0x1F NOT AND DUP3 ADD PUSH1 0x40 MSTORE PUSH2 0x8ED SWAP2 SWAP1 DUP2 ADD SWAP1 PUSH2 0x3AF4 JUMP JUMPDEST PUSH1 0x2 DUP1 SLOAD PUSH1 0x40 MLOAD PUSH4 0x403AA93 PUSH1 0xE3 SHL DUP2 MSTORE SWAP3 SWAP4 POP PUSH0 SWAP3 PUSH1 0x1 PUSH1 0x1 PUSH1 0xA0 SHL SUB SWAP1 SWAP2 AND SWAP2 PUSH4 0x201D5498 SWAP2 PUSH2 0x928 SWAP2 DUP8 SWAP2 DUP8 SWAP2 SWAP1 DUP14 SWAP1 PUSH1 0x4 ADD PUSH2 0x3BC1 JUMP JUMPDEST PUSH1 0x20 PUSH1 0x40 MLOAD DUP1 DUP4 SUB DUP2 PUSH0 DUP8 GAS CALL ISZERO DUP1 ISZERO PUSH2 0x944 JUMPI RETURNDATASIZE PUSH0 PUSH0 RETURNDATACOPY RETURNDATASIZE PUSH0 REVERT JUMPDEST POP POP POP POP PUSH1 0x40 MLOAD RETURNDATASIZE PUSH1 0x1F NOT PUSH1 0x1F DUP3 ADD AND DUP3 ADD DUP1 PUSH1 0x40 MSTORE POP DUP2 ADD SWAP1 PUSH2 0x968 SWAP2 SWAP1 PUSH2 0x3C04 JUMP JUMPDEST SWAP1 POP DUP1 PUSH2 0x988 JUMPI PUSH1 0x40 MLOAD PUSH4 0xEB1CD1D1 PUSH1 0xE0 SHL DUP2 MSTORE PUSH1 0x4 ADD PUSH2 0x3A2 SWAP1 PUSH2 0x3C1F JUMP JUMPDEST PUSH2 0x992 DUP3 DUP9 PUSH2 0x2DDC JUMP JUMPDEST PUSH2 0x99C DUP7 DUP9 PUSH2 0x2F01 JUMP JUMPDEST PUSH0 DUP3 DUP13 DUP13 DUP11 TIMESTAMP PUSH1 0x40 MLOAD PUSH1 0x20 ADD PUSH2 0x9B6 SWAP6 SWAP5 SWAP4 SWAP3 SWAP2 SWAP1 PUSH2 0x3C7E JUMP JUMPDEST PUSH1 0x40 DUP1 MLOAD PUSH1 0x1F NOT DUP2 DUP5 SUB ADD DUP2 MSTORE SWAP2 DUP2 MSTORE DUP2 MLOAD PUSH1 0x20 SWAP3 DUP4 ADD KECCAK256 PUSH0 DUP2 DUP2 MSTORE PUSH1 0x3 SWAP1 SWAP4 MSTORE SWAP2 KECCAK256 SLOAD SWAP1 SWAP2 POP ISZERO PUSH2 0xA2B JUMPI PUSH1 0x40 MLOAD PUSH4 0xD647364F PUSH1 0xE0 SHL DUP2 MSTORE PUSH1 0x20 PUSH1 0x4 DUP3 ADD MSTORE PUSH1 0x18 PUSH1 0x24 DUP3 ADD MSTORE PUSH32 0x50726F706F73616C496420676961206573697374656E74650000000000000000 PUSH1 0x44 DUP3 ADD MSTORE PUSH1 0x64 ADD PUSH2 0x3A2 JUMP JUMPDEST PUSH1 0x40 MLOAD DUP1 PUSH2 0x220 ADD PUSH1 0x40 MSTORE DUP1 DUP3 DUP2 MSTORE PUSH1 0x20 ADD DUP5 DUP2 MSTORE PUSH1 0x20 ADD PUSH1 0x40 MLOAD DUP1 PUSH1 0x20 ADD PUSH1 0x40 MSTORE DUP1 PUSH0 DUP2 MSTORE POP DUP2 MSTORE PUSH1 0x20 ADD PUSH1 0x40 MLOAD DUP1 PUSH1 0x20 ADD PUSH1 0x40 MSTORE DUP1 PUSH0 DUP2 MSTORE POP DUP2 MSTORE PUSH1 0x20 ADD DUP14 DUP14 DUP1 DUP1 PUSH1 0x1F ADD PUSH1 0x20 DUP1 SWAP2 DIV MUL PUSH1 0x20 ADD PUSH1 0x40 MLOAD SWAP1 DUP2 ADD PUSH1 0x40 MSTORE DUP1 SWAP4 SWAP3 SWAP2 SWAP1 DUP2 DUP2 MSTORE PUSH1 0x20 ADD DUP4 DUP4 DUP1 DUP3 DUP5 CALLDATACOPY PUSH0 SWAP3 ADD SWAP2 SWAP1 SWAP2 MSTORE POP POP POP SWAP1 DUP3 MSTORE POP PUSH1 0x40 DUP1 MLOAD PUSH1 0x20 PUSH1 0x1F DUP15 ADD DUP2 SWAP1 DIV DUP2 MUL DUP3 ADD DUP2 ADD SWAP1 SWAP3 MSTORE DUP13 DUP2 MSTORE SWAP2 DUP2 ADD SWAP2 SWAP1 DUP14 SWAP1 DUP14 SWAP1 DUP2 SWAP1 DUP5 ADD DUP4 DUP3 DUP1 DUP3 DUP5 CALLDATACOPY PUSH0 SWAP3 ADD DUP3 SWAP1 MSTORE POP SWAP4 DUP6 MSTORE POP POP POP PUSH1 0xFF DUP12 AND PUSH1 0x20 DUP4 ADD MSTORE PUSH1 0x40 SWAP1 SWAP2 ADD SWAP1 DUP2 MSTORE PUSH1 0x20 ADD PUSH0 DUP2 MSTORE PUSH1 0x20 ADD PUSH0 DUP2 MSTORE PUSH1 0x20 ADD PUSH0 DUP2 MSTORE PUSH1 0x20 ADD TIMESTAMP DUP2 MSTORE PUSH1 0x20 ADD PUSH0 DUP2 MSTORE PUSH1 0x20 ADD PUSH0 DUP2 MSTORE PUSH1 0x20 ADD PUSH0 DUP2 MSTORE PUSH1 0x20 ADD DUP9 DUP2 MSTORE PUSH1 0x20 ADD DUP8 DUP8 DUP1 DUP1 PUSH1 0x1F ADD PUSH1 0x20 DUP1 SWAP2 DIV MUL PUSH1 0x20 ADD PUSH1 0x40 MLOAD SWAP1 DUP2 ADD PUSH1 0x40 MSTORE DUP1 SWAP4 SWAP3 SWAP2 SWAP1 DUP2 DUP2 MSTORE PUSH1 0x20 ADD DUP4 DUP4 DUP1 DUP3 DUP5 CALLDATACOPY PUSH0 SWAP3 ADD DUP3 SWAP1 MSTORE POP SWAP4 SWAP1 SWAP5 MSTORE POP POP DUP4 DUP2 MSTORE PUSH1 0x3 PUSH1 0x20 SWAP1 DUP2 MSTORE PUSH1 0x40 SWAP1 SWAP2 KECCAK256 DUP4 MLOAD DUP2 SSTORE SWAP1 DUP4 ADD MLOAD SWAP1 SWAP2 POP PUSH1 0x1 DUP3 ADD SWAP1 PUSH2 0xB80 SWAP1 DUP3 PUSH2 0x3D3E JUMP JUMPDEST POP PUSH1 0x40 DUP3 ADD MLOAD PUSH1 0x2 DUP3 ADD SWAP1 PUSH2 0xB95 SWAP1 DUP3 PUSH2 0x3D3E JUMP JUMPDEST POP PUSH1 0x60 DUP3 ADD MLOAD PUSH1 0x3 DUP3 ADD SWAP1 PUSH2 0xBAA SWAP1 DUP3 PUSH2 0x3D3E JUMP JUMPDEST POP PUSH1 0x80 DUP3 ADD MLOAD PUSH1 0x4 DUP3 ADD SWAP1 PUSH2 0xBBF SWAP1 DUP3 PUSH2 0x3D3E JUMP JUMPDEST POP PUSH1 0xA0 DUP3 ADD MLOAD PUSH1 0x5 DUP3 ADD SWAP1 PUSH2 0xBD4 SWAP1 DUP3 PUSH2 0x3D3E JUMP JUMPDEST POP PUSH1 0xC0 DUP3 ADD MLOAD PUSH1 0x6 DUP3 ADD DUP1 SLOAD PUSH1 0xFF SWAP1 SWAP3 AND PUSH1 0xFF NOT DUP4 AND DUP2 OR DUP3 SSTORE PUSH1 0xE0 DUP6 ADD MLOAD SWAP3 PUSH2 0xFFFF NOT AND OR PUSH2 0x100 DUP4 PUSH1 0x4 DUP2 GT ISZERO PUSH2 0xC0F JUMPI PUSH2 0xC0F PUSH2 0x3642 JUMP JUMPDEST MUL OR SWAP1 SSTORE POP PUSH2 0x100 DUP3 ADD MLOAD PUSH1 0x7 DUP3 ADD SSTORE PUSH2 0x120 DUP3 ADD MLOAD PUSH1 0x8 DUP3 ADD SSTORE PUSH2 0x140 DUP3 ADD MLOAD PUSH1 0x9 DUP3 ADD SSTORE PUSH2 0x160 DUP3 ADD MLOAD PUSH1 0xA DUP3 ADD SSTORE PUSH2 0x180 DUP3 ADD MLOAD PUSH1 0xB DUP3 ADD SSTORE PUSH2 0x1A0 DUP3 ADD MLOAD PUSH1 0xC DUP3 ADD SSTORE PUSH2 0x1C0 DUP3 ADD MLOAD PUSH1 0xD DUP3 ADD SSTORE PUSH2 0x1E0 DUP3 ADD MLOAD PUSH1 0xE DUP3 ADD SSTORE PUSH2 0x200 DUP3 ADD MLOAD PUSH1 0xF DUP3 ADD SWAP1 PUSH2 0xC81 SWAP1 DUP3 PUSH2 0x3D3E JUMP JUMPDEST POP SWAP1 POP POP DUP1 PUSH32 0x99F7640E6C16A80AE881C9600CCAE39A42B5A3B25D57A3081E3C30F1A0E293B8 DUP5 DUP11 DUP16 DUP16 TIMESTAMP PUSH1 0x40 MLOAD PUSH2 0xCBD SWAP6 SWAP5 SWAP4 SWAP3 SWAP2 SWAP1 PUSH2 0x3DF8 JUMP JUMPDEST PUSH1 0x40 MLOAD DUP1 SWAP2 SUB SWAP1 LOG2 POP POP POP POP POP POP POP POP POP POP POP POP JUMP JUMPDEST PUSH2 0xCDB PUSH2 0x3422 JUMP JUMPDEST PUSH0 DUP3 DUP2 MSTORE PUSH1 0x3 PUSH1 0x20 MSTORE PUSH1 0x40 SWAP1 KECCAK256 SLOAD PUSH2 0xD09 JUMPI PUSH1 0x40 MLOAD PUSH4 0xE2ACEE5B PUSH1 0xE0 SHL DUP2 MSTORE PUSH1 0x4 DUP2 ADD DUP4 SWAP1 MSTORE PUSH1 0x24 ADD PUSH2 0x3A2 JUMP JUMPDEST PUSH1 0x3 PUSH0 DUP4 DUP2 MSTORE PUSH1 0x20 ADD SWAP1 DUP2 MSTORE PUSH1 0x20 ADD PUSH0 KECCAK256 PUSH1 0x40 MLOAD DUP1 PUSH2 0x220 ADD PUSH1 0x40 MSTORE SWAP1 DUP2 PUSH0 DUP3 ADD SLOAD DUP2 MSTORE PUSH1 0x20 ADD PUSH1 0x1 DUP3 ADD DUP1 SLOAD PUSH2 0xD3F SWAP1 PUSH2 0x3CBB JUMP JUMPDEST DUP1 PUSH1 0x1F ADD PUSH1 0x20 DUP1 SWAP2 DIV MUL PUSH1 0x20 ADD PUSH1 0x40 MLOAD SWAP1 DUP2 ADD PUSH1 0x40 MSTORE DUP1 SWAP3 SWAP2 SWAP1 DUP2 DUP2 MSTORE PUSH1 0x20 ADD DUP3 DUP1 SLOAD PUSH2 0xD6B SWAP1 PUSH2 0x3CBB JUMP JUMPDEST DUP1 ISZERO PUSH2 0xDB6 JUMPI DUP1 PUSH1 0x1F LT PUSH2 0xD8D JUMPI PUSH2 0x100 DUP1 DUP4 SLOAD DIV MUL DUP4 MSTORE SWAP2 PUSH1 0x20 ADD SWAP2 PUSH2 0xDB6 JUMP JUMPDEST DUP3 ADD SWAP2 SWAP1 PUSH0 MSTORE PUSH1 0x20 PUSH0 KECCAK256 SWAP1 JUMPDEST DUP2 SLOAD DUP2 MSTORE SWAP1 PUSH1 0x1 ADD SWAP1 PUSH1 0x20 ADD DUP1 DUP4 GT PUSH2 0xD99 JUMPI DUP3 SWAP1 SUB PUSH1 0x1F AND DUP3 ADD SWAP2 JUMPDEST POP POP POP POP POP DUP2 MSTORE PUSH1 0x20 ADD PUSH1 0x2 DUP3 ADD DUP1 SLOAD PUSH2 0xDCF SWAP1 PUSH2 0x3CBB JUMP JUMPDEST DUP1 PUSH1 0x1F ADD PUSH1 0x20 DUP1 SWAP2 DIV MUL PUSH1 0x20 ADD PUSH1 0x40 MLOAD SWAP1 DUP2 ADD PUSH1 0x40 MSTORE DUP1 SWAP3 SWAP2 SWAP1 DUP2 DUP2 MSTORE PUSH1 0x20 ADD DUP3 DUP1 SLOAD PUSH2 0xDFB SWAP1 PUSH2 0x3CBB JUMP JUMPDEST DUP1 ISZERO PUSH2 0xE46 JUMPI DUP1 PUSH1 0x1F LT PUSH2 0xE1D JUMPI PUSH2 0x100 DUP1 DUP4 SLOAD DIV MUL DUP4 MSTORE SWAP2 PUSH1 0x20 ADD SWAP2 PUSH2 0xE46 JUMP JUMPDEST DUP3 ADD SWAP2 SWAP1 PUSH0 MSTORE PUSH1 0x20 PUSH0 KECCAK256 SWAP1 JUMPDEST DUP2 SLOAD DUP2 MSTORE SWAP1 PUSH1 0x1 ADD SWAP1 PUSH1 0x20 ADD DUP1 DUP4 GT PUSH2 0xE29 JUMPI DUP3 SWAP1 SUB PUSH1 0x1F AND DUP3 ADD SWAP2 JUMPDEST POP POP POP POP POP DUP2 MSTORE PUSH1 0x20 ADD PUSH1 0x3 DUP3 ADD DUP1 SLOAD PUSH2 0xE5F SWAP1 PUSH2 0x3CBB JUMP JUMPDEST DUP1 PUSH1 0x1F ADD PUSH1 0x20 DUP1 SWAP2 DIV MUL PUSH1 0x20 ADD PUSH1 0x40 MLOAD SWAP1 DUP2 ADD PUSH1 0x40 MSTORE DUP1 SWAP3 SWAP2 SWAP1 DUP2 DUP2 MSTORE PUSH1 0x20 ADD DUP3 DUP1 SLOAD PUSH2 0xE8B SWAP1 PUSH2 0x3CBB JUMP JUMPDEST DUP1 ISZERO PUSH2 0xED6 JUMPI DUP1 PUSH1 0x1F LT PUSH2 0xEAD JUMPI PUSH2 0x100 DUP1 DUP4 SLOAD DIV MUL DUP4 MSTORE SWAP2 PUSH1 0x20 ADD SWAP2 PUSH2 0xED6 JUMP JUMPDEST DUP3 ADD SWAP2 SWAP1 PUSH0 MSTORE PUSH1 0x20 PUSH0 KECCAK256 SWAP1 JUMPDEST DUP2 SLOAD DUP2 MSTORE SWAP1 PUSH1 0x1 ADD SWAP1 PUSH1 0x20 ADD DUP1 DUP4 GT PUSH2 0xEB9 JUMPI DUP3 SWAP1 SUB PUSH1 0x1F AND DUP3 ADD SWAP2 JUMPDEST POP POP POP POP POP DUP2 MSTORE PUSH1 0x20 ADD PUSH1 0x4 DUP3 ADD DUP1 SLOAD PUSH2 0xEEF SWAP1 PUSH2 0x3CBB JUMP JUMPDEST DUP1 PUSH1 0x1F ADD PUSH1 0x20 DUP1 SWAP2 DIV MUL PUSH1 0x20 ADD PUSH1 0x40 MLOAD SWAP1 DUP2 ADD PUSH1 0x40 MSTORE DUP1 SWAP3 SWAP2 SWAP1 DUP2 DUP2 MSTORE PUSH1 0x20 ADD DUP3 DUP1 SLOAD PUSH2 0xF1B SWAP1 PUSH2 0x3CBB JUMP JUMPDEST DUP1 ISZERO PUSH2 0xF66 JUMPI DUP1 PUSH1 0x1F LT PUSH2 0xF3D JUMPI PUSH2 0x100 DUP1 DUP4 SLOAD DIV MUL DUP4 MSTORE SWAP2 PUSH1 0x20 ADD SWAP2 PUSH2 0xF66 JUMP JUMPDEST DUP3 ADD SWAP2 SWAP1 PUSH0 MSTORE PUSH1 0x20 PUSH0 KECCAK256 SWAP1 JUMPDEST DUP2 SLOAD DUP2 MSTORE SWAP1 PUSH1 0x1 ADD SWAP1 PUSH1 0x20 ADD DUP1 DUP4 GT PUSH2 0xF49 JUMPI DUP3 SWAP1 SUB PUSH1 0x1F AND DUP3 ADD SWAP2 JUMPDEST POP POP POP POP POP DUP2 MSTORE PUSH1 0x20 ADD PUSH1 0x5 DUP3 ADD DUP1 SLOAD PUSH2 0xF7F SWAP1 PUSH2 0x3CBB JUMP JUMPDEST DUP1 PUSH1 0x1F ADD PUSH1 0x20 DUP1 SWAP2 DIV MUL PUSH1 0x20 ADD PUSH1 0x40 MLOAD SWAP1 DUP2 ADD PUSH1 0x40 MSTORE DUP1 SWAP3 SWAP2 SWAP1 DUP2 DUP2 MSTORE PUSH1 0x20 ADD DUP3 DUP1 SLOAD PUSH2 0xFAB SWAP1 PUSH2 0x3CBB JUMP JUMPDEST DUP1 ISZERO PUSH2 0xFF6 JUMPI DUP1 PUSH1 0x1F LT PUSH2 0xFCD JUMPI PUSH2 0x100 DUP1 DUP4 SLOAD DIV MUL DUP4 MSTORE SWAP2 PUSH1 0x20 ADD SWAP2 PUSH2 0xFF6 JUMP JUMPDEST DUP3 ADD SWAP2 SWAP1 PUSH0 MSTORE PUSH1 0x20 PUSH0 KECCAK256 SWAP1 JUMPDEST DUP2 SLOAD DUP2 MSTORE SWAP1 PUSH1 0x1 ADD SWAP1 PUSH1 0x20 ADD DUP1 DUP4 GT PUSH2 0xFD9 JUMPI DUP3 SWAP1 SUB PUSH1 0x1F AND DUP3 ADD SWAP2 JUMPDEST POP POP POP SWAP2 DUP4 MSTORE POP POP PUSH1 0x6 DUP3 ADD SLOAD PUSH1 0xFF DUP1 DUP3 AND PUSH1 0x20 DUP5 ADD MSTORE PUSH1 0x40 SWAP1 SWAP3 ADD SWAP2 PUSH2 0x100 SWAP1 SWAP2 DIV AND PUSH1 0x4 DUP2 GT ISZERO PUSH2 0x102B JUMPI PUSH2 0x102B PUSH2 0x3642 JUMP JUMPDEST PUSH1 0x4 DUP2 GT ISZERO PUSH2 0x103C JUMPI PUSH2 0x103C PUSH2 0x3642 JUMP JUMPDEST DUP2 MSTORE PUSH1 0x20 ADD PUSH1 0x7 DUP3 ADD SLOAD DUP2 MSTORE PUSH1 0x20 ADD PUSH1 0x8 DUP3 ADD SLOAD DUP2 MSTORE PUSH1 0x20 ADD PUSH1 0x9 DUP3 ADD SLOAD DUP2 MSTORE PUSH1 0x20 ADD PUSH1 0xA DUP3 ADD SLOAD DUP2 MSTORE PUSH1 0x20 ADD PUSH1 0xB DUP3 ADD SLOAD DUP2 MSTORE PUSH1 0x20 ADD PUSH1 0xC DUP3 ADD SLOAD DUP2 MSTORE PUSH1 0x20 ADD PUSH1 0xD DUP3 ADD SLOAD DUP2 MSTORE PUSH1 0x20 ADD PUSH1 0xE DUP3 ADD SLOAD DUP2 MSTORE PUSH1 0x20 ADD PUSH1 0xF DUP3 ADD DUP1 SLOAD PUSH2 0x10A0 SWAP1 PUSH2 0x3CBB JUMP JUMPDEST DUP1 PUSH1 0x1F ADD PUSH1 0x20 DUP1 SWAP2 DIV MUL PUSH1 0x20 ADD PUSH1 0x40 MLOAD SWAP1 DUP2 ADD PUSH1 0x40 MSTORE DUP1 SWAP3 SWAP2 SWAP1 DUP2 DUP2 MSTORE PUSH1 0x20 ADD DUP3 DUP1 SLOAD PUSH2 0x10CC SWAP1 PUSH2 0x3CBB JUMP JUMPDEST DUP1 ISZERO PUSH2 0x1117 JUMPI DUP1 PUSH1 0x1F LT PUSH2 0x10EE JUMPI PUSH2 0x100 DUP1 DUP4 SLOAD DIV MUL DUP4 MSTORE SWAP2 PUSH1 0x20 ADD SWAP2 PUSH2 0x1117 JUMP JUMPDEST DUP3 ADD SWAP2 SWAP1 PUSH0 MSTORE PUSH1 0x20 PUSH0 KECCAK256 SWAP1 JUMPDEST DUP2 SLOAD DUP2 MSTORE SWAP1 PUSH1 0x1 ADD SWAP1 PUSH1 0x20 ADD DUP1 DUP4 GT PUSH2 0x10FA JUMPI DUP3 SWAP1 SUB PUSH1 0x1F AND DUP3 ADD SWAP2 JUMPDEST POP POP POP POP POP DUP2 MSTORE POP POP SWAP1 POP SWAP2 SWAP1 POP JUMP JUMPDEST PUSH1 0xA SLOAD PUSH1 0x1 PUSH1 0xA0 SHL SWAP1 DIV PUSH1 0xFF AND PUSH2 0x1151 JUMPI PUSH1 0x40 MLOAD PUSH4 0x59DE1BB3 PUSH1 0xE0 SHL DUP2 MSTORE PUSH1 0x4 ADD PUSH1 0x40 MLOAD DUP1 SWAP2 SUB SWAP1 REVERT JUMPDEST PUSH2 0x115A PUSH0 PUSH2 0x25FB JUMP JUMPDEST PUSH0 DUP2 SWAP1 SUB PUSH2 0x11A0 JUMPI PUSH1 0x40 MLOAD PUSH4 0xD647364F PUSH1 0xE0 SHL DUP2 MSTORE PUSH1 0x20 PUSH1 0x4 DUP3 ADD MSTORE PUSH1 0x12 PUSH1 0x24 DUP3 ADD MSTORE PUSH18 0x5061796C6F6164206E6F6E2076616C69646F PUSH1 0x70 SHL PUSH1 0x44 DUP3 ADD MSTORE PUSH1 0x64 ADD PUSH2 0x3A2 JUMP JUMPDEST PUSH0 DUP1 SLOAD PUSH1 0x40 MLOAD PUSH4 0x95F9250D PUSH1 0xE0 SHL DUP2 MSTORE CALLER PUSH1 0x4 DUP3 ADD MSTORE PUSH1 0x1 PUSH1 0x1 PUSH1 0xA0 SHL SUB SWAP1 SWAP2 AND SWAP1 PUSH4 0x95F9250D SWAP1 PUSH1 0x24 ADD PUSH0 PUSH1 0x40 MLOAD DUP1 DUP4 SUB DUP2 DUP7 GAS STATICCALL ISZERO DUP1 ISZERO PUSH2 0x11E5 JUMPI RETURNDATASIZE PUSH0 PUSH0 RETURNDATACOPY RETURNDATASIZE PUSH0 REVERT JUMPDEST POP POP POP POP PUSH1 0x40 MLOAD RETURNDATASIZE PUSH0 DUP3 RETURNDATACOPY PUSH1 0x1F RETURNDATASIZE SWAP1 DUP2 ADD PUSH1 0x1F NOT AND DUP3 ADD PUSH1 0x40 MSTORE PUSH2 0x120C SWAP2 SWAP1 DUP2 ADD SWAP1 PUSH2 0x3AF4 JUMP JUMPDEST SWAP1 POP PUSH0 DUP2 DUP6 PUSH1 0x5 DUP2 GT ISZERO PUSH2 0x1222 JUMPI PUSH2 0x1222 PUSH2 0x3642 JUMP JUMPDEST DUP6 DUP6 TIMESTAMP PUSH1 0x40 MLOAD PUSH1 0x20 ADD PUSH2 0x1239 SWAP6 SWAP5 SWAP4 SWAP3 SWAP2 SWAP1 PUSH2 0x3E39 JUMP JUMPDEST PUSH1 0x40 DUP1 MLOAD PUSH1 0x1F NOT DUP2 DUP5 SUB ADD DUP2 MSTORE DUP3 DUP3 MSTORE DUP1 MLOAD PUSH1 0x20 SWAP2 DUP3 ADD KECCAK256 PUSH0 DUP1 SLOAD PUSH4 0x3CAD168D PUSH1 0xE1 SHL DUP7 MSTORE SWAP4 MLOAD SWAP2 SWAP6 POP SWAP4 PUSH1 0x1 PUSH1 0x1 PUSH1 0xA0 SHL SUB SWAP1 SWAP4 AND SWAP3 PUSH4 0x795A2D1A SWAP3 PUSH1 0x4 DUP1 DUP4 ADD SWAP4 SWAP2 SWAP3 DUP3 SWAP1 SUB ADD DUP2 DUP7 GAS STATICCALL ISZERO DUP1 ISZERO PUSH2 0x1295 JUMPI RETURNDATASIZE PUSH0 PUSH0 RETURNDATACOPY RETURNDATASIZE PUSH0 REVERT JUMPDEST POP POP POP POP PUSH1 0x40 MLOAD RETURNDATASIZE PUSH1 0x1F NOT PUSH1 0x1F DUP3 ADD AND DUP3 ADD DUP1 PUSH1 0x40 MSTORE POP DUP2 ADD SWAP1 PUSH2 0x12B9 SWAP2 SWAP1 PUSH2 0x3E73 JUMP JUMPDEST SWAP1 POP PUSH1 0x4 DUP2 LT ISZERO PUSH2 0x130D JUMPI PUSH1 0x40 MLOAD PUSH4 0xD647364F PUSH1 0xE0 SHL DUP2 MSTORE PUSH1 0x20 PUSH1 0x4 DUP3 ADD MSTORE PUSH1 0x1C PUSH1 0x24 DUP3 ADD MSTORE PUSH32 0x4D696E696D6F2034205041206174746976652072696368696573746500000000 PUSH1 0x44 DUP3 ADD MSTORE PUSH1 0x64 ADD PUSH2 0x3A2 JUMP JUMPDEST PUSH0 PUSH1 0x4 PUSH2 0x131B DUP4 PUSH1 0x3 PUSH2 0x3E8A JUMP JUMPDEST PUSH2 0x1326 SWAP1 PUSH1 0x3 PUSH2 0x3EA7 JUMP JUMPDEST PUSH2 0x1330 SWAP2 SWAP1 PUSH2 0x3EBA JUMP JUMPDEST SWAP1 POP PUSH1 0x40 MLOAD DUP1 PUSH2 0x140 ADD PUSH1 0x40 MSTORE DUP1 DUP5 DUP2 MSTORE PUSH1 0x20 ADD DUP6 DUP2 MSTORE PUSH1 0x20 ADD DUP9 PUSH1 0x5 DUP2 GT ISZERO PUSH2 0x135C JUMPI PUSH2 0x135C PUSH2 0x3642 JUMP JUMPDEST DUP2 MSTORE PUSH1 0x20 ADD DUP8 DUP8 DUP1 DUP1 PUSH1 0x1F ADD PUSH1 0x20 DUP1 SWAP2 DIV MUL PUSH1 0x20 ADD PUSH1 0x40 MLOAD SWAP1 DUP2 ADD PUSH1 0x40 MSTORE DUP1 SWAP4 SWAP3 SWAP2 SWAP1 DUP2 DUP2 MSTORE PUSH1 0x20 ADD DUP4 DUP4 DUP1 DUP3 DUP5 CALLDATACOPY PUSH0 SWAP3 ADD DUP3 SWAP1 MSTORE POP SWAP4 DUP6 MSTORE POP POP POP PUSH1 0x20 DUP1 DUP4 ADD DUP3 SWAP1 MSTORE PUSH1 0x40 DUP1 DUP5 ADD DUP8 SWAP1 MSTORE PUSH1 0x60 DUP5 ADD DUP7 SWAP1 MSTORE PUSH1 0x80 DUP5 ADD DUP4 SWAP1 MSTORE TIMESTAMP PUSH1 0xA0 DUP6 ADD MSTORE PUSH1 0xC0 SWAP1 SWAP4 ADD DUP3 SWAP1 MSTORE DUP7 DUP3 MSTORE PUSH1 0x6 DUP2 MSTORE SWAP2 SWAP1 KECCAK256 DUP3 MLOAD DUP2 SSTORE SWAP1 DUP3 ADD MLOAD PUSH1 0x1 DUP3 ADD SWAP1 PUSH2 0x13E5 SWAP1 DUP3 PUSH2 0x3D3E JUMP JUMPDEST POP PUSH1 0x40 DUP3 ADD MLOAD PUSH1 0x2 DUP3 ADD DUP1 SLOAD PUSH1 0xFF NOT AND PUSH1 0x1 DUP4 PUSH1 0x5 DUP2 GT ISZERO PUSH2 0x1409 JUMPI PUSH2 0x1409 PUSH2 0x3642 JUMP JUMPDEST MUL OR SWAP1 SSTORE POP PUSH1 0x60 DUP3 ADD MLOAD PUSH1 0x3 DUP3 ADD SWAP1 PUSH2 0x1422 SWAP1 DUP3 PUSH2 0x3D3E JUMP JUMPDEST POP PUSH1 0x80 DUP3 ADD MLOAD PUSH1 0x4 DUP3 ADD DUP1 SLOAD PUSH1 0xFF NOT AND PUSH1 0x1 DUP4 DUP2 DUP2 GT ISZERO PUSH2 0x1445 JUMPI PUSH2 0x1445 PUSH2 0x3642 JUMP JUMPDEST MUL OR SWAP1 SSTORE POP PUSH1 0xA0 DUP3 ADD MLOAD DUP2 PUSH1 0x5 ADD SSTORE PUSH1 0xC0 DUP3 ADD MLOAD DUP2 PUSH1 0x6 ADD SSTORE PUSH1 0xE0 DUP3 ADD MLOAD DUP2 PUSH1 0x7 ADD SSTORE PUSH2 0x100 DUP3 ADD MLOAD DUP2 PUSH1 0x8 ADD SSTORE PUSH2 0x120 DUP3 ADD MLOAD DUP2 PUSH1 0x9 ADD SSTORE SWAP1 POP POP DUP3 PUSH32 0x9B9B58DAA12861AA71490CF562C992CBD40F8B6043D994963F576752D49A241 DUP6 DUP10 DUP6 TIMESTAMP PUSH1 0x40 MLOAD PUSH2 0x14B7 SWAP5 SWAP4 SWAP3 SWAP2 SWAP1 PUSH2 0x3ED9 JUMP JUMPDEST PUSH1 0x40 MLOAD DUP1 SWAP2 SUB SWAP1 LOG2 POP POP POP POP POP POP POP JUMP JUMPDEST PUSH0 DUP4 DUP2 MSTORE PUSH1 0x7 PUSH1 0x20 MSTORE PUSH1 0x40 DUP1 DUP3 KECCAK256 SWAP1 MLOAD PUSH2 0x14E5 SWAP1 DUP6 SWAP1 DUP6 SWAP1 PUSH2 0x3F0C JUMP JUMPDEST SWAP1 DUP2 MSTORE PUSH1 0x40 MLOAD SWAP1 DUP2 SWAP1 SUB PUSH1 0x20 ADD SWAP1 KECCAK256 SLOAD PUSH1 0xFF AND SWAP1 POP SWAP4 SWAP3 POP POP POP JUMP JUMPDEST PUSH1 0xA SLOAD PUSH1 0x1 PUSH1 0xA0 SHL SWAP1 DIV PUSH1 0xFF AND ISZERO PUSH2 0x152C JUMPI PUSH1 0x40 MLOAD PUSH4 0x51E5A701 PUSH1 0xE1 SHL DUP2 MSTORE PUSH1 0x4 ADD PUSH1 0x40 MLOAD DUP1 SWAP2 SUB SWAP1 REVERT JUMPDEST PUSH1 0xA SLOAD PUSH1 0x1 PUSH1 0x1 PUSH1 0xA0 SHL SUB AND CALLER EQ PUSH2 0x1557 JUMPI PUSH1 0x40 MLOAD PUSH4 0xEB1CD1D1 PUSH1 0xE0 SHL DUP2 MSTORE PUSH1 0x4 ADD PUSH2 0x3A2 SWAP1 PUSH2 0x39D1 JUMP JUMPDEST DUP1 PUSH0 SUB PUSH2 0x159B JUMPI PUSH1 0x40 MLOAD PUSH4 0xD647364F PUSH1 0xE0 SHL DUP2 MSTORE PUSH1 0x20 PUSH1 0x4 DUP3 ADD MSTORE PUSH1 0x11 PUSH1 0x24 DUP3 ADD MSTORE PUSH17 0x447572617461206E6F6E2076616C696461 PUSH1 0x78 SHL PUSH1 0x44 DUP3 ADD MSTORE PUSH1 0x64 ADD PUSH2 0x3A2 JUMP JUMPDEST PUSH1 0x8 SSTORE JUMP JUMPDEST PUSH1 0xA SLOAD PUSH1 0x1 PUSH1 0xA0 SHL SWAP1 DIV PUSH1 0xFF AND PUSH2 0x15CA JUMPI PUSH1 0x40 MLOAD PUSH4 0x59DE1BB3 PUSH1 0xE0 SHL DUP2 MSTORE PUSH1 0x4 ADD PUSH1 0x40 MLOAD DUP1 SWAP2 SUB SWAP1 REVERT JUMPDEST PUSH0 DUP3 SWAP1 SUB PUSH2 0x161B JUMPI PUSH1 0x40 MLOAD PUSH4 0xD647364F PUSH1 0xE0 SHL DUP2 MSTORE PUSH1 0x20 PUSH1 0x4 DUP3 ADD MSTORE PUSH1 0x18 PUSH1 0x24 DUP3 ADD MSTORE PUSH32 0x4D6F746976617A696F6E65206F62626C696761746F7269610000000000000000 PUSH1 0x44 DUP3 ADD MSTORE PUSH1 0x64 ADD PUSH2 0x3A2 JUMP JUMPDEST PUSH0 DUP5 DUP2 MSTORE PUSH1 0x3 PUSH1 0x20 MSTORE PUSH1 0x40 SWAP1 KECCAK256 DUP1 SLOAD PUSH2 0x164A JUMPI PUSH1 0x40 MLOAD PUSH4 0xE2ACEE5B PUSH1 0xE0 SHL DUP2 MSTORE PUSH1 0x4 DUP2 ADD DUP7 SWAP1 MSTORE PUSH1 0x24 ADD PUSH2 0x3A2 JUMP JUMPDEST PUSH0 PUSH1 0x6 DUP3 ADD SLOAD PUSH2 0x100 SWAP1 DIV PUSH1 0xFF AND PUSH1 0x4 DUP2 GT ISZERO PUSH2 0x1669 JUMPI PUSH2 0x1669 PUSH2 0x3642 JUMP JUMPDEST EQ ISZERO DUP1 ISZERO PUSH2 0x1695 JUMPI POP PUSH1 0x1 PUSH1 0x6 DUP3 ADD SLOAD PUSH2 0x100 SWAP1 DIV PUSH1 0xFF AND PUSH1 0x4 DUP2 GT ISZERO PUSH2 0x1692 JUMPI PUSH2 0x1692 PUSH2 0x3642 JUMP JUMPDEST EQ ISZERO JUMPDEST ISZERO PUSH2 0x16CA JUMPI DUP5 DUP2 PUSH1 0x6 ADD PUSH1 0x1 SWAP1 SLOAD SWAP1 PUSH2 0x100 EXP SWAP1 DIV PUSH1 0xFF AND PUSH0 PUSH1 0x40 MLOAD PUSH4 0xCD34681 PUSH1 0xE1 SHL DUP2 MSTORE PUSH1 0x4 ADD PUSH2 0x3A2 SWAP4 SWAP3 SWAP2 SWAP1 PUSH2 0x3F1B JUMP JUMPDEST PUSH0 DUP1 SLOAD PUSH1 0x40 MLOAD PUSH4 0x95F9250D PUSH1 0xE0 SHL DUP2 MSTORE CALLER PUSH1 0x4 DUP3 ADD MSTORE PUSH1 0x1 PUSH1 0x1 PUSH1 0xA0 SHL SUB SWAP1 SWAP2 AND SWAP1 PUSH4 0x95F9250D SWAP1 PUSH1 0x24 ADD PUSH0 PUSH1 0x40 MLOAD DUP1 DUP4 SUB DUP2 DUP7 GAS STATICCALL ISZERO DUP1 ISZERO PUSH2 0x170F JUMPI RETURNDATASIZE PUSH0 PUSH0 RETURNDATACOPY RETURNDATASIZE PUSH0 REVERT JUMPDEST POP POP POP POP PUSH1 0x40 MLOAD RETURNDATASIZE PUSH0 DUP3 RETURNDATACOPY PUSH1 0x1F RETURNDATASIZE SWAP1 DUP2 ADD PUSH1 0x1F NOT AND DUP3 ADD PUSH1 0x40 MSTORE PUSH2 0x1736 SWAP2 SWAP1 DUP2 ADD SWAP1 PUSH2 0x3AF4 JUMP JUMPDEST PUSH1 0x2 SLOAD PUSH1 0x6 DUP5 ADD SLOAD PUSH1 0x40 MLOAD PUSH4 0x403AA93 PUSH1 0xE3 SHL DUP2 MSTORE SWAP3 SWAP4 POP PUSH0 SWAP3 PUSH1 0x1 PUSH1 0x1 PUSH1 0xA0 SHL SUB SWAP1 SWAP3 AND SWAP2 PUSH4 0x201D5498 SWAP2 PUSH2 0x1779 SWAP2 DUP9 SWAP2 DUP8 SWAP2 PUSH1 0x1 SWAP2 PUSH1 0xFF AND SWAP1 PUSH1 0x4 ADD PUSH2 0x3BC1 JUMP JUMPDEST PUSH1 0x20 PUSH1 0x40 MLOAD DUP1 DUP4 SUB DUP2 PUSH0 DUP8 GAS CALL ISZERO DUP1 ISZERO PUSH2 0x1795 JUMPI RETURNDATASIZE PUSH0 PUSH0 RETURNDATACOPY RETURNDATASIZE PUSH0 REVERT JUMPDEST POP POP POP POP PUSH1 0x40 MLOAD RETURNDATASIZE PUSH1 0x1F NOT PUSH1 0x1F DUP3 ADD AND DUP3 ADD DUP1 PUSH1 0x40 MSTORE POP DUP2 ADD SWAP1 PUSH2 0x17B9 SWAP2 SWAP1 PUSH2 0x3C04 JUMP JUMPDEST SWAP1 POP DUP1 PUSH2 0x17D9 JUMPI PUSH1 0x40 MLOAD PUSH4 0xEB1CD1D1 PUSH1 0xE0 SHL DUP2 MSTORE PUSH1 0x4 ADD PUSH2 0x3A2 SWAP1 PUSH2 0x3C1F JUMP JUMPDEST PUSH2 0x186D DUP3 DUP5 PUSH1 0x1 ADD DUP1 SLOAD PUSH2 0x17EC SWAP1 PUSH2 0x3CBB JUMP JUMPDEST DUP1 PUSH1 0x1F ADD PUSH1 0x20 DUP1 SWAP2 DIV MUL PUSH1 0x20 ADD PUSH1 0x40 MLOAD SWAP1 DUP2 ADD PUSH1 0x40 MSTORE DUP1 SWAP3 SWAP2 SWAP1 DUP2 DUP2 MSTORE PUSH1 0x20 ADD DUP3 DUP1 SLOAD PUSH2 0x1818 SWAP1 PUSH2 0x3CBB JUMP JUMPDEST DUP1 ISZERO PUSH2 0x1863 JUMPI DUP1 PUSH1 0x1F LT PUSH2 0x183A JUMPI PUSH2 0x100 DUP1 DUP4 SLOAD DIV MUL DUP4 MSTORE SWAP2 PUSH1 0x20 ADD SWAP2 PUSH2 0x1863 JUMP JUMPDEST DUP3 ADD SWAP2 SWAP1 PUSH0 MSTORE PUSH1 0x20 PUSH0 KECCAK256 SWAP1 JUMPDEST DUP2 SLOAD DUP2 MSTORE SWAP1 PUSH1 0x1 ADD SWAP1 PUSH1 0x20 ADD DUP1 DUP4 GT PUSH2 0x1846 JUMPI DUP3 SWAP1 SUB PUSH1 0x1F AND DUP3 ADD SWAP2 JUMPDEST POP POP POP POP POP PUSH2 0x2FF2 JUMP JUMPDEST PUSH1 0x6 DUP4 ADD DUP1 SLOAD PUSH2 0xFF00 NOT AND PUSH2 0x400 OR SWAP1 SSTORE PUSH1 0x40 MLOAD DUP8 SWAP1 PUSH32 0xC68D41C52F606AD478346D0387AAD7A9D133A706AC62237214209E5CFA656BD1 SWAP1 PUSH2 0x14B7 SWAP1 DUP6 SWAP1 DUP11 SWAP1 DUP11 SWAP1 TIMESTAMP SWAP1 PUSH2 0x3F3C JUMP JUMPDEST PUSH1 0xA SLOAD PUSH1 0x1 PUSH1 0xA0 SHL SWAP1 DIV PUSH1 0xFF AND ISZERO PUSH2 0x18E1 JUMPI PUSH1 0x40 MLOAD PUSH4 0x51E5A701 PUSH1 0xE1 SHL DUP2 MSTORE PUSH1 0x4 ADD PUSH1 0x40 MLOAD DUP1 SWAP2 SUB SWAP1 REVERT JUMPDEST PUSH1 0xA SLOAD PUSH1 0x1 PUSH1 0x1 PUSH1 0xA0 SHL SUB AND CALLER EQ PUSH2 0x190C JUMPI PUSH1 0x40 MLOAD PUSH4 0xEB1CD1D1 PUSH1 0xE0 SHL DUP2 MSTORE PUSH1 0x4 ADD PUSH2 0x3A2 SWAP1 PUSH2 0x39D1 JUMP JUMPDEST PUSH1 0x1 PUSH1 0x1 PUSH1 0xA0 SHL SUB DUP2 AND PUSH2 0x1933 JUMPI PUSH1 0x40 MLOAD PUSH4 0xD647364F PUSH1 0xE0 SHL DUP2 MSTORE PUSH1 0x4 ADD PUSH2 0x3A2 SWAP1 PUSH2 0x3F73 JUMP JUMPDEST PUSH1 0x2 DUP1 SLOAD PUSH1 0x1 PUSH1 0x1 PUSH1 0xA0 SHL SUB NOT AND PUSH1 0x1 PUSH1 0x1 PUSH1 0xA0 SHL SUB DUP4 AND SWAP1 DUP2 OR SWAP1 SWAP2 SSTORE PUSH1 0x40 MLOAD TIMESTAMP DUP2 MSTORE PUSH32 0x87F1267D4FC5408CCA3AC12C5C6CC6116D58615D9F608A50437FE5A3D76591B SWAP1 PUSH1 0x20 ADD JUMPDEST PUSH1 0x40 MLOAD DUP1 SWAP2 SUB SWAP1 LOG2 POP JUMP JUMPDEST PUSH1 0xA SLOAD PUSH1 0x1 PUSH1 0xA0 SHL SWAP1 DIV PUSH1 0xFF AND PUSH2 0x19B2 JUMPI PUSH1 0x40 MLOAD PUSH4 0x59DE1BB3 PUSH1 0xE0 SHL DUP2 MSTORE PUSH1 0x4 ADD PUSH1 0x40 MLOAD DUP1 SWAP2 SUB SWAP1 REVERT JUMPDEST PUSH2 0x19BB PUSH0 PUSH2 0x25FB JUMP JUMPDEST PUSH0 DUP2 DUP2 MSTORE PUSH1 0x3 PUSH1 0x20 MSTORE PUSH1 0x40 SWAP1 KECCAK256 DUP1 SLOAD PUSH2 0x19EA JUMPI PUSH1 0x40 MLOAD PUSH4 0xE2ACEE5B PUSH1 0xE0 SHL DUP2 MSTORE PUSH1 0x4 DUP2 ADD DUP4 SWAP1 MSTORE PUSH1 0x24 ADD PUSH2 0x3A2 JUMP JUMPDEST PUSH1 0x1 PUSH1 0x6 DUP3 ADD SLOAD PUSH2 0x100 SWAP1 DIV PUSH1 0xFF AND PUSH1 0x4 DUP2 GT ISZERO PUSH2 0x1A0A JUMPI PUSH2 0x1A0A PUSH2 0x3642 JUMP JUMPDEST EQ PUSH2 0x1A40 JUMPI DUP2 DUP2 PUSH1 0x6 ADD PUSH1 0x1 SWAP1 SLOAD SWAP1 PUSH2 0x100 EXP SWAP1 DIV PUSH1 0xFF AND PUSH1 0x1 PUSH1 0x40 MLOAD PUSH4 0xCD34681 PUSH1 0xE1 SHL DUP2 MSTORE PUSH1 0x4 ADD PUSH2 0x3A2 SWAP4 SWAP3 SWAP2 SWAP1 PUSH2 0x3F1B JUMP JUMPDEST PUSH1 0x6 DUP2 ADD SLOAD PUSH1 0xFF AND PUSH0 SWAP1 DUP2 MSTORE PUSH1 0x5 PUSH1 0x20 MSTORE PUSH1 0x40 SWAP1 KECCAK256 SLOAD ISZERO PUSH2 0x1A94 JUMPI PUSH1 0x6 DUP2 ADD SLOAD PUSH1 0xFF AND PUSH0 DUP2 DUP2 MSTORE PUSH1 0x5 PUSH1 0x20 MSTORE PUSH1 0x40 SWAP1 DUP2 SWAP1 KECCAK256 SLOAD SWAP1 MLOAD PUSH4 0x3B72A42D PUSH1 0xE2 SHL DUP2 MSTORE PUSH1 0x4 DUP2 ADD SWAP3 SWAP1 SWAP3 MSTORE PUSH1 0x24 DUP3 ADD MSTORE PUSH1 0x44 ADD PUSH2 0x3A2 JUMP JUMPDEST PUSH0 DUP1 SLOAD PUSH1 0x40 MLOAD PUSH4 0x95F9250D PUSH1 0xE0 SHL DUP2 MSTORE CALLER PUSH1 0x4 DUP3 ADD MSTORE PUSH1 0x1 PUSH1 0x1 PUSH1 0xA0 SHL SUB SWAP1 SWAP2 AND SWAP1 PUSH4 0x95F9250D SWAP1 PUSH1 0x24 ADD PUSH0 PUSH1 0x40 MLOAD DUP1 DUP4 SUB DUP2 DUP7 GAS STATICCALL ISZERO DUP1 ISZERO PUSH2 0x1AD9 JUMPI RETURNDATASIZE PUSH0 PUSH0 RETURNDATACOPY RETURNDATASIZE PUSH0 REVERT JUMPDEST POP POP POP POP PUSH1 0x40 MLOAD RETURNDATASIZE PUSH0 DUP3 RETURNDATACOPY PUSH1 0x1F RETURNDATASIZE SWAP1 DUP2 ADD PUSH1 0x1F NOT AND DUP3 ADD PUSH1 0x40 MSTORE PUSH2 0x1B00 SWAP2 SWAP1 DUP2 ADD SWAP1 PUSH2 0x3AF4 JUMP JUMPDEST SWAP1 POP PUSH0 DUP3 PUSH1 0x2 ADD DUP1 SLOAD PUSH2 0x1B12 SWAP1 PUSH2 0x3CBB JUMP JUMPDEST SWAP1 POP GT ISZERO PUSH2 0x1C07 JUMPI PUSH0 DUP1 SLOAD PUSH1 0x40 MLOAD PUSH4 0x8C3488F PUSH1 0xE3 SHL DUP2 MSTORE PUSH1 0x1 PUSH1 0x1 PUSH1 0xA0 SHL SUB SWAP1 SWAP2 AND SWAP1 PUSH4 0x461A4478 SWAP1 PUSH2 0x1B4D SWAP1 PUSH1 0x2 DUP8 ADD SWAP1 PUSH1 0x4 ADD PUSH2 0x4020 JUMP JUMPDEST PUSH0 PUSH1 0x40 MLOAD DUP1 DUP4 SUB DUP2 DUP7 GAS STATICCALL ISZERO DUP1 ISZERO PUSH2 0x1B67 JUMPI RETURNDATASIZE PUSH0 PUSH0 RETURNDATACOPY RETURNDATASIZE PUSH0 REVERT JUMPDEST POP POP POP POP PUSH1 0x40 MLOAD RETURNDATASIZE PUSH0 DUP3 RETURNDATACOPY PUSH1 0x1F RETURNDATASIZE SWAP1 DUP2 ADD PUSH1 0x1F NOT AND DUP3 ADD PUSH1 0x40 MSTORE PUSH2 0x1B8E SWAP2 SWAP1 DUP2 ADD SWAP1 PUSH2 0x40E1 JUMP JUMPDEST SWAP1 POP DUP2 DUP1 MLOAD SWAP1 PUSH1 0x20 ADD KECCAK256 DUP2 PUSH2 0x100 ADD MLOAD DUP1 MLOAD SWAP1 PUSH1 0x20 ADD KECCAK256 EQ PUSH2 0x1C05 JUMPI PUSH1 0x40 MLOAD PUSH4 0xEB1CD1D1 PUSH1 0xE0 SHL DUP2 MSTORE PUSH1 0x20 PUSH1 0x4 DUP3 ADD MSTORE PUSH1 0x29 PUSH1 0x24 DUP3 ADD MSTORE PUSH32 0x536F6C6F206C612050412064656C6567616E74652064656C2050502070756F20 PUSH1 0x44 DUP3 ADD MSTORE PUSH9 0x656E646F7273617265 PUSH1 0xB8 SHL PUSH1 0x64 DUP3 ADD MSTORE PUSH1 0x84 ADD PUSH2 0x3A2 JUMP JUMPDEST POP JUMPDEST PUSH0 PUSH0 PUSH0 SWAP1 SLOAD SWAP1 PUSH2 0x100 EXP SWAP1 DIV PUSH1 0x1 PUSH1 0x1 PUSH1 0xA0 SHL SUB AND PUSH1 0x1 PUSH1 0x1 PUSH1 0xA0 SHL SUB AND PUSH4 0x795A2D1A PUSH1 0x40 MLOAD DUP2 PUSH4 0xFFFFFFFF AND PUSH1 0xE0 SHL DUP2 MSTORE PUSH1 0x4 ADD PUSH1 0x20 PUSH1 0x40 MLOAD DUP1 DUP4 SUB DUP2 DUP7 GAS STATICCALL ISZERO DUP1 ISZERO PUSH2 0x1C57 JUMPI RETURNDATASIZE PUSH0 PUSH0 RETURNDATACOPY RETURNDATASIZE PUSH0 REVERT JUMPDEST POP POP POP POP PUSH1 0x40 MLOAD RETURNDATASIZE PUSH1 0x1F NOT PUSH1 0x1F DUP3 ADD AND DUP3 ADD DUP1 PUSH1 0x40 MSTORE POP DUP2 ADD SWAP1 PUSH2 0x1C7B SWAP2 SWAP1 PUSH2 0x3E73 JUMP JUMPDEST SWAP1 POP PUSH1 0x4 DUP2 LT ISZERO PUSH2 0x1CCF JUMPI PUSH1 0x40 MLOAD PUSH4 0xD647364F PUSH1 0xE0 SHL DUP2 MSTORE PUSH1 0x20 PUSH1 0x4 DUP3 ADD MSTORE PUSH1 0x1C PUSH1 0x24 DUP3 ADD MSTORE PUSH32 0x4D696E696D6F2034205041206174746976652072696368696573746500000000 PUSH1 0x44 DUP3 ADD MSTORE PUSH1 0x64 ADD PUSH2 0x3A2 JUMP JUMPDEST PUSH0 PUSH1 0x4 PUSH2 0x1CDD DUP4 PUSH1 0x3 PUSH2 0x3E8A JUMP JUMPDEST PUSH2 0x1CE8 SWAP1 PUSH1 0x3 PUSH2 0x3EA7 JUMP JUMPDEST PUSH2 0x1CF2 SWAP2 SWAP1 PUSH2 0x3EBA JUMP JUMPDEST PUSH1 0x6 DUP6 ADD DUP1 SLOAD PUSH2 0xFF00 NOT AND PUSH2 0x200 OR SWAP1 SSTORE SWAP1 POP PUSH1 0x3 DUP5 ADD PUSH2 0x1D13 DUP5 DUP3 PUSH2 0x3D3E JUMP JUMPDEST POP PUSH1 0x7 DUP5 ADD DUP3 SWAP1 SSTORE PUSH1 0x8 DUP5 ADD DUP2 SWAP1 SSTORE TIMESTAMP PUSH1 0xC DUP6 ADD DUP2 SWAP1 SSTORE PUSH1 0x6 DUP6 ADD SLOAD PUSH1 0xFF AND PUSH0 SWAP1 DUP2 MSTORE PUSH1 0x5 PUSH1 0x20 MSTORE PUSH1 0x40 SWAP1 DUP2 SWAP1 KECCAK256 DUP8 SWAP1 SSTORE MLOAD DUP7 SWAP2 PUSH32 0x4067544317ED866F2116AD5AF8CE562D6C1082C8C3702CE87051DDD863E3A7E9 SWAP2 PUSH2 0x1D78 SWAP2 DUP8 SWAP2 DUP8 SWAP2 DUP8 SWAP2 PUSH2 0x4207 JUMP JUMPDEST PUSH1 0x40 MLOAD DUP1 SWAP2 SUB SWAP1 LOG2 POP POP POP POP POP JUMP JUMPDEST PUSH2 0x1DD6 PUSH1 0x40 DUP1 MLOAD PUSH2 0x140 DUP2 ADD DUP3 MSTORE PUSH0 DUP1 DUP3 MSTORE PUSH1 0x60 PUSH1 0x20 DUP4 ADD MSTORE SWAP1 SWAP2 DUP3 ADD SWAP1 DUP2 MSTORE PUSH1 0x60 PUSH1 0x20 DUP3 ADD MSTORE PUSH1 0x40 ADD PUSH0 DUP2 MSTORE PUSH1 0x20 ADD PUSH0 DUP2 MSTORE PUSH1 0x20 ADD PUSH0 DUP2 MSTORE PUSH1 0x20 ADD PUSH0 DUP2 MSTORE PUSH1 0x20 ADD PUSH0 DUP2 MSTORE PUSH1 0x20 ADD PUSH0 DUP2 MSTORE POP SWAP1 JUMP JUMPDEST PUSH0 DUP3 DUP2 MSTORE PUSH1 0x6 PUSH1 0x20 MSTORE PUSH1 0x40 SWAP1 KECCAK256 SLOAD PUSH2 0x1E04 JUMPI PUSH1 0x40 MLOAD PUSH4 0xA947A72F PUSH1 0xE0 SHL DUP2 MSTORE PUSH1 0x4 DUP2 ADD DUP4 SWAP1 MSTORE PUSH1 0x24 ADD PUSH2 0x3A2 JUMP JUMPDEST PUSH1 0x6 PUSH0 DUP4 DUP2 MSTORE PUSH1 0x20 ADD SWAP1 DUP2 MSTORE PUSH1 0x20 ADD PUSH0 KECCAK256 PUSH1 0x40 MLOAD DUP1 PUSH2 0x140 ADD PUSH1 0x40 MSTORE SWAP1 DUP2 PUSH0 DUP3 ADD SLOAD DUP2 MSTORE PUSH1 0x20 ADD PUSH1 0x1 DUP3 ADD DUP1 SLOAD PUSH2 0x1E3A SWAP1 PUSH2 0x3CBB JUMP JUMPDEST DUP1 PUSH1 0x1F ADD PUSH1 0x20 DUP1 SWAP2 DIV MUL PUSH1 0x20 ADD PUSH1 0x40 MLOAD SWAP1 DUP2 ADD PUSH1 0x40 MSTORE DUP1 SWAP3 SWAP2 SWAP1 DUP2 DUP2 MSTORE PUSH1 0x20 ADD DUP3 DUP1 SLOAD PUSH2 0x1E66 SWAP1 PUSH2 0x3CBB JUMP JUMPDEST DUP1 ISZERO PUSH2 0x1EB1 JUMPI DUP1 PUSH1 0x1F LT PUSH2 0x1E88 JUMPI PUSH2 0x100 DUP1 DUP4 SLOAD DIV MUL DUP4 MSTORE SWAP2 PUSH1 0x20 ADD SWAP2 PUSH2 0x1EB1 JUMP JUMPDEST DUP3 ADD SWAP2 SWAP1 PUSH0 MSTORE PUSH1 0x20 PUSH0 KECCAK256 SWAP1 JUMPDEST DUP2 SLOAD DUP2 MSTORE SWAP1 PUSH1 0x1 ADD SWAP1 PUSH1 0x20 ADD DUP1 DUP4 GT PUSH2 0x1E94 JUMPI DUP3 SWAP1 SUB PUSH1 0x1F AND DUP3 ADD SWAP2 JUMPDEST POP POP POP SWAP2 DUP4 MSTORE POP POP PUSH1 0x2 DUP3 ADD SLOAD PUSH1 0x20 SWAP1 SWAP2 ADD SWAP1 PUSH1 0xFF AND PUSH1 0x5 DUP2 GT ISZERO PUSH2 0x1ED8 JUMPI PUSH2 0x1ED8 PUSH2 0x3642 JUMP JUMPDEST PUSH1 0x5 DUP2 GT ISZERO PUSH2 0x1EE9 JUMPI PUSH2 0x1EE9 PUSH2 0x3642 JUMP JUMPDEST DUP2 MSTORE PUSH1 0x20 ADD PUSH1 0x3 DUP3 ADD DUP1 SLOAD PUSH2 0x1EFD SWAP1 PUSH2 0x3CBB JUMP JUMPDEST DUP1 PUSH1 0x1F ADD PUSH1 0x20 DUP1 SWAP2 DIV MUL PUSH1 0x20 ADD PUSH1 0x40 MLOAD SWAP1 DUP2 ADD PUSH1 0x40 MSTORE DUP1 SWAP3 SWAP2 SWAP1 DUP2 DUP2 MSTORE PUSH1 0x20 ADD DUP3 DUP1 SLOAD PUSH2 0x1F29 SWAP1 PUSH2 0x3CBB JUMP JUMPDEST DUP1 ISZERO PUSH2 0x1F74 JUMPI DUP1 PUSH1 0x1F LT PUSH2 0x1F4B JUMPI PUSH2 0x100 DUP1 DUP4 SLOAD DIV MUL DUP4 MSTORE SWAP2 PUSH1 0x20 ADD SWAP2 PUSH2 0x1F74 JUMP JUMPDEST DUP3 ADD SWAP2 SWAP1 PUSH0 MSTORE PUSH1 0x20 PUSH0 KECCAK256 SWAP1 JUMPDEST DUP2 SLOAD DUP2 MSTORE SWAP1 PUSH1 0x1 ADD SWAP1 PUSH1 0x20 ADD DUP1 DUP4 GT PUSH2 0x1F57 JUMPI DUP3 SWAP1 SUB PUSH1 0x1F AND DUP3 ADD SWAP2 JUMPDEST POP POP POP SWAP2 DUP4 MSTORE POP POP PUSH1 0x4 DUP3 ADD SLOAD PUSH1 0x20 SWAP1 SWAP2 ADD SWAP1 PUSH1 0xFF AND PUSH1 0x1 DUP2 GT ISZERO PUSH2 0x1F9B JUMPI PUSH2 0x1F9B PUSH2 0x3642 JUMP JUMPDEST PUSH1 0x1 DUP2 GT ISZERO PUSH2 0x1FAC JUMPI PUSH2 0x1FAC PUSH2 0x3642 JUMP JUMPDEST DUP2 MSTORE PUSH1 0x5 DUP3 ADD SLOAD PUSH1 0x20 DUP3 ADD MSTORE PUSH1 0x6 DUP3 ADD SLOAD PUSH1 0x40 DUP3 ADD MSTORE PUSH1 0x7 DUP3 ADD SLOAD PUSH1 0x60 DUP3 ADD MSTORE PUSH1 0x8 DUP3 ADD SLOAD PUSH1 0x80 DUP3 ADD MSTORE PUSH1 0x9 SWAP1 SWAP2 ADD SLOAD PUSH1 0xA0 SWAP1 SWAP2 ADD MSTORE SWAP3 SWAP2 POP POP JUMP JUMPDEST PUSH1 0xA SLOAD PUSH1 0x1 PUSH1 0xA0 SHL SWAP1 DIV PUSH1 0xFF AND PUSH2 0x2012 JUMPI PUSH1 0x40 MLOAD PUSH4 0x59DE1BB3 PUSH1 0xE0 SHL DUP2 MSTORE PUSH1 0x4 ADD PUSH1 0x40 MLOAD DUP1 SWAP2 SUB SWAP1 REVERT JUMPDEST PUSH2 0x201B PUSH0 PUSH2 0x25FB JUMP JUMPDEST PUSH0 DUP3 DUP2 MSTORE PUSH1 0x3 PUSH1 0x20 MSTORE PUSH1 0x40 SWAP1 KECCAK256 DUP1 SLOAD PUSH2 0x204A JUMPI PUSH1 0x40 MLOAD PUSH4 0xE2ACEE5B PUSH1 0xE0 SHL DUP2 MSTORE PUSH1 0x4 DUP2 ADD DUP5 SWAP1 MSTORE PUSH1 0x24 ADD PUSH2 0x3A2 JUMP JUMPDEST PUSH1 0x2 PUSH1 0x6 DUP3 ADD SLOAD PUSH2 0x100 SWAP1 DIV PUSH1 0xFF AND PUSH1 0x4 DUP2 GT ISZERO PUSH2 0x206A JUMPI PUSH2 0x206A PUSH2 0x3642 JUMP JUMPDEST EQ PUSH2 0x20A0 JUMPI DUP3 DUP2 PUSH1 0x6 ADD PUSH1 0x1 SWAP1 SLOAD SWAP1 PUSH2 0x100 EXP SWAP1 DIV PUSH1 0xFF AND PUSH1 0x2 PUSH1 0x40 MLOAD PUSH4 0xCD34681 PUSH1 0xE1 SHL DUP2 MSTORE PUSH1 0x4 ADD PUSH2 0x3A2 SWAP4 SWAP3 SWAP2 SWAP1 PUSH2 0x3F1B JUMP JUMPDEST PUSH0 DUP1 SLOAD PUSH1 0x40 MLOAD PUSH4 0x95F9250D PUSH1 0xE0 SHL DUP2 MSTORE CALLER PUSH1 0x4 DUP3 ADD MSTORE PUSH1 0x1 PUSH1 0x1 PUSH1 0xA0 SHL SUB SWAP1 SWAP2 AND SWAP1 PUSH4 0x95F9250D SWAP1 PUSH1 0x24 ADD PUSH0 PUSH1 0x40 MLOAD DUP1 DUP4 SUB DUP2 DUP7 GAS STATICCALL ISZERO DUP1 ISZERO PUSH2 0x20E5 JUMPI RETURNDATASIZE PUSH0 PUSH0 RETURNDATACOPY RETURNDATASIZE PUSH0 REVERT JUMPDEST POP POP POP POP PUSH1 0x40 MLOAD RETURNDATASIZE PUSH0 DUP3 RETURNDATACOPY PUSH1 0x1F RETURNDATASIZE SWAP1 DUP2 ADD PUSH1 0x1F NOT AND DUP3 ADD PUSH1 0x40 MSTORE PUSH2 0x210C SWAP2 SWAP1 DUP2 ADD SWAP1 PUSH2 0x3AF4 JUMP JUMPDEST SWAP1 POP PUSH1 0x4 PUSH0 DUP6 DUP2 MSTORE PUSH1 0x20 ADD SWAP1 DUP2 MSTORE PUSH1 0x20 ADD PUSH0 KECCAK256 DUP2 PUSH1 0x40 MLOAD PUSH2 0x212D SWAP2 SWAP1 PUSH2 0x3B44 JUMP JUMPDEST SWAP1 DUP2 MSTORE PUSH1 0x40 MLOAD SWAP1 DUP2 SWAP1 SUB PUSH1 0x20 ADD SWAP1 KECCAK256 SLOAD PUSH1 0xFF AND ISZERO PUSH2 0x2162 JUMPI DUP4 DUP2 PUSH1 0x40 MLOAD PUSH4 0x994C8733 PUSH1 0xE0 SHL DUP2 MSTORE PUSH1 0x4 ADD PUSH2 0x3A2 SWAP3 SWAP2 SWAP1 PUSH2 0x3B4F JUMP JUMPDEST PUSH1 0x1 PUSH1 0x4 PUSH0 DUP7 DUP2 MSTORE PUSH1 0x20 ADD SWAP1 DUP2 MSTORE PUSH1 0x20 ADD PUSH0 KECCAK256 DUP3 PUSH1 0x40 MLOAD PUSH2 0x2183 SWAP2 SWAP1 PUSH2 0x3B44 JUMP JUMPDEST SWAP1 DUP2 MSTORE PUSH1 0x40 MLOAD SWAP1 DUP2 SWAP1 SUB PUSH1 0x20 ADD SWAP1 KECCAK256 DUP1 SLOAD SWAP2 ISZERO ISZERO PUSH1 0xFF NOT SWAP1 SWAP3 AND SWAP2 SWAP1 SWAP2 OR SWAP1 SSTORE DUP3 ISZERO PUSH2 0x21C0 JUMPI PUSH1 0x9 DUP3 ADD DUP1 SLOAD SWAP1 PUSH0 PUSH2 0x21BA DUP4 PUSH2 0x3B7B JUMP JUMPDEST SWAP2 SWAP1 POP SSTORE POP JUMPDEST DUP4 PUSH32 0x2D9AABA916E00DEFC29265DEC862B99A6BD7C8FE97F54BE23E43FEAA8A34C62C DUP3 DUP6 DUP6 PUSH1 0x9 ADD SLOAD DUP7 PUSH1 0x8 ADD SLOAD TIMESTAMP PUSH1 0x40 MLOAD PUSH2 0x2200 SWAP6 SWAP5 SWAP4 SWAP3 SWAP2 SWAP1 PUSH2 0x4235 JUMP JUMPDEST PUSH1 0x40 MLOAD DUP1 SWAP2 SUB SWAP1 LOG2 DUP2 PUSH1 0x8 ADD SLOAD DUP3 PUSH1 0x9 ADD SLOAD LT PUSH2 0x774 JUMPI PUSH2 0x774 DUP5 PUSH2 0x30DE JUMP JUMPDEST PUSH1 0xA SLOAD PUSH1 0x1 PUSH1 0xA0 SHL SWAP1 DIV PUSH1 0xFF AND PUSH2 0x224A JUMPI PUSH1 0x40 MLOAD PUSH4 0x59DE1BB3 PUSH1 0xE0 SHL DUP2 MSTORE PUSH1 0x4 ADD PUSH1 0x40 MLOAD DUP1 SWAP2 SUB SWAP1 REVERT JUMPDEST PUSH0 DUP3 DUP2 MSTORE PUSH1 0x3 PUSH1 0x20 MSTORE PUSH1 0x40 SWAP1 KECCAK256 DUP1 SLOAD PUSH2 0x2279 JUMPI PUSH1 0x40 MLOAD PUSH4 0xE2ACEE5B PUSH1 0xE0 SHL DUP2 MSTORE PUSH1 0x4 DUP2 ADD DUP5 SWAP1 MSTORE PUSH1 0x24 ADD PUSH2 0x3A2 JUMP JUMPDEST PUSH0 PUSH1 0x6 DUP3 ADD SLOAD PUSH2 0x100 SWAP1 DIV PUSH1 0xFF AND PUSH1 0x4 DUP2 GT ISZERO PUSH2 0x2298 JUMPI PUSH2 0x2298 PUSH2 0x3642 JUMP JUMPDEST EQ PUSH2 0x22CD JUMPI DUP3 DUP2 PUSH1 0x6 ADD PUSH1 0x1 SWAP1 SLOAD SWAP1 PUSH2 0x100 EXP SWAP1 DIV PUSH1 0xFF AND PUSH0 PUSH1 0x40 MLOAD PUSH4 0xCD34681 PUSH1 0xE1 SHL DUP2 MSTORE PUSH1 0x4 ADD PUSH2 0x3A2 SWAP4 SWAP3 SWAP2 SWAP1 PUSH2 0x3F1B JUMP JUMPDEST PUSH0 DUP1 SLOAD PUSH1 0x40 MLOAD PUSH4 0x95F9250D PUSH1 0xE0 SHL DUP2 MSTORE CALLER PUSH1 0x4 DUP3 ADD MSTORE PUSH1 0x1 PUSH1 0x1 PUSH1 0xA0 SHL SUB SWAP1 SWAP2 AND SWAP1 PUSH4 0x95F9250D SWAP1 PUSH1 0x24 ADD PUSH0 PUSH1 0x40 MLOAD DUP1 DUP4 SUB DUP2 DUP7 GAS STATICCALL ISZERO DUP1 ISZERO PUSH2 0x2312 JUMPI RETURNDATASIZE PUSH0 PUSH0 RETURNDATACOPY RETURNDATASIZE PUSH0 REVERT JUMPDEST POP POP POP POP PUSH1 0x40 MLOAD RETURNDATASIZE PUSH0 DUP3 RETURNDATACOPY PUSH1 0x1F RETURNDATASIZE SWAP1 DUP2 ADD PUSH1 0x1F NOT AND DUP3 ADD PUSH1 0x40 MSTORE PUSH2 0x2339 SWAP2 SWAP1 DUP2 ADD SWAP1 PUSH2 0x3AF4 JUMP JUMPDEST PUSH1 0x2 SLOAD PUSH1 0x6 DUP5 ADD SLOAD PUSH1 0x40 MLOAD PUSH4 0x403AA93 PUSH1 0xE3 SHL DUP2 MSTORE SWAP3 SWAP4 POP PUSH0 SWAP3 PUSH1 0x1 PUSH1 0x1 PUSH1 0xA0 SHL SUB SWAP1 SWAP3 AND SWAP2 PUSH4 0x201D5498 SWAP2 PUSH2 0x237C SWAP2 DUP9 SWAP2 DUP8 SWAP2 PUSH1 0x1 SWAP2 PUSH1 0xFF AND SWAP1 PUSH1 0x4 ADD PUSH2 0x3BC1 JUMP JUMPDEST PUSH1 0x20 PUSH1 0x40 MLOAD DUP1 DUP4 SUB DUP2 PUSH0 DUP8 GAS CALL ISZERO DUP1 ISZERO PUSH2 0x2398 JUMPI RETURNDATASIZE PUSH0 PUSH0 RETURNDATACOPY RETURNDATASIZE PUSH0 REVERT JUMPDEST POP POP POP POP PUSH1 0x40 MLOAD RETURNDATASIZE PUSH1 0x1F NOT PUSH1 0x1F DUP3 ADD AND DUP3 ADD DUP1 PUSH1 0x40 MSTORE POP DUP2 ADD SWAP1 PUSH2 0x23BC SWAP2 SWAP1 PUSH2 0x3C04 JUMP JUMPDEST SWAP1 POP DUP1 PUSH2 0x23DC JUMPI PUSH1 0x40 MLOAD PUSH4 0xEB1CD1D1 PUSH1 0xE0 SHL DUP2 MSTORE PUSH1 0x4 ADD PUSH2 0x3A2 SWAP1 PUSH2 0x3C1F JUMP JUMPDEST PUSH2 0x23EF DUP3 DUP5 PUSH1 0x1 ADD DUP1 SLOAD PUSH2 0x17EC SWAP1 PUSH2 0x3CBB JUMP JUMPDEST PUSH1 0x6 DUP4 ADD DUP1 SLOAD PUSH2 0xFF00 NOT AND PUSH2 0x100 OR SWAP1 SSTORE PUSH1 0x2 DUP4 ADD PUSH2 0x240E DUP4 DUP3 PUSH2 0x3D3E JUMP JUMPDEST POP TIMESTAMP PUSH1 0xB DUP5 ADD DUP2 SWAP1 SSTORE PUSH1 0x40 MLOAD DUP7 SWAP2 PUSH32 0x390B03734D3E7CB04DE5E86F95BB24ECF71CAD5C7BE7D54EC1884B5220CE8A01 SWAP2 PUSH2 0x1D78 SWAP2 DUP7 SWAP2 PUSH2 0x426B JUMP JUMPDEST PUSH1 0xA SLOAD PUSH1 0x1 PUSH1 0xA0 SHL SWAP1 DIV PUSH1 0xFF AND ISZERO PUSH2 0x2474 JUMPI PUSH1 0x40 MLOAD PUSH4 0x51E5A701 PUSH1 0xE1 SHL DUP2 MSTORE PUSH1 0x4 ADD PUSH1 0x40 MLOAD DUP1 SWAP2 SUB SWAP1 REVERT JUMPDEST PUSH1 0xA SLOAD PUSH1 0x1 PUSH1 0x1 PUSH1 0xA0 SHL SUB AND CALLER EQ PUSH2 0x249F JUMPI PUSH1 0x40 MLOAD PUSH4 0xEB1CD1D1 PUSH1 0xE0 SHL DUP2 MSTORE PUSH1 0x4 ADD PUSH2 0x3A2 SWAP1 PUSH2 0x39D1 JUMP JUMPDEST PUSH1 0x1 PUSH1 0x1 PUSH1 0xA0 SHL SUB DUP2 AND PUSH2 0x24C6 JUMPI PUSH1 0x40 MLOAD PUSH4 0xD647364F PUSH1 0xE0 SHL DUP2 MSTORE PUSH1 0x4 ADD PUSH2 0x3A2 SWAP1 PUSH2 0x3F73 JUMP JUMPDEST PUSH0 DUP1 SLOAD PUSH1 0x1 PUSH1 0x1 PUSH1 0xA0 SHL SUB NOT AND PUSH1 0x1 PUSH1 0x1 PUSH1 0xA0 SHL SUB DUP4 AND SWAP1 DUP2 OR SWAP1 SWAP2 SSTORE PUSH1 0x40 MLOAD TIMESTAMP DUP2 MSTORE PUSH32 0xB279D83EA0D87C763B2F6E1457A9572E284339948ADF5AD4B58B90AC77CB5407 SWAP1 PUSH1 0x20 ADD PUSH2 0x197D JUMP JUMPDEST PUSH1 0xA SLOAD PUSH1 0x1 PUSH1 0xA0 SHL SWAP1 DIV PUSH1 0xFF AND ISZERO PUSH2 0x253E JUMPI PUSH1 0x40 MLOAD PUSH4 0x51E5A701 PUSH1 0xE1 SHL DUP2 MSTORE PUSH1 0x4 ADD PUSH1 0x40 MLOAD DUP1 SWAP2 SUB SWAP1 REVERT JUMPDEST PUSH1 0xA SLOAD PUSH1 0x1 PUSH1 0x1 PUSH1 0xA0 SHL SUB AND CALLER EQ PUSH2 0x2569 JUMPI PUSH1 0x40 MLOAD PUSH4 0xEB1CD1D1 PUSH1 0xE0 SHL DUP2 MSTORE PUSH1 0x4 ADD PUSH2 0x3A2 SWAP1 PUSH2 0x39D1 JUMP JUMPDEST PUSH1 0x1 PUSH1 0x1 PUSH1 0xA0 SHL SUB DUP2 AND PUSH2 0x2590 JUMPI PUSH1 0x40 MLOAD PUSH4 0xD647364F PUSH1 0xE0 SHL DUP2 MSTORE PUSH1 0x4 ADD PUSH2 0x3A2 SWAP1 PUSH2 0x3F73 JUMP JUMPDEST PUSH1 0x1 DUP1 SLOAD PUSH1 0x1 PUSH1 0x1 PUSH1 0xA0 SHL SUB NOT AND PUSH1 0x1 PUSH1 0x1 PUSH1 0xA0 SHL SUB DUP4 AND SWAP1 DUP2 OR SWAP1 SWAP2 SSTORE PUSH1 0x40 MLOAD TIMESTAMP DUP2 MSTORE PUSH32 0x7647C16C0C1F643B4D09D0BD1878B67929ED77287D4160E0374CD74420899D52 SWAP1 PUSH1 0x20 ADD PUSH2 0x197D JUMP JUMPDEST PUSH0 DUP4 DUP2 MSTORE PUSH1 0x4 PUSH1 0x20 MSTORE PUSH1 0x40 DUP1 DUP3 KECCAK256 SWAP1 MLOAD PUSH2 0x14E5 SWAP1 DUP6 SWAP1 DUP6 SWAP1 PUSH2 0x3F0C JUMP JUMPDEST PUSH0 DUP1 SLOAD PUSH1 0x40 MLOAD PUSH4 0x95F9250D PUSH1 0xE0 SHL DUP2 MSTORE CALLER PUSH1 0x4 DUP3 ADD MSTORE PUSH1 0x1 PUSH1 0x1 PUSH1 0xA0 SHL SUB SWAP1 SWAP2 AND SWAP1 PUSH4 0x95F9250D SWAP1 PUSH1 0x24 ADD PUSH0 PUSH1 0x40 MLOAD DUP1 DUP4 SUB DUP2 DUP7 GAS STATICCALL ISZERO DUP1 ISZERO PUSH2 0x2640 JUMPI RETURNDATASIZE PUSH0 PUSH0 RETURNDATACOPY RETURNDATASIZE PUSH0 REVERT JUMPDEST POP POP POP POP PUSH1 0x40 MLOAD RETURNDATASIZE PUSH0 DUP3 RETURNDATACOPY PUSH1 0x1F RETURNDATASIZE SWAP1 DUP2 ADD PUSH1 0x1F NOT AND DUP3 ADD PUSH1 0x40 MSTORE PUSH2 0x2667 SWAP2 SWAP1 DUP2 ADD SWAP1 PUSH2 0x3AF4 JUMP JUMPDEST SWAP1 POP DUP1 MLOAD PUSH0 SUB PUSH2 0x26BA JUMPI PUSH1 0x40 MLOAD PUSH4 0xEB1CD1D1 PUSH1 0xE0 SHL DUP2 MSTORE PUSH1 0x20 PUSH1 0x4 DUP3 ADD MSTORE PUSH1 0x18 PUSH1 0x24 DUP3 ADD MSTORE PUSH32 0x436869616D616E7465206E6F6E207265676973747261746F0000000000000000 PUSH1 0x44 DUP3 ADD MSTORE PUSH1 0x64 ADD PUSH2 0x3A2 JUMP JUMPDEST PUSH0 DUP1 SLOAD PUSH1 0x40 MLOAD PUSH4 0x8C3488F PUSH1 0xE3 SHL DUP2 MSTORE PUSH1 0x1 PUSH1 0x1 PUSH1 0xA0 SHL SUB SWAP1 SWAP2 AND SWAP1 PUSH4 0x461A4478 SWAP1 PUSH2 0x26EA SWAP1 DUP6 SWAP1 PUSH1 0x4 ADD PUSH2 0x428C JUMP JUMPDEST PUSH0 PUSH1 0x40 MLOAD DUP1 DUP4 SUB DUP2 DUP7 GAS STATICCALL ISZERO DUP1 ISZERO PUSH2 0x2704 JUMPI RETURNDATASIZE PUSH0 PUSH0 RETURNDATACOPY RETURNDATASIZE PUSH0 REVERT JUMPDEST POP POP POP POP PUSH1 0x40 MLOAD RETURNDATASIZE PUSH0 DUP3 RETURNDATACOPY PUSH1 0x1F RETURNDATASIZE SWAP1 DUP2 ADD PUSH1 0x1F NOT AND DUP3 ADD PUSH1 0x40 MSTORE PUSH2 0x272B SWAP2 SWAP1 DUP2 ADD SWAP1 PUSH2 0x40E1 JUMP JUMPDEST SWAP1 POP DUP3 PUSH1 0x5 DUP2 GT ISZERO PUSH2 0x273F JUMPI PUSH2 0x273F PUSH2 0x3642 JUMP JUMPDEST DUP2 PUSH1 0x80 ADD MLOAD PUSH1 0x5 DUP2 GT ISZERO PUSH2 0x2755 JUMPI PUSH2 0x2755 PUSH2 0x3642 JUMP JUMPDEST EQ PUSH2 0x279B JUMPI PUSH1 0x40 MLOAD PUSH4 0xEB1CD1D1 PUSH1 0xE0 SHL DUP2 MSTORE PUSH1 0x20 PUSH1 0x4 DUP3 ADD MSTORE PUSH1 0x15 PUSH1 0x24 DUP3 ADD MSTORE PUSH21 0x52756F6C6F206E6F6E206175746F72697A7A61746F PUSH1 0x58 SHL PUSH1 0x44 DUP3 ADD MSTORE PUSH1 0x64 ADD PUSH2 0x3A2 JUMP JUMPDEST DUP1 PUSH1 0x40 ADD MLOAD ISZERO DUP1 PUSH2 0x27BF JUMPI POP PUSH0 DUP2 PUSH2 0x120 ADD MLOAD GT DUP1 ISZERO PUSH2 0x27BF JUMPI POP DUP1 PUSH2 0x120 ADD MLOAD TIMESTAMP GT JUMPDEST ISZERO PUSH2 0x2806 JUMPI PUSH1 0x40 MLOAD PUSH4 0xEB1CD1D1 PUSH1 0xE0 SHL DUP2 MSTORE PUSH1 0x20 PUSH1 0x4 DUP3 ADD MSTORE PUSH1 0x16 PUSH1 0x24 DUP3 ADD MSTORE PUSH22 0x444944207265766F6361746F206F207363616475746F PUSH1 0x50 SHL PUSH1 0x44 DUP3 ADD MSTORE PUSH1 0x64 ADD PUSH2 0x3A2 JUMP JUMPDEST POP POP POP JUMP JUMPDEST PUSH0 DUP2 DUP2 MSTORE PUSH1 0x6 PUSH1 0x20 MSTORE PUSH1 0x40 DUP2 KECCAK256 PUSH1 0x4 DUP2 ADD DUP1 SLOAD PUSH1 0xFF NOT AND PUSH1 0x1 OR SWAP1 SSTORE TIMESTAMP PUSH1 0x9 DUP3 ADD SSTORE PUSH1 0x2 DUP2 ADD SLOAD SWAP1 SWAP2 PUSH1 0xFF SWAP1 SWAP2 AND SWAP1 DUP2 PUSH1 0x5 DUP2 GT ISZERO PUSH2 0x284C JUMPI PUSH2 0x284C PUSH2 0x3642 JUMP JUMPDEST EQ DUP1 PUSH2 0x2869 JUMPI POP PUSH1 0x1 DUP2 PUSH1 0x5 DUP2 GT ISZERO PUSH2 0x2867 JUMPI PUSH2 0x2867 PUSH2 0x3642 JUMP JUMPDEST EQ JUMPDEST ISZERO PUSH2 0x2970 JUMPI PUSH0 DUP3 PUSH1 0x3 ADD DUP1 SLOAD PUSH2 0x287E SWAP1 PUSH2 0x3CBB JUMP JUMPDEST DUP1 PUSH1 0x1F ADD PUSH1 0x20 DUP1 SWAP2 DIV MUL PUSH1 0x20 ADD PUSH1 0x40 MLOAD SWAP1 DUP2 ADD PUSH1 0x40 MSTORE DUP1 SWAP3 SWAP2 SWAP1 DUP2 DUP2 MSTORE PUSH1 0x20 ADD DUP3 DUP1 SLOAD PUSH2 0x28AA SWAP1 PUSH2 0x3CBB JUMP JUMPDEST DUP1 ISZERO PUSH2 0x28F5 JUMPI DUP1 PUSH1 0x1F LT PUSH2 0x28CC JUMPI PUSH2 0x100 DUP1 DUP4 SLOAD DIV MUL DUP4 MSTORE SWAP2 PUSH1 0x20 ADD SWAP2 PUSH2 0x28F5 JUMP JUMPDEST DUP3 ADD SWAP2 SWAP1 PUSH0 MSTORE PUSH1 0x20 PUSH0 KECCAK256 SWAP1 JUMPDEST DUP2 SLOAD DUP2 MSTORE SWAP1 PUSH1 0x1 ADD SWAP1 PUSH1 0x20 ADD DUP1 DUP4 GT PUSH2 0x28D8 JUMPI DUP3 SWAP1 SUB PUSH1 0x1F AND DUP3 ADD SWAP2 JUMPDEST POP POP POP POP POP DUP1 PUSH1 0x20 ADD SWAP1 MLOAD DUP2 ADD SWAP1 PUSH2 0x290D SWAP2 SWAP1 PUSH2 0x3AF4 JUMP JUMPDEST PUSH0 SLOAD PUSH1 0x40 MLOAD PUSH4 0x3A7239A1 PUSH1 0xE1 SHL DUP2 MSTORE SWAP2 SWAP3 POP PUSH1 0x1 PUSH1 0x1 PUSH1 0xA0 SHL SUB AND SWAP1 PUSH4 0x74E47342 SWAP1 PUSH2 0x293D SWAP1 DUP5 SWAP1 PUSH1 0x4 ADD PUSH2 0x428C JUMP JUMPDEST PUSH0 PUSH1 0x40 MLOAD DUP1 DUP4 SUB DUP2 PUSH0 DUP8 DUP1 EXTCODESIZE ISZERO DUP1 ISZERO PUSH2 0x2954 JUMPI PUSH0 PUSH0 REVERT JUMPDEST POP GAS CALL ISZERO DUP1 ISZERO PUSH2 0x2966 JUMPI RETURNDATASIZE PUSH0 PUSH0 RETURNDATACOPY RETURNDATASIZE PUSH0 REVERT JUMPDEST POP POP POP POP POP PUSH2 0x2D94 JUMP JUMPDEST PUSH1 0x2 DUP2 PUSH1 0x5 DUP2 GT ISZERO PUSH2 0x2984 JUMPI PUSH2 0x2984 PUSH2 0x3642 JUMP JUMPDEST SUB PUSH2 0x2A98 JUMPI PUSH0 PUSH0 PUSH0 DUP5 PUSH1 0x3 ADD DUP1 SLOAD PUSH2 0x299B SWAP1 PUSH2 0x3CBB JUMP JUMPDEST DUP1 PUSH1 0x1F ADD PUSH1 0x20 DUP1 SWAP2 DIV MUL PUSH1 0x20 ADD PUSH1 0x40 MLOAD SWAP1 DUP2 ADD PUSH1 0x40 MSTORE DUP1 SWAP3 SWAP2 SWAP1 DUP2 DUP2 MSTORE PUSH1 0x20 ADD DUP3 DUP1 SLOAD PUSH2 0x29C7 SWAP1 PUSH2 0x3CBB JUMP JUMPDEST DUP1 ISZERO PUSH2 0x2A12 JUMPI DUP1 PUSH1 0x1F LT PUSH2 0x29E9 JUMPI PUSH2 0x100 DUP1 DUP4 SLOAD DIV MUL DUP4 MSTORE SWAP2 PUSH1 0x20 ADD SWAP2 PUSH2 0x2A12 JUMP JUMPDEST DUP3 ADD SWAP2 SWAP1 PUSH0 MSTORE PUSH1 0x20 PUSH0 KECCAK256 SWAP1 JUMPDEST DUP2 SLOAD DUP2 MSTORE SWAP1 PUSH1 0x1 ADD SWAP1 PUSH1 0x20 ADD DUP1 DUP4 GT PUSH2 0x29F5 JUMPI DUP3 SWAP1 SUB PUSH1 0x1F AND DUP3 ADD SWAP2 JUMPDEST POP POP POP POP POP DUP1 PUSH1 0x20 ADD SWAP1 MLOAD DUP2 ADD SWAP1 PUSH2 0x2A2A SWAP2 SWAP1 PUSH2 0x429E JUMP JUMPDEST PUSH0 SLOAD PUSH1 0x40 MLOAD PUSH4 0x1CD9D569 PUSH1 0xE1 SHL DUP2 MSTORE SWAP4 SWAP7 POP SWAP2 SWAP5 POP SWAP3 POP PUSH1 0x1 PUSH1 0x1 PUSH1 0xA0 SHL SUB AND SWAP1 PUSH4 0x39B3AAD2 SWAP1 PUSH2 0x2A63 SWAP1 DUP7 SWAP1 DUP7 SWAP1 DUP7 SWAP1 PUSH1 0x4 ADD PUSH2 0x4314 JUMP JUMPDEST PUSH0 PUSH1 0x40 MLOAD DUP1 DUP4 SUB DUP2 PUSH0 DUP8 DUP1 EXTCODESIZE ISZERO DUP1 ISZERO PUSH2 0x2A7A JUMPI PUSH0 PUSH0 REVERT JUMPDEST POP GAS CALL ISZERO DUP1 ISZERO PUSH2 0x2A8C JUMPI RETURNDATASIZE PUSH0 PUSH0 RETURNDATACOPY RETURNDATASIZE PUSH0 REVERT JUMPDEST POP POP POP POP POP POP POP PUSH2 0x2D94 JUMP JUMPDEST PUSH1 0x3 DUP2 PUSH1 0x5 DUP2 GT ISZERO PUSH2 0x2AAC JUMPI PUSH2 0x2AAC PUSH2 0x3642 JUMP JUMPDEST SUB PUSH2 0x2B8B JUMPI PUSH0 PUSH0 PUSH0 DUP5 PUSH1 0x3 ADD DUP1 SLOAD PUSH2 0x2AC3 SWAP1 PUSH2 0x3CBB JUMP JUMPDEST DUP1 PUSH1 0x1F ADD PUSH1 0x20 DUP1 SWAP2 DIV MUL PUSH1 0x20 ADD PUSH1 0x40 MLOAD SWAP1 DUP2 ADD PUSH1 0x40 MSTORE DUP1 SWAP3 SWAP2 SWAP1 DUP2 DUP2 MSTORE PUSH1 0x20 ADD DUP3 DUP1 SLOAD PUSH2 0x2AEF SWAP1 PUSH2 0x3CBB JUMP JUMPDEST DUP1 ISZERO PUSH2 0x2B3A JUMPI DUP1 PUSH1 0x1F LT PUSH2 0x2B11 JUMPI PUSH2 0x100 DUP1 DUP4 SLOAD DIV MUL DUP4 MSTORE SWAP2 PUSH1 0x20 ADD SWAP2 PUSH2 0x2B3A JUMP JUMPDEST DUP3 ADD SWAP2 SWAP1 PUSH0 MSTORE PUSH1 0x20 PUSH0 KECCAK256 SWAP1 JUMPDEST DUP2 SLOAD DUP2 MSTORE SWAP1 PUSH1 0x1 ADD SWAP1 PUSH1 0x20 ADD DUP1 DUP4 GT PUSH2 0x2B1D JUMPI DUP3 SWAP1 SUB PUSH1 0x1F AND DUP3 ADD SWAP2 JUMPDEST POP POP POP POP POP DUP1 PUSH1 0x20 ADD SWAP1 MLOAD DUP2 ADD SWAP1 PUSH2 0x2B52 SWAP2 SWAP1 PUSH2 0x429E JUMP JUMPDEST PUSH0 SLOAD PUSH1 0x40 MLOAD PUSH4 0x2B8585E9 PUSH1 0xE1 SHL DUP2 MSTORE SWAP4 SWAP7 POP SWAP2 SWAP5 POP SWAP3 POP PUSH1 0x1 PUSH1 0x1 PUSH1 0xA0 SHL SUB AND SWAP1 PUSH4 0x570B0BD2 SWAP1 PUSH2 0x2A63 SWAP1 DUP7 SWAP1 DUP7 SWAP1 DUP7 SWAP1 PUSH1 0x4 ADD PUSH2 0x4314 JUMP JUMPDEST PUSH1 0x4 DUP2 PUSH1 0x5 DUP2 GT ISZERO PUSH2 0x2B9F JUMPI PUSH2 0x2B9F PUSH2 0x3642 JUMP JUMPDEST SUB PUSH2 0x2C75 JUMPI PUSH0 DUP3 PUSH1 0x3 ADD DUP1 SLOAD PUSH2 0x2BB4 SWAP1 PUSH2 0x3CBB JUMP JUMPDEST DUP1 PUSH1 0x1F ADD PUSH1 0x20 DUP1 SWAP2 DIV MUL PUSH1 0x20 ADD PUSH1 0x40 MLOAD SWAP1 DUP2 ADD PUSH1 0x40 MSTORE DUP1 SWAP3 SWAP2 SWAP1 DUP2 DUP2 MSTORE PUSH1 0x20 ADD DUP3 DUP1 SLOAD PUSH2 0x2BE0 SWAP1 PUSH2 0x3CBB JUMP JUMPDEST DUP1 ISZERO PUSH2 0x2C2B JUMPI DUP1 PUSH1 0x1F LT PUSH2 0x2C02 JUMPI PUSH2 0x100 DUP1 DUP4 SLOAD DIV MUL DUP4 MSTORE SWAP2 PUSH1 0x20 ADD SWAP2 PUSH2 0x2C2B JUMP JUMPDEST DUP3 ADD SWAP2 SWAP1 PUSH0 MSTORE PUSH1 0x20 PUSH0 KECCAK256 SWAP1 JUMPDEST DUP2 SLOAD DUP2 MSTORE SWAP1 PUSH1 0x1 ADD SWAP1 PUSH1 0x20 ADD DUP1 DUP4 GT PUSH2 0x2C0E JUMPI DUP3 SWAP1 SUB PUSH1 0x1F AND DUP3 ADD SWAP2 JUMPDEST POP POP POP POP POP DUP1 PUSH1 0x20 ADD SWAP1 MLOAD DUP2 ADD SWAP1 PUSH2 0x2C43 SWAP2 SWAP1 PUSH2 0x3E73 JUMP JUMPDEST PUSH1 0x1 SLOAD PUSH1 0x40 MLOAD PUSH4 0xF230748F PUSH1 0xE0 SHL DUP2 MSTORE PUSH1 0x4 DUP2 ADD DUP4 SWAP1 MSTORE SWAP2 SWAP3 POP PUSH1 0x1 PUSH1 0x1 PUSH1 0xA0 SHL SUB AND SWAP1 PUSH4 0xF230748F SWAP1 PUSH1 0x24 ADD PUSH2 0x293D JUMP JUMPDEST PUSH1 0x5 DUP2 PUSH1 0x5 DUP2 GT ISZERO PUSH2 0x2C89 JUMPI PUSH2 0x2C89 PUSH2 0x3642 JUMP JUMPDEST SUB PUSH2 0x2D94 JUMPI PUSH0 PUSH0 DUP4 PUSH1 0x3 ADD DUP1 SLOAD PUSH2 0x2C9F SWAP1 PUSH2 0x3CBB JUMP JUMPDEST DUP1 PUSH1 0x1F ADD PUSH1 0x20 DUP1 SWAP2 DIV MUL PUSH1 0x20 ADD PUSH1 0x40 MLOAD SWAP1 DUP2 ADD PUSH1 0x40 MSTORE DUP1 SWAP3 SWAP2 SWAP1 DUP2 DUP2 MSTORE PUSH1 0x20 ADD DUP3 DUP1 SLOAD PUSH2 0x2CCB SWAP1 PUSH2 0x3CBB JUMP JUMPDEST DUP1 ISZERO PUSH2 0x2D16 JUMPI DUP1 PUSH1 0x1F LT PUSH2 0x2CED JUMPI PUSH2 0x100 DUP1 DUP4 SLOAD DIV MUL DUP4 MSTORE SWAP2 PUSH1 0x20 ADD SWAP2 PUSH2 0x2D16 JUMP JUMPDEST DUP3 ADD SWAP2 SWAP1 PUSH0 MSTORE PUSH1 0x20 PUSH0 KECCAK256 SWAP1 JUMPDEST DUP2 SLOAD DUP2 MSTORE SWAP1 PUSH1 0x1 ADD SWAP1 PUSH1 0x20 ADD DUP1 DUP4 GT PUSH2 0x2CF9 JUMPI DUP3 SWAP1 SUB PUSH1 0x1F AND DUP3 ADD SWAP2 JUMPDEST POP POP POP POP POP DUP1 PUSH1 0x20 ADD SWAP1 MLOAD DUP2 ADD SWAP1 PUSH2 0x2D2E SWAP2 SWAP1 PUSH2 0x4351 JUMP JUMPDEST PUSH1 0x1 SLOAD PUSH1 0x40 MLOAD PUSH4 0x8ACBFDE5 PUSH1 0xE0 SHL DUP2 MSTORE SWAP3 SWAP5 POP SWAP1 SWAP3 POP PUSH1 0x1 PUSH1 0x1 PUSH1 0xA0 SHL SUB AND SWAP1 PUSH4 0x8ACBFDE5 SWAP1 PUSH2 0x2D64 SWAP1 DUP6 SWAP1 DUP6 SWAP1 PUSH1 0x4 ADD PUSH2 0x439E JUMP JUMPDEST PUSH0 PUSH1 0x40 MLOAD DUP1 DUP4 SUB DUP2 PUSH0 DUP8 DUP1 EXTCODESIZE ISZERO DUP1 ISZERO PUSH2 0x2D7B JUMPI PUSH0 PUSH0 REVERT JUMPDEST POP GAS CALL ISZERO DUP1 ISZERO PUSH2 0x2D8D JUMPI RETURNDATASIZE PUSH0 PUSH0 RETURNDATACOPY RETURNDATASIZE PUSH0 REVERT JUMPDEST POP POP POP POP POP POP JUMPDEST PUSH1 0x2 DUP3 ADD SLOAD PUSH1 0x40 MLOAD DUP5 SWAP2 PUSH32 0xD5E393722A87335A9931FF0C86C2C030CF316F7820D8459BDCE7BE06F7B7011E SWAP2 PUSH2 0x2DCF SWAP2 PUSH1 0xFF AND SWAP1 TIMESTAMP SWAP1 PUSH2 0x43B9 JUMP JUMPDEST PUSH1 0x40 MLOAD DUP1 SWAP2 SUB SWAP1 LOG2 POP POP POP JUMP JUMPDEST PUSH0 DUP1 SLOAD PUSH1 0x40 MLOAD PUSH4 0x8C3488F PUSH1 0xE3 SHL DUP2 MSTORE PUSH1 0x1 PUSH1 0x1 PUSH1 0xA0 SHL SUB SWAP1 SWAP2 AND SWAP1 PUSH4 0x461A4478 SWAP1 PUSH2 0x2E0C SWAP1 DUP7 SWAP1 PUSH1 0x4 ADD PUSH2 0x428C JUMP JUMPDEST PUSH0 PUSH1 0x40 MLOAD DUP1 DUP4 SUB DUP2 DUP7 GAS STATICCALL ISZERO DUP1 ISZERO PUSH2 0x2E26 JUMPI RETURNDATASIZE PUSH0 PUSH0 RETURNDATACOPY RETURNDATASIZE PUSH0 REVERT JUMPDEST POP POP POP POP PUSH1 0x40 MLOAD RETURNDATASIZE PUSH0 DUP3 RETURNDATACOPY PUSH1 0x1F RETURNDATASIZE SWAP1 DUP2 ADD PUSH1 0x1F NOT AND DUP3 ADD PUSH1 0x40 MSTORE PUSH2 0x2E4D SWAP2 SWAP1 DUP2 ADD SWAP1 PUSH2 0x40E1 JUMP JUMPDEST SWAP1 POP PUSH0 JUMPDEST DUP2 PUSH1 0xA0 ADD MLOAD MLOAD DUP2 LT ISZERO PUSH2 0x2EA7 JUMPI DUP3 PUSH1 0xFF AND DUP3 PUSH1 0xA0 ADD MLOAD DUP3 DUP2 MLOAD DUP2 LT PUSH2 0x2E78 JUMPI PUSH2 0x2E78 PUSH2 0x43D4 JUMP JUMPDEST PUSH1 0x20 MUL PUSH1 0x20 ADD ADD MLOAD PUSH1 0x2 DUP2 GT ISZERO PUSH2 0x2E91 JUMPI PUSH2 0x2E91 PUSH2 0x3642 JUMP JUMPDEST PUSH1 0xFF AND SUB PUSH2 0x2E9F JUMPI POP POP POP POP JUMP JUMPDEST PUSH1 0x1 ADD PUSH2 0x2E51 JUMP JUMPDEST POP PUSH1 0x40 MLOAD PUSH4 0xEB1CD1D1 PUSH1 0xE0 SHL DUP2 MSTORE PUSH1 0x20 PUSH1 0x4 DUP3 ADD MSTORE PUSH1 0x27 PUSH1 0x24 DUP3 ADD MSTORE PUSH32 0x444547206E6F6E2068612073636F70652073756C20646F6D696E696F20646963 PUSH1 0x44 DUP3 ADD MSTORE PUSH7 0x6869617261746F PUSH1 0xC8 SHL PUSH1 0x64 DUP3 ADD MSTORE PUSH1 0x84 ADD PUSH2 0x3A2 JUMP JUMPDEST DUP2 PUSH2 0x2F0A JUMPI POP POP JUMP JUMPDEST PUSH0 DUP3 DUP2 MSTORE PUSH1 0x3 PUSH1 0x20 MSTORE PUSH1 0x40 SWAP1 KECCAK256 DUP1 SLOAD PUSH2 0x2F7C JUMPI PUSH1 0x40 MLOAD PUSH4 0xD647364F PUSH1 0xE0 SHL DUP2 MSTORE PUSH1 0x20 PUSH1 0x4 DUP3 ADD MSTORE PUSH1 0x2D PUSH1 0x24 DUP3 ADD MSTORE PUSH32 0x7265706C616365734964206E6F6E20636F72726973706F6E64652061206E6573 PUSH1 0x44 DUP3 ADD MSTORE PUSH13 0x73756E612070726F706F737461 PUSH1 0x98 SHL PUSH1 0x64 DUP3 ADD MSTORE PUSH1 0x84 ADD PUSH2 0x3A2 JUMP JUMPDEST PUSH1 0x6 DUP2 ADD SLOAD PUSH1 0xFF DUP4 DUP2 AND SWAP2 AND EQ PUSH2 0x2806 JUMPI PUSH1 0x40 MLOAD PUSH4 0xD647364F PUSH1 0xE0 SHL DUP2 MSTORE PUSH1 0x20 PUSH1 0x4 DUP3 ADD MSTORE PUSH1 0x33 PUSH1 0x24 DUP3 ADD MSTORE PUSH32 0x446F6D696E696F2064656C6C612070726F706F737461207265666572656E7A69 PUSH1 0x44 DUP3 ADD MSTORE PUSH19 0x617461206E6F6E20636F72726973706F6E6465 PUSH1 0x68 SHL PUSH1 0x64 DUP3 ADD MSTORE PUSH1 0x84 ADD PUSH2 0x3A2 JUMP JUMPDEST PUSH0 DUP1 SLOAD PUSH1 0x40 MLOAD PUSH4 0x8C3488F PUSH1 0xE3 SHL DUP2 MSTORE PUSH1 0x1 PUSH1 0x1 PUSH1 0xA0 SHL SUB SWAP1 SWAP2 AND SWAP1 PUSH4 0x461A4478 SWAP1 PUSH2 0x3022 SWAP1 DUP6 SWAP1 PUSH1 0x4 ADD PUSH2 0x428C JUMP JUMPDEST PUSH0 PUSH1 0x40 MLOAD DUP1 DUP4 SUB DUP2 DUP7 GAS STATICCALL ISZERO DUP1 ISZERO PUSH2 0x303C JUMPI RETURNDATASIZE PUSH0 PUSH0 RETURNDATACOPY RETURNDATASIZE PUSH0 REVERT JUMPDEST POP POP POP POP PUSH1 0x40 MLOAD RETURNDATASIZE PUSH0 DUP3 RETURNDATACOPY PUSH1 0x1F RETURNDATASIZE SWAP1 DUP2 ADD PUSH1 0x1F NOT AND DUP3 ADD PUSH1 0x40 MSTORE PUSH2 0x3063 SWAP2 SWAP1 DUP2 ADD SWAP1 PUSH2 0x40E1 JUMP JUMPDEST SWAP1 POP DUP3 DUP1 MLOAD SWAP1 PUSH1 0x20 ADD KECCAK256 DUP2 PUSH2 0x100 ADD MLOAD DUP1 MLOAD SWAP1 PUSH1 0x20 ADD KECCAK256 EQ PUSH2 0x2806 JUMPI PUSH1 0x40 MLOAD PUSH4 0xEB1CD1D1 PUSH1 0xE0 SHL DUP2 MSTORE PUSH1 0x20 PUSH1 0x4 DUP3 ADD MSTORE PUSH1 0x2D PUSH1 0x24 DUP3 ADD MSTORE PUSH32 0x5050206E6F6E206520696C2073757065727669736F72652064656C2044454720 PUSH1 0x44 DUP3 ADD MSTORE PUSH13 0x736F74746F6D697474656E7465 PUSH1 0x98 SHL PUSH1 0x64 DUP3 ADD MSTORE PUSH1 0x84 ADD PUSH2 0x3A2 JUMP JUMPDEST PUSH0 DUP2 DUP2 MSTORE PUSH1 0x3 PUSH1 0x20 MSTORE PUSH1 0x40 SWAP1 KECCAK256 PUSH1 0xE DUP2 ADD SLOAD ISZERO PUSH2 0x31A0 JUMPI PUSH1 0x1 SLOAD PUSH1 0x6 DUP3 ADD SLOAD PUSH1 0x40 MLOAD PUSH4 0x1F09BA75 PUSH1 0xE0 SHL DUP2 MSTORE PUSH1 0xFF SWAP1 SWAP2 AND PUSH1 0x4 DUP3 ADD MSTORE PUSH0 SWAP2 PUSH1 0x1 PUSH1 0x1 PUSH1 0xA0 SHL SUB AND SWAP1 PUSH4 0x1F09BA75 SWAP1 PUSH1 0x24 ADD PUSH1 0x20 PUSH1 0x40 MLOAD DUP1 DUP4 SUB DUP2 DUP7 GAS STATICCALL ISZERO DUP1 ISZERO PUSH2 0x3144 JUMPI RETURNDATASIZE PUSH0 PUSH0 RETURNDATACOPY RETURNDATASIZE PUSH0 REVERT JUMPDEST POP POP POP POP PUSH1 0x40 MLOAD RETURNDATASIZE PUSH1 0x1F NOT PUSH1 0x1F DUP3 ADD AND DUP3 ADD DUP1 PUSH1 0x40 MSTORE POP DUP2 ADD SWAP1 PUSH2 0x3168 SWAP2 SWAP1 PUSH2 0x3E73 JUMP JUMPDEST SWAP1 POP DUP2 PUSH1 0xE ADD SLOAD DUP2 EQ PUSH2 0x319E JUMPI PUSH1 0xE DUP3 ADD SLOAD PUSH1 0x40 MLOAD PUSH4 0x85745E1 PUSH1 0xE0 SHL DUP2 MSTORE PUSH1 0x4 DUP2 ADD SWAP2 SWAP1 SWAP2 MSTORE PUSH1 0x24 DUP2 ADD DUP3 SWAP1 MSTORE PUSH1 0x44 ADD PUSH2 0x3A2 JUMP JUMPDEST POP JUMPDEST PUSH1 0x1 SLOAD PUSH1 0x6 DUP3 ADD SLOAD PUSH1 0x40 MLOAD PUSH4 0x29E4B1D1 PUSH1 0xE1 SHL DUP2 MSTORE PUSH1 0xFF SWAP1 SWAP2 AND PUSH1 0x4 DUP3 ADD MSTORE PUSH1 0x1 PUSH1 0x1 PUSH1 0xA0 SHL SUB SWAP1 SWAP2 AND SWAP1 PUSH4 0x53C963A2 SWAP1 PUSH1 0x24 ADD PUSH1 0x20 PUSH1 0x40 MLOAD DUP1 DUP4 SUB DUP2 DUP7 GAS STATICCALL ISZERO DUP1 ISZERO PUSH2 0x31EF JUMPI RETURNDATASIZE PUSH0 PUSH0 RETURNDATACOPY RETURNDATASIZE PUSH0 REVERT JUMPDEST POP POP POP POP PUSH1 0x40 MLOAD RETURNDATASIZE PUSH1 0x1F NOT PUSH1 0x1F DUP3 ADD AND DUP3 ADD DUP1 PUSH1 0x40 MSTORE POP DUP2 ADD SWAP1 PUSH2 0x3213 SWAP2 SWAP1 PUSH2 0x3C04 JUMP JUMPDEST ISZERO DUP1 ISZERO PUSH2 0x322E JUMPI POP DUP1 PUSH1 0xF ADD DUP1 SLOAD PUSH2 0x322A SWAP1 PUSH2 0x3CBB JUMP JUMPDEST ISZERO SWAP1 POP JUMPDEST ISZERO PUSH2 0x3257 JUMPI PUSH1 0x6 DUP2 ADD SLOAD PUSH1 0x40 MLOAD PUSH4 0x1CB723DF PUSH1 0xE3 SHL DUP2 MSTORE PUSH1 0xFF SWAP1 SWAP2 AND PUSH1 0x4 DUP3 ADD MSTORE PUSH1 0x24 ADD PUSH2 0x3A2 JUMP JUMPDEST PUSH1 0x6 DUP2 ADD DUP1 SLOAD PUSH2 0x300 PUSH2 0xFF00 NOT DUP3 AND OR DUP3 SSTORE TIMESTAMP PUSH1 0xD DUP5 ADD SSTORE PUSH1 0xFF SWAP1 DUP2 AND PUSH0 SWAP1 DUP2 MSTORE PUSH1 0x5 PUSH1 0x20 MSTORE PUSH1 0x40 DUP1 DUP3 KECCAK256 DUP3 SWAP1 SSTORE PUSH1 0x1 SLOAD SWAP4 SLOAD SWAP1 MLOAD PUSH4 0xDEC00621 PUSH1 0xE0 SHL DUP2 MSTORE SWAP3 AND PUSH1 0x4 DUP4 ADD MSTORE SWAP2 PUSH1 0x1 PUSH1 0x1 PUSH1 0xA0 SHL SUB AND SWAP1 PUSH4 0xDEC00621 SWAP1 PUSH1 0x24 ADD PUSH1 0x20 PUSH1 0x40 MLOAD DUP1 DUP4 SUB DUP2 DUP7 GAS STATICCALL ISZERO DUP1 ISZERO PUSH2 0x32CC JUMPI RETURNDATASIZE PUSH0 PUSH0 RETURNDATACOPY RETURNDATASIZE PUSH0 REVERT JUMPDEST POP POP POP POP PUSH1 0x40 MLOAD RETURNDATASIZE PUSH1 0x1F NOT PUSH1 0x1F DUP3 ADD AND DUP3 ADD DUP1 PUSH1 0x40 MSTORE POP DUP2 ADD SWAP1 PUSH2 0x32F0 SWAP2 SWAP1 PUSH2 0x43E8 JUMP JUMPDEST PUSH2 0x32FB SWAP1 PUSH1 0x1 PUSH2 0x440B JUMP JUMPDEST PUSH1 0x1 SLOAD PUSH1 0x6 DUP5 ADD SLOAD PUSH1 0x40 MLOAD PUSH4 0x695C86C3 PUSH1 0xE1 SHL DUP2 MSTORE SWAP3 SWAP4 POP PUSH1 0x1 PUSH1 0x1 PUSH1 0xA0 SHL SUB SWAP1 SWAP2 AND SWAP2 PUSH4 0xD2B90D86 SWAP2 PUSH2 0x3347 SWAP2 DUP8 SWAP2 PUSH1 0x4 DUP1 DUP10 ADD SWAP3 PUSH1 0x5 DUP11 ADD SWAP3 PUSH1 0xFF AND SWAP2 DUP10 SWAP2 PUSH1 0xF DUP13 ADD SWAP2 ADD PUSH2 0x4427 JUMP JUMPDEST PUSH0 PUSH1 0x40 MLOAD DUP1 DUP4 SUB DUP2 PUSH0 DUP8 DUP1 EXTCODESIZE ISZERO DUP1 ISZERO PUSH2 0x335E JUMPI PUSH0 PUSH0 REVERT JUMPDEST POP GAS CALL ISZERO DUP1 ISZERO PUSH2 0x3370 JUMPI RETURNDATASIZE PUSH0 PUSH0 RETURNDATACOPY RETURNDATASIZE PUSH0 REVERT JUMPDEST POP POP POP POP PUSH1 0x6 DUP3 ADD SLOAD PUSH1 0x40 MLOAD DUP5 SWAP2 PUSH32 0xA2A49C80FA2C1C3806F37F08E98FDF1DA4A84E8BC5B68CFA8D997CBB99AD815C SWAP2 PUSH2 0x33B6 SWAP2 PUSH1 0xFF AND SWAP1 DUP6 SWAP1 PUSH1 0x4 DUP9 ADD SWAP1 TIMESTAMP SWAP1 PUSH2 0x4487 JUMP JUMPDEST PUSH1 0x40 MLOAD DUP1 SWAP2 SUB SWAP1 LOG2 PUSH0 PUSH1 0x8 SLOAD TIMESTAMP PUSH2 0x33CD SWAP2 SWAP1 PUSH2 0x3EA7 JUMP JUMPDEST SWAP1 POP PUSH1 0x9 SLOAD DUP2 GT ISZERO PUSH2 0x33DF JUMPI PUSH1 0x9 DUP2 SWAP1 SSTORE JUMPDEST PUSH1 0x9 SLOAD PUSH1 0x40 DUP1 MLOAD SWAP2 DUP3 MSTORE TIMESTAMP PUSH1 0x20 DUP4 ADD MSTORE DUP6 SWAP2 PUSH32 0x65138E0A3A803628DF979157E0C472927B5E1D2D2B93F90994F0FBF1FC1ABED SWAP2 ADD PUSH1 0x40 MLOAD DUP1 SWAP2 SUB SWAP1 LOG2 POP POP POP POP JUMP JUMPDEST PUSH1 0x40 MLOAD DUP1 PUSH2 0x220 ADD PUSH1 0x40 MSTORE DUP1 PUSH0 DUP2 MSTORE PUSH1 0x20 ADD PUSH1 0x60 DUP2 MSTORE PUSH1 0x20 ADD PUSH1 0x60 DUP2 MSTORE PUSH1 0x20 ADD PUSH1 0x60 DUP2 MSTORE PUSH1 0x20 ADD PUSH1 0x60 DUP2 MSTORE PUSH1 0x20 ADD PUSH1 0x60 DUP2 MSTORE PUSH1 0x20 ADD PUSH0 PUSH1 0xFF AND DUP2 MSTORE PUSH1 0x20 ADD PUSH0 PUSH1 0x4 DUP2 GT ISZERO PUSH2 0x3472 JUMPI PUSH2 0x3472 PUSH2 0x3642 JUMP JUMPDEST DUP2 MSTORE PUSH1 0x20 ADD PUSH0 DUP2 MSTORE PUSH1 0x20 ADD PUSH0 DUP2 MSTORE PUSH1 0x20 ADD PUSH0 DUP2 MSTORE PUSH1 0x20 ADD PUSH0 DUP2 MSTORE PUSH1 0x20 ADD PUSH0 DUP2 MSTORE PUSH1 0x20 ADD PUSH0 DUP2 MSTORE PUSH1 0x20 ADD PUSH0 DUP2 MSTORE PUSH1 0x20 ADD PUSH0 DUP2 MSTORE PUSH1 0x20 ADD PUSH1 0x60 DUP2 MSTORE POP SWAP1 JUMP JUMPDEST DUP1 ISZERO ISZERO DUP2 EQ PUSH2 0x34BC JUMPI PUSH0 PUSH0 REVERT JUMPDEST POP JUMP JUMPDEST PUSH0 PUSH0 PUSH1 0x40 DUP4 DUP6 SUB SLT ISZERO PUSH2 0x34D0 JUMPI PUSH0 PUSH0 REVERT JUMPDEST DUP3 CALLDATALOAD SWAP2 POP PUSH1 0x20 DUP4 ADD CALLDATALOAD PUSH2 0x34E2 DUP2 PUSH2 0x34AF JUMP JUMPDEST DUP1 SWAP2 POP POP SWAP3 POP SWAP3 SWAP1 POP JUMP JUMPDEST PUSH0 PUSH0 DUP4 PUSH1 0x1F DUP5 ADD SLT PUSH2 0x34FD JUMPI PUSH0 PUSH0 REVERT JUMPDEST POP DUP2 CALLDATALOAD PUSH1 0x1 PUSH1 0x1 PUSH1 0x40 SHL SUB DUP2 GT ISZERO PUSH2 0x3513 JUMPI PUSH0 PUSH0 REVERT JUMPDEST PUSH1 0x20 DUP4 ADD SWAP2 POP DUP4 PUSH1 0x20 DUP3 DUP6 ADD ADD GT ISZERO PUSH2 0x352A JUMPI PUSH0 PUSH0 REVERT JUMPDEST SWAP3 POP SWAP3 SWAP1 POP JUMP JUMPDEST PUSH1 0xFF DUP2 AND DUP2 EQ PUSH2 0x34BC JUMPI PUSH0 PUSH0 REVERT JUMPDEST PUSH0 PUSH0 PUSH0 PUSH0 PUSH0 PUSH0 PUSH0 PUSH0 PUSH0 PUSH1 0xC0 DUP11 DUP13 SUB SLT ISZERO PUSH2 0x3557 JUMPI PUSH0 PUSH0 REVERT JUMPDEST DUP10 CALLDATALOAD PUSH1 0x1 PUSH1 0x1 PUSH1 0x40 SHL SUB DUP2 GT ISZERO PUSH2 0x356C JUMPI PUSH0 PUSH0 REVERT JUMPDEST PUSH2 0x3578 DUP13 DUP3 DUP14 ADD PUSH2 0x34ED JUMP JUMPDEST SWAP1 SWAP11 POP SWAP9 POP POP PUSH1 0x20 DUP11 ADD CALLDATALOAD PUSH1 0x1 PUSH1 0x1 PUSH1 0x40 SHL SUB DUP2 GT ISZERO PUSH2 0x3596 JUMPI PUSH0 PUSH0 REVERT JUMPDEST PUSH2 0x35A2 DUP13 DUP3 DUP14 ADD PUSH2 0x34ED JUMP JUMPDEST SWAP1 SWAP9 POP SWAP7 POP POP PUSH1 0x40 DUP11 ADD CALLDATALOAD PUSH2 0x35B6 DUP2 PUSH2 0x3531 JUMP JUMPDEST SWAP5 POP PUSH1 0x60 DUP11 ADD CALLDATALOAD SWAP4 POP PUSH1 0x80 DUP11 ADD CALLDATALOAD PUSH1 0x1 PUSH1 0x1 PUSH1 0x40 SHL SUB DUP2 GT ISZERO PUSH2 0x35D7 JUMPI PUSH0 PUSH0 REVERT JUMPDEST PUSH2 0x35E3 DUP13 DUP3 DUP14 ADD PUSH2 0x34ED JUMP JUMPDEST SWAP11 SWAP14 SWAP10 SWAP13 POP SWAP8 SWAP11 SWAP7 SWAP10 SWAP6 SWAP9 SWAP5 SWAP8 SWAP7 PUSH1 0xA0 ADD CALLDATALOAD SWAP5 SWAP4 POP POP POP POP JUMP JUMPDEST PUSH0 PUSH1 0x20 DUP3 DUP5 SUB SLT ISZERO PUSH2 0x360D JUMPI PUSH0 PUSH0 REVERT JUMPDEST POP CALLDATALOAD SWAP2 SWAP1 POP JUMP JUMPDEST PUSH0 DUP2 MLOAD DUP1 DUP5 MSTORE DUP1 PUSH1 0x20 DUP5 ADD PUSH1 0x20 DUP7 ADD MCOPY PUSH0 PUSH1 0x20 DUP3 DUP7 ADD ADD MSTORE PUSH1 0x20 PUSH1 0x1F NOT PUSH1 0x1F DUP4 ADD AND DUP6 ADD ADD SWAP2 POP POP SWAP3 SWAP2 POP POP JUMP JUMPDEST PUSH4 0x4E487B71 PUSH1 0xE0 SHL PUSH0 MSTORE PUSH1 0x21 PUSH1 0x4 MSTORE PUSH1 0x24 PUSH0 REVERT JUMPDEST PUSH1 0x5 DUP2 LT PUSH2 0x3666 JUMPI PUSH2 0x3666 PUSH2 0x3642 JUMP JUMPDEST SWAP1 MSTORE JUMP JUMPDEST PUSH1 0x20 DUP2 MSTORE DUP2 MLOAD PUSH1 0x20 DUP3 ADD MSTORE PUSH0 PUSH1 0x20 DUP4 ADD MLOAD PUSH2 0x220 PUSH1 0x40 DUP5 ADD MSTORE PUSH2 0x3691 PUSH2 0x240 DUP5 ADD DUP3 PUSH2 0x3614 JUMP JUMPDEST SWAP1 POP PUSH1 0x40 DUP5 ADD MLOAD PUSH1 0x1F NOT DUP5 DUP4 SUB ADD PUSH1 0x60 DUP6 ADD MSTORE PUSH2 0x36AE DUP3 DUP3 PUSH2 0x3614 JUMP JUMPDEST SWAP2 POP POP PUSH1 0x60 DUP5 ADD MLOAD PUSH1 0x1F NOT DUP5 DUP4 SUB ADD PUSH1 0x80 DUP6 ADD MSTORE PUSH2 0x36CC DUP3 DUP3 PUSH2 0x3614 JUMP JUMPDEST SWAP2 POP POP PUSH1 0x80 DUP5 ADD MLOAD PUSH1 0x1F NOT DUP5 DUP4 SUB ADD PUSH1 0xA0 DUP6 ADD MSTORE PUSH2 0x36EA DUP3 DUP3 PUSH2 0x3614 JUMP JUMPDEST SWAP2 POP POP PUSH1 0xA0 DUP5 ADD MLOAD PUSH1 0x1F NOT DUP5 DUP4 SUB ADD PUSH1 0xC0 DUP6 ADD MSTORE PUSH2 0x3708 DUP3 DUP3 PUSH2 0x3614 JUMP JUMPDEST SWAP2 POP POP PUSH1 0xC0 DUP5 ADD MLOAD PUSH2 0x371F PUSH1 0xE0 DUP6 ADD DUP3 PUSH1 0xFF AND SWAP1 MSTORE JUMP JUMPDEST POP PUSH1 0xE0 DUP5 ADD MLOAD PUSH2 0x3733 PUSH2 0x100 DUP6 ADD DUP3 PUSH2 0x3656 JUMP JUMPDEST POP PUSH2 0x100 DUP5 ADD MLOAD PUSH2 0x120 DUP5 ADD MSTORE PUSH2 0x120 DUP5 ADD MLOAD PUSH2 0x140 DUP5 ADD MSTORE PUSH2 0x140 DUP5 ADD MLOAD PUSH2 0x160 DUP5 ADD MSTORE PUSH2 0x160 DUP5 ADD MLOAD PUSH2 0x180 DUP5 ADD MSTORE PUSH2 0x180 DUP5 ADD MLOAD PUSH2 0x1A0 DUP5 ADD MSTORE PUSH2 0x1A0 DUP5 ADD MLOAD PUSH2 0x1C0 DUP5 ADD MSTORE PUSH2 0x1C0 DUP5 ADD MLOAD PUSH2 0x1E0 DUP5 ADD MSTORE PUSH2 0x1E0 DUP5 ADD MLOAD PUSH2 0x200 DUP5 ADD MSTORE PUSH2 0x200 DUP5 ADD MLOAD PUSH1 0x1F NOT DUP5 DUP4 SUB ADD PUSH2 0x220 DUP6 ADD MSTORE PUSH2 0x37B1 DUP3 DUP3 PUSH2 0x3614 JUMP JUMPDEST SWAP6 SWAP5 POP POP POP POP POP JUMP JUMPDEST PUSH1 0x6 DUP2 LT PUSH2 0x34BC JUMPI PUSH0 PUSH0 REVERT JUMPDEST PUSH0 PUSH0 PUSH0 PUSH1 0x40 DUP5 DUP7 SUB SLT ISZERO PUSH2 0x37D8 JUMPI PUSH0 PUSH0 REVERT JUMPDEST DUP4 CALLDATALOAD PUSH2 0x37E3 DUP2 PUSH2 0x37BA JUMP JUMPDEST SWAP3 POP PUSH1 0x20 DUP5 ADD CALLDATALOAD PUSH1 0x1 PUSH1 0x1 PUSH1 0x40 SHL SUB DUP2 GT ISZERO PUSH2 0x37FD JUMPI PUSH0 PUSH0 REVERT JUMPDEST PUSH2 0x3809 DUP7 DUP3 DUP8 ADD PUSH2 0x34ED JUMP JUMPDEST SWAP5 SWAP8 SWAP1 SWAP7 POP SWAP4 SWAP5 POP POP POP POP JUMP JUMPDEST PUSH0 PUSH1 0x20 DUP3 DUP5 SUB SLT ISZERO PUSH2 0x3826 JUMPI PUSH0 PUSH0 REVERT JUMPDEST DUP2 CALLDATALOAD PUSH2 0x3831 DUP2 PUSH2 0x3531 JUMP JUMPDEST SWAP4 SWAP3 POP POP POP JUMP JUMPDEST PUSH0 PUSH0 PUSH0 PUSH1 0x40 DUP5 DUP7 SUB SLT ISZERO PUSH2 0x384A JUMPI PUSH0 PUSH0 REVERT JUMPDEST DUP4 CALLDATALOAD SWAP3 POP PUSH1 0x20 DUP5 ADD CALLDATALOAD PUSH1 0x1 PUSH1 0x1 PUSH1 0x40 SHL SUB DUP2 GT ISZERO PUSH2 0x37FD JUMPI PUSH0 PUSH0 REVERT JUMPDEST PUSH0 PUSH0 PUSH0 PUSH0 PUSH1 0x60 DUP6 DUP8 SUB SLT ISZERO PUSH2 0x3879 JUMPI PUSH0 PUSH0 REVERT JUMPDEST DUP5 CALLDATALOAD SWAP4 POP PUSH1 0x20 DUP6 ADD CALLDATALOAD PUSH1 0x1 PUSH1 0x1 PUSH1 0x40 SHL SUB DUP2 GT ISZERO PUSH2 0x3895 JUMPI PUSH0 PUSH0 REVERT JUMPDEST PUSH2 0x38A1 DUP8 DUP3 DUP9 ADD PUSH2 0x34ED JUMP JUMPDEST SWAP6 SWAP9 SWAP1 SWAP8 POP SWAP5 SWAP6 PUSH1 0x40 ADD CALLDATALOAD SWAP5 SWAP4 POP POP POP POP JUMP JUMPDEST PUSH1 0x1 PUSH1 0x1 PUSH1 0xA0 SHL SUB DUP2 AND DUP2 EQ PUSH2 0x34BC JUMPI PUSH0 PUSH0 REVERT JUMPDEST PUSH0 PUSH1 0x20 DUP3 DUP5 SUB SLT ISZERO PUSH2 0x38D8 JUMPI PUSH0 PUSH0 REVERT JUMPDEST DUP2 CALLDATALOAD PUSH2 0x3831 DUP2 PUSH2 0x38B4 JUMP JUMPDEST PUSH1 0x6 DUP2 LT PUSH2 0x3666 JUMPI PUSH2 0x3666 PUSH2 0x3642 JUMP JUMPDEST PUSH1 0x2 DUP2 LT PUSH2 0x3666 JUMPI PUSH2 0x3666 PUSH2 0x3642 JUMP JUMPDEST PUSH1 0x20 DUP2 MSTORE DUP2 MLOAD PUSH1 0x20 DUP3 ADD MSTORE PUSH0 PUSH1 0x20 DUP4 ADD MLOAD PUSH2 0x140 PUSH1 0x40 DUP5 ADD MSTORE PUSH2 0x392A PUSH2 0x160 DUP5 ADD DUP3 PUSH2 0x3614 JUMP JUMPDEST SWAP1 POP PUSH1 0x40 DUP5 ADD MLOAD PUSH2 0x393E PUSH1 0x60 DUP6 ADD DUP3 PUSH2 0x38E3 JUMP JUMPDEST POP PUSH1 0x60 DUP5 ADD MLOAD DUP4 DUP3 SUB PUSH1 0x1F NOT ADD PUSH1 0x80 DUP6 ADD MSTORE PUSH2 0x395A DUP3 DUP3 PUSH2 0x3614 JUMP JUMPDEST SWAP2 POP POP PUSH1 0x80 DUP5 ADD MLOAD PUSH2 0x396F PUSH1 0xA0 DUP6 ADD DUP3 PUSH2 0x38F3 JUMP JUMPDEST POP PUSH1 0xA0 DUP5 ADD MLOAD PUSH1 0xC0 DUP5 ADD MSTORE PUSH1 0xC0 DUP5 ADD MLOAD PUSH1 0xE0 DUP5 ADD MSTORE PUSH1 0xE0 DUP5 ADD MLOAD PUSH2 0x100 DUP5 ADD MSTORE PUSH2 0x100 DUP5 ADD MLOAD PUSH2 0x120 DUP5 ADD MSTORE PUSH2 0x120 DUP5 ADD MLOAD PUSH2 0x140 DUP5 ADD MSTORE DUP1 SWAP2 POP POP SWAP3 SWAP2 POP POP JUMP JUMPDEST PUSH0 PUSH0 PUSH1 0x40 DUP4 DUP6 SUB SLT ISZERO PUSH2 0x39C2 JUMPI PUSH0 PUSH0 REVERT JUMPDEST POP POP DUP1 CALLDATALOAD SWAP3 PUSH1 0x20 SWAP1 SWAP2 ADD CALLDATALOAD SWAP2 POP JUMP JUMPDEST PUSH1 0x20 DUP1 DUP3 MSTORE PUSH1 0x25 SWAP1 DUP3 ADD MSTORE PUSH32 0x536F6C6F20696C206465706C6F79657220647572616E746520696C20626F6F74 PUSH1 0x40 DUP3 ADD MSTORE PUSH5 0x737472617 PUSH1 0xDC SHL PUSH1 0x60 DUP3 ADD MSTORE PUSH1 0x80 ADD SWAP1 JUMP JUMPDEST PUSH4 0x4E487B71 PUSH1 0xE0 SHL PUSH0 MSTORE PUSH1 0x41 PUSH1 0x4 MSTORE PUSH1 0x24 PUSH0 REVERT JUMPDEST PUSH1 0x40 MLOAD PUSH2 0x140 DUP2 ADD PUSH1 0x1 PUSH1 0x1 PUSH1 0x40 SHL SUB DUP2 GT DUP3 DUP3 LT OR ISZERO PUSH2 0x3A4D JUMPI PUSH2 0x3A4D PUSH2 0x3A16 JUMP JUMPDEST PUSH1 0x40 MSTORE SWAP1 JUMP JUMPDEST PUSH1 0x40 MLOAD PUSH1 0x1F DUP3 ADD PUSH1 0x1F NOT AND DUP2 ADD PUSH1 0x1 PUSH1 0x1 PUSH1 0x40 SHL SUB DUP2 GT DUP3 DUP3 LT OR ISZERO PUSH2 0x3A7B JUMPI PUSH2 0x3A7B PUSH2 0x3A16 JUMP JUMPDEST PUSH1 0x40 MSTORE SWAP2 SWAP1 POP JUMP JUMPDEST PUSH0 DUP3 PUSH1 0x1F DUP4 ADD SLT PUSH2 0x3A92 JUMPI PUSH0 PUSH0 REVERT JUMPDEST DUP2 MLOAD PUSH1 0x20 DUP4 ADD PUSH0 PUSH0 PUSH1 0x1 PUSH1 0x1 PUSH1 0x40 SHL SUB DUP5 GT ISZERO PUSH2 0x3AB1 JUMPI PUSH2 0x3AB1 PUSH2 0x3A16 JUMP JUMPDEST POP PUSH1 0x1F DUP4 ADD PUSH1 0x1F NOT AND PUSH1 0x20 ADD PUSH2 0x3AC6 DUP2 PUSH2 0x3A53 JUMP JUMPDEST SWAP2 POP POP DUP3 DUP2 MSTORE DUP6 DUP4 DUP4 ADD GT ISZERO PUSH2 0x3ADA JUMPI PUSH0 PUSH0 REVERT JUMPDEST DUP3 DUP3 PUSH1 0x20 DUP4 ADD MCOPY PUSH0 SWAP3 DUP2 ADD PUSH1 0x20 ADD SWAP3 SWAP1 SWAP3 MSTORE POP SWAP4 SWAP3 POP POP POP JUMP JUMPDEST PUSH0 PUSH1 0x20 DUP3 DUP5 SUB SLT ISZERO PUSH2 0x3B04 JUMPI PUSH0 PUSH0 REVERT JUMPDEST DUP2 MLOAD PUSH1 0x1 PUSH1 0x1 PUSH1 0x40 SHL SUB DUP2 GT ISZERO PUSH2 0x3B19 JUMPI PUSH0 PUSH0 REVERT JUMPDEST PUSH2 0x3B25 DUP5 DUP3 DUP6 ADD PUSH2 0x3A83 JUMP JUMPDEST SWAP5 SWAP4 POP POP POP POP JUMP JUMPDEST PUSH0 DUP2 MLOAD DUP1 PUSH1 0x20 DUP5 ADD DUP6 MCOPY PUSH0 SWAP4 ADD SWAP3 DUP4 MSTORE POP SWAP1 SWAP2 SWAP1 POP JUMP JUMPDEST PUSH0 PUSH2 0x3831 DUP3 DUP5 PUSH2 0x3B2D JUMP JUMPDEST DUP3 DUP2 MSTORE PUSH1 0x40 PUSH1 0x20 DUP3 ADD MSTORE PUSH0 PUSH2 0x3B25 PUSH1 0x40 DUP4 ADD DUP5 PUSH2 0x3614 JUMP JUMPDEST PUSH4 0x4E487B71 PUSH1 0xE0 SHL PUSH0 MSTORE PUSH1 0x11 PUSH1 0x4 MSTORE PUSH1 0x24 PUSH0 REVERT JUMPDEST PUSH0 PUSH1 0x1 DUP3 ADD PUSH2 0x3B8C JUMPI PUSH2 0x3B8C PUSH2 0x3B67 JUMP JUMPDEST POP PUSH1 0x1 ADD SWAP1 JUMP JUMPDEST PUSH1 0x80 DUP2 MSTORE PUSH0 PUSH2 0x3BA5 PUSH1 0x80 DUP4 ADD DUP8 PUSH2 0x3614 JUMP JUMPDEST SWAP5 ISZERO ISZERO PUSH1 0x20 DUP4 ADD MSTORE POP PUSH1 0x40 DUP2 ADD SWAP3 SWAP1 SWAP3 MSTORE PUSH1 0x60 SWAP1 SWAP2 ADD MSTORE SWAP2 SWAP1 POP JUMP JUMPDEST DUP5 DUP2 MSTORE PUSH1 0x80 PUSH1 0x20 DUP3 ADD MSTORE PUSH0 PUSH2 0x3BD9 PUSH1 0x80 DUP4 ADD DUP7 PUSH2 0x3614 JUMP JUMPDEST PUSH1 0xFF SWAP5 DUP6 AND PUSH1 0x40 DUP5 ADD MSTORE SWAP3 SWAP1 SWAP4 AND PUSH1 0x60 SWAP1 SWAP2 ADD MSTORE SWAP4 SWAP3 POP POP POP JUMP JUMPDEST DUP1 MLOAD PUSH2 0x3BFF DUP2 PUSH2 0x34AF JUMP JUMPDEST SWAP2 SWAP1 POP JUMP JUMPDEST PUSH0 PUSH1 0x20 DUP3 DUP5 SUB SLT ISZERO PUSH2 0x3C14 JUMPI PUSH0 PUSH0 REVERT JUMPDEST DUP2 MLOAD PUSH2 0x3831 DUP2 PUSH2 0x34AF JUMP JUMPDEST PUSH1 0x20 DUP1 DUP3 MSTORE PUSH1 0x18 SWAP1 DUP3 ADD MSTORE PUSH32 0x56616C6964617A696F6E65206E6F6E2072697573636974610000000000000000 PUSH1 0x40 DUP3 ADD MSTORE PUSH1 0x60 ADD SWAP1 JUMP JUMPDEST DUP2 DUP4 MSTORE DUP2 DUP2 PUSH1 0x20 DUP6 ADD CALLDATACOPY POP PUSH0 DUP3 DUP3 ADD PUSH1 0x20 SWAP1 DUP2 ADD SWAP2 SWAP1 SWAP2 MSTORE PUSH1 0x1F SWAP1 SWAP2 ADD PUSH1 0x1F NOT AND SWAP1 SWAP2 ADD ADD SWAP1 JUMP JUMPDEST PUSH1 0x80 DUP2 MSTORE PUSH0 PUSH2 0x3C90 PUSH1 0x80 DUP4 ADD DUP9 PUSH2 0x3614 JUMP JUMPDEST DUP3 DUP2 SUB PUSH1 0x20 DUP5 ADD MSTORE PUSH2 0x3CA3 DUP2 DUP8 DUP10 PUSH2 0x3C56 JUMP JUMPDEST PUSH1 0xFF SWAP6 SWAP1 SWAP6 AND PUSH1 0x40 DUP5 ADD MSTORE POP POP PUSH1 0x60 ADD MSTORE SWAP4 SWAP3 POP POP POP JUMP JUMPDEST PUSH1 0x1 DUP2 DUP2 SHR SWAP1 DUP3 AND DUP1 PUSH2 0x3CCF JUMPI PUSH1 0x7F DUP3 AND SWAP2 POP JUMPDEST PUSH1 0x20 DUP3 LT DUP2 SUB PUSH2 0x3CED JUMPI PUSH4 0x4E487B71 PUSH1 0xE0 SHL PUSH0 MSTORE PUSH1 0x22 PUSH1 0x4 MSTORE PUSH1 0x24 PUSH0 REVERT JUMPDEST POP SWAP2 SWAP1 POP JUMP JUMPDEST PUSH1 0x1F DUP3 GT ISZERO PUSH2 0x2806 JUMPI DUP1 PUSH0 MSTORE PUSH1 0x20 PUSH0 KECCAK256 PUSH1 0x1F DUP5 ADD PUSH1 0x5 SHR DUP2 ADD PUSH1 0x20 DUP6 LT ISZERO PUSH2 0x3D18 JUMPI POP DUP1 JUMPDEST PUSH1 0x1F DUP5 ADD PUSH1 0x5 SHR DUP3 ADD SWAP2 POP JUMPDEST DUP2 DUP2 LT ISZERO PUSH2 0x3D37 JUMPI PUSH0 DUP2 SSTORE PUSH1 0x1 ADD PUSH2 0x3D24 JUMP JUMPDEST POP POP POP POP POP JUMP JUMPDEST DUP2 MLOAD PUSH1 0x1 PUSH1 0x1 PUSH1 0x40 SHL SUB DUP2 GT ISZERO PUSH2 0x3D57 JUMPI PUSH2 0x3D57 PUSH2 0x3A16 JUMP JUMPDEST PUSH2 0x3D6B DUP2 PUSH2 0x3D65 DUP5 SLOAD PUSH2 0x3CBB JUMP JUMPDEST DUP5 PUSH2 0x3CF3 JUMP JUMPDEST PUSH1 0x20 PUSH1 0x1F DUP3 GT PUSH1 0x1 DUP2 EQ PUSH2 0x3D9D JUMPI PUSH0 DUP4 ISZERO PUSH2 0x3D86 JUMPI POP DUP5 DUP3 ADD MLOAD JUMPDEST PUSH0 NOT PUSH1 0x3 DUP6 SWAP1 SHL SHR NOT AND PUSH1 0x1 DUP5 SWAP1 SHL OR DUP5 SSTORE PUSH2 0x3D37 JUMP JUMPDEST PUSH0 DUP5 DUP2 MSTORE PUSH1 0x20 DUP2 KECCAK256 PUSH1 0x1F NOT DUP6 AND SWAP2 JUMPDEST DUP3 DUP2 LT ISZERO PUSH2 0x3DCC JUMPI DUP8 DUP6 ADD MLOAD DUP3 SSTORE PUSH1 0x20 SWAP5 DUP6 ADD SWAP5 PUSH1 0x1 SWAP1 SWAP3 ADD SWAP2 ADD PUSH2 0x3DAC JUMP JUMPDEST POP DUP5 DUP3 LT ISZERO PUSH2 0x3DE9 JUMPI DUP7 DUP5 ADD MLOAD PUSH0 NOT PUSH1 0x3 DUP8 SWAP1 SHL PUSH1 0xF8 AND SHR NOT AND DUP2 SSTORE JUMPDEST POP POP POP POP PUSH1 0x1 SWAP1 DUP2 SHL ADD SWAP1 SSTORE POP JUMP JUMPDEST PUSH1 0x80 DUP2 MSTORE PUSH0 PUSH2 0x3E0A PUSH1 0x80 DUP4 ADD DUP9 PUSH2 0x3614 JUMP JUMPDEST PUSH1 0xFF DUP8 AND PUSH1 0x20 DUP5 ADD MSTORE DUP3 DUP2 SUB PUSH1 0x40 DUP5 ADD MSTORE PUSH2 0x3E26 DUP2 DUP7 DUP9 PUSH2 0x3C56 JUMP JUMPDEST SWAP2 POP POP DUP3 PUSH1 0x60 DUP4 ADD MSTORE SWAP7 SWAP6 POP POP POP POP POP POP JUMP JUMPDEST PUSH0 PUSH2 0x3E44 DUP3 DUP9 PUSH2 0x3B2D JUMP JUMPDEST PUSH1 0xF8 DUP8 SWAP1 SHL PUSH1 0x1 PUSH1 0x1 PUSH1 0xF8 SHL SUB NOT AND DUP2 MSTORE DUP5 DUP7 PUSH1 0x1 DUP4 ADD CALLDATACOPY PUSH1 0x1 SWAP5 ADD SWAP4 DUP5 ADD SWAP3 SWAP1 SWAP3 MSTORE POP POP PUSH1 0x21 ADD SWAP4 SWAP3 POP POP POP JUMP JUMPDEST PUSH0 PUSH1 0x20 DUP3 DUP5 SUB SLT ISZERO PUSH2 0x3E83 JUMPI PUSH0 PUSH0 REVERT JUMPDEST POP MLOAD SWAP2 SWAP1 POP JUMP JUMPDEST DUP1 DUP3 MUL DUP2 ISZERO DUP3 DUP3 DIV DUP5 EQ OR PUSH2 0x3EA1 JUMPI PUSH2 0x3EA1 PUSH2 0x3B67 JUMP JUMPDEST SWAP3 SWAP2 POP POP JUMP JUMPDEST DUP1 DUP3 ADD DUP1 DUP3 GT ISZERO PUSH2 0x3EA1 JUMPI PUSH2 0x3EA1 PUSH2 0x3B67 JUMP JUMPDEST PUSH0 DUP3 PUSH2 0x3ED4 JUMPI PUSH4 0x4E487B71 PUSH1 0xE0 SHL PUSH0 MSTORE PUSH1 0x12 PUSH1 0x4 MSTORE PUSH1 0x24 PUSH0 REVERT JUMPDEST POP DIV SWAP1 JUMP JUMPDEST PUSH1 0x80 DUP2 MSTORE PUSH0 PUSH2 0x3EEB PUSH1 0x80 DUP4 ADD DUP8 PUSH2 0x3614 JUMP JUMPDEST SWAP1 POP PUSH2 0x3EFA PUSH1 0x20 DUP4 ADD DUP7 PUSH2 0x38E3 JUMP JUMPDEST PUSH1 0x40 DUP3 ADD SWAP4 SWAP1 SWAP4 MSTORE PUSH1 0x60 ADD MSTORE SWAP3 SWAP2 POP POP JUMP JUMPDEST DUP2 DUP4 DUP3 CALLDATACOPY PUSH0 SWAP2 ADD SWAP1 DUP2 MSTORE SWAP2 SWAP1 POP JUMP JUMPDEST DUP4 DUP2 MSTORE PUSH1 0x60 DUP2 ADD PUSH2 0x3F2F PUSH1 0x20 DUP4 ADD DUP6 PUSH2 0x3656 JUMP JUMPDEST PUSH2 0x3B25 PUSH1 0x40 DUP4 ADD DUP5 PUSH2 0x3656 JUMP JUMPDEST PUSH1 0x60 DUP2 MSTORE PUSH0 PUSH2 0x3F4E PUSH1 0x60 DUP4 ADD DUP8 PUSH2 0x3614 JUMP JUMPDEST DUP3 DUP2 SUB PUSH1 0x20 DUP5 ADD MSTORE PUSH2 0x3F61 DUP2 DUP7 DUP9 PUSH2 0x3C56 JUMP JUMPDEST SWAP2 POP POP DUP3 PUSH1 0x40 DUP4 ADD MSTORE SWAP6 SWAP5 POP POP POP POP POP JUMP JUMPDEST PUSH1 0x20 DUP1 DUP3 MSTORE PUSH1 0x14 SWAP1 DUP3 ADD MSTORE PUSH20 0x496E646972697A7A6F206E6F6E2076616C69646F PUSH1 0x60 SHL PUSH1 0x40 DUP3 ADD MSTORE PUSH1 0x60 ADD SWAP1 JUMP JUMPDEST PUSH0 DUP2 SLOAD PUSH2 0x3FAD DUP2 PUSH2 0x3CBB JUMP JUMPDEST DUP1 DUP6 MSTORE PUSH1 0x1 DUP3 AND DUP1 ISZERO PUSH2 0x3FC7 JUMPI PUSH1 0x1 DUP2 EQ PUSH2 0x3FE3 JUMPI PUSH2 0x4017 JUMP JUMPDEST PUSH1 0xFF NOT DUP4 AND PUSH1 0x20 DUP8 ADD MSTORE PUSH1 0x20 DUP3 ISZERO ISZERO PUSH1 0x5 SHL DUP8 ADD ADD SWAP4 POP PUSH2 0x4017 JUMP JUMPDEST DUP5 PUSH0 MSTORE PUSH1 0x20 PUSH0 KECCAK256 PUSH0 JUMPDEST DUP4 DUP2 LT ISZERO PUSH2 0x400E JUMPI DUP2 SLOAD PUSH1 0x20 DUP3 DUP11 ADD ADD MSTORE PUSH1 0x1 DUP3 ADD SWAP2 POP PUSH1 0x20 DUP2 ADD SWAP1 POP PUSH2 0x3FEC JUMP JUMPDEST DUP8 ADD PUSH1 0x20 ADD SWAP5 POP POP JUMPDEST POP POP POP SWAP3 SWAP2 POP POP JUMP JUMPDEST PUSH1 0x20 DUP2 MSTORE PUSH0 PUSH2 0x3831 PUSH1 0x20 DUP4 ADD DUP5 PUSH2 0x3FA1 JUMP JUMPDEST DUP1 MLOAD PUSH2 0x3BFF DUP2 PUSH2 0x38B4 JUMP JUMPDEST DUP1 MLOAD PUSH1 0x2 DUP2 LT PUSH2 0x3BFF JUMPI PUSH0 PUSH0 REVERT JUMPDEST DUP1 MLOAD PUSH2 0x3BFF DUP2 PUSH2 0x37BA JUMP JUMPDEST PUSH0 DUP3 PUSH1 0x1F DUP4 ADD SLT PUSH2 0x4065 JUMPI PUSH0 PUSH0 REVERT JUMPDEST DUP2 MLOAD PUSH1 0x1 PUSH1 0x1 PUSH1 0x40 SHL SUB DUP2 GT ISZERO PUSH2 0x407E JUMPI PUSH2 0x407E PUSH2 0x3A16 JUMP JUMPDEST DUP1 PUSH1 0x5 SHL PUSH2 0x408E PUSH1 0x20 DUP3 ADD PUSH2 0x3A53 JUMP JUMPDEST SWAP2 DUP3 MSTORE PUSH1 0x20 DUP2 DUP6 ADD DUP2 ADD SWAP3 SWAP1 DUP2 ADD SWAP1 DUP7 DUP5 GT ISZERO PUSH2 0x40A9 JUMPI PUSH0 PUSH0 REVERT JUMPDEST PUSH1 0x20 DUP7 ADD SWAP3 POP JUMPDEST DUP4 DUP4 LT ISZERO PUSH2 0x40D7 JUMPI DUP3 MLOAD PUSH1 0x3 DUP2 LT PUSH2 0x40C6 JUMPI PUSH0 PUSH0 REVERT JUMPDEST DUP3 MSTORE PUSH1 0x20 SWAP3 DUP4 ADD SWAP3 SWAP1 SWAP2 ADD SWAP1 PUSH2 0x40B0 JUMP JUMPDEST SWAP7 SWAP6 POP POP POP POP POP POP JUMP JUMPDEST PUSH0 PUSH1 0x20 DUP3 DUP5 SUB SLT ISZERO PUSH2 0x40F1 JUMPI PUSH0 PUSH0 REVERT JUMPDEST DUP2 MLOAD PUSH1 0x1 PUSH1 0x1 PUSH1 0x40 SHL SUB DUP2 GT ISZERO PUSH2 0x4106 JUMPI PUSH0 PUSH0 REVERT JUMPDEST DUP3 ADD PUSH2 0x140 DUP2 DUP6 SUB SLT ISZERO PUSH2 0x4118 JUMPI PUSH0 PUSH0 REVERT JUMPDEST PUSH2 0x4120 PUSH2 0x3A2A JUMP JUMPDEST PUSH2 0x4129 DUP3 PUSH2 0x4032 JUMP JUMPDEST DUP2 MSTORE PUSH1 0x20 DUP3 ADD MLOAD PUSH1 0x1 PUSH1 0x1 PUSH1 0x40 SHL SUB DUP2 GT ISZERO PUSH2 0x4143 JUMPI PUSH0 PUSH0 REVERT JUMPDEST PUSH2 0x414F DUP7 DUP3 DUP6 ADD PUSH2 0x3A83 JUMP JUMPDEST PUSH1 0x20 DUP4 ADD MSTORE POP PUSH2 0x4161 PUSH1 0x40 DUP4 ADD PUSH2 0x3BF4 JUMP JUMPDEST PUSH1 0x40 DUP3 ADD MSTORE PUSH2 0x4172 PUSH1 0x60 DUP4 ADD PUSH2 0x403D JUMP JUMPDEST PUSH1 0x60 DUP3 ADD MSTORE PUSH2 0x4183 PUSH1 0x80 DUP4 ADD PUSH2 0x404B JUMP JUMPDEST PUSH1 0x80 DUP3 ADD MSTORE PUSH1 0xA0 DUP3 ADD MLOAD PUSH1 0x1 PUSH1 0x1 PUSH1 0x40 SHL SUB DUP2 GT ISZERO PUSH2 0x41A0 JUMPI PUSH0 PUSH0 REVERT JUMPDEST PUSH2 0x41AC DUP7 DUP3 DUP6 ADD PUSH2 0x4056 JUMP JUMPDEST PUSH1 0xA0 DUP4 ADD MSTORE POP PUSH1 0xC0 DUP3 DUP2 ADD MLOAD SWAP1 DUP3 ADD MSTORE PUSH1 0xE0 DUP1 DUP4 ADD MLOAD SWAP1 DUP3 ADD MSTORE PUSH2 0x100 DUP3 ADD MLOAD PUSH1 0x1 PUSH1 0x1 PUSH1 0x40 SHL SUB DUP2 GT ISZERO PUSH2 0x41DF JUMPI PUSH0 PUSH0 REVERT JUMPDEST PUSH2 0x41EB DUP7 DUP3 DUP6 ADD PUSH2 0x3A83 JUMP JUMPDEST PUSH2 0x100 DUP4 ADD MSTORE POP PUSH2 0x120 SWAP2 DUP3 ADD MLOAD SWAP2 DUP2 ADD SWAP2 SWAP1 SWAP2 MSTORE SWAP4 SWAP3 POP POP POP JUMP JUMPDEST PUSH1 0x80 DUP2 MSTORE PUSH0 PUSH2 0x4219 PUSH1 0x80 DUP4 ADD DUP8 PUSH2 0x3614 JUMP JUMPDEST PUSH1 0x20 DUP4 ADD SWAP6 SWAP1 SWAP6 MSTORE POP PUSH1 0x40 DUP2 ADD SWAP3 SWAP1 SWAP3 MSTORE PUSH1 0x60 SWAP1 SWAP2 ADD MSTORE SWAP2 SWAP1 POP JUMP JUMPDEST PUSH1 0xA0 DUP2 MSTORE PUSH0 PUSH2 0x4247 PUSH1 0xA0 DUP4 ADD DUP9 PUSH2 0x3614 JUMP JUMPDEST SWAP6 ISZERO ISZERO PUSH1 0x20 DUP4 ADD MSTORE POP PUSH1 0x40 DUP2 ADD SWAP4 SWAP1 SWAP4 MSTORE PUSH1 0x60 DUP4 ADD SWAP2 SWAP1 SWAP2 MSTORE PUSH1 0x80 SWAP1 SWAP2 ADD MSTORE SWAP2 SWAP1 POP JUMP JUMPDEST PUSH1 0x40 DUP2 MSTORE PUSH0 PUSH2 0x427D PUSH1 0x40 DUP4 ADD DUP6 PUSH2 0x3614 JUMP JUMPDEST SWAP1 POP DUP3 PUSH1 0x20 DUP4 ADD MSTORE SWAP4 SWAP3 POP POP POP JUMP JUMPDEST PUSH1 0x20 DUP2 MSTORE PUSH0 PUSH2 0x3831 PUSH1 0x20 DUP4 ADD DUP5 PUSH2 0x3614 JUMP JUMPDEST PUSH0 PUSH0 PUSH0 PUSH1 0x60 DUP5 DUP7 SUB SLT ISZERO PUSH2 0x42B0 JUMPI PUSH0 PUSH0 REVERT JUMPDEST DUP4 MLOAD PUSH1 0x1 PUSH1 0x1 PUSH1 0x40 SHL SUB DUP2 GT ISZERO PUSH2 0x42C5 JUMPI PUSH0 PUSH0 REVERT JUMPDEST PUSH2 0x42D1 DUP7 DUP3 DUP8 ADD PUSH2 0x3A83 JUMP JUMPDEST SWAP4 POP POP PUSH1 0x20 DUP5 ADD MLOAD PUSH1 0x1 PUSH1 0x1 PUSH1 0x40 SHL SUB DUP2 GT ISZERO PUSH2 0x42EC JUMPI PUSH0 PUSH0 REVERT JUMPDEST PUSH2 0x42F8 DUP7 DUP3 DUP8 ADD PUSH2 0x3A83 JUMP JUMPDEST SWAP3 POP POP PUSH1 0x40 DUP5 ADD MLOAD PUSH2 0x4309 DUP2 PUSH2 0x38B4 JUMP JUMPDEST DUP1 SWAP2 POP POP SWAP3 POP SWAP3 POP SWAP3 JUMP JUMPDEST PUSH1 0x60 DUP2 MSTORE PUSH0 PUSH2 0x4326 PUSH1 0x60 DUP4 ADD DUP7 PUSH2 0x3614 JUMP JUMPDEST DUP3 DUP2 SUB PUSH1 0x20 DUP5 ADD MSTORE PUSH2 0x4338 DUP2 DUP7 PUSH2 0x3614 JUMP JUMPDEST SWAP2 POP POP PUSH1 0x1 DUP1 PUSH1 0xA0 SHL SUB DUP4 AND PUSH1 0x40 DUP4 ADD MSTORE SWAP5 SWAP4 POP POP POP POP JUMP JUMPDEST PUSH0 PUSH0 PUSH1 0x40 DUP4 DUP6 SUB SLT ISZERO PUSH2 0x4362 JUMPI PUSH0 PUSH0 REVERT JUMPDEST DUP3 MLOAD PUSH2 0x436D DUP2 PUSH2 0x3531 JUMP JUMPDEST PUSH1 0x20 DUP5 ADD MLOAD SWAP1 SWAP3 POP PUSH1 0x1 PUSH1 0x1 PUSH1 0x40 SHL SUB DUP2 GT ISZERO PUSH2 0x4388 JUMPI PUSH0 PUSH0 REVERT JUMPDEST PUSH2 0x4394 DUP6 DUP3 DUP7 ADD PUSH2 0x3A83 JUMP JUMPDEST SWAP2 POP POP SWAP3 POP SWAP3 SWAP1 POP JUMP JUMPDEST PUSH1 0xFF DUP4 AND DUP2 MSTORE PUSH1 0x40 PUSH1 0x20 DUP3 ADD MSTORE PUSH0 PUSH2 0x3B25 PUSH1 0x40 DUP4 ADD DUP5 PUSH2 0x3614 JUMP JUMPDEST PUSH1 0x40 DUP2 ADD PUSH2 0x43C7 DUP3 DUP6 PUSH2 0x38E3 JUMP JUMPDEST DUP3 PUSH1 0x20 DUP4 ADD MSTORE SWAP4 SWAP3 POP POP POP JUMP JUMPDEST PUSH4 0x4E487B71 PUSH1 0xE0 SHL PUSH0 MSTORE PUSH1 0x32 PUSH1 0x4 MSTORE PUSH1 0x24 PUSH0 REVERT JUMPDEST PUSH0 PUSH1 0x20 DUP3 DUP5 SUB SLT ISZERO PUSH2 0x43F8 JUMPI PUSH0 PUSH0 REVERT JUMPDEST DUP2 MLOAD PUSH4 0xFFFFFFFF DUP2 AND DUP2 EQ PUSH2 0x3831 JUMPI PUSH0 PUSH0 REVERT JUMPDEST PUSH4 0xFFFFFFFF DUP2 DUP2 AND DUP4 DUP3 AND ADD SWAP1 DUP2 GT ISZERO PUSH2 0x3EA1 JUMPI PUSH2 0x3EA1 PUSH2 0x3B67 JUMP JUMPDEST DUP7 DUP2 MSTORE PUSH1 0xC0 PUSH1 0x20 DUP3 ADD MSTORE PUSH0 PUSH2 0x443F PUSH1 0xC0 DUP4 ADD DUP9 PUSH2 0x3FA1 JUMP JUMPDEST DUP3 DUP2 SUB PUSH1 0x40 DUP5 ADD MSTORE PUSH2 0x4451 DUP2 DUP9 PUSH2 0x3FA1 JUMP JUMPDEST SWAP1 POP PUSH1 0xFF DUP7 AND PUSH1 0x60 DUP5 ADD MSTORE PUSH4 0xFFFFFFFF DUP6 AND PUSH1 0x80 DUP5 ADD MSTORE DUP3 DUP2 SUB PUSH1 0xA0 DUP5 ADD MSTORE PUSH2 0x447A DUP2 DUP6 PUSH2 0x3FA1 JUMP JUMPDEST SWAP10 SWAP9 POP POP POP POP POP POP POP POP POP JUMP JUMPDEST PUSH1 0xFF DUP6 AND DUP2 MSTORE PUSH4 0xFFFFFFFF DUP5 AND PUSH1 0x20 DUP3 ADD MSTORE PUSH1 0x80 PUSH1 0x40 DUP3 ADD MSTORE PUSH0 PUSH2 0x44AE PUSH1 0x80 DUP4 ADD DUP6 PUSH2 0x3FA1 JUMP JUMPDEST SWAP1 POP DUP3 PUSH1 0x60 DUP4 ADD MSTORE SWAP6 SWAP5 POP POP POP POP POP JUMP INVALID LOG2 PUSH5 0x6970667358 0x22 SLT KECCAK256 STOP 0xA7 KECCAK256 SIGNEXTEND 0x26 PUSH4 0x56C99261 LOG2 0x2A CHAINID 0xAE PUSH32 0xE9B309C7A8605B4F7AF6F8C9540DA2A82764736F6C634300081C003300000000 "},"methodIdentifiers":{"auditWindowDuration()":"f9a1a28b","auditWindowEnd()":"c83ba2af","endorseProposal(bytes32)":"926851af","finalizeBootstrap()":"06c7e131","forwardProposal(bytes32,bytes32)":"bfb0f5bd","getCVC()":"d637ee4d","getEndorsedProposalByDomain(uint8)":"6937be18","getGovernanceAction(bytes32)":"96e62d45","getIdentityRegistry()":"bc4d861b","getPolicyRegistry()":"c5d8f7a3","getProposal(bytes32)":"430694cf","hasVotedAction(bytes32,string)":"72295e24","hasVotedProposal(bytes32,string)":"f3e88b24","isAuditWindowOpen()":"9782132b","isBootstrapComplete()":"1d2626f7","proposeGovernanceAction(uint8,bytes)":"49e37991","rejectProposal(bytes32,string,bytes32)":"7f95bc16","setAuditWindowDuration(uint256)":"7e3b7212","setCVC(address)":"8ec70ef4","setIdentityRegistry(address)":"cbf3f861","setPolicyRegistry(address)":"e015c85d","submitProposal(string,string,uint8,bytes32,string,bytes32)":"29179f26","voteGovernanceAction(bytes32,bool)":"0f5c328c","voteProposal(bytes32,bool)":"a4c4d922"}}}}}