{
  "_format": "hh3-artifact-1",
  "contractName": "GovernanceContract",
  "sourceName": "contracts/GovernanceContract.sol",
  "abi": [
    {
      "inputs": [],
      "stateMutability": "nonpayable",
      "type": "constructor"
    },
    {
      "inputs": [
        {
          "internalType": "bytes32",
          "name": "actionId",
          "type": "bytes32"
        }
      ],
      "name": "ActionNotFound",
      "type": "error"
    },
    {
      "inputs": [
        {
          "internalType": "bytes32",
          "name": "actionId",
          "type": "bytes32"
        }
      ],
      "name": "ActionNotPending",
      "type": "error"
    },
    {
      "inputs": [
        {
          "internalType": "bytes32",
          "name": "id",
          "type": "bytes32"
        },
        {
          "internalType": "string",
          "name": "voterDID",
          "type": "string"
        }
      ],
      "name": "AlreadyVoted",
      "type": "error"
    },
    {
      "inputs": [],
      "name": "BootstrapAlreadyComplete",
      "type": "error"
    },
    {
      "inputs": [],
      "name": "BootstrapNotComplete",
      "type": "error"
    },
    {
      "inputs": [
        {
          "internalType": "uint8",
          "name": "domain",
          "type": "uint8"
        },
        {
          "internalType": "bytes32",
          "name": "activeProposalId",
          "type": "bytes32"
        }
      ],
      "name": "DomainAlreadyEndorsed",
      "type": "error"
    },
    {
      "inputs": [
        {
          "internalType": "string",
          "name": "reason",
          "type": "string"
        }
      ],
      "name": "InvalidInput",
      "type": "error"
    },
    {
      "inputs": [
        {
          "internalType": "bytes32",
          "name": "proposalId",
          "type": "bytes32"
        },
        {
          "internalType": "enum GovernanceContract.ProposalStatus",
          "name": "current",
          "type": "uint8"
        },
        {
          "internalType": "enum GovernanceContract.ProposalStatus",
          "name": "expected",
          "type": "uint8"
        }
      ],
      "name": "InvalidProposalStatus",
      "type": "error"
    },
    {
      "inputs": [
        {
          "internalType": "string",
          "name": "reason",
          "type": "string"
        }
      ],
      "name": "NotAuthorized",
      "type": "error"
    },
    {
      "inputs": [
        {
          "internalType": "bytes32",
          "name": "proposalId",
          "type": "bytes32"
        }
      ],
      "name": "ProposalNotFound",
      "type": "error"
    },
    {
      "inputs": [
        {
          "internalType": "bytes32",
          "name": "replacesId",
          "type": "bytes32"
        },
        {
          "internalType": "bytes32",
          "name": "activePolicy",
          "type": "bytes32"
        }
      ],
      "name": "ReplacesIdMismatch",
      "type": "error"
    },
    {
      "inputs": [
        {
          "internalType": "uint8",
          "name": "domain",
          "type": "uint8"
        }
      ],
      "name": "SafeDefaultRequired",
      "type": "error"
    },
    {
      "anonymous": false,
      "inputs": [
        {
          "indexed": true,
          "internalType": "bytes32",
          "name": "proposalId",
          "type": "bytes32"
        },
        {
          "indexed": false,
          "internalType": "uint256",
          "name": "endsAt",
          "type": "uint256"
        },
        {
          "indexed": false,
          "internalType": "uint256",
          "name": "timestamp",
          "type": "uint256"
        }
      ],
      "name": "AuditWindowOpened",
      "type": "event"
    },
    {
      "anonymous": false,
      "inputs": [
        {
          "indexed": true,
          "internalType": "address",
          "name": "deployer",
          "type": "address"
        },
        {
          "indexed": false,
          "internalType": "uint256",
          "name": "timestamp",
          "type": "uint256"
        }
      ],
      "name": "BootstrapFinalized",
      "type": "event"
    },
    {
      "anonymous": false,
      "inputs": [
        {
          "indexed": true,
          "internalType": "address",
          "name": "cvc",
          "type": "address"
        },
        {
          "indexed": false,
          "internalType": "uint256",
          "name": "timestamp",
          "type": "uint256"
        }
      ],
      "name": "CVCSet",
      "type": "event"
    },
    {
      "anonymous": false,
      "inputs": [
        {
          "indexed": true,
          "internalType": "bytes32",
          "name": "actionId",
          "type": "bytes32"
        },
        {
          "indexed": false,
          "internalType": "enum GovernanceContract.GovernanceActionType",
          "name": "actionType",
          "type": "uint8"
        },
        {
          "indexed": false,
          "internalType": "uint256",
          "name": "timestamp",
          "type": "uint256"
        }
      ],
      "name": "GovernanceActionExecuted",
      "type": "event"
    },
    {
      "anonymous": false,
      "inputs": [
        {
          "indexed": true,
          "internalType": "bytes32",
          "name": "actionId",
          "type": "bytes32"
        },
        {
          "indexed": false,
          "internalType": "string",
          "name": "proposerDID",
          "type": "string"
        },
        {
          "indexed": false,
          "internalType": "enum GovernanceContract.GovernanceActionType",
          "name": "actionType",
          "type": "uint8"
        },
        {
          "indexed": false,
          "internalType": "uint256",
          "name": "quorumSnapshot",
          "type": "uint256"
        },
        {
          "indexed": false,
          "internalType": "uint256",
          "name": "timestamp",
          "type": "uint256"
        }
      ],
      "name": "GovernanceActionProposed",
      "type": "event"
    },
    {
      "anonymous": false,
      "inputs": [
        {
          "indexed": true,
          "internalType": "bytes32",
          "name": "actionId",
          "type": "bytes32"
        },
        {
          "indexed": false,
          "internalType": "string",
          "name": "voterDID",
          "type": "string"
        },
        {
          "indexed": false,
          "internalType": "bool",
          "name": "support",
          "type": "bool"
        },
        {
          "indexed": false,
          "internalType": "uint256",
          "name": "votesFor",
          "type": "uint256"
        },
        {
          "indexed": false,
          "internalType": "uint256",
          "name": "timestamp",
          "type": "uint256"
        }
      ],
      "name": "GovernanceActionVoteCast",
      "type": "event"
    },
    {
      "anonymous": false,
      "inputs": [
        {
          "indexed": true,
          "internalType": "address",
          "name": "registry",
          "type": "address"
        },
        {
          "indexed": false,
          "internalType": "uint256",
          "name": "timestamp",
          "type": "uint256"
        }
      ],
      "name": "IdentityRegistrySet",
      "type": "event"
    },
    {
      "anonymous": false,
      "inputs": [
        {
          "indexed": true,
          "internalType": "bytes32",
          "name": "proposalId",
          "type": "bytes32"
        },
        {
          "indexed": false,
          "internalType": "uint8",
          "name": "domain",
          "type": "uint8"
        },
        {
          "indexed": false,
          "internalType": "uint32",
          "name": "version",
          "type": "uint32"
        },
        {
          "indexed": false,
          "internalType": "string",
          "name": "cid",
          "type": "string"
        },
        {
          "indexed": false,
          "internalType": "uint256",
          "name": "timestamp",
          "type": "uint256"
        }
      ],
      "name": "PolicyCertified",
      "type": "event"
    },
    {
      "anonymous": false,
      "inputs": [
        {
          "indexed": true,
          "internalType": "address",
          "name": "registry",
          "type": "address"
        },
        {
          "indexed": false,
          "internalType": "uint256",
          "name": "timestamp",
          "type": "uint256"
        }
      ],
      "name": "PolicyRegistrySet",
      "type": "event"
    },
    {
      "anonymous": false,
      "inputs": [
        {
          "indexed": true,
          "internalType": "bytes32",
          "name": "proposalId",
          "type": "bytes32"
        },
        {
          "indexed": false,
          "internalType": "string",
          "name": "endorserDID",
          "type": "string"
        },
        {
          "indexed": false,
          "internalType": "uint256",
          "name": "quorumSnapshot",
          "type": "uint256"
        },
        {
          "indexed": false,
          "internalType": "uint256",
          "name": "quorumRequired",
          "type": "uint256"
        },
        {
          "indexed": false,
          "internalType": "uint256",
          "name": "timestamp",
          "type": "uint256"
        }
      ],
      "name": "ProposalEndorsed",
      "type": "event"
    },
    {
      "anonymous": false,
      "inputs": [
        {
          "indexed": true,
          "internalType": "bytes32",
          "name": "proposalId",
          "type": "bytes32"
        },
        {
          "indexed": false,
          "internalType": "string",
          "name": "ppDID",
          "type": "string"
        },
        {
          "indexed": false,
          "internalType": "uint256",
          "name": "timestamp",
          "type": "uint256"
        }
      ],
      "name": "ProposalForwarded",
      "type": "event"
    },
    {
      "anonymous": false,
      "inputs": [
        {
          "indexed": true,
          "internalType": "bytes32",
          "name": "proposalId",
          "type": "bytes32"
        },
        {
          "indexed": false,
          "internalType": "string",
          "name": "ppDID",
          "type": "string"
        },
        {
          "indexed": false,
          "internalType": "string",
          "name": "reason",
          "type": "string"
        },
        {
          "indexed": false,
          "internalType": "uint256",
          "name": "timestamp",
          "type": "uint256"
        }
      ],
      "name": "ProposalRejected",
      "type": "event"
    },
    {
      "anonymous": false,
      "inputs": [
        {
          "indexed": true,
          "internalType": "bytes32",
          "name": "proposalId",
          "type": "bytes32"
        },
        {
          "indexed": false,
          "internalType": "string",
          "name": "submitterDID",
          "type": "string"
        },
        {
          "indexed": false,
          "internalType": "uint8",
          "name": "domain",
          "type": "uint8"
        },
        {
          "indexed": false,
          "internalType": "string",
          "name": "cid",
          "type": "string"
        },
        {
          "indexed": false,
          "internalType": "uint256",
          "name": "timestamp",
          "type": "uint256"
        }
      ],
      "name": "ProposalSubmitted",
      "type": "event"
    },
    {
      "anonymous": false,
      "inputs": [
        {
          "indexed": true,
          "internalType": "bytes32",
          "name": "proposalId",
          "type": "bytes32"
        },
        {
          "indexed": false,
          "internalType": "string",
          "name": "voterDID",
          "type": "string"
        },
        {
          "indexed": false,
          "internalType": "bool",
          "name": "support",
          "type": "bool"
        },
        {
          "indexed": false,
          "internalType": "uint256",
          "name": "votesFor",
          "type": "uint256"
        },
        {
          "indexed": false,
          "internalType": "uint256",
          "name": "quorumRequired",
          "type": "uint256"
        },
        {
          "indexed": false,
          "internalType": "uint256",
          "name": "timestamp",
          "type": "uint256"
        }
      ],
      "name": "VoteCast",
      "type": "event"
    },
    {
      "inputs": [],
      "name": "auditWindowDuration",
      "outputs": [
        {
          "internalType": "uint256",
          "name": "",
          "type": "uint256"
        }
      ],
      "stateMutability": "view",
      "type": "function"
    },
    {
      "inputs": [],
      "name": "auditWindowEnd",
      "outputs": [
        {
          "internalType": "uint256",
          "name": "",
          "type": "uint256"
        }
      ],
      "stateMutability": "view",
      "type": "function"
    },
    {
      "inputs": [
        {
          "internalType": "bytes32",
          "name": "proposalId",
          "type": "bytes32"
        }
      ],
      "name": "endorseProposal",
      "outputs": [],
      "stateMutability": "nonpayable",
      "type": "function"
    },
    {
      "inputs": [],
      "name": "finalizeBootstrap",
      "outputs": [],
      "stateMutability": "nonpayable",
      "type": "function"
    },
    {
      "inputs": [
        {
          "internalType": "bytes32",
          "name": "proposalId",
          "type": "bytes32"
        },
        {
          "internalType": "bytes32",
          "name": "validationId",
          "type": "bytes32"
        }
      ],
      "name": "forwardProposal",
      "outputs": [],
      "stateMutability": "nonpayable",
      "type": "function"
    },
    {
      "inputs": [],
      "name": "getCVC",
      "outputs": [
        {
          "internalType": "address",
          "name": "",
          "type": "address"
        }
      ],
      "stateMutability": "view",
      "type": "function"
    },
    {
      "inputs": [
        {
          "internalType": "uint8",
          "name": "domain",
          "type": "uint8"
        }
      ],
      "name": "getEndorsedProposalByDomain",
      "outputs": [
        {
          "internalType": "bytes32",
          "name": "",
          "type": "bytes32"
        }
      ],
      "stateMutability": "view",
      "type": "function"
    },
    {
      "inputs": [
        {
          "internalType": "bytes32",
          "name": "actionId",
          "type": "bytes32"
        }
      ],
      "name": "getGovernanceAction",
      "outputs": [
        {
          "components": [
            {
              "internalType": "bytes32",
              "name": "actionId",
              "type": "bytes32"
            },
            {
              "internalType": "string",
              "name": "proposerDID",
              "type": "string"
            },
            {
              "internalType": "enum GovernanceContract.GovernanceActionType",
              "name": "actionType",
              "type": "uint8"
            },
            {
              "internalType": "bytes",
              "name": "payload",
              "type": "bytes"
            },
            {
              "internalType": "enum GovernanceContract.GovernanceActionStatus",
              "name": "status",
              "type": "uint8"
            },
            {
              "internalType": "uint256",
              "name": "quorumSnapshot",
              "type": "uint256"
            },
            {
              "internalType": "uint256",
              "name": "quorumRequired",
              "type": "uint256"
            },
            {
              "internalType": "uint256",
              "name": "votesFor",
              "type": "uint256"
            },
            {
              "internalType": "uint256",
              "name": "createdAt",
              "type": "uint256"
            },
            {
              "internalType": "uint256",
              "name": "executedAt",
              "type": "uint256"
            }
          ],
          "internalType": "struct GovernanceContract.GovernanceAction",
          "name": "",
          "type": "tuple"
        }
      ],
      "stateMutability": "view",
      "type": "function"
    },
    {
      "inputs": [],
      "name": "getIdentityRegistry",
      "outputs": [
        {
          "internalType": "address",
          "name": "",
          "type": "address"
        }
      ],
      "stateMutability": "view",
      "type": "function"
    },
    {
      "inputs": [],
      "name": "getPolicyRegistry",
      "outputs": [
        {
          "internalType": "address",
          "name": "",
          "type": "address"
        }
      ],
      "stateMutability": "view",
      "type": "function"
    },
    {
      "inputs": [
        {
          "internalType": "bytes32",
          "name": "proposalId",
          "type": "bytes32"
        }
      ],
      "name": "getProposal",
      "outputs": [
        {
          "components": [
            {
              "internalType": "bytes32",
              "name": "proposalId",
              "type": "bytes32"
            },
            {
              "internalType": "string",
              "name": "submitterDID",
              "type": "string"
            },
            {
              "internalType": "string",
              "name": "ppDID",
              "type": "string"
            },
            {
              "internalType": "string",
              "name": "endorserDID",
              "type": "string"
            },
            {
              "internalType": "string",
              "name": "cid",
              "type": "string"
            },
            {
              "internalType": "string",
              "name": "cidKeyDistrib",
              "type": "string"
            },
            {
              "internalType": "uint8",
              "name": "domain",
              "type": "uint8"
            },
            {
              "internalType": "enum GovernanceContract.ProposalStatus",
              "name": "status",
              "type": "uint8"
            },
            {
              "internalType": "uint256",
              "name": "quorumSnapshot",
              "type": "uint256"
            },
            {
              "internalType": "uint256",
              "name": "quorumRequired",
              "type": "uint256"
            },
            {
              "internalType": "uint256",
              "name": "votesFor",
              "type": "uint256"
            },
            {
              "internalType": "uint256",
              "name": "submittedAt",
              "type": "uint256"
            },
            {
              "internalType": "uint256",
              "name": "forwardedAt",
              "type": "uint256"
            },
            {
              "internalType": "uint256",
              "name": "endorsedAt",
              "type": "uint256"
            },
            {
              "internalType": "uint256",
              "name": "certifiedAt",
              "type": "uint256"
            },
            {
              "internalType": "bytes32",
              "name": "replacesId",
              "type": "bytes32"
            },
            {
              "internalType": "string",
              "name": "safeDefaultCid",
              "type": "string"
            }
          ],
          "internalType": "struct GovernanceContract.PolicyProposal",
          "name": "",
          "type": "tuple"
        }
      ],
      "stateMutability": "view",
      "type": "function"
    },
    {
      "inputs": [
        {
          "internalType": "bytes32",
          "name": "actionId",
          "type": "bytes32"
        },
        {
          "internalType": "string",
          "name": "paDID",
          "type": "string"
        }
      ],
      "name": "hasVotedAction",
      "outputs": [
        {
          "internalType": "bool",
          "name": "",
          "type": "bool"
        }
      ],
      "stateMutability": "view",
      "type": "function"
    },
    {
      "inputs": [
        {
          "internalType": "bytes32",
          "name": "proposalId",
          "type": "bytes32"
        },
        {
          "internalType": "string",
          "name": "paDID",
          "type": "string"
        }
      ],
      "name": "hasVotedProposal",
      "outputs": [
        {
          "internalType": "bool",
          "name": "",
          "type": "bool"
        }
      ],
      "stateMutability": "view",
      "type": "function"
    },
    {
      "inputs": [],
      "name": "isAuditWindowOpen",
      "outputs": [
        {
          "internalType": "bool",
          "name": "",
          "type": "bool"
        }
      ],
      "stateMutability": "view",
      "type": "function"
    },
    {
      "inputs": [],
      "name": "isBootstrapComplete",
      "outputs": [
        {
          "internalType": "bool",
          "name": "",
          "type": "bool"
        }
      ],
      "stateMutability": "view",
      "type": "function"
    },
    {
      "inputs": [
        {
          "internalType": "enum GovernanceContract.GovernanceActionType",
          "name": "actionType",
          "type": "uint8"
        },
        {
          "internalType": "bytes",
          "name": "payload",
          "type": "bytes"
        }
      ],
      "name": "proposeGovernanceAction",
      "outputs": [],
      "stateMutability": "nonpayable",
      "type": "function"
    },
    {
      "inputs": [
        {
          "internalType": "bytes32",
          "name": "proposalId",
          "type": "bytes32"
        },
        {
          "internalType": "string",
          "name": "reason",
          "type": "string"
        },
        {
          "internalType": "bytes32",
          "name": "validationId",
          "type": "bytes32"
        }
      ],
      "name": "rejectProposal",
      "outputs": [],
      "stateMutability": "nonpayable",
      "type": "function"
    },
    {
      "inputs": [
        {
          "internalType": "uint256",
          "name": "durationSeconds",
          "type": "uint256"
        }
      ],
      "name": "setAuditWindowDuration",
      "outputs": [],
      "stateMutability": "nonpayable",
      "type": "function"
    },
    {
      "inputs": [
        {
          "internalType": "address",
          "name": "cvc",
          "type": "address"
        }
      ],
      "name": "setCVC",
      "outputs": [],
      "stateMutability": "nonpayable",
      "type": "function"
    },
    {
      "inputs": [
        {
          "internalType": "address",
          "name": "registry",
          "type": "address"
        }
      ],
      "name": "setIdentityRegistry",
      "outputs": [],
      "stateMutability": "nonpayable",
      "type": "function"
    },
    {
      "inputs": [
        {
          "internalType": "address",
          "name": "registry",
          "type": "address"
        }
      ],
      "name": "setPolicyRegistry",
      "outputs": [],
      "stateMutability": "nonpayable",
      "type": "function"
    },
    {
      "inputs": [
        {
          "internalType": "string",
          "name": "cid",
          "type": "string"
        },
        {
          "internalType": "string",
          "name": "cidKeyDistrib",
          "type": "string"
        },
        {
          "internalType": "uint8",
          "name": "domain",
          "type": "uint8"
        },
        {
          "internalType": "bytes32",
          "name": "replacesId",
          "type": "bytes32"
        },
        {
          "internalType": "string",
          "name": "safeDefaultCid",
          "type": "string"
        },
        {
          "internalType": "bytes32",
          "name": "validationId",
          "type": "bytes32"
        }
      ],
      "name": "submitProposal",
      "outputs": [],
      "stateMutability": "nonpayable",
      "type": "function"
    },
    {
      "inputs": [
        {
          "internalType": "bytes32",
          "name": "actionId",
          "type": "bytes32"
        },
        {
          "internalType": "bool",
          "name": "support",
          "type": "bool"
        }
      ],
      "name": "voteGovernanceAction",
      "outputs": [],
      "stateMutability": "nonpayable",
      "type": "function"
    },
    {
      "inputs": [
        {
          "internalType": "bytes32",
          "name": "proposalId",
          "type": "bytes32"
        },
        {
          "internalType": "bool",
          "name": "support",
          "type": "bool"
        }
      ],
      "name": "voteProposal",
      "outputs": [],
      "stateMutability": "nonpayable",
      "type": "function"
    }
  ],
  "bytecode": "0x6080604052348015600e575f5ffd5b50600a80546001600160a01b031916331790556144f58061002e5f395ff3fe608060405234801561000f575f5ffd5b5060043610610153575f3560e01c806396e62d45116100bf578063c83ba2af11610079578063c83ba2af146102f2578063cbf3f861146102fa578063d637ee4d1461030d578063e015c85d1461031e578063f3e88b2414610331578063f9a1a28b14610344575f5ffd5b806396e62d451461026c5780639782132b1461028c578063a4c4d92214610297578063bc4d861b146102aa578063bfb0f5bd146102ce578063c5d8f7a3146102e1575f5ffd5b80636937be18116101105780636937be18146101dd57806372295e241461020d5780637e3b7212146102205780637f95bc16146102335780638ec70ef414610246578063926851af14610259575f5ffd5b806306c7e131146101575780630f5c328c146101615780631d2626f71461017457806329179f2614610197578063430694cf146101aa57806349e37991146101ca575b5f5ffd5b61015f61034c565b005b61015f61016f3660046134bf565b61055d565b600a54600160a01b900460ff165b60405190151581526020015b60405180910390f35b61015f6101a536600461353f565b61077a565b6101bd6101b83660046135fd565b610cd3565b60405161018e919061366a565b61015f6101d83660046137c6565b611127565b6101ff6101eb366004613816565b60ff165f9081526005602052604090205490565b60405190815260200161018e565b61018261021b366004613838565b6114c8565b61015f61022e3660046135fd565b611501565b61015f610241366004613866565b6115a0565b61015f6102543660046138c8565b6118b6565b61015f6102673660046135fd565b611988565b61027f61027a3660046135fd565b611d87565b60405161018e9190613903565b600954421115610182565b61015f6102a53660046134bf565b611fe8565b5f546001600160a01b03165b6040516001600160a01b03909116815260200161018e565b61015f6102dc3660046139b1565b612220565b6001546001600160a01b03166102b6565b6009546101ff565b61015f6103083660046138c8565b612449565b6002546001600160a01b03166102b6565b61015f61032c3660046138c8565b612513565b61018261033f366004613838565b6125de565b6008546101ff565b600a54600160a01b900460ff1615610377576040516351e5a70160e11b815260040160405180910390fd5b600a546001600160a01b031633146103ab5760405163eb1cd1d160e01b81526004016103a2906139d1565b60405180910390fd5b5f546001600160a01b03166104035760405163d647364f60e01b815260206004820152601e60248201527f4964656e746974795265676973747279206e6f6e20696d706f737461746f000060448201526064016103a2565b6001546001600160a01b031661045c5760405163d647364f60e01b815260206004820152601c60248201527f506f6c6963795265676973747279206e6f6e20696d706f737461746f0000000060448201526064016103a2565b6002546001600160a01b03166104a95760405163d647364f60e01b8152602060048201526011602482015270435643206e6f6e20696d706f737461746f60781b60448201526064016103a2565b6008545f036105075760405163d647364f60e01b815260206004820152602360248201527f4475726174612061756469742077696e646f77206e6f6e20636f6e666967757260448201526261746160e81b60648201526084016103a2565b600a8054600160a01b60ff60a01b198216179091556040514281526001600160a01b03909116907f9801a6b1e8682e27f2f663cc8c1cbbd14d87e5533cfc932338d8b4dd458bf5b29060200160405180910390a2565b600a54600160a01b900460ff16610587576040516359de1bb360e01b815260040160405180910390fd5b6105905f6125fb565b5f82815260066020526040902080546105bf5760405163a947a72f60e01b8152600481018490526024016103a2565b5f600482015460ff1660018111156105d9576105d9613642565b146105fa5760405163f4624c3d60e01b8152600481018490526024016103a2565b5f80546040516395f9250d60e01b81523360048201526001600160a01b03909116906395f9250d906024015f60405180830381865afa15801561063f573d5f5f3e3d5ffd5b505050506040513d5f823e601f3d908101601f191682016040526106669190810190613af4565b905060075f8581526020019081526020015f20816040516106879190613b44565b9081526040519081900360200190205460ff16156106bc57838160405163994c873360e01b81526004016103a2929190613b4f565b600160075f8681526020019081526020015f20826040516106dd9190613b44565b908152604051908190036020019020805491151560ff19909216919091179055821561071a57600782018054905f61071483613b7b565b91905055505b837f9f1a512c084c56645ea27a157e11b97665629483899be7b9841aefb61e368b7882858560070154426040516107549493929190613b93565b60405180910390a28160060154826007015410610774576107748461280b565b50505050565b600a54600160a01b900460ff166107a4576040516359de1bb360e01b815260040160405180910390fd5b5f8890036107e65760405163d647364f60e01b815260206004820152600e60248201526d434944206e6f6e2076616c69646f60901b60448201526064016103a2565b5f8690036108375760405163d647364f60e01b815260206004820152601f60248201527f434944206b657920646973747269627574696f6e206e6f6e2076616c69646f0060448201526064016103a2565b60028560ff1611156108815760405163d647364f60e01b8152602060048201526012602482015271446f6d696e696f206e6f6e2076616c69646f60701b60448201526064016103a2565b5f80546040516395f9250d60e01b81523360048201526001600160a01b03909116906395f9250d906024015f60405180830381865afa1580156108c6573d5f5f3e3d5ffd5b505050506040513d5f823e601f3d908101601f191682016040526108ed9190810190613af4565b60028054604051630403aa9360e31b81529293505f926001600160a01b039091169163201d5498916109289187918791908d90600401613bc1565b6020604051808303815f875af1158015610944573d5f5f3e3d5ffd5b505050506040513d601f19601f820116820180604052508101906109689190613c04565b9050806109885760405163eb1cd1d160e01b81526004016103a290613c1f565b6109928288612ddc565b61099c8688612f01565b5f828c8c8a426040516020016109b6959493929190613c7e565b60408051601f1981840301815291815281516020928301205f818152600390935291205490915015610a2b5760405163d647364f60e01b815260206004820152601860248201527f50726f706f73616c496420676961206573697374656e7465000000000000000060448201526064016103a2565b60405180610220016040528082815260200184815260200160405180602001604052805f815250815260200160405180602001604052805f81525081526020018d8d8080601f0160208091040260200160405190810160405280939291908181526020018383808284375f92019190915250505090825250604080516020601f8e018190048102820181019092528c815291810191908d908d90819084018382808284375f92018290525093855250505060ff8b16602083015260409091019081526020015f81526020015f81526020015f81526020014281526020015f81526020015f81526020015f815260200188815260200187878080601f0160208091040260200160405190810160405280939291908181526020018383808284375f92018290525093909452505083815260036020908152604090912083518155908301519091506001820190610b809082613d3e565b5060408201516002820190610b959082613d3e565b5060608201516003820190610baa9082613d3e565b5060808201516004820190610bbf9082613d3e565b5060a08201516005820190610bd49082613d3e565b5060c082015160068201805460ff90921660ff1983168117825560e08501519261ffff191617610100836004811115610c0f57610c0f613642565b0217905550610100820151600782015561012082015160088201556101408201516009820155610160820151600a820155610180820151600b8201556101a0820151600c8201556101c0820151600d8201556101e0820151600e820155610200820151600f820190610c819082613d3e565b50905050807f99f7640e6c16a80ae881c9600ccae39a42b5a3b25d57a3081e3c30f1a0e293b8848a8f8f42604051610cbd959493929190613df8565b60405180910390a2505050505050505050505050565b610cdb613422565b5f82815260036020526040902054610d095760405163e2acee5b60e01b8152600481018390526024016103a2565b60035f8381526020019081526020015f20604051806102200160405290815f8201548152602001600182018054610d3f90613cbb565b80601f0160208091040260200160405190810160405280929190818152602001828054610d6b90613cbb565b8015610db65780601f10610d8d57610100808354040283529160200191610db6565b820191905f5260205f20905b815481529060010190602001808311610d9957829003601f168201915b50505050508152602001600282018054610dcf90613cbb565b80601f0160208091040260200160405190810160405280929190818152602001828054610dfb90613cbb565b8015610e465780601f10610e1d57610100808354040283529160200191610e46565b820191905f5260205f20905b815481529060010190602001808311610e2957829003601f168201915b50505050508152602001600382018054610e5f90613cbb565b80601f0160208091040260200160405190810160405280929190818152602001828054610e8b90613cbb565b8015610ed65780601f10610ead57610100808354040283529160200191610ed6565b820191905f5260205f20905b815481529060010190602001808311610eb957829003601f168201915b50505050508152602001600482018054610eef90613cbb565b80601f0160208091040260200160405190810160405280929190818152602001828054610f1b90613cbb565b8015610f665780601f10610f3d57610100808354040283529160200191610f66565b820191905f5260205f20905b815481529060010190602001808311610f4957829003601f168201915b50505050508152602001600582018054610f7f90613cbb565b80601f0160208091040260200160405190810160405280929190818152602001828054610fab90613cbb565b8015610ff65780601f10610fcd57610100808354040283529160200191610ff6565b820191905f5260205f20905b815481529060010190602001808311610fd957829003601f168201915b5050509183525050600682015460ff808216602084015260409092019161010090910416600481111561102b5761102b613642565b600481111561103c5761103c613642565b8152602001600782015481526020016008820154815260200160098201548152602001600a8201548152602001600b8201548152602001600c8201548152602001600d8201548152602001600e8201548152602001600f820180546110a090613cbb565b80601f01602080910402602001604051908101604052809291908181526020018280546110cc90613cbb565b80156111175780601f106110ee57610100808354040283529160200191611117565b820191905f5260205f20905b8154815290600101906020018083116110fa57829003601f168201915b5050505050815250509050919050565b600a54600160a01b900460ff16611151576040516359de1bb360e01b815260040160405180910390fd5b61115a5f6125fb565b5f8190036111a05760405163d647364f60e01b81526020600482015260126024820152715061796c6f6164206e6f6e2076616c69646f60701b60448201526064016103a2565b5f80546040516395f9250d60e01b81523360048201526001600160a01b03909116906395f9250d906024015f60405180830381865afa1580156111e5573d5f5f3e3d5ffd5b505050506040513d5f823e601f3d908101601f1916820160405261120c9190810190613af4565b90505f8185600581111561122257611222613642565b858542604051602001611239959493929190613e39565b60408051601f1981840301815282825280516020918201205f8054633cad168d60e11b86529351919550936001600160a01b039093169263795a2d1a9260048083019391928290030181865afa158015611295573d5f5f3e3d5ffd5b505050506040513d601f19601f820116820180604052508101906112b99190613e73565b9050600481101561130d5760405163d647364f60e01b815260206004820152601c60248201527f4d696e696d6f203420504120617474697665207269636869657374650000000060448201526064016103a2565b5f600461131b836003613e8a565b611326906003613ea7565b6113309190613eba565b905060405180610140016040528084815260200185815260200188600581111561135c5761135c613642565b815260200187878080601f0160208091040260200160405190810160405280939291908181526020018383808284375f9201829052509385525050506020808301829052604080840187905260608401869052608084018390524260a085015260c090930182905286825260068152919020825181559082015160018201906113e59082613d3e565b50604082015160028201805460ff1916600183600581111561140957611409613642565b0217905550606082015160038201906114229082613d3e565b50608082015160048201805460ff19166001838181111561144557611445613642565b021790555060a0820151816005015560c0820151816006015560e0820151816007015561010082015181600801556101208201518160090155905050827f09b9b58daa12861aa71490cf562c992cbd40f8b6043d994963f576752d49a241858985426040516114b79493929190613ed9565b60405180910390a250505050505050565b5f8381526007602052604080822090516114e59085908590613f0c565b9081526040519081900360200190205460ff1690509392505050565b600a54600160a01b900460ff161561152c576040516351e5a70160e11b815260040160405180910390fd5b600a546001600160a01b031633146115575760405163eb1cd1d160e01b81526004016103a2906139d1565b805f0361159b5760405163d647364f60e01b8152602060048201526011602482015270447572617461206e6f6e2076616c69646160781b60448201526064016103a2565b600855565b600a54600160a01b900460ff166115ca576040516359de1bb360e01b815260040160405180910390fd5b5f82900361161b5760405163d647364f60e01b815260206004820152601860248201527f4d6f746976617a696f6e65206f62626c696761746f726961000000000000000060448201526064016103a2565b5f848152600360205260409020805461164a5760405163e2acee5b60e01b8152600481018690526024016103a2565b5f6006820154610100900460ff16600481111561166957611669613642565b14158015611695575060016006820154610100900460ff16600481111561169257611692613642565b14155b156116ca57848160060160019054906101000a900460ff165f604051630cd3468160e11b81526004016103a293929190613f1b565b5f80546040516395f9250d60e01b81523360048201526001600160a01b03909116906395f9250d906024015f60405180830381865afa15801561170f573d5f5f3e3d5ffd5b505050506040513d5f823e601f3d908101601f191682016040526117369190810190613af4565b6002546006840154604051630403aa9360e31b81529293505f926001600160a01b039092169163201d549891611779918891879160019160ff1690600401613bc1565b6020604051808303815f875af1158015611795573d5f5f3e3d5ffd5b505050506040513d601f19601f820116820180604052508101906117b99190613c04565b9050806117d95760405163eb1cd1d160e01b81526004016103a290613c1f565b61186d828460010180546117ec90613cbb565b80601f016020809104026020016040519081016040528092919081815260200182805461181890613cbb565b80156118635780601f1061183a57610100808354040283529160200191611863565b820191905f5260205f20905b81548152906001019060200180831161184657829003601f168201915b5050505050612ff2565b60068301805461ff00191661040017905560405187907fc68d41c52f606ad478346d0387aad7a9d133a706ac62237214209e5cfa656bd1906114b79085908a908a904290613f3c565b600a54600160a01b900460ff16156118e1576040516351e5a70160e11b815260040160405180910390fd5b600a546001600160a01b0316331461190c5760405163eb1cd1d160e01b81526004016103a2906139d1565b6001600160a01b0381166119335760405163d647364f60e01b81526004016103a290613f73565b600280546001600160a01b0319166001600160a01b0383169081179091556040514281527f087f1267d4fc5408cca3ac12c5c6cc6116d58615d9f608a50437fe5a3d76591b906020015b60405180910390a250565b600a54600160a01b900460ff166119b2576040516359de1bb360e01b815260040160405180910390fd5b6119bb5f6125fb565b5f81815260036020526040902080546119ea5760405163e2acee5b60e01b8152600481018390526024016103a2565b60016006820154610100900460ff166004811115611a0a57611a0a613642565b14611a4057818160060160019054906101000a900460ff166001604051630cd3468160e11b81526004016103a293929190613f1b565b600681015460ff165f9081526005602052604090205415611a9457600681015460ff165f8181526005602052604090819020549051633b72a42d60e21b8152600481019290925260248201526044016103a2565b5f80546040516395f9250d60e01b81523360048201526001600160a01b03909116906395f9250d906024015f60405180830381865afa158015611ad9573d5f5f3e3d5ffd5b505050506040513d5f823e601f3d908101601f19168201604052611b009190810190613af4565b90505f826002018054611b1290613cbb565b90501115611c07575f80546040516308c3488f60e31b81526001600160a01b039091169063461a447890611b4d906002870190600401614020565b5f60405180830381865afa158015611b67573d5f5f3e3d5ffd5b505050506040513d5f823e601f3d908101601f19168201604052611b8e91908101906140e1565b905081805190602001208161010001518051906020012014611c055760405163eb1cd1d160e01b815260206004820152602960248201527f536f6c6f206c612050412064656c6567616e74652064656c2050502070756f20604482015268656e646f727361726560b81b60648201526084016103a2565b505b5f5f5f9054906101000a90046001600160a01b03166001600160a01b031663795a2d1a6040518163ffffffff1660e01b8152600401602060405180830381865afa158015611c57573d5f5f3e3d5ffd5b505050506040513d601f19601f82011682018060405250810190611c7b9190613e73565b90506004811015611ccf5760405163d647364f60e01b815260206004820152601c60248201527f4d696e696d6f203420504120617474697665207269636869657374650000000060448201526064016103a2565b5f6004611cdd836003613e8a565b611ce8906003613ea7565b611cf29190613eba565b60068501805461ff001916610200179055905060038401611d138482613d3e565b50600784018290556008840181905542600c8501819055600685015460ff165f90815260056020526040908190208790555186917f4067544317ed866f2116ad5af8ce562d6c1082c8c3702ce87051ddd863e3a7e991611d7891879187918791614207565b60405180910390a25050505050565b611dd660408051610140810182525f8082526060602083015290918201908152606060208201526040015f81526020015f81526020015f81526020015f81526020015f81526020015f81525090565b5f82815260066020526040902054611e045760405163a947a72f60e01b8152600481018390526024016103a2565b60065f8381526020019081526020015f20604051806101400160405290815f8201548152602001600182018054611e3a90613cbb565b80601f0160208091040260200160405190810160405280929190818152602001828054611e6690613cbb565b8015611eb15780601f10611e8857610100808354040283529160200191611eb1565b820191905f5260205f20905b815481529060010190602001808311611e9457829003601f168201915b5050509183525050600282015460209091019060ff166005811115611ed857611ed8613642565b6005811115611ee957611ee9613642565b8152602001600382018054611efd90613cbb565b80601f0160208091040260200160405190810160405280929190818152602001828054611f2990613cbb565b8015611f745780601f10611f4b57610100808354040283529160200191611f74565b820191905f5260205f20905b815481529060010190602001808311611f5757829003601f168201915b5050509183525050600482015460209091019060ff166001811115611f9b57611f9b613642565b6001811115611fac57611fac613642565b81526005820154602082015260068201546040820152600782015460608201526008820154608082015260099091015460a09091015292915050565b600a54600160a01b900460ff16612012576040516359de1bb360e01b815260040160405180910390fd5b61201b5f6125fb565b5f828152600360205260409020805461204a5760405163e2acee5b60e01b8152600481018490526024016103a2565b60026006820154610100900460ff16600481111561206a5761206a613642565b146120a057828160060160019054906101000a900460ff166002604051630cd3468160e11b81526004016103a293929190613f1b565b5f80546040516395f9250d60e01b81523360048201526001600160a01b03909116906395f9250d906024015f60405180830381865afa1580156120e5573d5f5f3e3d5ffd5b505050506040513d5f823e601f3d908101601f1916820160405261210c9190810190613af4565b905060045f8581526020019081526020015f208160405161212d9190613b44565b9081526040519081900360200190205460ff161561216257838160405163994c873360e01b81526004016103a2929190613b4f565b600160045f8681526020019081526020015f20826040516121839190613b44565b908152604051908190036020019020805491151560ff1990921691909117905582156121c057600982018054905f6121ba83613b7b565b91905055505b837f2d9aaba916e00defc29265dec862b99a6bd7c8fe97f54be23e43feaa8a34c62c82858560090154866008015442604051612200959493929190614235565b60405180910390a2816008015482600901541061077457610774846130de565b600a54600160a01b900460ff1661224a576040516359de1bb360e01b815260040160405180910390fd5b5f82815260036020526040902080546122795760405163e2acee5b60e01b8152600481018490526024016103a2565b5f6006820154610100900460ff16600481111561229857612298613642565b146122cd57828160060160019054906101000a900460ff165f604051630cd3468160e11b81526004016103a293929190613f1b565b5f80546040516395f9250d60e01b81523360048201526001600160a01b03909116906395f9250d906024015f60405180830381865afa158015612312573d5f5f3e3d5ffd5b505050506040513d5f823e601f3d908101601f191682016040526123399190810190613af4565b6002546006840154604051630403aa9360e31b81529293505f926001600160a01b039092169163201d54989161237c918891879160019160ff1690600401613bc1565b6020604051808303815f875af1158015612398573d5f5f3e3d5ffd5b505050506040513d601f19601f820116820180604052508101906123bc9190613c04565b9050806123dc5760405163eb1cd1d160e01b81526004016103a290613c1f565b6123ef828460010180546117ec90613cbb565b60068301805461ff0019166101001790556002830161240e8382613d3e565b5042600b840181905560405186917f390b03734d3e7cb04de5e86f95bb24ecf71cad5c7be7d54ec1884b5220ce8a0191611d7891869161426b565b600a54600160a01b900460ff1615612474576040516351e5a70160e11b815260040160405180910390fd5b600a546001600160a01b0316331461249f5760405163eb1cd1d160e01b81526004016103a2906139d1565b6001600160a01b0381166124c65760405163d647364f60e01b81526004016103a290613f73565b5f80546001600160a01b0319166001600160a01b0383169081179091556040514281527fb279d83ea0d87c763b2f6e1457a9572e284339948adf5ad4b58b90ac77cb54079060200161197d565b600a54600160a01b900460ff161561253e576040516351e5a70160e11b815260040160405180910390fd5b600a546001600160a01b031633146125695760405163eb1cd1d160e01b81526004016103a2906139d1565b6001600160a01b0381166125905760405163d647364f60e01b81526004016103a290613f73565b600180546001600160a01b0319166001600160a01b0383169081179091556040514281527f7647c16c0c1f643b4d09d0bd1878b67929ed77287d4160e0374cd74420899d529060200161197d565b5f8381526004602052604080822090516114e59085908590613f0c565b5f80546040516395f9250d60e01b81523360048201526001600160a01b03909116906395f9250d906024015f60405180830381865afa158015612640573d5f5f3e3d5ffd5b505050506040513d5f823e601f3d908101601f191682016040526126679190810190613af4565b905080515f036126ba5760405163eb1cd1d160e01b815260206004820152601860248201527f436869616d616e7465206e6f6e207265676973747261746f000000000000000060448201526064016103a2565b5f80546040516308c3488f60e31b81526001600160a01b039091169063461a4478906126ea90859060040161428c565b5f60405180830381865afa158015612704573d5f5f3e3d5ffd5b505050506040513d5f823e601f3d908101601f1916820160405261272b91908101906140e1565b905082600581111561273f5761273f613642565b8160800151600581111561275557612755613642565b1461279b5760405163eb1cd1d160e01b815260206004820152601560248201527452756f6c6f206e6f6e206175746f72697a7a61746f60581b60448201526064016103a2565b806040015115806127bf57505f8161012001511180156127bf575080610120015142115b156128065760405163eb1cd1d160e01b8152602060048201526016602482015275444944207265766f6361746f206f207363616475746f60501b60448201526064016103a2565b505050565b5f81815260066020526040812060048101805460ff191660011790554260098201556002810154909160ff9091169081600581111561284c5761284c613642565b14806128695750600181600581111561286757612867613642565b145b15612970575f82600301805461287e90613cbb565b80601f01602080910402602001604051908101604052809291908181526020018280546128aa90613cbb565b80156128f55780601f106128cc576101008083540402835291602001916128f5565b820191905f5260205f20905b8154815290600101906020018083116128d857829003601f168201915b505050505080602001905181019061290d9190613af4565b5f54604051633a7239a160e11b81529192506001600160a01b0316906374e473429061293d90849060040161428c565b5f604051808303815f87803b158015612954575f5ffd5b505af1158015612966573d5f5f3e3d5ffd5b5050505050612d94565b600281600581111561298457612984613642565b03612a98575f5f5f84600301805461299b90613cbb565b80601f01602080910402602001604051908101604052809291908181526020018280546129c790613cbb565b8015612a125780601f106129e957610100808354040283529160200191612a12565b820191905f5260205f20905b8154815290600101906020018083116129f557829003601f168201915b5050505050806020019051810190612a2a919061429e565b5f54604051631cd9d56960e11b815293965091945092506001600160a01b0316906339b3aad290612a6390869086908690600401614314565b5f604051808303815f87803b158015612a7a575f5ffd5b505af1158015612a8c573d5f5f3e3d5ffd5b50505050505050612d94565b6003816005811115612aac57612aac613642565b03612b8b575f5f5f846003018054612ac390613cbb565b80601f0160208091040260200160405190810160405280929190818152602001828054612aef90613cbb565b8015612b3a5780601f10612b1157610100808354040283529160200191612b3a565b820191905f5260205f20905b815481529060010190602001808311612b1d57829003601f168201915b5050505050806020019051810190612b52919061429e565b5f54604051632b8585e960e11b815293965091945092506001600160a01b03169063570b0bd290612a6390869086908690600401614314565b6004816005811115612b9f57612b9f613642565b03612c75575f826003018054612bb490613cbb565b80601f0160208091040260200160405190810160405280929190818152602001828054612be090613cbb565b8015612c2b5780601f10612c0257610100808354040283529160200191612c2b565b820191905f5260205f20905b815481529060010190602001808311612c0e57829003601f168201915b5050505050806020019051810190612c439190613e73565b60015460405163f230748f60e01b8152600481018390529192506001600160a01b03169063f230748f9060240161293d565b6005816005811115612c8957612c89613642565b03612d94575f5f836003018054612c9f90613cbb565b80601f0160208091040260200160405190810160405280929190818152602001828054612ccb90613cbb565b8015612d165780601f10612ced57610100808354040283529160200191612d16565b820191905f5260205f20905b815481529060010190602001808311612cf957829003601f168201915b5050505050806020019051810190612d2e9190614351565b600154604051638acbfde560e01b81529294509092506001600160a01b031690638acbfde590612d64908590859060040161439e565b5f604051808303815f87803b158015612d7b575f5ffd5b505af1158015612d8d573d5f5f3e3d5ffd5b5050505050505b600282015460405184917fd5e393722a87335a9931ff0c86c2c030cf316f7820d8459bdce7be06f7b7011e91612dcf9160ff169042906143b9565b60405180910390a2505050565b5f80546040516308c3488f60e31b81526001600160a01b039091169063461a447890612e0c90869060040161428c565b5f60405180830381865afa158015612e26573d5f5f3e3d5ffd5b505050506040513d5f823e601f3d908101601f19168201604052612e4d91908101906140e1565b90505f5b8160a0015151811015612ea7578260ff168260a001518281518110612e7857612e786143d4565b60200260200101516002811115612e9157612e91613642565b60ff1603612e9f5750505050565b600101612e51565b5060405163eb1cd1d160e01b815260206004820152602760248201527f444547206e6f6e2068612073636f70652073756c20646f6d696e696f206469636044820152666869617261746f60c81b60648201526084016103a2565b81612f0a575050565b5f8281526003602052604090208054612f7c5760405163d647364f60e01b815260206004820152602d60248201527f7265706c616365734964206e6f6e20636f72726973706f6e64652061206e657360448201526c73756e612070726f706f73746160981b60648201526084016103a2565b600681015460ff8381169116146128065760405163d647364f60e01b815260206004820152603360248201527f446f6d696e696f2064656c6c612070726f706f737461207265666572656e7a69604482015272617461206e6f6e20636f72726973706f6e646560681b60648201526084016103a2565b5f80546040516308c3488f60e31b81526001600160a01b039091169063461a44789061302290859060040161428c565b5f60405180830381865afa15801561303c573d5f5f3e3d5ffd5b505050506040513d5f823e601f3d908101601f1916820160405261306391908101906140e1565b9050828051906020012081610100015180519060200120146128065760405163eb1cd1d160e01b815260206004820152602d60248201527f5050206e6f6e206520696c2073757065727669736f72652064656c204445472060448201526c736f74746f6d697474656e746560981b60648201526084016103a2565b5f818152600360205260409020600e810154156131a0576001546006820154604051631f09ba7560e01b815260ff90911660048201525f916001600160a01b031690631f09ba7590602401602060405180830381865afa158015613144573d5f5f3e3d5ffd5b505050506040513d601f19601f820116820180604052508101906131689190613e73565b905081600e0154811461319e57600e82015460405163085745e160e01b81526004810191909152602481018290526044016103a2565b505b60015460068201546040516329e4b1d160e11b815260ff90911660048201526001600160a01b03909116906353c963a290602401602060405180830381865afa1580156131ef573d5f5f3e3d5ffd5b505050506040513d601f19601f820116820180604052508101906132139190613c04565b15801561322e575080600f01805461322a90613cbb565b1590505b15613257576006810154604051631cb723df60e31b815260ff90911660048201526024016103a2565b60068101805461030061ff0019821617825542600d84015560ff9081165f908152600560205260408082208290556001549354905163dec0062160e01b815292166004830152916001600160a01b03169063dec0062190602401602060405180830381865afa1580156132cc573d5f5f3e3d5ffd5b505050506040513d601f19601f820116820180604052508101906132f091906143e8565b6132fb90600161440b565b600154600684015460405163695c86c360e11b81529293506001600160a01b039091169163d2b90d869161334791879160048089019260058a019260ff16918991600f8c019101614427565b5f604051808303815f87803b15801561335e575f5ffd5b505af1158015613370573d5f5f3e3d5ffd5b50505050600682015460405184917fa2a49c80fa2c1c3806f37f08e98fdf1da4a84e8bc5b68cfa8d997cbb99ad815c916133b69160ff1690859060048801904290614487565b60405180910390a25f600854426133cd9190613ea7565b90506009548111156133df5760098190555b6009546040805191825242602083015285917f065138e0a3a803628df979157e0c472927b5e1d2d2b93f90994f0fbf1fc1abed910160405180910390a250505050565b6040518061022001604052805f815260200160608152602001606081526020016060815260200160608152602001606081526020015f60ff1681526020015f600481111561347257613472613642565b81526020015f81526020015f81526020015f81526020015f81526020015f81526020015f81526020015f81526020015f8152602001606081525090565b80151581146134bc575f5ffd5b50565b5f5f604083850312156134d0575f5ffd5b8235915060208301356134e2816134af565b809150509250929050565b5f5f83601f8401126134fd575f5ffd5b5081356001600160401b03811115613513575f5ffd5b60208301915083602082850101111561352a575f5ffd5b9250929050565b60ff811681146134bc575f5ffd5b5f5f5f5f5f5f5f5f5f60c08a8c031215613557575f5ffd5b89356001600160401b0381111561356c575f5ffd5b6135788c828d016134ed565b909a5098505060208a01356001600160401b03811115613596575f5ffd5b6135a28c828d016134ed565b90985096505060408a01356135b681613531565b945060608a0135935060808a01356001600160401b038111156135d7575f5ffd5b6135e38c828d016134ed565b9a9d999c50979a9699959894979660a00135949350505050565b5f6020828403121561360d575f5ffd5b5035919050565b5f81518084528060208401602086015e5f602082860101526020601f19601f83011685010191505092915050565b634e487b7160e01b5f52602160045260245ffd5b6005811061366657613666613642565b9052565b60208152815160208201525f60208301516102206040840152613691610240840182613614565b90506040840151601f198483030160608501526136ae8282613614565b9150506060840151601f198483030160808501526136cc8282613614565b9150506080840151601f198483030160a08501526136ea8282613614565b91505060a0840151601f198483030160c08501526137088282613614565b91505060c084015161371f60e085018260ff169052565b5060e0840151613733610100850182613656565b506101008401516101208401526101208401516101408401526101408401516101608401526101608401516101808401526101808401516101a08401526101a08401516101c08401526101c08401516101e08401526101e0840151610200840152610200840151601f19848303016102208501526137b18282613614565b95945050505050565b600681106134bc575f5ffd5b5f5f5f604084860312156137d8575f5ffd5b83356137e3816137ba565b925060208401356001600160401b038111156137fd575f5ffd5b613809868287016134ed565b9497909650939450505050565b5f60208284031215613826575f5ffd5b813561383181613531565b9392505050565b5f5f5f6040848603121561384a575f5ffd5b8335925060208401356001600160401b038111156137fd575f5ffd5b5f5f5f5f60608587031215613879575f5ffd5b8435935060208501356001600160401b03811115613895575f5ffd5b6138a1878288016134ed565b9598909750949560400135949350505050565b6001600160a01b03811681146134bc575f5ffd5b5f602082840312156138d8575f5ffd5b8135613831816138b4565b6006811061366657613666613642565b6002811061366657613666613642565b60208152815160208201525f6020830151610140604084015261392a610160840182613614565b9050604084015161393e60608501826138e3565b506060840151838203601f1901608085015261395a8282613614565b915050608084015161396f60a08501826138f3565b5060a084015160c084015260c084015160e084015260e08401516101008401526101008401516101208401526101208401516101408401528091505092915050565b5f5f604083850312156139c2575f5ffd5b50508035926020909101359150565b60208082526025908201527f536f6c6f20696c206465706c6f79657220647572616e746520696c20626f6f74604082015264073747261760dc1b606082015260800190565b634e487b7160e01b5f52604160045260245ffd5b60405161014081016001600160401b0381118282101715613a4d57613a4d613a16565b60405290565b604051601f8201601f191681016001600160401b0381118282101715613a7b57613a7b613a16565b604052919050565b5f82601f830112613a92575f5ffd5b8151602083015f5f6001600160401b03841115613ab157613ab1613a16565b50601f8301601f1916602001613ac681613a53565b915050828152858383011115613ada575f5ffd5b8282602083015e5f92810160200192909252509392505050565b5f60208284031215613b04575f5ffd5b81516001600160401b03811115613b19575f5ffd5b613b2584828501613a83565b949350505050565b5f81518060208401855e5f93019283525090919050565b5f6138318284613b2d565b828152604060208201525f613b256040830184613614565b634e487b7160e01b5f52601160045260245ffd5b5f60018201613b8c57613b8c613b67565b5060010190565b608081525f613ba56080830187613614565b9415156020830152506040810192909252606090910152919050565b848152608060208201525f613bd96080830186613614565b60ff9485166040840152929093166060909101529392505050565b8051613bff816134af565b919050565b5f60208284031215613c14575f5ffd5b8151613831816134af565b60208082526018908201527f56616c6964617a696f6e65206e6f6e2072697573636974610000000000000000604082015260600190565b81835281816020850137505f828201602090810191909152601f909101601f19169091010190565b608081525f613c906080830188613614565b8281036020840152613ca3818789613c56565b60ff9590951660408401525050606001529392505050565b600181811c90821680613ccf57607f821691505b602082108103613ced57634e487b7160e01b5f52602260045260245ffd5b50919050565b601f82111561280657805f5260205f20601f840160051c81016020851015613d185750805b601f840160051c820191505b81811015613d37575f8155600101613d24565b5050505050565b81516001600160401b03811115613d5757613d57613a16565b613d6b81613d658454613cbb565b84613cf3565b6020601f821160018114613d9d575f8315613d865750848201515b5f19600385901b1c1916600184901b178455613d37565b5f84815260208120601f198516915b82811015613dcc5787850151825560209485019460019092019101613dac565b5084821015613de957868401515f19600387901b60f8161c191681555b50505050600190811b01905550565b608081525f613e0a6080830188613614565b60ff871660208401528281036040840152613e26818688613c56565b9150508260608301529695505050505050565b5f613e448288613b2d565b60f887901b6001600160f81b031916815284866001830137600194019384019290925250506021019392505050565b5f60208284031215613e83575f5ffd5b5051919050565b8082028115828204841417613ea157613ea1613b67565b92915050565b80820180821115613ea157613ea1613b67565b5f82613ed457634e487b7160e01b5f52601260045260245ffd5b500490565b608081525f613eeb6080830187613614565b9050613efa60208301866138e3565b60408201939093526060015292915050565b818382375f9101908152919050565b83815260608101613f2f6020830185613656565b613b256040830184613656565b606081525f613f4e6060830187613614565b8281036020840152613f61818688613c56565b91505082604083015295945050505050565b602080825260149082015273496e646972697a7a6f206e6f6e2076616c69646f60601b604082015260600190565b5f8154613fad81613cbb565b808552600182168015613fc75760018114613fe357614017565b60ff1983166020870152602082151560051b8701019350614017565b845f5260205f205f5b8381101561400e5781546020828a010152600182019150602081019050613fec565b87016020019450505b50505092915050565b602081525f6138316020830184613fa1565b8051613bff816138b4565b805160028110613bff575f5ffd5b8051613bff816137ba565b5f82601f830112614065575f5ffd5b81516001600160401b0381111561407e5761407e613a16565b8060051b61408e60208201613a53565b918252602081850181019290810190868411156140a9575f5ffd5b6020860192505b838310156140d7578251600381106140c6575f5ffd5b8252602092830192909101906140b0565b9695505050505050565b5f602082840312156140f1575f5ffd5b81516001600160401b03811115614106575f5ffd5b82016101408185031215614118575f5ffd5b614120613a2a565b61412982614032565b815260208201516001600160401b03811115614143575f5ffd5b61414f86828501613a83565b60208301525061416160408301613bf4565b60408201526141726060830161403d565b60608201526141836080830161404b565b608082015260a08201516001600160401b038111156141a0575f5ffd5b6141ac86828501614056565b60a08301525060c0828101519082015260e080830151908201526101008201516001600160401b038111156141df575f5ffd5b6141eb86828501613a83565b6101008301525061012091820151918101919091529392505050565b608081525f6142196080830187613614565b6020830195909552506040810192909252606090910152919050565b60a081525f61424760a0830188613614565b95151560208301525060408101939093526060830191909152608090910152919050565b604081525f61427d6040830185613614565b90508260208301529392505050565b602081525f6138316020830184613614565b5f5f5f606084860312156142b0575f5ffd5b83516001600160401b038111156142c5575f5ffd5b6142d186828701613a83565b93505060208401516001600160401b038111156142ec575f5ffd5b6142f886828701613a83565b9250506040840151614309816138b4565b809150509250925092565b606081525f6143266060830186613614565b82810360208401526143388186613614565b91505060018060a01b0383166040830152949350505050565b5f5f60408385031215614362575f5ffd5b825161436d81613531565b60208401519092506001600160401b03811115614388575f5ffd5b61439485828601613a83565b9150509250929050565b60ff83168152604060208201525f613b256040830184613614565b604081016143c782856138e3565b8260208301529392505050565b634e487b7160e01b5f52603260045260245ffd5b5f602082840312156143f8575f5ffd5b815163ffffffff81168114613831575f5ffd5b63ffffffff8181168382160190811115613ea157613ea1613b67565b86815260c060208201525f61443f60c0830188613fa1565b82810360408401526144518188613fa1565b905060ff8616606084015263ffffffff8516608084015282810360a084015261447a8185613fa1565b9998505050505050505050565b60ff8516815263ffffffff84166020820152608060408201525f6144ae6080830185613fa1565b90508260608301529594505050505056fea264697066735822122000a7200b266356c99261a22a46ae7fe9b309c7a8605b4f7af6f8c9540da2a82764736f6c634300081c0033",
  "linkReferences": {},
  "deployedLinkReferences": {},
  "immutableReferences": {},
  "inputSourceName": "project/contracts/GovernanceContract.sol",
  "buildInfoId": "solc-0_8_28-dc178c51bd246fe6ea37bd10ad4f56bece3d398e"
}