{
  "_format": "hh3-artifact-1",
  "contractName": "PolicyRegistry",
  "sourceName": "contracts/PolicyRegistry.sol",
  "abi": [
    {
      "inputs": [],
      "stateMutability": "nonpayable",
      "type": "constructor"
    },
    {
      "inputs": [],
      "name": "BootstrapAlreadyComplete",
      "type": "error"
    },
    {
      "inputs": [],
      "name": "BootstrapNotComplete",
      "type": "error"
    },
    {
      "inputs": [
        {
          "internalType": "uint8",
          "name": "domain",
          "type": "uint8"
        }
      ],
      "name": "DomainHasNoActivePolicy",
      "type": "error"
    },
    {
      "inputs": [
        {
          "internalType": "uint8",
          "name": "domain",
          "type": "uint8"
        }
      ],
      "name": "DomainInvalid",
      "type": "error"
    },
    {
      "inputs": [
        {
          "internalType": "string",
          "name": "reason",
          "type": "string"
        }
      ],
      "name": "InvalidInput",
      "type": "error"
    },
    {
      "inputs": [
        {
          "internalType": "string",
          "name": "reason",
          "type": "string"
        }
      ],
      "name": "NotAuthorized",
      "type": "error"
    },
    {
      "inputs": [
        {
          "internalType": "bytes32",
          "name": "proposalId",
          "type": "bytes32"
        }
      ],
      "name": "PolicyNotActive",
      "type": "error"
    },
    {
      "inputs": [
        {
          "internalType": "bytes32",
          "name": "proposalId",
          "type": "bytes32"
        }
      ],
      "name": "PolicyNotFound",
      "type": "error"
    },
    {
      "inputs": [
        {
          "internalType": "bytes32",
          "name": "proposalId",
          "type": "bytes32"
        }
      ],
      "name": "ProposalIdAlreadyUsed",
      "type": "error"
    },
    {
      "inputs": [
        {
          "internalType": "uint8",
          "name": "domain",
          "type": "uint8"
        }
      ],
      "name": "SafeDefaultRequired",
      "type": "error"
    },
    {
      "anonymous": false,
      "inputs": [
        {
          "indexed": true,
          "internalType": "address",
          "name": "deployer",
          "type": "address"
        },
        {
          "indexed": false,
          "internalType": "address",
          "name": "identityRegistry",
          "type": "address"
        },
        {
          "indexed": false,
          "internalType": "address",
          "name": "governanceContract",
          "type": "address"
        },
        {
          "indexed": false,
          "internalType": "uint256",
          "name": "timestamp",
          "type": "uint256"
        }
      ],
      "name": "BootstrapFinalized",
      "type": "event"
    },
    {
      "anonymous": false,
      "inputs": [
        {
          "indexed": true,
          "internalType": "address",
          "name": "cvc",
          "type": "address"
        },
        {
          "indexed": false,
          "internalType": "uint256",
          "name": "timestamp",
          "type": "uint256"
        }
      ],
      "name": "CVCSet",
      "type": "event"
    },
    {
      "anonymous": false,
      "inputs": [
        {
          "indexed": true,
          "internalType": "bytes32",
          "name": "proposalId",
          "type": "bytes32"
        },
        {
          "indexed": false,
          "internalType": "string",
          "name": "aaDID",
          "type": "string"
        },
        {
          "indexed": false,
          "internalType": "string",
          "name": "appliedCid",
          "type": "string"
        },
        {
          "indexed": false,
          "internalType": "uint256",
          "name": "timestamp",
          "type": "uint256"
        }
      ],
      "name": "EnforcementConfirmed",
      "type": "event"
    },
    {
      "anonymous": false,
      "inputs": [
        {
          "indexed": true,
          "internalType": "address",
          "name": "governance",
          "type": "address"
        },
        {
          "indexed": false,
          "internalType": "uint256",
          "name": "timestamp",
          "type": "uint256"
        }
      ],
      "name": "GovernanceContractSet",
      "type": "event"
    },
    {
      "anonymous": false,
      "inputs": [
        {
          "indexed": true,
          "internalType": "address",
          "name": "registry",
          "type": "address"
        },
        {
          "indexed": false,
          "internalType": "uint256",
          "name": "timestamp",
          "type": "uint256"
        }
      ],
      "name": "IdentityRegistrySet",
      "type": "event"
    },
    {
      "anonymous": false,
      "inputs": [
        {
          "indexed": true,
          "internalType": "bytes32",
          "name": "proposalId",
          "type": "bytes32"
        },
        {
          "indexed": false,
          "internalType": "string",
          "name": "updatedByDID",
          "type": "string"
        },
        {
          "indexed": false,
          "internalType": "string",
          "name": "newCidKeyDistrib",
          "type": "string"
        },
        {
          "indexed": false,
          "internalType": "uint256",
          "name": "timestamp",
          "type": "uint256"
        }
      ],
      "name": "KeyDistribUpdated",
      "type": "event"
    },
    {
      "anonymous": false,
      "inputs": [
        {
          "indexed": true,
          "internalType": "bytes32",
          "name": "proposalId",
          "type": "bytes32"
        },
        {
          "indexed": false,
          "internalType": "uint8",
          "name": "domain",
          "type": "uint8"
        },
        {
          "indexed": false,
          "internalType": "uint32",
          "name": "version",
          "type": "uint32"
        },
        {
          "indexed": false,
          "internalType": "string",
          "name": "cid",
          "type": "string"
        },
        {
          "indexed": false,
          "internalType": "string",
          "name": "cidKeyDistrib",
          "type": "string"
        },
        {
          "indexed": false,
          "internalType": "bytes32",
          "name": "archivedProposalId",
          "type": "bytes32"
        },
        {
          "indexed": false,
          "internalType": "uint256",
          "name": "timestamp",
          "type": "uint256"
        }
      ],
      "name": "PolicyCertified",
      "type": "event"
    },
    {
      "anonymous": false,
      "inputs": [
        {
          "indexed": true,
          "internalType": "bytes32",
          "name": "proposalId",
          "type": "bytes32"
        },
        {
          "indexed": false,
          "internalType": "uint8",
          "name": "domain",
          "type": "uint8"
        },
        {
          "indexed": false,
          "internalType": "uint32",
          "name": "version",
          "type": "uint32"
        },
        {
          "indexed": false,
          "internalType": "string",
          "name": "safeDefaultCid",
          "type": "string"
        },
        {
          "indexed": false,
          "internalType": "uint256",
          "name": "timestamp",
          "type": "uint256"
        }
      ],
      "name": "PolicyRetired",
      "type": "event"
    },
    {
      "anonymous": false,
      "inputs": [
        {
          "indexed": false,
          "internalType": "uint8",
          "name": "domain",
          "type": "uint8"
        },
        {
          "indexed": false,
          "internalType": "string",
          "name": "newSafeDefaultCid",
          "type": "string"
        },
        {
          "indexed": false,
          "internalType": "uint256",
          "name": "timestamp",
          "type": "uint256"
        }
      ],
      "name": "SafeDefaultUpdated",
      "type": "event"
    },
    {
      "inputs": [
        {
          "internalType": "bytes32",
          "name": "proposalId",
          "type": "bytes32"
        },
        {
          "internalType": "string",
          "name": "cid",
          "type": "string"
        },
        {
          "internalType": "string",
          "name": "cidKeyDistrib",
          "type": "string"
        },
        {
          "internalType": "uint8",
          "name": "domain",
          "type": "uint8"
        },
        {
          "internalType": "uint32",
          "name": "version",
          "type": "uint32"
        },
        {
          "internalType": "string",
          "name": "safeDefaultCid",
          "type": "string"
        }
      ],
      "name": "certifyPolicy",
      "outputs": [],
      "stateMutability": "nonpayable",
      "type": "function"
    },
    {
      "inputs": [
        {
          "internalType": "bytes32",
          "name": "proposalId",
          "type": "bytes32"
        },
        {
          "internalType": "string",
          "name": "appliedCid",
          "type": "string"
        },
        {
          "internalType": "bytes32",
          "name": "validationId",
          "type": "bytes32"
        }
      ],
      "name": "confirmEnforcement",
      "outputs": [],
      "stateMutability": "nonpayable",
      "type": "function"
    },
    {
      "inputs": [],
      "name": "finalizeBootstrap",
      "outputs": [],
      "stateMutability": "nonpayable",
      "type": "function"
    },
    {
      "inputs": [
        {
          "internalType": "uint8",
          "name": "domain",
          "type": "uint8"
        }
      ],
      "name": "getActivePolicy",
      "outputs": [
        {
          "internalType": "bytes32",
          "name": "",
          "type": "bytes32"
        }
      ],
      "stateMutability": "view",
      "type": "function"
    },
    {
      "inputs": [
        {
          "internalType": "uint8",
          "name": "domain",
          "type": "uint8"
        }
      ],
      "name": "getActivePolicyRecord",
      "outputs": [
        {
          "components": [
            {
              "internalType": "bytes32",
              "name": "proposalId",
              "type": "bytes32"
            },
            {
              "internalType": "string",
              "name": "cid",
              "type": "string"
            },
            {
              "internalType": "string",
              "name": "cidKeyDistrib",
              "type": "string"
            },
            {
              "internalType": "uint8",
              "name": "domain",
              "type": "uint8"
            },
            {
              "internalType": "uint32",
              "name": "version",
              "type": "uint32"
            },
            {
              "internalType": "enum PolicyRegistry.PolicyStatus",
              "name": "status",
              "type": "uint8"
            },
            {
              "internalType": "uint256",
              "name": "certifiedAt",
              "type": "uint256"
            },
            {
              "internalType": "uint256",
              "name": "updatedAt",
              "type": "uint256"
            }
          ],
          "internalType": "struct PolicyRegistry.PolicyRecord",
          "name": "",
          "type": "tuple"
        }
      ],
      "stateMutability": "view",
      "type": "function"
    },
    {
      "inputs": [],
      "name": "getCVC",
      "outputs": [
        {
          "internalType": "address",
          "name": "",
          "type": "address"
        }
      ],
      "stateMutability": "view",
      "type": "function"
    },
    {
      "inputs": [
        {
          "internalType": "uint8",
          "name": "domain",
          "type": "uint8"
        }
      ],
      "name": "getCurrentVersion",
      "outputs": [
        {
          "internalType": "uint32",
          "name": "",
          "type": "uint32"
        }
      ],
      "stateMutability": "view",
      "type": "function"
    },
    {
      "inputs": [
        {
          "internalType": "uint8",
          "name": "domain",
          "type": "uint8"
        }
      ],
      "name": "getDomainHistory",
      "outputs": [
        {
          "internalType": "bytes32[]",
          "name": "",
          "type": "bytes32[]"
        }
      ],
      "stateMutability": "view",
      "type": "function"
    },
    {
      "inputs": [
        {
          "internalType": "bytes32",
          "name": "proposalId",
          "type": "bytes32"
        }
      ],
      "name": "getEnforcements",
      "outputs": [
        {
          "components": [
            {
              "internalType": "string",
              "name": "aaDID",
              "type": "string"
            },
            {
              "internalType": "string",
              "name": "appliedCid",
              "type": "string"
            },
            {
              "internalType": "uint256",
              "name": "confirmedAt",
              "type": "uint256"
            }
          ],
          "internalType": "struct PolicyRegistry.EnforcementRecord[]",
          "name": "",
          "type": "tuple[]"
        }
      ],
      "stateMutability": "view",
      "type": "function"
    },
    {
      "inputs": [],
      "name": "getGovernanceContract",
      "outputs": [
        {
          "internalType": "address",
          "name": "",
          "type": "address"
        }
      ],
      "stateMutability": "view",
      "type": "function"
    },
    {
      "inputs": [],
      "name": "getIdentityRegistry",
      "outputs": [
        {
          "internalType": "address",
          "name": "",
          "type": "address"
        }
      ],
      "stateMutability": "view",
      "type": "function"
    },
    {
      "inputs": [
        {
          "internalType": "bytes32",
          "name": "proposalId",
          "type": "bytes32"
        }
      ],
      "name": "getPolicy",
      "outputs": [
        {
          "components": [
            {
              "internalType": "bytes32",
              "name": "proposalId",
              "type": "bytes32"
            },
            {
              "internalType": "string",
              "name": "cid",
              "type": "string"
            },
            {
              "internalType": "string",
              "name": "cidKeyDistrib",
              "type": "string"
            },
            {
              "internalType": "uint8",
              "name": "domain",
              "type": "uint8"
            },
            {
              "internalType": "uint32",
              "name": "version",
              "type": "uint32"
            },
            {
              "internalType": "enum PolicyRegistry.PolicyStatus",
              "name": "status",
              "type": "uint8"
            },
            {
              "internalType": "uint256",
              "name": "certifiedAt",
              "type": "uint256"
            },
            {
              "internalType": "uint256",
              "name": "updatedAt",
              "type": "uint256"
            }
          ],
          "internalType": "struct PolicyRegistry.PolicyRecord",
          "name": "",
          "type": "tuple"
        }
      ],
      "stateMutability": "view",
      "type": "function"
    },
    {
      "inputs": [
        {
          "internalType": "uint8",
          "name": "domain",
          "type": "uint8"
        }
      ],
      "name": "getSafeDefault",
      "outputs": [
        {
          "internalType": "string",
          "name": "",
          "type": "string"
        }
      ],
      "stateMutability": "view",
      "type": "function"
    },
    {
      "inputs": [
        {
          "internalType": "uint8",
          "name": "domain",
          "type": "uint8"
        }
      ],
      "name": "hasSafeDefault",
      "outputs": [
        {
          "internalType": "bool",
          "name": "",
          "type": "bool"
        }
      ],
      "stateMutability": "view",
      "type": "function"
    },
    {
      "inputs": [],
      "name": "isBootstrapComplete",
      "outputs": [
        {
          "internalType": "bool",
          "name": "",
          "type": "bool"
        }
      ],
      "stateMutability": "view",
      "type": "function"
    },
    {
      "inputs": [
        {
          "internalType": "bytes32",
          "name": "proposalId",
          "type": "bytes32"
        }
      ],
      "name": "retirePolicy",
      "outputs": [],
      "stateMutability": "nonpayable",
      "type": "function"
    },
    {
      "inputs": [
        {
          "internalType": "address",
          "name": "cvc",
          "type": "address"
        }
      ],
      "name": "setCVC",
      "outputs": [],
      "stateMutability": "nonpayable",
      "type": "function"
    },
    {
      "inputs": [
        {
          "internalType": "address",
          "name": "governance",
          "type": "address"
        }
      ],
      "name": "setGovernanceContract",
      "outputs": [],
      "stateMutability": "nonpayable",
      "type": "function"
    },
    {
      "inputs": [
        {
          "internalType": "address",
          "name": "registry",
          "type": "address"
        }
      ],
      "name": "setIdentityRegistry",
      "outputs": [],
      "stateMutability": "nonpayable",
      "type": "function"
    },
    {
      "inputs": [
        {
          "internalType": "bytes32",
          "name": "proposalId",
          "type": "bytes32"
        },
        {
          "internalType": "string",
          "name": "newCidKeyDistrib",
          "type": "string"
        }
      ],
      "name": "updateKeyDistrib",
      "outputs": [],
      "stateMutability": "nonpayable",
      "type": "function"
    },
    {
      "inputs": [
        {
          "internalType": "uint8",
          "name": "domain",
          "type": "uint8"
        },
        {
          "internalType": "string",
          "name": "newSafeDefaultCid",
          "type": "string"
        }
      ],
      "name": "updateSafeDefault",
      "outputs": [],
      "stateMutability": "nonpayable",
      "type": "function"
    }
  ],
  "bytecode": "0x6080604052348015600e575f5ffd5b50600980546001600160a01b03191633179055612a5a8061002e5f395ff3fe608060405234801561000f575f5ffd5b5060043610610132575f3560e01c80638acbfde5116100b4578063d2b90d8611610079578063d2b90d86146102b1578063d637ee4d146102c4578063dec00621146102d5578063ef2fa85f146102fd578063f230748f1461030e578063fd21f98e14610321575f5ffd5b80638acbfde5146102415780638ec70ef414610254578063a3f685f914610267578063bc4d861b1461027a578063cbf3f8611461029e575f5ffd5b806348fe665a116100fa57806348fe665a146101bb57806353c963a2146101db57806363fb4cc4146101ee5780636fe7e1911461020e57806375d5123c14610221575f5ffd5b806306c7e131146101365780631129753f14610140578063182b4a9b146101535780631d2626f71461017c5780631f09ba751461019a575b5f5ffd5b61013e610334565b005b61013e61014e366004611e8f565b6104fb565b610166610161366004611ec1565b6105cd565b6040516101739190611f08565b60405180910390f35b600954600160a01b900460ff165b6040519015158152602001610173565b6101ad6101a8366004611ec1565b61069a565b604051908152602001610173565b6101ce6101c9366004611ec1565b6106db565b6040516101739190611f4e565b61018a6101e9366004611ec1565b6108f6565b6102016101fc366004611fec565b610948565b6040516101739190612003565b61013e61021c3660046120dc565b610b01565b61023461022f366004611ec1565b610dde565b604051610173919061212a565b61013e61024f36600461216c565b610e6b565b61013e610262366004611e8f565b611041565b6101ce610275366004611fec565b61110c565b5f546001600160a01b03165b6040516001600160a01b039091168152602001610173565b61013e6102ac366004611e8f565b61131f565b61013e6102bf3660046121ba565b6113e9565b6001546001600160a01b0316610286565b6102e86102e3366004611ec1565b611878565b60405163ffffffff9091168152602001610173565b6002546001600160a01b0316610286565b61013e61031c366004611fec565b6118bf565b61013e61032f36600461228c565b611a8f565b600954600160a01b900460ff161561035f576040516351e5a70160e11b815260040160405180910390fd5b6009546001600160a01b031633146103935760405163eb1cd1d160e01b815260040161038a906122ba565b60405180910390fd5b5f546001600160a01b03166103eb5760405163d647364f60e01b815260206004820152601e60248201527f4964656e746974795265676973747279206e6f6e20696d706f737461746f0000604482015260640161038a565b6002546001600160a01b03166104445760405163d647364f60e01b815260206004820181905260248201527f476f7665726e616e6365436f6e7472616374206e6f6e20696d706f737461746f604482015260640161038a565b6001546001600160a01b03166104915760405163d647364f60e01b8152602060048201526011602482015270435643206e6f6e20696d706f737461746f60781b604482015260640161038a565b60098054600160a01b60ff60a01b198216179091555f54600254604080516001600160a01b039384168152918316602083015242908201529116907f23416d29055965cd2676557f8d7bf450dbebe617536c9b9b5c8b4802fcee80ab9060600160405180910390a2565b600954600160a01b900460ff1615610526576040516351e5a70160e11b815260040160405180910390fd5b6009546001600160a01b031633146105515760405163eb1cd1d160e01b815260040161038a906122ba565b6001600160a01b0381166105785760405163d647364f60e01b815260040161038a906122ff565b600280546001600160a01b0319166001600160a01b0383169081179091556040514281527f4bc5327e40eedb632de91eca6002c43fa05aafbb8693def34a712935e47c5748906020015b60405180910390a250565b600954606090600160a01b900460ff166105fa576040516359de1bb360e01b815260040160405180910390fd5b60ff82165f90815260076020526040902080546106169061232d565b80601f01602080910402602001604051908101604052809291908181526020018280546106429061232d565b801561068d5780601f106106645761010080835404028352916020019161068d565b820191905f5260205f20905b81548152906001019060200180831161067057829003601f168201915b505050505090505b919050565b6009545f90600160a01b900460ff166106c6576040516359de1bb360e01b815260040160405180910390fd5b5060ff165f9081526004602052604090205490565b6106e3611e1f565b600954600160a01b900460ff1661070d576040516359de1bb360e01b815260040160405180910390fd5b60ff82165f908152600460205260409020548061074257604051631a62802760e11b815260ff8416600482015260240161038a565b60035f8281526020019081526020015f20604051806101000160405290815f82015481526020016001820180546107789061232d565b80601f01602080910402602001604051908101604052809291908181526020018280546107a49061232d565b80156107ef5780601f106107c6576101008083540402835291602001916107ef565b820191905f5260205f20905b8154815290600101906020018083116107d257829003601f168201915b505050505081526020016002820180546108089061232d565b80601f01602080910402602001604051908101604052809291908181526020018280546108349061232d565b801561087f5780601f106108565761010080835404028352916020019161087f565b820191905f5260205f20905b81548152906001019060200180831161086257829003601f168201915b5050509183525050600382015460ff808216602084015263ffffffff6101008304166040840152606090920191600160281b9091041660028111156108c6576108c6611f1a565b60028111156108d7576108d7611f1a565b8152600482015460208201526005909101546040909101529392505050565b6009545f90600160a01b900460ff16610922576040516359de1bb360e01b815260040160405180910390fd5b60ff82165f908152600760205260408120805461093e9061232d565b9050119050919050565b600954606090600160a01b900460ff16610975576040516359de1bb360e01b815260040160405180910390fd5b5f82815260086020908152604080832080548251818502810185019093528083529193909284015b82821015610af6578382905f5260205f2090600302016040518060600160405290815f820180546109cd9061232d565b80601f01602080910402602001604051908101604052809291908181526020018280546109f99061232d565b8015610a445780601f10610a1b57610100808354040283529160200191610a44565b820191905f5260205f20905b815481529060010190602001808311610a2757829003601f168201915b50505050508152602001600182018054610a5d9061232d565b80601f0160208091040260200160405190810160405280929190818152602001828054610a899061232d565b8015610ad45780601f10610aab57610100808354040283529160200191610ad4565b820191905f5260205f20905b815481529060010190602001808311610ab757829003601f168201915b505050505081526020016002820154815250508152602001906001019061099d565b505050509050919050565b600954600160a01b900460ff16610b2b576040516359de1bb360e01b815260040160405180910390fd5b610b356004611c0e565b505f829003610b875760405163d647364f60e01b815260206004820152601860248201527f434944206170706c696361746f206e6f6e2076616c69646f0000000000000000604482015260640161038a565b5f8481526003602052604090208054610bb65760405163f90d6e6b60e01b81526004810186905260240161038a565b5f80546040516395f9250d60e01b81523360048201526001600160a01b03909116906395f9250d906024015f60405180830381865afa158015610bfb573d5f5f3e3d5ffd5b505050506040513d5f823e601f3d908101601f19168201604052610c22919081019061243d565b6001546003840154604051630403aa9360e31b81529293505f926001600160a01b039092169163201d549891610c64918891879160049160ff16908201612476565b6020604051808303815f875af1158015610c80573d5f5f3e3d5ffd5b505050506040513d601f19601f82011682018060405250810190610ca491906124b8565b905080610cf45760405163eb1cd1d160e01b815260206004820152601860248201527f56616c6964617a696f6e65206e6f6e2072697573636974610000000000000000604482015260640161038a565b60085f8881526020019081526020015f20604051806060016040528084815260200188888080601f0160208091040260200160405190810160405280939291908181526020018383808284375f920182905250938552505042602093840152508354600181018555938152208151919260030201908190610d75908261251d565b5060208201516001820190610d8a908261251d565b50604082015181600201555050867fb9b4d72c8f9f8e300321215ce9e20fa14d538f0a101a74bccd6641f087c5ce4783888842604051610dcd94939291906125ff565b60405180910390a250505050505050565b600954606090600160a01b900460ff16610e0b576040516359de1bb360e01b815260040160405180910390fd5b60ff82165f908152600560209081526040918290208054835181840281018401909452808452909183018282801561068d57602002820191905f5260205f20905b815481526020019060010190808311610e4c5750505050509050919050565b600954600160a01b900460ff16610e95576040516359de1bb360e01b815260040160405180910390fd5b6002546001600160a01b03163314610ec05760405163eb1cd1d160e01b815260040161038a90612636565b60028360ff161115610eea5760405163750aadd960e01b815260ff8416600482015260240161038a565b5f819003610f3b5760405163d647364f60e01b815260206004820152601b60248201527f43494420736166652064656661756c74206e6f6e2076616c69646f0000000000604482015260640161038a565b60ff83165f9081526007602052604090208054610f579061232d565b90505f03610fe25760405163d647364f60e01b815260206004820152604b60248201527f536166652064656661756c74206e6f6e206469636869617261746f3a2075736160448201527f72652063657274696679506f6c69637920706572206c61207072696d6120646960648201526a6368696172617a696f6e6560a81b608482015260a40161038a565b60ff83165f908152600760205260409020610ffe82848361266d565b507fc9b1909bc002257930f86ff17383f5dd754fe1de0b2afc58f12d8bd768b9c5af838383426040516110349493929190612726565b60405180910390a1505050565b600954600160a01b900460ff161561106c576040516351e5a70160e11b815260040160405180910390fd5b6009546001600160a01b031633146110975760405163eb1cd1d160e01b815260040161038a906122ba565b6001600160a01b0381166110be5760405163d647364f60e01b815260040161038a906122ff565b600180546001600160a01b0319166001600160a01b0383169081179091556040514281527f087f1267d4fc5408cca3ac12c5c6cc6116d58615d9f608a50437fe5a3d76591b906020016105c2565b611114611e1f565b600954600160a01b900460ff1661113e576040516359de1bb360e01b815260040160405180910390fd5b5f8281526003602052604090205461116c5760405163f90d6e6b60e01b81526004810183905260240161038a565b60035f8381526020019081526020015f20604051806101000160405290815f82015481526020016001820180546111a29061232d565b80601f01602080910402602001604051908101604052809291908181526020018280546111ce9061232d565b80156112195780601f106111f057610100808354040283529160200191611219565b820191905f5260205f20905b8154815290600101906020018083116111fc57829003601f168201915b505050505081526020016002820180546112329061232d565b80601f016020809104026020016040519081016040528092919081815260200182805461125e9061232d565b80156112a95780601f10611280576101008083540402835291602001916112a9565b820191905f5260205f20905b81548152906001019060200180831161128c57829003601f168201915b5050509183525050600382015460ff808216602084015263ffffffff6101008304166040840152606090920191600160281b9091041660028111156112f0576112f0611f1a565b600281111561130157611301611f1a565b81526004820154602082015260059091015460409091015292915050565b600954600160a01b900460ff161561134a576040516351e5a70160e11b815260040160405180910390fd5b6009546001600160a01b031633146113755760405163eb1cd1d160e01b815260040161038a906122ba565b6001600160a01b03811661139c5760405163d647364f60e01b815260040161038a906122ff565b5f80546001600160a01b0319166001600160a01b0383169081179091556040514281527fb279d83ea0d87c763b2f6e1457a9572e284339948adf5ad4b58b90ac77cb5407906020016105c2565b600954600160a01b900460ff16611413576040516359de1bb360e01b815260040160405180910390fd5b6002546001600160a01b0316331461143e5760405163eb1cd1d160e01b815260040161038a90612636565b886114845760405163d647364f60e01b815260206004820152601560248201527470726f706f73616c4964206e6f6e2076616c69646f60581b604482015260640161038a565b5f89815260036020526040902054156114b3576040516345c2844760e11b8152600481018a905260240161038a565b5f8790036114f55760405163d647364f60e01b815260206004820152600e60248201526d434944206e6f6e2076616c69646f60901b604482015260640161038a565b5f8590036115465760405163d647364f60e01b815260206004820152601f60248201527f434944206b657920646973747269627574696f6e206e6f6e2076616c69646f00604482015260640161038a565b60028460ff1611156115705760405163750aadd960e01b815260ff8516600482015260240161038a565b8263ffffffff165f036115c65760405163d647364f60e01b815260206004820152601860248201527f76657273696f6e206465766520657373657265203e3d20310000000000000000604482015260640161038a565b60ff84165f90815260076020526040902080546115e29061232d565b90505f0361162e575f81900361161057604051631cb723df60e31b815260ff8516600482015260240161038a565b60ff84165f90815260076020526040902061162c82848361266d565b505b60ff84165f908152600460205260408120548015611677575f818152600360208190526040909120908101805465ff00000000001916600160281b179055426005909101559050805b6040518061010001604052808c81526020018b8b8080601f0160208091040260200160405190810160405280939291908181526020018383808284375f92019190915250505090825250604080516020601f8c018190048102820181019092528a815291810191908b908b90819084018382808284375f92018290525093855250505060ff8916602083015263ffffffff8816604083015260609091019081524260208083018290526040928301919091525f8e815260038252919091208251815590820151600182019061174c908261251d565b5060408201516002820190611761908261251d565b506060820151600382018054608085015163ffffffff166101000264ffffffffff1990911660ff909316929092179190911780825560a0840151919065ff00000000001916600160281b8360028111156117bd576117bd611f1a565b021790555060c082015160048281019190915560e09092015160059182015560ff88165f908152602092835260408082208f905560068452808220805463ffffffff191663ffffffff8b1617905591835281812080546001810182559082529290209091018c9055518b907fae8add7b3c060a9ac84e1d3a25af8ed4fb67628d924da33422e768517c2475699061186390899089908f908f908f908f908b904290612753565b60405180910390a25050505050505050505050565b6009545f90600160a01b900460ff166118a4576040516359de1bb360e01b815260040160405180910390fd5b5060ff165f9081526006602052604090205463ffffffff1690565b600954600160a01b900460ff166118e9576040516359de1bb360e01b815260040160405180910390fd5b6002546001600160a01b031633146119145760405163eb1cd1d160e01b815260040161038a90612636565b5f81815260036020526040902080546119435760405163f90d6e6b60e01b81526004810183905260240161038a565b5f6003820154600160281b900460ff16600281111561196457611964611f1a565b1461198557604051632033f8f160e01b81526004810183905260240161038a565b600381015460ff165f81815260076020526040902080546119a59061232d565b90505f036119cb57604051631cb723df60e31b815260ff8216600482015260240161038a565b60ff81165f9081526004602052604090205483146119ff57604051632033f8f160e01b81526004810184905260240161038a565b60038201805465ff0000000000191665020000000000178155426005840181905560ff83165f9081526004602090815260408083208390559354600790915290839020925186937f69e8dead2033262681651171a82904879005ad85137a94a6aeb4ab6d34eb068593611a8293879361010090910463ffffffff169291906127a6565b60405180910390a2505050565b600954600160a01b900460ff16611ab9576040516359de1bb360e01b815260040160405180910390fd5b611ac25f611c0e565b505f819003611b145760405163d647364f60e01b815260206004820152601f60248201527f434944206b657920646973747269627574696f6e206e6f6e2076616c69646f00604482015260640161038a565b5f8381526003602052604090208054611b435760405163f90d6e6b60e01b81526004810185905260240161038a565b5f80546040516395f9250d60e01b81523360048201526001600160a01b03909116906395f9250d906024015f60405180830381865afa158015611b88573d5f5f3e3d5ffd5b505050506040513d5f823e601f3d908101601f19168201604052611baf919081019061243d565b905060028201611bc084868361266d565b50426005830181905560405186917f7e3f8a1f1c5ccd04d6003dece3bf69edefa072dfd1a5e2ceacf35cb9e482bfa491611bff918591899189916125ff565b60405180910390a25050505050565b5f546040516395f9250d60e01b81523360048201526060916001600160a01b0316906395f9250d906024015f60405180830381865afa158015611c53573d5f5f3e3d5ffd5b505050506040513d5f823e601f3d908101601f19168201604052611c7a919081019061243d565b905080515f03611ccd5760405163eb1cd1d160e01b815260206004820152601860248201527f436869616d616e7465206e6f6e207265676973747261746f0000000000000000604482015260640161038a565b5f80546040516308c3488f60e31b81526001600160a01b039091169063461a447890611cfd908590600401611f08565b5f60405180830381865afa158015611d17573d5f5f3e3d5ffd5b505050506040513d5f823e601f3d908101601f19168201604052611d3e91908101906128fe565b9050826005811115611d5257611d52611f1a565b81608001516005811115611d6857611d68611f1a565b14611dae5760405163eb1cd1d160e01b815260206004820152601560248201527452756f6c6f206e6f6e206175746f72697a7a61746f60581b604482015260640161038a565b80604001511580611dd257505f816101200151118015611dd2575080610120015142115b15611e195760405163eb1cd1d160e01b8152602060048201526016602482015275444944207265766f6361746f206f207363616475746f60501b604482015260640161038a565b50919050565b6040518061010001604052805f815260200160608152602001606081526020015f60ff1681526020015f63ffffffff1681526020015f6002811115611e6657611e66611f1a565b81526020015f81526020015f81525090565b6001600160a01b0381168114611e8c575f5ffd5b50565b5f60208284031215611e9f575f5ffd5b8135611eaa81611e78565b9392505050565b803560ff81168114610695575f5ffd5b5f60208284031215611ed1575f5ffd5b611eaa82611eb1565b5f81518084528060208401602086015e5f602082860101526020601f19601f83011685010191505092915050565b602081525f611eaa6020830184611eda565b634e487b7160e01b5f52602160045260245ffd5b60038110611f4a57634e487b7160e01b5f52602160045260245ffd5b9052565b60208152815160208201525f60208301516101006040840152611f75610120840182611eda565b90506040840151601f19848303016060850152611f928282611eda565b91505060ff60608501511660808401526080840151611fb960a085018263ffffffff169052565b5060a0840151611fcc60c0850182611f2e565b5060c084015160e084015260e08401516101008401528091505092915050565b5f60208284031215611ffc575f5ffd5b5035919050565b5f602082016020835280845180835260408501915060408160051b8601019250602086015f5b8281101561208c57603f19878603018452815180516060875261204f6060880182611eda565b9050602082015187820360208901526120688282611eda565b60409384015198909301979097525094506020938401939190910190600101612029565b50929695505050505050565b5f5f83601f8401126120a8575f5ffd5b5081356001600160401b038111156120be575f5ffd5b6020830191508360208285010111156120d5575f5ffd5b9250929050565b5f5f5f5f606085870312156120ef575f5ffd5b8435935060208501356001600160401b0381111561210b575f5ffd5b61211787828801612098565b9598909750949560400135949350505050565b602080825282518282018190525f918401906040840190835b81811015612161578351835260209384019390920191600101612143565b509095945050505050565b5f5f5f6040848603121561217e575f5ffd5b61218784611eb1565b925060208401356001600160401b038111156121a1575f5ffd5b6121ad86828701612098565b9497909650939450505050565b5f5f5f5f5f5f5f5f5f60c08a8c0312156121d2575f5ffd5b8935985060208a01356001600160401b038111156121ee575f5ffd5b6121fa8c828d01612098565b90995097505060408a01356001600160401b03811115612218575f5ffd5b6122248c828d01612098565b9097509550612237905060608b01611eb1565b935060808a013563ffffffff8116811461224f575f5ffd5b925060a08a01356001600160401b03811115612269575f5ffd5b6122758c828d01612098565b915080935050809150509295985092959850929598565b5f5f5f6040848603121561229e575f5ffd5b8335925060208401356001600160401b038111156121a1575f5ffd5b60208082526025908201527f536f6c6f20696c206465706c6f79657220647572616e746520696c20626f6f74604082015264073747261760dc1b606082015260800190565b602080825260149082015273496e646972697a7a6f206e6f6e2076616c69646f60601b604082015260600190565b600181811c9082168061234157607f821691505b602082108103611e1957634e487b7160e01b5f52602260045260245ffd5b634e487b7160e01b5f52604160045260245ffd5b60405161014081016001600160401b03811182821017156123965761239661235f565b60405290565b604051601f8201601f191681016001600160401b03811182821017156123c4576123c461235f565b604052919050565b5f82601f8301126123db575f5ffd5b8151602083015f5f6001600160401b038411156123fa576123fa61235f565b50601f8301601f191660200161240f8161239c565b915050828152858383011115612423575f5ffd5b8282602083015e5f92810160200192909252509392505050565b5f6020828403121561244d575f5ffd5b81516001600160401b03811115612462575f5ffd5b61246e848285016123cc565b949350505050565b848152608060208201525f61248e6080830186611eda565b60ff9485166040840152929093166060909101529392505050565b80518015158114610695575f5ffd5b5f602082840312156124c8575f5ffd5b611eaa826124a9565b601f82111561251857805f5260205f20601f840160051c810160208510156124f65750805b601f840160051c820191505b81811015612515575f8155600101612502565b50505b505050565b81516001600160401b038111156125365761253661235f565b61254a81612544845461232d565b846124d1565b6020601f82116001811461257c575f83156125655750848201515b5f19600385901b1c1916600184901b178455612515565b5f84815260208120601f198516915b828110156125ab578785015182556020948501946001909201910161258b565b50848210156125c857868401515f19600387901b60f8161c191681555b50505050600190811b01905550565b81835281816020850137505f828201602090810191909152601f909101601f19169091010190565b606081525f6126116060830187611eda565b82810360208401526126248186886125d7565b91505082604083015295945050505050565b6020808252601a908201527f536f6c6f20696c20476f7665726e616e6365436f6e7472616374000000000000604082015260600190565b6001600160401b038311156126845761268461235f565b61269883612692835461232d565b836124d1565b5f601f8411600181146126c9575f85156126b25750838201355b5f19600387901b1c1916600186901b178355612515565b5f83815260208120601f198716915b828110156126f857868501358255602094850194600190920191016126d8565b5086821015612714575f1960f88860031b161c19848701351681555b505060018560011b0183555050505050565b60ff85168152606060208201525f6127426060830185876125d7565b905082604083015295945050505050565b60ff8916815263ffffffff8816602082015260c060408201525f61277b60c08301888a6125d7565b828103606084015261278e8187896125d7565b6080840195909552505060a001529695505050505050565b60ff8516815263ffffffff84166020820152608060408201525f5f84546127cc8161232d565b806080860152600182165f81146127ea576001811461280657612837565b60ff19831660a087015260a082151560051b8701019350612837565b875f5260205f205f5b8381101561282e57815488820160a0015260019091019060200161280f565b870160a0019450505b50505060609290920192909252949350505050565b805161069581611e78565b805160028110610695575f5ffd5b805160068110610695575f5ffd5b5f82601f830112612882575f5ffd5b81516001600160401b0381111561289b5761289b61235f565b8060051b6128ab6020820161239c565b918252602081850181019290810190868411156128c6575f5ffd5b6020860192505b838310156128f4578251600381106128e3575f5ffd5b8252602092830192909101906128cd565b9695505050505050565b5f6020828403121561290e575f5ffd5b81516001600160401b03811115612923575f5ffd5b82016101408185031215612935575f5ffd5b61293d612373565b6129468261284c565b815260208201516001600160401b03811115612960575f5ffd5b61296c868285016123cc565b60208301525061297e604083016124a9565b604082015261298f60608301612857565b60608201526129a060808301612865565b608082015260a08201516001600160401b038111156129bd575f5ffd5b6129c986828501612873565b60a08301525060c0828101519082015260e080830151908201526101008201516001600160401b038111156129fc575f5ffd5b612a08868285016123cc565b610100830152506101209182015191810191909152939250505056fea26469706673582212206ad48e206f4d79ef50e33af1edff6a97a9ca13e108435222b441b964b404273c64736f6c634300081c0033",
  "linkReferences": {},
  "deployedLinkReferences": {},
  "immutableReferences": {},
  "inputSourceName": "project/contracts/PolicyRegistry.sol",
  "buildInfoId": "solc-0_8_28-2da5202a840d8f19ddab7859a8f58ba9d46ca044"
}