{
  "_format": "hh3-artifact-1",
  "contractName": "CredentialValidationContract",
  "sourceName": "contracts/CredentialValidationContract.sol",
  "abi": [
    {
      "inputs": [],
      "stateMutability": "nonpayable",
      "type": "constructor"
    },
    {
      "inputs": [],
      "name": "AuditWindowClosed",
      "type": "error"
    },
    {
      "inputs": [],
      "name": "BootstrapAlreadyComplete",
      "type": "error"
    },
    {
      "inputs": [],
      "name": "BootstrapNotComplete",
      "type": "error"
    },
    {
      "inputs": [
        {
          "internalType": "string",
          "name": "expected",
          "type": "string"
        },
        {
          "internalType": "string",
          "name": "provided",
          "type": "string"
        }
      ],
      "name": "HolderMismatch",
      "type": "error"
    },
    {
      "inputs": [
        {
          "internalType": "string",
          "name": "reason",
          "type": "string"
        }
      ],
      "name": "InvalidInput",
      "type": "error"
    },
    {
      "inputs": [
        {
          "internalType": "string",
          "name": "reason",
          "type": "string"
        }
      ],
      "name": "NotAuthorized",
      "type": "error"
    },
    {
      "inputs": [
        {
          "internalType": "bytes32",
          "name": "validationId",
          "type": "bytes32"
        }
      ],
      "name": "ValidationAlreadyUsed",
      "type": "error"
    },
    {
      "inputs": [
        {
          "internalType": "bytes32",
          "name": "validationId",
          "type": "bytes32"
        }
      ],
      "name": "ValidationExpired",
      "type": "error"
    },
    {
      "inputs": [
        {
          "internalType": "bytes32",
          "name": "validationId",
          "type": "bytes32"
        }
      ],
      "name": "ValidationNotFound",
      "type": "error"
    },
    {
      "anonymous": false,
      "inputs": [
        {
          "indexed": true,
          "internalType": "address",
          "name": "deployer",
          "type": "address"
        },
        {
          "indexed": false,
          "internalType": "uint256",
          "name": "timestamp",
          "type": "uint256"
        }
      ],
      "name": "BootstrapFinalized",
      "type": "event"
    },
    {
      "anonymous": false,
      "inputs": [
        {
          "indexed": true,
          "internalType": "address",
          "name": "governance",
          "type": "address"
        },
        {
          "indexed": false,
          "internalType": "uint256",
          "name": "timestamp",
          "type": "uint256"
        }
      ],
      "name": "GovernanceContractSet",
      "type": "event"
    },
    {
      "anonymous": false,
      "inputs": [
        {
          "indexed": true,
          "internalType": "address",
          "name": "registry",
          "type": "address"
        },
        {
          "indexed": false,
          "internalType": "uint256",
          "name": "timestamp",
          "type": "uint256"
        }
      ],
      "name": "IdentityRegistrySet",
      "type": "event"
    },
    {
      "anonymous": false,
      "inputs": [
        {
          "indexed": true,
          "internalType": "bytes32",
          "name": "validationId",
          "type": "bytes32"
        },
        {
          "indexed": false,
          "internalType": "address",
          "name": "consumer",
          "type": "address"
        },
        {
          "indexed": false,
          "internalType": "uint256",
          "name": "timestamp",
          "type": "uint256"
        }
      ],
      "name": "ValidationConsumed",
      "type": "event"
    },
    {
      "anonymous": false,
      "inputs": [
        {
          "indexed": true,
          "internalType": "bytes32",
          "name": "validationId",
          "type": "bytes32"
        },
        {
          "indexed": false,
          "internalType": "string",
          "name": "holderDID",
          "type": "string"
        },
        {
          "indexed": false,
          "internalType": "uint8",
          "name": "role",
          "type": "uint8"
        },
        {
          "indexed": false,
          "internalType": "uint8",
          "name": "domain",
          "type": "uint8"
        },
        {
          "indexed": false,
          "internalType": "uint256",
          "name": "expiresAt",
          "type": "uint256"
        },
        {
          "indexed": false,
          "internalType": "uint256",
          "name": "timestamp",
          "type": "uint256"
        }
      ],
      "name": "ValidationRegistered",
      "type": "event"
    },
    {
      "inputs": [],
      "name": "VALIDATION_TTL",
      "outputs": [
        {
          "internalType": "uint256",
          "name": "",
          "type": "uint256"
        }
      ],
      "stateMutability": "view",
      "type": "function"
    },
    {
      "inputs": [
        {
          "internalType": "bytes32",
          "name": "validationId",
          "type": "bytes32"
        },
        {
          "internalType": "string",
          "name": "expectedDID",
          "type": "string"
        },
        {
          "internalType": "uint8",
          "name": "expectedRole",
          "type": "uint8"
        },
        {
          "internalType": "uint8",
          "name": "expectedDomain",
          "type": "uint8"
        }
      ],
      "name": "consumeValidation",
      "outputs": [
        {
          "internalType": "bool",
          "name": "",
          "type": "bool"
        }
      ],
      "stateMutability": "nonpayable",
      "type": "function"
    },
    {
      "inputs": [],
      "name": "finalizeBootstrap",
      "outputs": [],
      "stateMutability": "nonpayable",
      "type": "function"
    },
    {
      "inputs": [],
      "name": "getGovernanceContract",
      "outputs": [
        {
          "internalType": "address",
          "name": "",
          "type": "address"
        }
      ],
      "stateMutability": "view",
      "type": "function"
    },
    {
      "inputs": [],
      "name": "getIdentityRegistry",
      "outputs": [
        {
          "internalType": "address",
          "name": "",
          "type": "address"
        }
      ],
      "stateMutability": "view",
      "type": "function"
    },
    {
      "inputs": [
        {
          "internalType": "bytes32",
          "name": "validationId",
          "type": "bytes32"
        }
      ],
      "name": "getValidation",
      "outputs": [
        {
          "components": [
            {
              "internalType": "string",
              "name": "holderDID",
              "type": "string"
            },
            {
              "internalType": "uint8",
              "name": "role",
              "type": "uint8"
            },
            {
              "internalType": "uint8",
              "name": "domain",
              "type": "uint8"
            },
            {
              "internalType": "uint256",
              "name": "validatedAt",
              "type": "uint256"
            },
            {
              "internalType": "uint256",
              "name": "expiresAt",
              "type": "uint256"
            },
            {
              "internalType": "bool",
              "name": "used",
              "type": "bool"
            }
          ],
          "internalType": "struct CredentialValidationContract.ValidationRecord",
          "name": "",
          "type": "tuple"
        }
      ],
      "stateMutability": "view",
      "type": "function"
    },
    {
      "inputs": [],
      "name": "isBootstrapComplete",
      "outputs": [
        {
          "internalType": "bool",
          "name": "",
          "type": "bool"
        }
      ],
      "stateMutability": "view",
      "type": "function"
    },
    {
      "inputs": [
        {
          "internalType": "bytes32",
          "name": "validationId",
          "type": "bytes32"
        }
      ],
      "name": "isValidationUsable",
      "outputs": [
        {
          "internalType": "bool",
          "name": "",
          "type": "bool"
        }
      ],
      "stateMutability": "view",
      "type": "function"
    },
    {
      "inputs": [
        {
          "internalType": "bytes32",
          "name": "validationId",
          "type": "bytes32"
        },
        {
          "internalType": "string",
          "name": "holderDID",
          "type": "string"
        },
        {
          "internalType": "uint8",
          "name": "role",
          "type": "uint8"
        },
        {
          "internalType": "uint8",
          "name": "domain",
          "type": "uint8"
        },
        {
          "internalType": "uint256",
          "name": "vcExpiresAt",
          "type": "uint256"
        }
      ],
      "name": "registerValidation",
      "outputs": [],
      "stateMutability": "nonpayable",
      "type": "function"
    },
    {
      "inputs": [
        {
          "internalType": "address",
          "name": "governance",
          "type": "address"
        }
      ],
      "name": "setGovernanceContract",
      "outputs": [],
      "stateMutability": "nonpayable",
      "type": "function"
    },
    {
      "inputs": [
        {
          "internalType": "address",
          "name": "registry",
          "type": "address"
        }
      ],
      "name": "setIdentityRegistry",
      "outputs": [],
      "stateMutability": "nonpayable",
      "type": "function"
    },
    {
      "inputs": [
        {
          "internalType": "address",
          "name": "registry",
          "type": "address"
        }
      ],
      "name": "setPolicyRegistry",
      "outputs": [],
      "stateMutability": "nonpayable",
      "type": "function"
    }
  ],
  "bytecode": "0x6080604052348015600e575f5ffd5b50600480546001600160a01b031916331790556114688061002e5f395ff3fe608060405234801561000f575f5ffd5b50600436106100b1575f3560e01c80638b5b01561161006e5780638b5b01561461012e578063a8091fc314610145578063bc4d861b14610165578063cbf3f86114610189578063e015c85d1461019c578063ef2fa85f146101af575f5ffd5b806306c7e131146100b55780630fd4217e146100bf5780631129753f146100d25780631d2626f7146100e5578063201d5498146101085780634ed8c9b21461011b575b5f5ffd5b6100bd6101c0565b005b6100bd6100cd366004610ea0565b61037f565b6100bd6100e0366004610f12565b6107cf565b600454600160a01b900460ff165b60405190151581526020015b60405180910390f35b6100f3610116366004610f38565b6108a1565b6100f3610129366004610fa2565b610b50565b61013761012c81565b6040519081526020016100ff565b610158610153366004610fa2565b610b8c565b6040516100ff9190610fe7565b5f546001600160a01b03165b6040516001600160a01b0390911681526020016100ff565b6100bd610197366004610f12565b610cdd565b6100bd6101aa366004610f12565b610da7565b6001546001600160a01b0316610171565b600454600160a01b900460ff16156101eb576040516351e5a70160e11b815260040160405180910390fd5b6004546001600160a01b0316331461021f5760405163eb1cd1d160e01b815260040161021690611048565b60405180910390fd5b5f546001600160a01b03166102775760405163d647364f60e01b815260206004820152601e60248201527f4964656e746974795265676973747279206e6f6e20696d706f737461746f00006044820152606401610216565b6001546001600160a01b03166102d05760405163d647364f60e01b815260206004820181905260248201527f476f7665726e616e6365436f6e7472616374206e6f6e20696d706f737461746f6044820152606401610216565b6002546001600160a01b03166103295760405163d647364f60e01b815260206004820152601c60248201527f506f6c6963795265676973747279206e6f6e20696d706f737461746f000000006044820152606401610216565b60048054600160a01b60ff60a01b198216179091556040514281526001600160a01b03909116907f9801a6b1e8682e27f2f663cc8c1cbbd14d87e5533cfc932338d8b4dd458bf5b29060200160405180910390a2565b600454600160a01b900460ff166103a9576040516359de1bb360e01b815260040160405180910390fd5b856103f75760405163d647364f60e01b815260206004820152601760248201527f76616c69646174696f6e4964206e6f6e2076616c69646f0000000000000000006044820152606401610216565b5f84900361043a5760405163d647364f60e01b815260206004820152600f60248201526e686f6c6465724449442076756f746f60881b6044820152606401610216565b5f86815260036020526040902060020154156104995760405163d647364f60e01b815260206004820152601b60248201527f76616c69646174696f6e496420676961207265676973747261746f00000000006044820152606401610216565b5f80546040516395f9250d60e01b81523360048201526001600160a01b03909116906395f9250d906024015f60405180830381865afa1580156104de573d5f5f3e3d5ffd5b505050506040513d5f823e601f3d908101601f1916820160405261050591908101906110a1565b90508585604051610517929190611154565b604051809103902081805190602001201461054b578585826040516345e9a49b60e11b81526004016102169392919061118b565b5f5460405163c8902a2160e01b81526001600160a01b039091169063c8902a219061057c90899089906004016111ba565b602060405180830381865afa158015610597573d5f5f3e3d5ffd5b505050506040513d601f19601f820116820180604052508101906105bb91906111d5565b6105f95760405163eb1cd1d160e01b815260206004820152600e60248201526d444944206e6f6e2061747469766f60901b6044820152606401610216565b60021960ff8516016106965760015f9054906101000a90046001600160a01b03166001600160a01b0316639782132b6040518163ffffffff1660e01b8152600401602060405180830381865afa158015610655573d5f5f3e3d5ffd5b505050506040513d601f19601f8201168201806040525081019061067991906111d5565b6106965760405163113f272360e21b815260040160405180910390fd5b5f6106a361012c426111f4565b6040805160e06020601f8b01819004028201810190925260c081018981529293509182918a908a90819085018382808284375f92018290525093855250505060ff8089166020808501919091529088166040808501919091524260608501526080840186905260a09093018290528b8252600390522081518190610727908261129d565b50602082015160018201805460408086015160ff9081166101000261ffff19909316941693909317179055606083015160028301556080830151600383015560a0909201516004909101805491151560ff19929092169190911790555188907ffd1fccb9206b91ea7acdfe3c7a58dce71a0ad9b618e63b795ce2124cd31159d1906107bd908a908a908a908a9088904290611358565b60405180910390a25050505050505050565b600454600160a01b900460ff16156107fa576040516351e5a70160e11b815260040160405180910390fd5b6004546001600160a01b031633146108255760405163eb1cd1d160e01b815260040161021690611048565b6001600160a01b03811661084c5760405163d647364f60e01b815260040161021690611393565b600180546001600160a01b0319166001600160a01b0383169081179091556040514281527f4bc5327e40eedb632de91eca6002c43fa05aafbb8693def34a712935e47c5748906020015b60405180910390a250565b6004545f90600160a01b900460ff166108cd576040516359de1bb360e01b815260040160405180910390fd5b6001546001600160a01b031633148015906108f357506002546001600160a01b03163314155b156109525760405163eb1cd1d160e01b815260206004820152602860248201527f536f6c6f20476f7665726e616e6365436f6e7472616374206f20506f6c696379604482015267526567697374727960c01b6064820152608401610216565b5f86815260036020526040812060028101549091036109875760405163260bf7bf60e21b815260048101889052602401610216565b80600301544211156109af576040516345cac65d60e11b815260048101889052602401610216565b600481015460ff16156109d857604051635ef58dc760e11b815260048101889052602401610216565b85856040516109e8929190611154565b604051908190038120906109fd9083906113c1565b604051809103902014610a495760405163eb1cd1d160e01b8152602060048201526013602482015272444944206e6f6e20636f72726973706f6e646560681b6044820152606401610216565b600181015460ff858116911614610a9b5760405163eb1cd1d160e01b815260206004820152601560248201527452756f6c6f206e6f6e20636f72726973706f6e646560581b6044820152606401610216565b600181015460ff8481166101009092041614610afa5760405163eb1cd1d160e01b815260206004820152601760248201527f446f6d696e696f206e6f6e20636f72726973706f6e64650000000000000000006044820152606401610216565b60048101805460ff191660011790556040805133815242602082015288917fb333b84305414474c9d092bf37fa9dcb9deec22d8c16726cfb2db1c9dc30af9b910160405180910390a25060019695505050505050565b5f818152600360205260408120600281015415801590610b755750600481015460ff16155b8015610b85575080600301544211155b9392505050565b6040805160c08101825260608082525f6020830181905292820183905281018290526080810182905260a08101919091525f828152600360205260408120600201549003610bf05760405163260bf7bf60e21b815260048101839052602401610216565b5f8281526003602052604090819020815160c08101909252805482908290610c1790611219565b80601f0160208091040260200160405190810160405280929190818152602001828054610c4390611219565b8015610c8e5780601f10610c6557610100808354040283529160200191610c8e565b820191905f5260205f20905b815481529060010190602001808311610c7157829003601f168201915b5050509183525050600182015460ff8082166020840152610100909104811660408301526002830154606083015260038301546080830152600490920154909116151560a09091015292915050565b600454600160a01b900460ff1615610d08576040516351e5a70160e11b815260040160405180910390fd5b6004546001600160a01b03163314610d335760405163eb1cd1d160e01b815260040161021690611048565b6001600160a01b038116610d5a5760405163d647364f60e01b815260040161021690611393565b5f80546001600160a01b0319166001600160a01b0383169081179091556040514281527fb279d83ea0d87c763b2f6e1457a9572e284339948adf5ad4b58b90ac77cb540790602001610896565b600454600160a01b900460ff1615610dd2576040516351e5a70160e11b815260040160405180910390fd5b6004546001600160a01b03163314610dfd5760405163eb1cd1d160e01b815260040161021690611048565b6001600160a01b038116610e245760405163d647364f60e01b815260040161021690611393565b600280546001600160a01b0319166001600160a01b0392909216919091179055565b5f5f83601f840112610e56575f5ffd5b50813567ffffffffffffffff811115610e6d575f5ffd5b602083019150836020828501011115610e84575f5ffd5b9250929050565b803560ff81168114610e9b575f5ffd5b919050565b5f5f5f5f5f5f60a08789031215610eb5575f5ffd5b86359550602087013567ffffffffffffffff811115610ed2575f5ffd5b610ede89828a01610e46565b9096509450610ef1905060408801610e8b565b9250610eff60608801610e8b565b9150608087013590509295509295509295565b5f60208284031215610f22575f5ffd5b81356001600160a01b0381168114610b85575f5ffd5b5f5f5f5f5f60808688031215610f4c575f5ffd5b85359450602086013567ffffffffffffffff811115610f69575f5ffd5b610f7588828901610e46565b9095509350610f88905060408701610e8b565b9150610f9660608701610e8b565b90509295509295909350565b5f60208284031215610fb2575f5ffd5b5035919050565b5f81518084528060208401602086015e5f602082860101526020601f19601f83011685010191505092915050565b602081525f825160c0602084015261100260e0840182610fb9565b905060ff602085015116604084015260ff604085015116606084015260608401516080840152608084015160a084015260a0840151151560c08401528091505092915050565b60208082526025908201527f536f6c6f20696c206465706c6f79657220647572616e746520696c20626f6f74604082015264073747261760dc1b606082015260800190565b634e487b7160e01b5f52604160045260245ffd5b5f602082840312156110b1575f5ffd5b815167ffffffffffffffff8111156110c7575f5ffd5b8201601f810184136110d7575f5ffd5b805167ffffffffffffffff8111156110f1576110f161108d565b604051601f8201601f19908116603f0116810167ffffffffffffffff811182821017156111205761112061108d565b604052818152828201602001861015611137575f5ffd5b8160208401602083015e5f91810160200191909152949350505050565b818382375f9101908152919050565b81835281816020850137505f828201602090810191909152601f909101601f19169091010190565b604081525f61119e604083018587611163565b82810360208401526111b08185610fb9565b9695505050505050565b602081525f6111cd602083018486611163565b949350505050565b5f602082840312156111e5575f5ffd5b81518015158114610b85575f5ffd5b8082018082111561121357634e487b7160e01b5f52601160045260245ffd5b92915050565b600181811c9082168061122d57607f821691505b60208210810361124b57634e487b7160e01b5f52602260045260245ffd5b50919050565b601f82111561129857805f5260205f20601f840160051c810160208510156112765750805b601f840160051c820191505b81811015611295575f8155600101611282565b50505b505050565b815167ffffffffffffffff8111156112b7576112b761108d565b6112cb816112c58454611219565b84611251565b6020601f8211600181146112fd575f83156112e65750848201515b5f19600385901b1c1916600184901b178455611295565b5f84815260208120601f198516915b8281101561132c578785015182556020948501946001909201910161130c565b508482101561134957868401515f19600387901b60f8161c191681555b50505050600190811b01905550565b60a081525f61136b60a08301888a611163565b60ff968716602084015294909516604082015260608101929092526080909101529392505050565b602080825260149082015273496e646972697a7a6f206e6f6e2076616c69646f60601b604082015260600190565b5f5f83546113ce81611219565b6001821680156113e557600181146113fa57611427565b60ff1983168652811515820286019350611427565b865f5260205f205f5b8381101561141f57815488820152600190910190602001611403565b505081860193505b50919594505050505056fea264697066735822122072ea17b3c906b911916c0d38701663d2ed5caac7d3f018fa0961125786a9ad6064736f6c634300081c0033",
  "linkReferences": {},
  "deployedLinkReferences": {},
  "immutableReferences": {},
  "inputSourceName": "project/contracts/CredentialValidationContract.sol",
  "buildInfoId": "solc-0_8_28-2da5202a840d8f19ddab7859a8f58ba9d46ca044"
}